{
  "address": "0x47C573AAa77De0328E8aC59Ab5D6859d8DB2765E",
  "abi": [
    {
      "inputs": [],
      "stateMutability": "nonpayable",
      "type": "constructor"
    },
    {
      "anonymous": false,
      "inputs": [
        {
          "indexed": false,
          "internalType": "address",
          "name": "userAddress",
          "type": "address"
        },
        {
          "indexed": false,
          "internalType": "uint256",
          "name": "userId",
          "type": "uint256"
        }
      ],
      "name": "AddressIdConnection",
      "type": "event"
    },
    {
      "anonymous": false,
      "inputs": [
        {
          "indexed": false,
          "internalType": "uint8",
          "name": "version",
          "type": "uint8"
        }
      ],
      "name": "Initialized",
      "type": "event"
    },
    {
      "anonymous": false,
      "inputs": [
        {
          "indexed": true,
          "internalType": "address",
          "name": "previousOwner",
          "type": "address"
        },
        {
          "indexed": true,
          "internalType": "address",
          "name": "newOwner",
          "type": "address"
        }
      ],
      "name": "OwnershipTransferred",
      "type": "event"
    },
    {
      "anonymous": false,
      "inputs": [
        {
          "indexed": false,
          "internalType": "uint64",
          "name": "requestId",
          "type": "uint64"
        }
      ],
      "name": "RequestRegistered",
      "type": "event"
    },
    {
      "anonymous": false,
      "inputs": [
        {
          "indexed": false,
          "internalType": "address",
          "name": "userAddress",
          "type": "address"
        },
        {
          "components": [
            {
              "internalType": "uint64",
              "name": "requestId",
              "type": "uint64"
            },
            {
              "internalType": "uint256[]",
              "name": "inputs",
              "type": "uint256[]"
            },
            {
              "internalType": "uint256[2]",
              "name": "a",
              "type": "uint256[2]"
            },
            {
              "internalType": "uint256[2][2]",
              "name": "b",
              "type": "uint256[2][2]"
            },
            {
              "internalType": "uint256[2]",
              "name": "c",
              "type": "uint256[2]"
            }
          ],
          "indexed": false,
          "internalType": "struct IScenarioVerifier.ZKP[]",
          "name": "zkps",
          "type": "tuple[]"
        }
      ],
      "name": "SubmitedAllZKPsForUser",
      "type": "event"
    },
    {
      "anonymous": false,
      "inputs": [
        {
          "indexed": false,
          "internalType": "address",
          "name": "userAddress",
          "type": "address"
        },
        {
          "indexed": false,
          "internalType": "uint64",
          "name": "requestId",
          "type": "uint64"
        }
      ],
      "name": "UserAllowedForRequest",
      "type": "event"
    },
    {
      "anonymous": false,
      "inputs": [
        {
          "indexed": false,
          "internalType": "address",
          "name": "userAddress",
          "type": "address"
        }
      ],
      "name": "UserAllowedForScenario",
      "type": "event"
    },
    {
      "anonymous": false,
      "inputs": [
        {
          "indexed": false,
          "internalType": "uint64",
          "name": "requestId",
          "type": "uint64"
        },
        {
          "indexed": false,
          "internalType": "bytes",
          "name": "data",
          "type": "bytes"
        },
        {
          "indexed": false,
          "internalType": "contract ICircuitValidator",
          "name": "validator",
          "type": "address"
        },
        {
          "indexed": false,
          "internalType": "string",
          "name": "metadata",
          "type": "string"
        }
      ],
      "name": "ZKPRequestSet",
      "type": "event"
    },
    {
      "inputs": [],
      "name": "REQUESTS_RETURN_LIMIT",
      "outputs": [
        {
          "internalType": "uint256",
          "name": "",
          "type": "uint256"
        }
      ],
      "stateMutability": "view",
      "type": "function"
    },
    {
      "inputs": [
        {
          "internalType": "address",
          "name": "",
          "type": "address"
        }
      ],
      "name": "addressToId",
      "outputs": [
        {
          "internalType": "uint256",
          "name": "",
          "type": "uint256"
        }
      ],
      "stateMutability": "view",
      "type": "function"
    },
    {
      "inputs": [
        {
          "components": [
            {
              "internalType": "uint64",
              "name": "requestId",
              "type": "uint64"
            },
            {
              "internalType": "uint256[]",
              "name": "inputs",
              "type": "uint256[]"
            },
            {
              "internalType": "uint256[2]",
              "name": "a",
              "type": "uint256[2]"
            },
            {
              "internalType": "uint256[2][2]",
              "name": "b",
              "type": "uint256[2][2]"
            },
            {
              "internalType": "uint256[2]",
              "name": "c",
              "type": "uint256[2]"
            }
          ],
          "internalType": "struct IScenarioVerifier.ZKP[]",
          "name": "zkps",
          "type": "tuple[]"
        }
      ],
      "name": "allowUserForScenario",
      "outputs": [
        {
          "internalType": "bool",
          "name": "",
          "type": "bool"
        }
      ],
      "stateMutability": "nonpayable",
      "type": "function"
    },
    {
      "inputs": [
        {
          "internalType": "address",
          "name": "user",
          "type": "address"
        }
      ],
      "name": "finalizeAllowListScenario",
      "outputs": [
        {
          "internalType": "bool",
          "name": "",
          "type": "bool"
        }
      ],
      "stateMutability": "nonpayable",
      "type": "function"
    },
    {
      "inputs": [
        {
          "internalType": "uint64",
          "name": "requestId",
          "type": "uint64"
        }
      ],
      "name": "getZKPRequest",
      "outputs": [
        {
          "components": [
            {
              "internalType": "string",
              "name": "metadata",
              "type": "string"
            },
            {
              "internalType": "contract ICircuitValidator",
              "name": "validator",
              "type": "address"
            },
            {
              "internalType": "bytes",
              "name": "data",
              "type": "bytes"
            }
          ],
          "internalType": "struct IZKPVerifier.ZKPRequest",
          "name": "",
          "type": "tuple"
        }
      ],
      "stateMutability": "view",
      "type": "function"
    },
    {
      "inputs": [
        {
          "internalType": "uint256",
          "name": "startIndex",
          "type": "uint256"
        },
        {
          "internalType": "uint256",
          "name": "length",
          "type": "uint256"
        }
      ],
      "name": "getZKPRequests",
      "outputs": [
        {
          "components": [
            {
              "internalType": "string",
              "name": "metadata",
              "type": "string"
            },
            {
              "internalType": "contract ICircuitValidator",
              "name": "validator",
              "type": "address"
            },
            {
              "internalType": "bytes",
              "name": "data",
              "type": "bytes"
            }
          ],
          "internalType": "struct IZKPVerifier.ZKPRequest[]",
          "name": "",
          "type": "tuple[]"
        }
      ],
      "stateMutability": "view",
      "type": "function"
    },
    {
      "inputs": [],
      "name": "getZKPRequestsCount",
      "outputs": [
        {
          "internalType": "uint256",
          "name": "",
          "type": "uint256"
        }
      ],
      "stateMutability": "view",
      "type": "function"
    },
    {
      "inputs": [
        {
          "internalType": "uint256",
          "name": "",
          "type": "uint256"
        }
      ],
      "name": "idToAddress",
      "outputs": [
        {
          "internalType": "address",
          "name": "",
          "type": "address"
        }
      ],
      "stateMutability": "view",
      "type": "function"
    },
    {
      "inputs": [
        {
          "internalType": "address",
          "name": "newOwner",
          "type": "address"
        }
      ],
      "name": "initialize",
      "outputs": [],
      "stateMutability": "nonpayable",
      "type": "function"
    },
    {
      "inputs": [
        {
          "internalType": "address",
          "name": "user",
          "type": "address"
        }
      ],
      "name": "isAllowedForScenario",
      "outputs": [
        {
          "internalType": "bool",
          "name": "",
          "type": "bool"
        }
      ],
      "stateMutability": "view",
      "type": "function"
    },
    {
      "inputs": [
        {
          "internalType": "uint64",
          "name": "",
          "type": "uint64"
        }
      ],
      "name": "isRuleIdRegistered",
      "outputs": [
        {
          "internalType": "bool",
          "name": "",
          "type": "bool"
        }
      ],
      "stateMutability": "view",
      "type": "function"
    },
    {
      "inputs": [],
      "name": "owner",
      "outputs": [
        {
          "internalType": "address",
          "name": "",
          "type": "address"
        }
      ],
      "stateMutability": "view",
      "type": "function"
    },
    {
      "inputs": [
        {
          "internalType": "address",
          "name": "",
          "type": "address"
        },
        {
          "internalType": "uint64",
          "name": "",
          "type": "uint64"
        }
      ],
      "name": "proofs",
      "outputs": [
        {
          "internalType": "bool",
          "name": "",
          "type": "bool"
        }
      ],
      "stateMutability": "view",
      "type": "function"
    },
    {
      "inputs": [
        {
          "internalType": "uint64",
          "name": "",
          "type": "uint64"
        },
        {
          "internalType": "address",
          "name": "",
          "type": "address"
        }
      ],
      "name": "queryRequestWhitelist",
      "outputs": [
        {
          "internalType": "bool",
          "name": "",
          "type": "bool"
        }
      ],
      "stateMutability": "view",
      "type": "function"
    },
    {
      "inputs": [
        {
          "internalType": "uint256",
          "name": "",
          "type": "uint256"
        }
      ],
      "name": "registeredRuleIDs",
      "outputs": [
        {
          "internalType": "uint64",
          "name": "",
          "type": "uint64"
        }
      ],
      "stateMutability": "view",
      "type": "function"
    },
    {
      "inputs": [],
      "name": "renounceOwnership",
      "outputs": [],
      "stateMutability": "nonpayable",
      "type": "function"
    },
    {
      "inputs": [
        {
          "internalType": "uint64",
          "name": "requestId",
          "type": "uint64"
        }
      ],
      "name": "requestIdExists",
      "outputs": [
        {
          "internalType": "bool",
          "name": "",
          "type": "bool"
        }
      ],
      "stateMutability": "view",
      "type": "function"
    },
    {
      "inputs": [
        {
          "internalType": "address",
          "name": "",
          "type": "address"
        }
      ],
      "name": "scenarioAllowList",
      "outputs": [
        {
          "internalType": "bool",
          "name": "",
          "type": "bool"
        }
      ],
      "stateMutability": "view",
      "type": "function"
    },
    {
      "inputs": [
        {
          "internalType": "uint64",
          "name": "requestId",
          "type": "uint64"
        },
        {
          "components": [
            {
              "internalType": "string",
              "name": "metadata",
              "type": "string"
            },
            {
              "internalType": "contract ICircuitValidator",
              "name": "validator",
              "type": "address"
            },
            {
              "internalType": "bytes",
              "name": "data",
              "type": "bytes"
            }
          ],
          "internalType": "struct IZKPVerifier.ZKPRequest",
          "name": "request",
          "type": "tuple"
        }
      ],
      "name": "setNexeraZKPRequest",
      "outputs": [],
      "stateMutability": "nonpayable",
      "type": "function"
    },
    {
      "inputs": [
        {
          "internalType": "uint64",
          "name": "requestId",
          "type": "uint64"
        },
        {
          "components": [
            {
              "internalType": "string",
              "name": "metadata",
              "type": "string"
            },
            {
              "internalType": "contract ICircuitValidator",
              "name": "validator",
              "type": "address"
            },
            {
              "internalType": "bytes",
              "name": "data",
              "type": "bytes"
            }
          ],
          "internalType": "struct IZKPVerifier.ZKPRequest",
          "name": "request",
          "type": "tuple"
        }
      ],
      "name": "setZKPRequest",
      "outputs": [],
      "stateMutability": "nonpayable",
      "type": "function"
    },
    {
      "inputs": [
        {
          "internalType": "uint64",
          "name": "requestId",
          "type": "uint64"
        },
        {
          "internalType": "uint256[]",
          "name": "inputs",
          "type": "uint256[]"
        },
        {
          "internalType": "uint256[2]",
          "name": "a",
          "type": "uint256[2]"
        },
        {
          "internalType": "uint256[2][2]",
          "name": "b",
          "type": "uint256[2][2]"
        },
        {
          "internalType": "uint256[2]",
          "name": "c",
          "type": "uint256[2]"
        }
      ],
      "name": "submitZKPResponse",
      "outputs": [],
      "stateMutability": "nonpayable",
      "type": "function"
    },
    {
      "inputs": [
        {
          "internalType": "address",
          "name": "newOwner",
          "type": "address"
        }
      ],
      "name": "transferOwnership",
      "outputs": [],
      "stateMutability": "nonpayable",
      "type": "function"
    }
  ],
  "transactionHash": "0x7d3697d3f7533f8868a573173037443573f669dd68c9583090086b0ae9581878",
  "args": [],
  "numDeployments": 1,
  "solcInputHash": "8d3bb7f8c27c0084713dcb21e4e094f3",
  "bytecode": "0x60808060405234610129576000805462010000600160b01b0319811633601081811b62010000600160b01b031692831780865593959294929360ff9390929187901c6001600160a01b0316907f8be0079c531659141344cd1fd0a4f28419497f9722a3daafe3b4186f6b6457e09086a360081c166100d7575060ff80831603610092575b60405161211e908161012f8239f35b60ff9161ff01600160b01b03191617176000557f7f26b83ff96e1f2b6a682f133852f6798a09c465da95921460cefb3847402498602060405160ff8152a13880610083565b62461bcd60e51b815260206004820152602760248201527f496e697469616c697a61626c653a20636f6e747261637420697320696e697469604482015266616c697a696e6760c81b6064820152608490fd5b600080fdfe60806040526004361015610013575b600080fd5b60003560e01c806315be5190146101c25780631905e7b1146101b9578063197bf195146101b05780632a2d0c47146101a7578063398cfb76146101955780635f9e60d71461019e57806360fc1cb5146101955780636508e1b41461018c5780636d76b36314610183578063715018a61461017a57806371941da5146101715780638da5cb5b146101685780639f5223e01461015f578063a9b9e3e114610156578063ab7bcfb71461014d578063b45c0fdf14610144578063b68967e21461013b578063c4d66de814610132578063c76d084514610129578063cb0e0d7d14610120578063f2fde38b146101175763f82ddf0a1461010f57600080fd5b61000e610eab565b5061000e610e19565b5061000e610dda565b5061000e610d37565b5061000e610c38565b5061000e610ac9565b5061000e610a6a565b5061000e610a42565b5061000e610a10565b5061000e610892565b5061000e610826565b5061000e6107dc565b5061000e610708565b5061000e61069d565b5061000e61067d565b5061000e6103f4565b5061000e610521565b5061000e6103ad565b5061000e610368565b5061000e61031f565b5061000e6101fb565b9181601f8401121561000e578235916001600160401b03831161000e576020808501948460051b01011161000e57565b503461000e5760208060031936011261000e576001600160401b039060043582811161000e5761022f9036906004016101cb565b9160005b838110610291576040517fefbe0f7f95f99f3446b18c397ba10fec2af0a6ef272d84266ccb64303fd469ef908061026c87873384611fdd565b0390a161028d61027b33611e86565b60405190151581529081906020820190565b0390f35b61029c818585611f84565b35906102a78261033d565b6102b2818686611f84565b8381013590601e198136030182121561000e570180359087821161000e578401928160051b3603841361000e576001936103199260406102f3868b8b611f84565b01906080610302878c8c611f84565b0192610100610312888d8d611f84565b0194611170565b01610233565b503461000e57600036600319011261000e5760206040516103e88152f35b6001600160401b0381160361000e57565b6001600160401b03166000526101f6602052604060002090565b503461000e57602036600319011261000e576001600160401b0360043561038e8161033d565b16600052610228602052602060ff604060002054166040519015158152f35b503461000e57602036600319011261000e5760043560005261022b602052602060018060a01b0360406000205416604051908152f35b6001600160a01b0381160361000e57565b503461000e57602036600319011261000e57600435610412816103e3565b60018060a01b031660005261022a602052602060ff604060002054166040519015158152f35b60005b83811061044b5750506000910152565b818101518382015260200161043b565b9060209161047481518092818552858086019101610438565b601f01601f1916010190565b6104bc916040610499835160608452606084019061045b565b9260018060a01b036020820151166020840152015190604081840391015261045b565b90565b602080820190808352835180925260408301928160408460051b8301019501936000915b8483106104f35750505050505090565b9091929394958480610511600193603f198682030187528a51610480565b98019301930191949392906104e3565b503461000e57604036600319011261000e576004356024356101f754908015610638576103e881116105fb576105629061055c8385106118a6565b836118ee565b908082116105f3575b5061057e610579838361181f565b611834565b91805b828110610596576040518061028d86826104bf565b806105e86105c46105bf6105ac6105ee95610786565b90546001600160401b039160031b1c1690565b61034e565b6105d76105d1868561181f565b916112a4565b6105e18289611884565b5286611884565b506117b4565b610581565b90503861056b565b60405162461bcd60e51b815260206004820152601560248201527413195b99dd1a081b1a5b5a5d08195e18d959591959605a1b6044820152606490fd5b60405162461bcd60e51b815260206004820152601f60248201527f4c656e6774682073686f756c642062652067726561746572207468616e2030006044820152606490fd5b503461000e57600036600319011261000e5760206101f754604051908152f35b503461000e57604036600319011261000e57602060ff6106fc6004356106c28161033d565b6001600160401b03602435916106d7836103e3565b16600052610229845260406000209060018060a01b0316600052602052604060002090565b54166040519015158152f35b503461000e5760008060031936011261076c576107236118fb565b805462010000600160b01b03198116825560405190829060101c6001600160a01b03167f8be0079c531659141344cd1fd0a4f28419497f9722a3daafe3b4186f6b6457e08284a3f35b80fd5b50634e487b7160e01b600052603260045260246000fd5b906101f780548310156107ab575b600052601860206000208360021c019260031b1690565b6107b361076f565b610794565b9061022780548310156107ab57600052601860206000208360021c019260031b1690565b503461000e57602036600319011261000e5760043561022790815481101561000e576020916000526001600160401b03826000208260021c015460c06040519360061b161c168152f35b503461000e57600036600319011261000e5760005460405160109190911c6001600160a01b03168152602090f35b9060031960408184011261000e5760043561086e8161033d565b92602435916001600160401b03831161000e578260609203011261000e5760040190565b503461000e576108a136610854565b906108aa6118fb565b6001600160401b039060009180821683526020936101f6855260408420916108d282806115e6565b918211610a03575b6108ee826108e886546111d4565b86611618565b8590601f8311600114610982579261095a61093788998561096d9896610964966002996109729d92610977575b50508160011b916000199060031b1c19161786555b830161166c565b6001850180546001600160a01b0319166001600160a01b03909216919091179055565b60408101906115e6565b92909101611676565b61174b565b604051f35b01359050388061091b565b601f1983169161099786600052602060002090565b92885b8181106109ec57506109729899600186610964966002999661095a9661096d9c9a61093797106109d2575b505050811b018655610930565b0135600019600384901b60f8161c191690553880806109c5565b91938a60018192878701358155019501920161099a565b610a0b61109c565b6108da565b503461000e57602036600319011261000e576020610a38600435610a33816103e3565b611e86565b6040519015158152f35b503461000e57602036600319011261000e576020610a38600435610a658161033d565b6117d0565b503461000e57604036600319011261000e57602060ff6106fc600435610a8f816103e3565b60243590610a9c8261033d565b60018060a01b03166000526101f584526040600020906001600160401b0316600052602052604060002090565b503461000e5761014036600319011261000e57600435610ae88161033d565b6001600160401b039060243582811161000e57610b099036906004016101cb565b90923660841161000e57366101041161000e57366101441161000e57821660009081526101f660205260409020600101546001600160a01b031615610be257610be092610bda91610b7f610b6f6001610b618761034e565b01546001600160a01b031690565b610b7a368486611122565b611bc3565b610b8b33828487611482565b503360009081526101f560205260409020610bc990610bbc90866001600160401b0316600052602052604060002090565b805460ff19166001179055565b610bd28461034e565b503691611122565b90611d9c565b005b60405162461bcd60e51b815260206004820152602860248201527f76616c696461746f72206973206e6f742073657420666f7220746869732072656044820152671c5d595cdd081a5960c21b6064820152608490fd5b503461000e57602036600319011261000e57600435610c56816103e3565b610c9a60005491610c7e60ff8460081c161580948195610d18575b8115610cf8575b50611a20565b82610c91600160ff196000541617600055565b610cdf57611956565b610ca057005b610cb061ff001960005416600055565b604051600181527f7f26b83ff96e1f2b6a682f133852f6798a09c465da95921460cefb384740249890602090a1005b610cf361010061ff00196000541617600055565b611956565b303b15915081610d0a575b5038610c78565b6001915060ff161438610d03565b600160ff8216109150610c71565b9060206104bc928181520190610480565b503461000e57602036600319011261000e57600435610d558161033d565b610d5d6115c6565b50610d67816117d0565b15610d9a576001600160401b03166000526101f660205261028d610d8e60406000206112a4565b60405191829182610d26565b60405162461bcd60e51b81526020600482015260186024820152771c995c5d595cdd081a5908191bd95cdb89dd08195e1a5cdd60421b6044820152606490fd5b503461000e57602036600319011261000e57600435610df8816103e3565b60018060a01b031660005261022c6020526020604060002054604051908152f35b503461000e57602036600319011261000e57600435610e37816103e3565b610e3f6118fb565b6001600160a01b03811615610e5757610be090611956565b60405162461bcd60e51b815260206004820152602660248201527f4f776e61626c653a206e6577206f776e657220697320746865207a65726f206160448201526564647265737360d01b6064820152608490fd5b503461000e57610eba36610854565b90610ec36118fb565b610ecb6118fb565b6001600160401b039060009180821683526020936101f685526040842091610ef382806115e6565b91821161108f575b610f09826108e886546111d4565b8590601f8311600114610fef5792610fce610fbf8899857febf5fc5d525575febff148871346e1458de02c705c900ba0bc9b5361d5eba08a9896610fdc96610fc7996109729d92610fe4575b50508160011b916000199060031b1c19161786555b830194610f9c610f798761166c565b6001830180546001600160a01b0319166001600160a01b03909216919091179055565b610fb06002604086019261096484886115e6565b610fb98961174b565b836115e6565b95909461166c565b91806115e6565b9160405195869589876119da565b0390a1611a83565b013590503880610f55565b601f1983169161100486600052602060002090565b92885b81811061107857506109729899600186610fdc96610fc79996610fce967febf5fc5d525575febff148871346e1458de02c705c900ba0bc9b5361d5eba08a9c9a610fbf971061105e575b505050811b018655610f6a565b0135600019600384901b60f8161c19169055388080611051565b91938a600181928787013581550195019201611007565b61109761109c565b610efb565b50634e487b7160e01b600052604160045260246000fd5b606081019081106001600160401b038211176110ce57604052565b6110d661109c565b604052565b90601f801991011681019081106001600160401b038211176110ce57604052565b6020906001600160401b038111611115575b60051b0190565b61111d61109c565b61110e565b929161112d826110fc565b9161113b60405193846110db565b829481845260208094019160051b810192831161000e57905b8282106111615750505050565b81358152908301908301611154565b939492949190916001600160401b0385166000526101f660205260018060a01b036001604060002001541615610be2576111d295610bda94610b8b926111c86111bd6001610b618b61034e565b610b7a36888a611122565b339285878a611589565b565b90600182811c92168015611204575b60208310146111ee57565b634e487b7160e01b600052602260045260246000fd5b91607f16916111e3565b906000929180549161121f836111d4565b9182825260019384811690816000146112815750600114611241575b50505050565b90919394506000526020928360002092846000945b83861061126d57505050500101903880808061123b565b805485870183015294019385908201611256565b9294505050602093945060ff191683830152151560051b0101903880808061123b565b906002604080516112b4816110b3565b6112fd819583516112d0816112c9818561120e565b03826110db565b835260018101546001600160a01b0316602084015283519485916112f69183910161120e565b03846110db565b0152565b81835290916001600160fb1b03831161000e5760209260051b809284830137010190565b60409137565b9392919061134191610140808752860191611301565b9060409384604460208301376084946000606083015b6002821061137d5750506104bc94955061010460e083013761012081840391015261045b565b828082818b6001953701980191019096611357565b9291906113ab9197969497610140808652850191611301565b936040809260208501376000606084015b600282106113df5750506104bc95965060e083013761012081840391015261045b565b838082818c60019537019901910190976113bc565b9060189291635307e79f60e01b8152611417825180936020600485019101610438565b01906bffffffffffffffffffffffff199060601b1660048201520190565b3d1561147d573d906001600160401b038211611470575b60405191611464601f8201601f1916602001846110db565b82523d6000602084013e565b61147861109c565b61144c565b606090565b9160006115096114fd60206114e3956114ef85996114a86114a3889b61034e565b6112a4565b926114bf60408501516040519a8b9388850161132b565b03906114d3601f19928381018b528a6110db565b604051998a918683019a8b6113f4565b039081018952886110db565b01516001600160a01b031690565b6001600160a01b031690565b9251925af1611516611435565b8115611520575090565b80511561152f57805190602001fd5b60405162461bcd60e51b815260206004820152602c60248201527f4661696c656420746f207665726966792070726f6f6620776974686f7574207260448201526b32bb32b93a103932b0b9b7b760a11b6064820152608490fd5b60206114e3956114ef600099611509956114bf8c9b998c999a6115b16114a36114fd9a61034e565b966040880151926040519d8e968b8801611392565b604051906115d3826110b3565b6060604083828152600060208201520152565b903590601e198136030182121561000e57018035906001600160401b03821161000e5760200191813603831361000e57565b90601f811161162657505050565b600091825260208220906020601f850160051c83019410611662575b601f0160051c01915b82811061165757505050565b81815560010161164b565b9092508290611642565b356104bc816103e3565b9092916001600160401b03811161173e575b61169c8161169684546111d4565b84611618565b6000601f82116001146116d657819293946000926116cb575b50508160011b916000199060031b1c1916179055565b0135905038806116b5565b601f198216946116eb84600052602060002090565b91805b87811061172657508360019596971061170c575b505050811b019055565b0135600019600384901b60f8161c19169055388080611702565b909260206001819286860135815501940191016116ee565b61174661109c565b611688565b6101f7805461176c91600160401b821015611790575b600182019055610786565b819291549060031b916001600160401b039283811b93849216901b16911916179055565b61179861109c565b611761565b50634e487b7160e01b600052601160045260246000fd5b60019060001981146117c4570190565b6117cc61179d565b0190565b6101f7549060005b8281106117e757505050600090565b6117f081610786565b90546001600160401b03908185169260031b1c161461181757611812906117b4565b6117d8565b505050600190565b9190820391821161182c57565b6111d261179d565b9061183e826110fc565b61184b60405191826110db565b828152809261185c601f19916110fc565b019060005b82811061186d57505050565b6020906118786115c6565b82828501015201611861565b6020918151811015611899575b60051b010190565b6118a161076f565b611891565b156118ad57565b60405162461bcd60e51b8152602060048201526019602482015278537461727420696e646578206f7574206f6620626f756e647360381b6044820152606490fd5b9190820180921161182c57565b60005460101c6001600160a01b0316330361191257565b606460405162461bcd60e51b815260206004820152602060248201527f4f776e61626c653a2063616c6c6572206973206e6f7420746865206f776e65726044820152fd5b6000805462010000600160b01b03198116601084811b62010000600160b01b03169190911783556040516001600160a01b03948516949290911c909116917f8be0079c531659141344cd1fd0a4f28419497f9722a3daafe3b4186f6b6457e091a3565b908060209392818452848401376000828201840152601f01601f1916010190565b916104bc969495936001600160401b03611a02931684526080602085015260808401916119b9565b6001600160a01b0390941660408201528084036060909101526119b9565b15611a2757565b60405162461bcd60e51b815260206004820152602e60248201527f496e697469616c697a61626c653a20636f6e747261637420697320616c72656160448201526d191e481a5b9a5d1a585b1a5e995960921b6064820152608490fd5b6001600160401b0380821691826000526102288060205260ff6040600020541615611aae5750505050565b83611b3e937f56b7ddf97528e633ab570995fc0cf2e93f6eb557b29e5d715965018a34f4295e95611af6610227805490600160401b821015611b4a575b6001820190556107b8565b909283549160031b90811b9283911b169119161790556000526020526040600020600160ff19825416179055604051918291829190916001600160401b036020820193169052565b0390a13880808061123b565b611b5261109c565b611aeb565b9081602091031261000e575190565b15611b6d57565b60405162461bcd60e51b815260206004820152602860248201527f6164647265737320696e2070726f6f66206973206e6f7420612073656e646572604482015267206164647265737360c01b6064820152608490fd5b906040519163b16a394f60e01b83526020600484015260096024840152686368616c6c656e676560b81b604484015260208360648160018060a01b038096165afa928315611c63576111d293611c2b92611c2592600092611c33575b50611884565b51611c6f565b163314611b66565b611c5591925060203d8111611c5c575b611c4d81836110db565b810190611b57565b9038611c1f565b503d611c43565b6040513d6000823e3d90fd5b6014908060081c9060081b907eff000000ff000000ff000000ff000000ff000000ff000000ff000000ff00007fff000000ff000000ff000000ff000000ff000000ff000000ff000000ff0000007dff000000ff000000ff000000ff000000ff000000ff000000ff000000ff0084167cff000000ff000000ff000000ff000000ff000000ff000000ff000000ff84161760101b931691161760101c177bffffffff00000000ffffffff00000000ffffffff00000000ffffffff80198260201b169160201c161777ffffffffffffffff0000000000000000ffffffffffffffff80198260401b169160401c161760405190604082018281106001600160401b03821117611d8f575b604052602082528060801b9060801c176020820152015190565b611d9761109c565b611d75565b907f681ea469fc50f02bc3788c40f25e78e5eaa619484685a28003af83fb0dc8dd6791815160011015611e79575b60409182015133600081815261022c602090815285822084905583825261022b905284812080546001600160a01b03191690921790915591611e60916001600160401b0391907f646b8bd6cf28645be11999db4a2cdbe4fdd61ea8f95a3877ffc1258f903be3c29086908151903382526020820152a1168083526102296020908152928490203360009081529352604090922090565b600160ff198254161790558151903382526020820152a1565b611e8161076f565b611dca565b600190816102279081546000925b818410611f17575b50505050611f1181611ef784611ee67f14e9c7a267790ab46f2189d66cb068dbf65a27e7f844cb8aded907134d3646749560018060a01b031660005261022a602052604060002090565b9060ff801983541691151516179055565b6040516001600160a01b0390911681529081906020820190565b0390a190565b80919293955060005261022960206001600160401b03816000208860021c015460c08960061b161c1660005252611f6e611f678560406000209060018060a01b0316600052602052604060002090565b5460ff1690565b948515611f7f578301929190611e94565b611e9c565b9190811015611fa8575b60051b8101359061013e198136030182121561000e570190565b611fb061076f565b611f8e565b6000915b60028310611fc657505050565b600190604081818581943701920192019190611fb9565b92906040938481019160018060a01b031681528260209286848401525260608101600590606085831b84010196866000945b8786106120225750505050505050505090565b909192939495969798605f19828203018552893561013e198436030181121561000e5783018035916120538361033d565b6001600160401b03809316815289820135601e198336030181121561000e578201908a8235920193821161000e5781891b3603841361000e576120d58b936120a960019686956101408088880152860191611301565b926120b88a82018b8401611325565b6120c86080808301908401611fb5565b6101008091019101611325565b9b0195019601949397969592919061200f56fea264697066735822122077bb4f4d8edc2fb97ae2f6f9515f4d9dbbe3d9c1c1ea44ef474cb005cac51dda64736f6c63430008100033",
  "devdoc": {
    "events": {
      "AddressIdConnection(address,uint256)": {
        "details": "Event emitted when an address is associated with a Polygon ID"
      },
      "RequestRegistered(uint64)": {
        "details": "Event emitted when a ZKPRequest is registered in the verifier"
      },
      "SubmitedAllZKPsForUser(address,(uint64,uint256[],uint256[2],uint256[2][2],uint256[2])[])": {
        "details": "Event emitted when all ZKPs for a user are submitted"
      },
      "UserAllowedForRequest(address,uint64)": {
        "details": "Event emitted when a user address is allowed for a request ID"
      },
      "UserAllowedForScenario(address)": {
        "details": "Event emitted when an address is allowed for the scenario verifier"
      }
    },
    "kind": "dev",
    "methods": {
      "allowUserForScenario((uint64,uint256[],uint256[2],uint256[2][2],uint256[2])[])": {
        "params": {
          "zkps": "Array of ZKPs to submit"
        },
        "returns": {
          "_0": "Boolean indicating the success of the operation"
        }
      },
      "finalizeAllowListScenario(address)": {
        "details": "Once the user is allowed for all rules, call this function to finalize (this is more gas efficient than iterating over rules on every submission)",
        "params": {
          "user": "The address of the user to check"
        },
        "returns": {
          "_0": "isUserWhitelisted True if the user is allowed for all rules"
        }
      },
      "initialize(address)": {
        "details": "Initialize proxied contract with owner",
        "params": {
          "newOwner": "The address of the thing owner"
        }
      },
      "isAllowedForScenario(address)": {
        "params": {
          "user": "The address of the user to check"
        },
        "returns": {
          "_0": "Boolean indicating if the user is allowed for the scenario"
        }
      },
      "owner()": {
        "details": "Returns the address of the current owner."
      },
      "renounceOwnership()": {
        "details": "Leaves the contract without owner. It will not be possible to call `onlyOwner` functions. Can only be called by the current owner. NOTE: Renouncing ownership will leave the contract without an owner, thereby disabling any functionality that is only available to the owner."
      },
      "setNexeraZKPRequest(uint64,(string,address,bytes))": {
        "params": {
          "request": "The ZKP request data.",
          "requestId": "The ID of the request to be set."
        }
      },
      "transferOwnership(address)": {
        "details": "Transfers ownership of the contract to a new account (`newOwner`). Can only be called by the current owner."
      }
    },
    "title": "ScenarioVerifier",
    "version": 1
  },
  "userdoc": {
    "kind": "user",
    "methods": {
      "allowUserForScenario((uint64,uint256[],uint256[2],uint256[2][2],uint256[2])[])": {
        "notice": "Submits all ZKPs and allowlists a user in one call"
      },
      "finalizeAllowListScenario(address)": {
        "notice": "Finalizes the whitelisting of a user for all rules"
      },
      "isAllowedForScenario(address)": {
        "notice": "Checks if a user is allowed for the scenario"
      },
      "setNexeraZKPRequest(uint64,(string,address,bytes))": {
        "notice": "Sets a Nexera ZKP request and emits an event."
      }
    },
    "notice": "This contract manages rules for a scenario using ZKP requests, including setting a request for a rule and allowing users who submit the right ZKPs",
    "version": 1
  },
  "storageLayout": {
    "storage": [
      {
        "astId": 3607,
        "contract": "contracts/zkpVerifiers/ScenarioVerifier.sol:ScenarioVerifier",
        "label": "_initialized",
        "offset": 0,
        "slot": "0",
        "type": "t_uint8"
      },
      {
        "astId": 3610,
        "contract": "contracts/zkpVerifiers/ScenarioVerifier.sol:ScenarioVerifier",
        "label": "_initializing",
        "offset": 1,
        "slot": "0",
        "type": "t_bool"
      },
      {
        "astId": 3443,
        "contract": "contracts/zkpVerifiers/ScenarioVerifier.sol:ScenarioVerifier",
        "label": "_owner",
        "offset": 2,
        "slot": "0",
        "type": "t_address"
      },
      {
        "astId": 2389,
        "contract": "contracts/zkpVerifiers/ScenarioVerifier.sol:ScenarioVerifier",
        "label": "__gap_before",
        "offset": 0,
        "slot": "1",
        "type": "t_array(t_uint256)500_storage"
      },
      {
        "astId": 2395,
        "contract": "contracts/zkpVerifiers/ScenarioVerifier.sol:ScenarioVerifier",
        "label": "proofs",
        "offset": 0,
        "slot": "501",
        "type": "t_mapping(t_address,t_mapping(t_uint64,t_bool))"
      },
      {
        "astId": 2400,
        "contract": "contracts/zkpVerifiers/ScenarioVerifier.sol:ScenarioVerifier",
        "label": "_requests",
        "offset": 0,
        "slot": "502",
        "type": "t_mapping(t_uint64,t_struct(ZKPRequest)1422_storage)"
      },
      {
        "astId": 2403,
        "contract": "contracts/zkpVerifiers/ScenarioVerifier.sol:ScenarioVerifier",
        "label": "_requestIds",
        "offset": 0,
        "slot": "503",
        "type": "t_array(t_uint64)dyn_storage"
      },
      {
        "astId": 2407,
        "contract": "contracts/zkpVerifiers/ScenarioVerifier.sol:ScenarioVerifier",
        "label": "__gap_after",
        "offset": 0,
        "slot": "504",
        "type": "t_array(t_uint256)47_storage"
      },
      {
        "astId": 12139,
        "contract": "contracts/zkpVerifiers/ScenarioVerifier.sol:ScenarioVerifier",
        "label": "registeredRuleIDs",
        "offset": 0,
        "slot": "551",
        "type": "t_array(t_uint64)dyn_storage"
      },
      {
        "astId": 12143,
        "contract": "contracts/zkpVerifiers/ScenarioVerifier.sol:ScenarioVerifier",
        "label": "isRuleIdRegistered",
        "offset": 0,
        "slot": "552",
        "type": "t_mapping(t_uint64,t_bool)"
      },
      {
        "astId": 12149,
        "contract": "contracts/zkpVerifiers/ScenarioVerifier.sol:ScenarioVerifier",
        "label": "queryRequestWhitelist",
        "offset": 0,
        "slot": "553",
        "type": "t_mapping(t_uint64,t_mapping(t_address,t_bool))"
      },
      {
        "astId": 12153,
        "contract": "contracts/zkpVerifiers/ScenarioVerifier.sol:ScenarioVerifier",
        "label": "scenarioAllowList",
        "offset": 0,
        "slot": "554",
        "type": "t_mapping(t_address,t_bool)"
      },
      {
        "astId": 12157,
        "contract": "contracts/zkpVerifiers/ScenarioVerifier.sol:ScenarioVerifier",
        "label": "idToAddress",
        "offset": 0,
        "slot": "555",
        "type": "t_mapping(t_uint256,t_address)"
      },
      {
        "astId": 12161,
        "contract": "contracts/zkpVerifiers/ScenarioVerifier.sol:ScenarioVerifier",
        "label": "addressToId",
        "offset": 0,
        "slot": "556",
        "type": "t_mapping(t_address,t_uint256)"
      }
    ],
    "types": {
      "t_address": {
        "encoding": "inplace",
        "label": "address",
        "numberOfBytes": "20"
      },
      "t_array(t_uint256)47_storage": {
        "base": "t_uint256",
        "encoding": "inplace",
        "label": "uint256[47]",
        "numberOfBytes": "1504"
      },
      "t_array(t_uint256)500_storage": {
        "base": "t_uint256",
        "encoding": "inplace",
        "label": "uint256[500]",
        "numberOfBytes": "16000"
      },
      "t_array(t_uint64)dyn_storage": {
        "base": "t_uint64",
        "encoding": "dynamic_array",
        "label": "uint64[]",
        "numberOfBytes": "32"
      },
      "t_bool": {
        "encoding": "inplace",
        "label": "bool",
        "numberOfBytes": "1"
      },
      "t_bytes_storage": {
        "encoding": "bytes",
        "label": "bytes",
        "numberOfBytes": "32"
      },
      "t_contract(ICircuitValidator)1237": {
        "encoding": "inplace",
        "label": "contract ICircuitValidator",
        "numberOfBytes": "20"
      },
      "t_mapping(t_address,t_bool)": {
        "encoding": "mapping",
        "key": "t_address",
        "label": "mapping(address => bool)",
        "numberOfBytes": "32",
        "value": "t_bool"
      },
      "t_mapping(t_address,t_mapping(t_uint64,t_bool))": {
        "encoding": "mapping",
        "key": "t_address",
        "label": "mapping(address => mapping(uint64 => bool))",
        "numberOfBytes": "32",
        "value": "t_mapping(t_uint64,t_bool)"
      },
      "t_mapping(t_address,t_uint256)": {
        "encoding": "mapping",
        "key": "t_address",
        "label": "mapping(address => uint256)",
        "numberOfBytes": "32",
        "value": "t_uint256"
      },
      "t_mapping(t_uint256,t_address)": {
        "encoding": "mapping",
        "key": "t_uint256",
        "label": "mapping(uint256 => address)",
        "numberOfBytes": "32",
        "value": "t_address"
      },
      "t_mapping(t_uint64,t_bool)": {
        "encoding": "mapping",
        "key": "t_uint64",
        "label": "mapping(uint64 => bool)",
        "numberOfBytes": "32",
        "value": "t_bool"
      },
      "t_mapping(t_uint64,t_mapping(t_address,t_bool))": {
        "encoding": "mapping",
        "key": "t_uint64",
        "label": "mapping(uint64 => mapping(address => bool))",
        "numberOfBytes": "32",
        "value": "t_mapping(t_address,t_bool)"
      },
      "t_mapping(t_uint64,t_struct(ZKPRequest)1422_storage)": {
        "encoding": "mapping",
        "key": "t_uint64",
        "label": "mapping(uint64 => struct IZKPVerifier.ZKPRequest)",
        "numberOfBytes": "32",
        "value": "t_struct(ZKPRequest)1422_storage"
      },
      "t_string_storage": {
        "encoding": "bytes",
        "label": "string",
        "numberOfBytes": "32"
      },
      "t_struct(ZKPRequest)1422_storage": {
        "encoding": "inplace",
        "label": "struct IZKPVerifier.ZKPRequest",
        "members": [
          {
            "astId": 1416,
            "contract": "contracts/zkpVerifiers/ScenarioVerifier.sol:ScenarioVerifier",
            "label": "metadata",
            "offset": 0,
            "slot": "0",
            "type": "t_string_storage"
          },
          {
            "astId": 1419,
            "contract": "contracts/zkpVerifiers/ScenarioVerifier.sol:ScenarioVerifier",
            "label": "validator",
            "offset": 0,
            "slot": "1",
            "type": "t_contract(ICircuitValidator)1237"
          },
          {
            "astId": 1421,
            "contract": "contracts/zkpVerifiers/ScenarioVerifier.sol:ScenarioVerifier",
            "label": "data",
            "offset": 0,
            "slot": "2",
            "type": "t_bytes_storage"
          }
        ],
        "numberOfBytes": "96"
      },
      "t_uint256": {
        "encoding": "inplace",
        "label": "uint256",
        "numberOfBytes": "32"
      },
      "t_uint64": {
        "encoding": "inplace",
        "label": "uint64",
        "numberOfBytes": "8"
      },
      "t_uint8": {
        "encoding": "inplace",
        "label": "uint8",
        "numberOfBytes": "1"
      }
    }
  }
}