{
  "address": "0xF6751dEcC56de8965ef22caE0DE888D27dC6E2E8",
  "abi": [
    {
      "inputs": [
        {
          "internalType": "address",
          "name": "signerAddress",
          "type": "address"
        }
      ],
      "stateMutability": "nonpayable",
      "type": "constructor"
    },
    {
      "inputs": [],
      "name": "BlockExpired",
      "type": "error"
    },
    {
      "inputs": [],
      "name": "InvalidSignature",
      "type": "error"
    },
    {
      "anonymous": false,
      "inputs": [
        {
          "indexed": true,
          "internalType": "address",
          "name": "owner",
          "type": "address"
        },
        {
          "indexed": true,
          "internalType": "address",
          "name": "approved",
          "type": "address"
        },
        {
          "indexed": true,
          "internalType": "uint256",
          "name": "tokenId",
          "type": "uint256"
        }
      ],
      "name": "Approval",
      "type": "event"
    },
    {
      "anonymous": false,
      "inputs": [
        {
          "indexed": true,
          "internalType": "address",
          "name": "owner",
          "type": "address"
        },
        {
          "indexed": true,
          "internalType": "address",
          "name": "operator",
          "type": "address"
        },
        {
          "indexed": false,
          "internalType": "bool",
          "name": "approved",
          "type": "bool"
        }
      ],
      "name": "ApprovalForAll",
      "type": "event"
    },
    {
      "anonymous": false,
      "inputs": [
        {
          "indexed": false,
          "internalType": "uint256",
          "name": "chainID",
          "type": "uint256"
        },
        {
          "indexed": false,
          "internalType": "uint256",
          "name": "nonce",
          "type": "uint256"
        },
        {
          "indexed": false,
          "internalType": "uint256",
          "name": "blockExpiration",
          "type": "uint256"
        },
        {
          "indexed": false,
          "internalType": "address",
          "name": "contractAddress",
          "type": "address"
        },
        {
          "indexed": false,
          "internalType": "address",
          "name": "userAddress",
          "type": "address"
        },
        {
          "indexed": false,
          "internalType": "bytes",
          "name": "functionCallData",
          "type": "bytes"
        }
      ],
      "name": "NexeraIDSignatureVerified",
      "type": "event"
    },
    {
      "anonymous": false,
      "inputs": [
        {
          "indexed": true,
          "internalType": "address",
          "name": "previousOwner",
          "type": "address"
        },
        {
          "indexed": true,
          "internalType": "address",
          "name": "newOwner",
          "type": "address"
        }
      ],
      "name": "OwnershipTransferred",
      "type": "event"
    },
    {
      "anonymous": false,
      "inputs": [
        {
          "indexed": true,
          "internalType": "address",
          "name": "newSigner",
          "type": "address"
        }
      ],
      "name": "SignerChanged",
      "type": "event"
    },
    {
      "anonymous": false,
      "inputs": [
        {
          "indexed": true,
          "internalType": "address",
          "name": "from",
          "type": "address"
        },
        {
          "indexed": true,
          "internalType": "address",
          "name": "to",
          "type": "address"
        },
        {
          "indexed": true,
          "internalType": "uint256",
          "name": "tokenId",
          "type": "uint256"
        }
      ],
      "name": "Transfer",
      "type": "event"
    },
    {
      "inputs": [
        {
          "internalType": "address",
          "name": "to",
          "type": "address"
        },
        {
          "internalType": "uint256",
          "name": "tokenId",
          "type": "uint256"
        }
      ],
      "name": "approve",
      "outputs": [],
      "stateMutability": "nonpayable",
      "type": "function"
    },
    {
      "inputs": [
        {
          "internalType": "address",
          "name": "owner",
          "type": "address"
        }
      ],
      "name": "balanceOf",
      "outputs": [
        {
          "internalType": "uint256",
          "name": "",
          "type": "uint256"
        }
      ],
      "stateMutability": "view",
      "type": "function"
    },
    {
      "inputs": [
        {
          "internalType": "uint256",
          "name": "tokenId",
          "type": "uint256"
        }
      ],
      "name": "getApproved",
      "outputs": [
        {
          "internalType": "address",
          "name": "",
          "type": "address"
        }
      ],
      "stateMutability": "view",
      "type": "function"
    },
    {
      "inputs": [],
      "name": "getLastTokenId",
      "outputs": [
        {
          "internalType": "uint256",
          "name": "",
          "type": "uint256"
        }
      ],
      "stateMutability": "view",
      "type": "function"
    },
    {
      "inputs": [
        {
          "components": [
            {
              "internalType": "uint256",
              "name": "chainID",
              "type": "uint256"
            },
            {
              "internalType": "uint256",
              "name": "nonce",
              "type": "uint256"
            },
            {
              "internalType": "uint256",
              "name": "blockExpiration",
              "type": "uint256"
            },
            {
              "internalType": "address",
              "name": "contractAddress",
              "type": "address"
            },
            {
              "internalType": "address",
              "name": "userAddress",
              "type": "address"
            },
            {
              "internalType": "bytes",
              "name": "functionCallData",
              "type": "bytes"
            }
          ],
          "internalType": "struct BaseTxAuthDataVerifier.TxAuthData",
          "name": "_txAuthData",
          "type": "tuple"
        }
      ],
      "name": "getMessageHash",
      "outputs": [
        {
          "internalType": "bytes32",
          "name": "",
          "type": "bytes32"
        }
      ],
      "stateMutability": "pure",
      "type": "function"
    },
    {
      "inputs": [],
      "name": "getSignerAddress",
      "outputs": [
        {
          "internalType": "address",
          "name": "",
          "type": "address"
        }
      ],
      "stateMutability": "view",
      "type": "function"
    },
    {
      "inputs": [
        {
          "internalType": "address",
          "name": "user",
          "type": "address"
        }
      ],
      "name": "getUserNonce",
      "outputs": [
        {
          "internalType": "uint256",
          "name": "",
          "type": "uint256"
        }
      ],
      "stateMutability": "view",
      "type": "function"
    },
    {
      "inputs": [
        {
          "internalType": "address",
          "name": "owner",
          "type": "address"
        },
        {
          "internalType": "address",
          "name": "operator",
          "type": "address"
        }
      ],
      "name": "isApprovedForAll",
      "outputs": [
        {
          "internalType": "bool",
          "name": "",
          "type": "bool"
        }
      ],
      "stateMutability": "view",
      "type": "function"
    },
    {
      "inputs": [
        {
          "internalType": "address",
          "name": "recipient",
          "type": "address"
        },
        {
          "internalType": "uint256",
          "name": "_blockExpiration",
          "type": "uint256"
        },
        {
          "internalType": "bytes",
          "name": "_signature",
          "type": "bytes"
        }
      ],
      "name": "mintNFTGated",
      "outputs": [
        {
          "internalType": "uint256",
          "name": "",
          "type": "uint256"
        }
      ],
      "stateMutability": "nonpayable",
      "type": "function"
    },
    {
      "inputs": [
        {
          "internalType": "address",
          "name": "recipient",
          "type": "address"
        },
        {
          "internalType": "address",
          "name": "userAddress",
          "type": "address"
        },
        {
          "internalType": "uint256",
          "name": "_blockExpiration",
          "type": "uint256"
        },
        {
          "internalType": "bytes",
          "name": "_signature",
          "type": "bytes"
        }
      ],
      "name": "mintNFTGatedWithAddress",
      "outputs": [
        {
          "internalType": "uint256",
          "name": "",
          "type": "uint256"
        }
      ],
      "stateMutability": "nonpayable",
      "type": "function"
    },
    {
      "inputs": [],
      "name": "name",
      "outputs": [
        {
          "internalType": "string",
          "name": "",
          "type": "string"
        }
      ],
      "stateMutability": "view",
      "type": "function"
    },
    {
      "inputs": [
        {
          "internalType": "address",
          "name": "",
          "type": "address"
        }
      ],
      "name": "nonces",
      "outputs": [
        {
          "internalType": "uint256",
          "name": "",
          "type": "uint256"
        }
      ],
      "stateMutability": "view",
      "type": "function"
    },
    {
      "inputs": [],
      "name": "owner",
      "outputs": [
        {
          "internalType": "address",
          "name": "",
          "type": "address"
        }
      ],
      "stateMutability": "view",
      "type": "function"
    },
    {
      "inputs": [
        {
          "internalType": "uint256",
          "name": "tokenId",
          "type": "uint256"
        }
      ],
      "name": "ownerOf",
      "outputs": [
        {
          "internalType": "address",
          "name": "",
          "type": "address"
        }
      ],
      "stateMutability": "view",
      "type": "function"
    },
    {
      "inputs": [],
      "name": "renounceOwnership",
      "outputs": [],
      "stateMutability": "nonpayable",
      "type": "function"
    },
    {
      "inputs": [
        {
          "internalType": "address",
          "name": "from",
          "type": "address"
        },
        {
          "internalType": "address",
          "name": "to",
          "type": "address"
        },
        {
          "internalType": "uint256",
          "name": "tokenId",
          "type": "uint256"
        }
      ],
      "name": "safeTransferFrom",
      "outputs": [],
      "stateMutability": "nonpayable",
      "type": "function"
    },
    {
      "inputs": [
        {
          "internalType": "address",
          "name": "from",
          "type": "address"
        },
        {
          "internalType": "address",
          "name": "to",
          "type": "address"
        },
        {
          "internalType": "uint256",
          "name": "tokenId",
          "type": "uint256"
        },
        {
          "internalType": "bytes",
          "name": "data",
          "type": "bytes"
        }
      ],
      "name": "safeTransferFrom",
      "outputs": [],
      "stateMutability": "nonpayable",
      "type": "function"
    },
    {
      "inputs": [
        {
          "internalType": "address",
          "name": "operator",
          "type": "address"
        },
        {
          "internalType": "bool",
          "name": "approved",
          "type": "bool"
        }
      ],
      "name": "setApprovalForAll",
      "outputs": [],
      "stateMutability": "nonpayable",
      "type": "function"
    },
    {
      "inputs": [
        {
          "internalType": "address",
          "name": "_signer",
          "type": "address"
        }
      ],
      "name": "setSigner",
      "outputs": [],
      "stateMutability": "nonpayable",
      "type": "function"
    },
    {
      "inputs": [
        {
          "internalType": "bytes4",
          "name": "interfaceId",
          "type": "bytes4"
        }
      ],
      "name": "supportsInterface",
      "outputs": [
        {
          "internalType": "bool",
          "name": "",
          "type": "bool"
        }
      ],
      "stateMutability": "view",
      "type": "function"
    },
    {
      "inputs": [],
      "name": "symbol",
      "outputs": [
        {
          "internalType": "string",
          "name": "",
          "type": "string"
        }
      ],
      "stateMutability": "view",
      "type": "function"
    },
    {
      "inputs": [
        {
          "internalType": "uint256",
          "name": "tokenId",
          "type": "uint256"
        }
      ],
      "name": "tokenURI",
      "outputs": [
        {
          "internalType": "string",
          "name": "",
          "type": "string"
        }
      ],
      "stateMutability": "view",
      "type": "function"
    },
    {
      "inputs": [
        {
          "internalType": "address",
          "name": "from",
          "type": "address"
        },
        {
          "internalType": "address",
          "name": "to",
          "type": "address"
        },
        {
          "internalType": "uint256",
          "name": "tokenId",
          "type": "uint256"
        }
      ],
      "name": "transferFrom",
      "outputs": [],
      "stateMutability": "nonpayable",
      "type": "function"
    },
    {
      "inputs": [
        {
          "internalType": "address",
          "name": "newOwner",
          "type": "address"
        }
      ],
      "name": "transferOwnership",
      "outputs": [],
      "stateMutability": "nonpayable",
      "type": "function"
    }
  ],
  "transactionHash": "0xa0f823b7ef3ce3f9821170fc0e966e7968c4fedeee6b9f573c9f5a63e76e051b",
  "args": [
    "0x35a16a6B2e688bf53f758f02995BF53a419f9F51"
  ],
  "numDeployments": 1,
  "solcInputHash": "d1cad771a987c3b689ce4ac6e41d820e",
  "bytecode": "0x60803462000451576001600160401b0390601f1990601f9062001d0938819003838101851683018681118482101762000456578392829160405283396020928391810103126200045157516001600160a01b03808216959094909186900362000451576200006c6200046c565b91601783527f4d794578616d706c6547617465644e46544d696e74657200000000000000000084840152620000a06200046c565b926004958685526311d3919560e21b8686015281518381116200043c57600254926001938481811c9116801562000431575b898210146200041c57908184849311620003c5575b5088908483116001146200035f5760009262000353575b5050600019600383901b1c191690831b176002555b84519283116200033e5760039485548381811c9116801562000333575b888210146200031e57828111620002d3575b50869184116001146200026e578394509083929160009462000262575b50501b9160001990841b1c19161790555b8315620001f9575050600080546001600160a01b031990811684178255604051939092917f5719a5656c5cfdaafa148ecf366fd3b0a7fae06449ce2a46225977fb7417e29d9080a26008549133908316176008553391167f8be0079c531659141344cd1fd0a4f28419497f9722a3daafe3b4186f6b6457e0600080a361187c90816200048d8239f35b60405162461bcd60e51b815291820152603660248201527f426173655478417574684461746156657269666965723a206e6577207369676e60448201527f657220697320746865207a65726f206164647265737300000000000000000000606482015260849150fd5b0151925038806200015f565b91938316918560005283876000209360005b8988838310620002bb5750505010620002a2575b505050811b01905562000170565b015160001983861b60f8161c1916905538808062000294565b86860151885590960195948501948793500162000280565b86600052876000208380870160051c8201928a881062000314575b0160051c019084905b8281106200030757505062000142565b60008155018490620002f7565b92508192620002ee565b602289634e487b7160e01b6000525260246000fd5b90607f169062000130565b604187634e487b7160e01b6000525260246000fd5b015190503880620000fe565b90878694169160026000528a6000209260005b8c828210620003ae575050841162000394575b505050811b0160025562000113565b015160001960f88460031b161c1916905538808062000385565b838501518655899790950194938401930162000372565b9091506002600052886000208480850160051c8201928b861062000412575b918791869594930160051c01915b82811062000402575050620000e7565b60008155859450879101620003f2565b92508192620003e4565b60228a634e487b7160e01b6000525260246000fd5b90607f1690620000d2565b604188634e487b7160e01b6000525260246000fd5b600080fd5b634e487b7160e01b600052604160045260246000fd5b60408051919082016001600160401b03811183821017620004565760405256fe6080604081815260048036101561001557600080fd5b600092833560e01c90816301ffc9a714610bae5750806306fdde0314610ae1578063081812fc14610ac1578063095ea7b3146109515780631a296e021461092957806323b872dd146108ff57806342842e0e146108d65780634f9144e5146108785780636352211e146108475780636834e3a81461064f5780636c19e7831461077a57806370a08231146106e4578063715018a6146106875780637ecebe001461064f578063801954a8146105a057806383c4c00d146105815780638da5cb5b1461055857806395d89b4114610441578063a22cb46514610376578063b88d4fde1461031f578063c87b56dd146102af578063d7ce794b14610246578063e985e9c5146101f45763f2fde38b1461012b57600080fd5b346101f05760203660031901126101f057610144610c62565b9061014d610deb565b6001600160a01b0391821692831561019e575050600854826001600160601b0360a01b821617600855167f8be0079c531659141344cd1fd0a4f28419497f9722a3daafe3b4186f6b6457e08380a380f35b906020608492519162461bcd60e51b8352820152602660248201527f4f776e61626c653a206e6577206f776e657220697320746865207a65726f206160448201526564647265737360d01b6064820152fd5b8280fd5b50503461024257806003193601126102425760ff81602093610214610c62565b61021c610c7d565b6001600160a01b0391821683526007875283832091168252855220549151911615158152f35b5080fd5b50346101f05760603660031901126101f057610260610c62565b926044359067ffffffffffffffff82116102ac57509261029f61029561028e6102a594602097369101610cdc565b3691610d96565b602435333661145c565b506112ee565b9051908152f35b80fd5b50919034610242576020366003190112610242576102ee6102e961031b9435600052600460205260018060a01b0360406000205416151590565b610e43565b8181516102fa81610d3c565b5280519161030783610d3c565b825251918291602083526020830190610c3d565b0390f35b8382346102425760803660031901126102425761033a610c62565b610342610c7d565b9060643567ffffffffffffffff81116103725761036f9361036591369101610dcd565b9160443591610f52565b80f35b8480fd5b5090346101f057806003193601126101f057610390610c62565b9060243591821515809303610372576001600160a01b0316923384146103ff5750338452600760205280842083855260205280842060ff1981541660ff8416179055519081527f17307eab39ab6107e8899845ad3d59bd9653f200f220920489ca2b5937696c3160203392a380f35b6020606492519162461bcd60e51b8352820152601960248201527f4552433732313a20617070726f766520746f2063616c6c6572000000000000006044820152fd5b5091346102ac57806003193601126102ac578151918160035492600184811c9181861695861561054e575b602096878510811461053b578899509688969785829a5291826000146105145750506001146104b8575b50505061031b92916104a9910385610d58565b51928284938452830190610c3d565b9190869350600383527fc2575a0e9e593c00f959f8c92f12db2869c3395a3b0502d05e2516446f71f85b5b8284106104fc57505050820101816104a961031b610496565b8054848a0186015288955087949093019281016104e3565b60ff19168782015293151560051b860190930193508492506104a9915061031b9050610496565b634e487b7160e01b835260228a52602483fd5b92607f169261046c565b50503461024257816003193601126102425760085490516001600160a01b039091168152602090f35b5050346102425781600319360112610242576020906009549051908152f35b50346101f0576003199060203683011261064b5780359167ffffffffffffffff908184116106475760c0908436030112610372578351946105e086610d0a565b8383013586526024840135602087015260448401358587015261060560648501610c93565b606087015261061660848501610c93565b608087015260a48401359182116102ac57506102a5926020959261063d9236920101610dcd565b60a08201526117c6565b8580fd5b8380fd5b5050346102425760203660031901126102425760209181906001600160a01b03610677610c62565b1681526001845220549051908152f35b83346102ac57806003193601126102ac576106a0610deb565b600880546001600160a01b0319811690915581906001600160a01b03167f8be0079c531659141344cd1fd0a4f28419497f9722a3daafe3b4186f6b6457e08280a380f35b50829034610242576020366003190112610242576001600160a01b03610708610c62565b169081156107255760208480858581526005845220549051908152f35b608490602085519162461bcd60e51b8352820152602960248201527f4552433732313a2061646472657373207a65726f206973206e6f7420612076616044820152683634b21037bbb732b960b91b6064820152fd5b50346101f05760203660031901126101f057610794610c62565b61079c610deb565b6001600160a01b03169182156107e557505081546001600160a01b031916811782557f5719a5656c5cfdaafa148ecf366fd3b0a7fae06449ce2a46225977fb7417e29d8280a280f35b906020608492519162461bcd60e51b8352820152603660248201527f426173655478417574684461746156657269666965723a206e6577207369676e604482015275657220697320746865207a65726f206164647265737360501b6064820152fd5b5091346102ac5760203660031901126102ac575061086760209235610e8f565b90516001600160a01b039091168152f35b5091346102ac5760803660031901126102ac57610893610c62565b9261089c610c7d565b916064359067ffffffffffffffff82116102ac57506102a5926108cb61028e6020979461029f94369101610cdc565b90604435903661145c565b5050346102425761036f906108ea36610ca7565b919251926108f784610d3c565b858452610f52565b83346102ac5761036f61091136610ca7565b9161092461091f8433610fed565b610ef0565b6110b5565b505034610242578160031936011261024257905490516001600160a01b039091168152602090f35b50346101f057816003193601126101f05761096a610c62565b6024359290916001600160a01b039190828061098587610e8f565b16941693808514610a7457803314908115610a55575b50156109ed57508385526006602052842080546001600160a01b031916831790556109c583610e8f565b167f8c5be1e5ebec7d5bd14f71427d1e84f3dd0314c0f7b2291e5b200ac8c7c3b9258480a480f35b6020608492519162461bcd60e51b8352820152603d60248201527f4552433732313a20617070726f76652063616c6c6572206973206e6f7420746f60448201527f6b656e206f776e6572206f7220617070726f76656420666f7220616c6c0000006064820152fd5b90508652600760205281862033875260205260ff82872054163861099b565b506020608492519162461bcd60e51b8352820152602160248201527f4552433732313a20617070726f76616c20746f2063757272656e74206f776e656044820152603960f91b6064820152fd5b5091346102ac5760203660031901126102ac575061086760209235610eb2565b5091346102ac57806003193601126102ac578151918160025492600184811c91818616958615610ba4575b602096878510811461053b578899509688969785829a529182600014610514575050600114610b485750505061031b92916104a9910385610d58565b9190869350600283527f405787fa12a823e0f2b7631cc41b3ba8828b3321ca811111fa75cd3aa3bb5ace5b828410610b8c57505050820101816104a961031b610496565b8054848a018601528895508794909301928101610b73565b92607f1692610b0c565b925050346101f05760203660031901126101f0573563ffffffff60e01b81168091036101f057602092506380ac58cd60e01b8114908115610c09575b8115610bf8575b5015158152f35b6301ffc9a760e01b14905038610bf1565b635b5e139f60e01b81149150610bea565b60005b838110610c2d5750506000910152565b8181015183820152602001610c1d565b90602091610c5681518092818552858086019101610c1a565b601f01601f1916010190565b600435906001600160a01b0382168203610c7857565b600080fd5b602435906001600160a01b0382168203610c7857565b35906001600160a01b0382168203610c7857565b6060906003190112610c78576001600160a01b03906004358281168103610c7857916024359081168103610c78579060443590565b9181601f84011215610c785782359167ffffffffffffffff8311610c785760208381860195010111610c7857565b60c0810190811067ffffffffffffffff821117610d2657604052565b634e487b7160e01b600052604160045260246000fd5b6020810190811067ffffffffffffffff821117610d2657604052565b90601f8019910116810190811067ffffffffffffffff821117610d2657604052565b67ffffffffffffffff8111610d2657601f01601f191660200190565b929192610da282610d7a565b91610db06040519384610d58565b829481845281830111610c78578281602093846000960137010152565b9080601f83011215610c7857816020610de893359101610d96565b90565b6008546001600160a01b03163303610dff57565b606460405162461bcd60e51b815260206004820152602060248201527f4f776e61626c653a2063616c6c6572206973206e6f7420746865206f776e65726044820152fd5b15610e4a57565b60405162461bcd60e51b815260206004820152601860248201527f4552433732313a20696e76616c696420746f6b656e20494400000000000000006044820152606490fd5b6000908152600460205260409020546001600160a01b0316610de8811515610e43565b600081815260046020526040902054610ed5906001600160a01b03161515610e43565b6000908152600660205260409020546001600160a01b031690565b15610ef757565b60405162461bcd60e51b815260206004820152602d60248201527f4552433732313a2063616c6c6572206973206e6f7420746f6b656e206f776e6560448201526c1c881bdc88185c1c1c9bdd9959609a1b6064820152608490fd5b90610f76939291610f6661091f8433610fed565b610f718383836110b5565b6111f6565b15610f7d57565b60405162461bcd60e51b815280610f9660048201610f9a565b0390fd5b60809060208152603260208201527f4552433732313a207472616e7366657220746f206e6f6e20455243373231526560408201527131b2b4bb32b91034b6b83632b6b2b73a32b960711b60608201520190565b906001600160a01b03808061100184610e8f565b16931691838314938415611034575b50831561101e575b50505090565b61102a91929350610eb2565b1614388080611018565b909350600052600760205260406000208260005260205260ff604060002054169238611010565b1561106257565b60405162461bcd60e51b815260206004820152602560248201527f4552433732313a207472616e736665722066726f6d20696e636f72726563742060448201526437bbb732b960d91b6064820152608490fd5b906110dd916110c384610e8f565b6001600160a01b039391841692849290918316841461105b565b1691821561117557816110fa916110f386610e8f565b161461105b565b7fddf252ad1be2c89b69c2b068fc378daa952ba7f163c4a11628f55a4df523b3ef60008481526006602052604081206001600160601b0360a01b9081815416905583825260056020526040822060001981540190558482526040822060018154019055858252600460205284604083209182541617905580a4565b60405162461bcd60e51b8152602060048201526024808201527f4552433732313a207472616e7366657220746f20746865207a65726f206164646044820152637265737360e01b6064820152608490fd5b3d156111f1573d906111d782610d7a565b916111e56040519384610d58565b82523d6000602084013e565b606090565b91926000929190813b156112e45760209161124c9185604051958680958194630a85bd0160e11b9b8c845233600485015260018060a01b0380951660248501526044840152608060648401526084830190610c3d565b0393165af19082908261129c575b505061128e576112686111c6565b805190816112895760405162461bcd60e51b815280610f9660048201610f9a565b602001fd5b6001600160e01b0319161490565b909192506020813d82116112dc575b816112b860209383610d58565b810103126102425751906001600160e01b0319821682036102ac575090388061125a565b3d91506112ab565b5050505050600190565b60095490600182018092116113fa5760098290556001600160a01b031680156113b657600082815260046020526040902054829190611339906001600160a01b031615155b15611410565b60008281526004602052604090205461135c906001600160a01b03161515611333565b600081815260056020526040812060018154019055828152600460205260408120826001600160601b0360a01b8254161790557fddf252ad1be2c89b69c2b068fc378daa952ba7f163c4a11628f55a4df523b3ef8180a490565b606460405162461bcd60e51b815260206004820152602060248201527f4552433732313a206d696e7420746f20746865207a65726f20616464726573736044820152fd5b634e487b7160e01b600052601160045260246000fd5b1561141757565b60405162461bcd60e51b815260206004820152601c60248201527f4552433732313a20746f6b656e20616c7265616479206d696e746564000000006044820152606490fd5b607f1981019391928185116113fa57804310156116ed5760018060a01b0380941691600093838552602092600184526040978887205489519061149e82610d0a565b46825286820152828a8201523060608201528660808201526114bf82610d7a565b6114cb8b519182610d58565b8281523683116116e9579081838a896114f395013789605f19888301015260a08201526117c6565b7f19457468657265756d205369676e6564204d6573736167653a0a3332000000008852601c52603c87209580885260018652898820805490600182018092116116d5575580885260018652898820546000198101939084116116c157907f457734c71a6a3ef35a45b3a9aed14e0158cca171cd87330ecd1de4d4d61dc8f39392918b5193468552888501528b840152306060840152608083015260c060a08301528060c08301528760e0830137866060858301015260e081601f19809660601901168101030190a185855416916115ca82866116ff565b60058199929910156116ad571597886116a1575b50508615611608575b505050505050156115f85750600190565b51638baa579f60e01b8152600490fd5b8596509085939495929161164d8951918261164189820195630b135d3f60e11b9b8c885260248401528d60448401526064830190610c3d565b03908101835282610d58565b51915afa9261165a6111c6565b9084611694575b84611676575b505050503880808080806115e7565b909180939450828051810103126102ac575001511438808080611667565b9350818151101593611661565b168314965038806115de565b634e487b7160e01b88526021600452602488fd5b634e487b7160e01b89526011600452602489fd5b634e487b7160e01b8a52601160045260248afd5b8880fd5b6040516378fd448d60e01b8152600490fd5b90604181511460001461172d57611729916020820151906060604084015193015160001a90611737565b9091565b5050600090600290565b9291907f7fffffffffffffffffffffffffffffff5d576e7357a4501ddfe92f46681b20a083116117ba5791608094939160ff602094604051948552168484015260408301526060820152600093849182805260015afa156117ad5781516001600160a01b038116156117a7579190565b50600190565b50604051903d90823e3d90fd5b50505050600090600390565b80519061184060a86020830151604084015193606081015160a060808301519201519160405196879460208601998a52604086015260608501526001600160601b0319809260601b16608085015260601b1660948301526118308151809260208686019101610c1a565b8101036088810184520182610d58565b5190209056fea2646970667358221220a596871e33bc8c39ef755894da80636fde6f8eb2df3450641444a0a233e8b5b064736f6c63430008120033",
  "devdoc": {
    "details": "NFT minting contract with gated access based on off-chain signature verification. This contract extends ERC721 for NFT functionality, TxAuthDataVerifier for signature verification, and Ownable for ownership management. It uses a counter to assign unique token IDs to minted NFTs.",
    "events": {
      "Approval(address,address,uint256)": {
        "details": "Emitted when `owner` enables `approved` to manage the `tokenId` token."
      },
      "ApprovalForAll(address,address,bool)": {
        "details": "Emitted when `owner` enables or disables (`approved`) `operator` to manage all of its assets."
      },
      "NexeraIDSignatureVerified(uint256,uint256,uint256,address,address,bytes)": {
        "details": "Event emitted when a signature is verified"
      },
      "Transfer(address,address,uint256)": {
        "details": "Emitted when `tokenId` token is transferred from `from` to `to`."
      }
    },
    "kind": "dev",
    "methods": {
      "approve(address,uint256)": {
        "details": "See {IERC721-approve}."
      },
      "balanceOf(address)": {
        "details": "See {IERC721-balanceOf}."
      },
      "constructor": {
        "params": {
          "signerAddress": "The address allowed to sign transaction data for minting authorization."
        }
      },
      "getApproved(uint256)": {
        "details": "See {IERC721-getApproved}."
      },
      "getLastTokenId()": {
        "details": "Returns the last token ID that was minted.",
        "returns": {
          "_0": "The current value of the token ID counter, which corresponds to the last minted token ID."
        }
      },
      "getMessageHash((uint256,uint256,uint256,address,address,bytes))": {
        "params": {
          "_txAuthData": "The transaction authentication data to hash"
        },
        "returns": {
          "_0": "The keccak256 hash of the encoded `TxAuthData`"
        }
      },
      "getSignerAddress()": {
        "returns": {
          "_0": "The signer address"
        }
      },
      "getUserNonce(address)": {
        "params": {
          "user": "The address of the user"
        },
        "returns": {
          "_0": "The current nonce of the user"
        }
      },
      "isApprovedForAll(address,address)": {
        "details": "See {IERC721-isApprovedForAll}."
      },
      "mintNFTGated(address,uint256,bytes)": {
        "details": "Leverages the `requireTxDataAuth` modifier for efficient signature verification.",
        "params": {
          "_blockExpiration": "The block number after which the request is considered expired.",
          "_signature": "The signature provided for verification.",
          "recipient": "The address to which the NFT will be minted."
        },
        "returns": {
          "_0": "The ID of the newly minted NFT upon successful verification and minting."
        }
      },
      "mintNFTGatedWithAddress(address,address,uint256,bytes)": {
        "details": "Leverages the `requireTxDataAuth` modifier for efficient signature verification.",
        "params": {
          "_blockExpiration": "The block number after which the request is considered expired.",
          "_signature": "The signature provided for verification.",
          "recipient": "The address to which the NFT will be minted.",
          "userAddress": "The address requesting the signature (in case a contract wants to call this)"
        },
        "returns": {
          "_0": "The ID of the newly minted NFT upon successful verification and minting."
        }
      },
      "name()": {
        "details": "See {IERC721Metadata-name}."
      },
      "owner()": {
        "details": "Returns the address of the current owner."
      },
      "ownerOf(uint256)": {
        "details": "See {IERC721-ownerOf}."
      },
      "renounceOwnership()": {
        "details": "Leaves the contract without owner. It will not be possible to call `onlyOwner` functions. Can only be called by the current owner. NOTE: Renouncing ownership will leave the contract without an owner, thereby disabling any functionality that is only available to the owner."
      },
      "safeTransferFrom(address,address,uint256)": {
        "details": "See {IERC721-safeTransferFrom}."
      },
      "safeTransferFrom(address,address,uint256,bytes)": {
        "details": "See {IERC721-safeTransferFrom}."
      },
      "setApprovalForAll(address,bool)": {
        "details": "See {IERC721-setApprovalForAll}."
      },
      "setSigner(address)": {
        "details": "Can only be called by the current owner",
        "params": {
          "_signer": "The address of the new signer"
        }
      },
      "supportsInterface(bytes4)": {
        "details": "See {IERC165-supportsInterface}."
      },
      "symbol()": {
        "details": "See {IERC721Metadata-symbol}."
      },
      "tokenURI(uint256)": {
        "details": "See {IERC721Metadata-tokenURI}."
      },
      "transferFrom(address,address,uint256)": {
        "details": "See {IERC721-transferFrom}."
      },
      "transferOwnership(address)": {
        "details": "Transfers ownership of the contract to a new account (`newOwner`). Can only be called by the current owner."
      }
    },
    "title": "Example Gated NFT Minter",
    "version": 1
  },
  "userdoc": {
    "errors": {
      "BlockExpired()": [
        {
          "notice": "Custom error for handling signature expiry"
        }
      ],
      "InvalidSignature()": [
        {
          "notice": "Custom error for handling invalid signatures"
        }
      ]
    },
    "kind": "user",
    "methods": {
      "constructor": {
        "notice": "Initializes the contract by setting a name, symbol, and signer for TxAuthDataVerifier."
      },
      "getLastTokenId()": {
        "notice": "Retrieves the current value of the token ID counter."
      },
      "getMessageHash((uint256,uint256,uint256,address,address,bytes))": {
        "notice": "Generates a hash of the given `TxAuthData`"
      },
      "getSignerAddress()": {
        "notice": "Retrieves the signer address"
      },
      "getUserNonce(address)": {
        "notice": "Retrieves the current nonce for a given user"
      },
      "mintNFTGated(address,uint256,bytes)": {
        "notice": "Mints a new NFT to a specified recipient, using an optimized signature verification process."
      },
      "mintNFTGatedWithAddress(address,address,uint256,bytes)": {
        "notice": "Mints a new NFT to a specified recipient, using an optimized signature verification process."
      },
      "nonces(address)": {
        "notice": "Mapping to track the nonces of users to prevent replay attacks"
      },
      "setSigner(address)": {
        "notice": "Sets a new signer address"
      }
    },
    "version": 1
  },
  "storageLayout": {
    "storage": [
      {
        "astId": 6780,
        "contract": "contracts/gatedExamples/ExampleGatedNFTMinter.sol:ExampleGatedNFTMinter",
        "label": "signer",
        "offset": 0,
        "slot": "0",
        "type": "t_address"
      },
      {
        "astId": 6785,
        "contract": "contracts/gatedExamples/ExampleGatedNFTMinter.sol:ExampleGatedNFTMinter",
        "label": "nonces",
        "offset": 0,
        "slot": "1",
        "type": "t_mapping(t_address,t_uint256)"
      },
      {
        "astId": 3206,
        "contract": "contracts/gatedExamples/ExampleGatedNFTMinter.sol:ExampleGatedNFTMinter",
        "label": "_name",
        "offset": 0,
        "slot": "2",
        "type": "t_string_storage"
      },
      {
        "astId": 3208,
        "contract": "contracts/gatedExamples/ExampleGatedNFTMinter.sol:ExampleGatedNFTMinter",
        "label": "_symbol",
        "offset": 0,
        "slot": "3",
        "type": "t_string_storage"
      },
      {
        "astId": 3212,
        "contract": "contracts/gatedExamples/ExampleGatedNFTMinter.sol:ExampleGatedNFTMinter",
        "label": "_owners",
        "offset": 0,
        "slot": "4",
        "type": "t_mapping(t_uint256,t_address)"
      },
      {
        "astId": 3216,
        "contract": "contracts/gatedExamples/ExampleGatedNFTMinter.sol:ExampleGatedNFTMinter",
        "label": "_balances",
        "offset": 0,
        "slot": "5",
        "type": "t_mapping(t_address,t_uint256)"
      },
      {
        "astId": 3220,
        "contract": "contracts/gatedExamples/ExampleGatedNFTMinter.sol:ExampleGatedNFTMinter",
        "label": "_tokenApprovals",
        "offset": 0,
        "slot": "6",
        "type": "t_mapping(t_uint256,t_address)"
      },
      {
        "astId": 3226,
        "contract": "contracts/gatedExamples/ExampleGatedNFTMinter.sol:ExampleGatedNFTMinter",
        "label": "_operatorApprovals",
        "offset": 0,
        "slot": "7",
        "type": "t_mapping(t_address,t_mapping(t_address,t_bool))"
      },
      {
        "astId": 3061,
        "contract": "contracts/gatedExamples/ExampleGatedNFTMinter.sol:ExampleGatedNFTMinter",
        "label": "_owner",
        "offset": 0,
        "slot": "8",
        "type": "t_address"
      },
      {
        "astId": 6343,
        "contract": "contracts/gatedExamples/ExampleGatedNFTMinter.sol:ExampleGatedNFTMinter",
        "label": "_tokenIds",
        "offset": 0,
        "slot": "9",
        "type": "t_uint256"
      }
    ],
    "types": {
      "t_address": {
        "encoding": "inplace",
        "label": "address",
        "numberOfBytes": "20"
      },
      "t_bool": {
        "encoding": "inplace",
        "label": "bool",
        "numberOfBytes": "1"
      },
      "t_mapping(t_address,t_bool)": {
        "encoding": "mapping",
        "key": "t_address",
        "label": "mapping(address => bool)",
        "numberOfBytes": "32",
        "value": "t_bool"
      },
      "t_mapping(t_address,t_mapping(t_address,t_bool))": {
        "encoding": "mapping",
        "key": "t_address",
        "label": "mapping(address => mapping(address => bool))",
        "numberOfBytes": "32",
        "value": "t_mapping(t_address,t_bool)"
      },
      "t_mapping(t_address,t_uint256)": {
        "encoding": "mapping",
        "key": "t_address",
        "label": "mapping(address => uint256)",
        "numberOfBytes": "32",
        "value": "t_uint256"
      },
      "t_mapping(t_uint256,t_address)": {
        "encoding": "mapping",
        "key": "t_uint256",
        "label": "mapping(uint256 => address)",
        "numberOfBytes": "32",
        "value": "t_address"
      },
      "t_string_storage": {
        "encoding": "bytes",
        "label": "string",
        "numberOfBytes": "32"
      },
      "t_uint256": {
        "encoding": "inplace",
        "label": "uint256",
        "numberOfBytes": "32"
      }
    }
  }
}