{
  "address": "0x1b567571798575654B8c478df69fb5fcB76d18de",
  "abi": [
    {
      "inputs": [
        {
          "internalType": "address",
          "name": "signerManagerAddress",
          "type": "address"
        }
      ],
      "stateMutability": "nonpayable",
      "type": "constructor"
    },
    {
      "anonymous": false,
      "inputs": [
        {
          "indexed": true,
          "internalType": "bytes32",
          "name": "role",
          "type": "bytes32"
        },
        {
          "indexed": true,
          "internalType": "bytes32",
          "name": "previousAdminRole",
          "type": "bytes32"
        },
        {
          "indexed": true,
          "internalType": "bytes32",
          "name": "newAdminRole",
          "type": "bytes32"
        }
      ],
      "name": "RoleAdminChanged",
      "type": "event"
    },
    {
      "anonymous": false,
      "inputs": [
        {
          "indexed": true,
          "internalType": "bytes32",
          "name": "role",
          "type": "bytes32"
        },
        {
          "indexed": true,
          "internalType": "address",
          "name": "account",
          "type": "address"
        },
        {
          "indexed": true,
          "internalType": "address",
          "name": "sender",
          "type": "address"
        }
      ],
      "name": "RoleGranted",
      "type": "event"
    },
    {
      "anonymous": false,
      "inputs": [
        {
          "indexed": true,
          "internalType": "bytes32",
          "name": "role",
          "type": "bytes32"
        },
        {
          "indexed": true,
          "internalType": "address",
          "name": "account",
          "type": "address"
        },
        {
          "indexed": true,
          "internalType": "address",
          "name": "sender",
          "type": "address"
        }
      ],
      "name": "RoleRevoked",
      "type": "event"
    },
    {
      "inputs": [],
      "name": "DEFAULT_ADMIN_ROLE",
      "outputs": [
        {
          "internalType": "bytes32",
          "name": "",
          "type": "bytes32"
        }
      ],
      "stateMutability": "view",
      "type": "function"
    },
    {
      "inputs": [],
      "name": "PAUSER_ROLE",
      "outputs": [
        {
          "internalType": "bytes32",
          "name": "",
          "type": "bytes32"
        }
      ],
      "stateMutability": "view",
      "type": "function"
    },
    {
      "inputs": [
        {
          "internalType": "bytes32",
          "name": "role",
          "type": "bytes32"
        }
      ],
      "name": "getRoleAdmin",
      "outputs": [
        {
          "internalType": "bytes32",
          "name": "",
          "type": "bytes32"
        }
      ],
      "stateMutability": "view",
      "type": "function"
    },
    {
      "inputs": [
        {
          "internalType": "bytes32",
          "name": "role",
          "type": "bytes32"
        },
        {
          "internalType": "address",
          "name": "account",
          "type": "address"
        }
      ],
      "name": "grantRole",
      "outputs": [],
      "stateMutability": "nonpayable",
      "type": "function"
    },
    {
      "inputs": [
        {
          "internalType": "bytes32",
          "name": "role",
          "type": "bytes32"
        },
        {
          "internalType": "address",
          "name": "account",
          "type": "address"
        }
      ],
      "name": "hasRole",
      "outputs": [
        {
          "internalType": "bool",
          "name": "",
          "type": "bool"
        }
      ],
      "stateMutability": "view",
      "type": "function"
    },
    {
      "inputs": [],
      "name": "pauseSignerManager",
      "outputs": [],
      "stateMutability": "nonpayable",
      "type": "function"
    },
    {
      "inputs": [
        {
          "internalType": "bytes32",
          "name": "role",
          "type": "bytes32"
        },
        {
          "internalType": "address",
          "name": "account",
          "type": "address"
        }
      ],
      "name": "renounceRole",
      "outputs": [],
      "stateMutability": "nonpayable",
      "type": "function"
    },
    {
      "inputs": [
        {
          "internalType": "bytes32",
          "name": "role",
          "type": "bytes32"
        },
        {
          "internalType": "address",
          "name": "account",
          "type": "address"
        }
      ],
      "name": "revokeRole",
      "outputs": [],
      "stateMutability": "nonpayable",
      "type": "function"
    },
    {
      "inputs": [
        {
          "internalType": "address",
          "name": "newSigner",
          "type": "address"
        }
      ],
      "name": "setSigner",
      "outputs": [],
      "stateMutability": "nonpayable",
      "type": "function"
    },
    {
      "inputs": [],
      "name": "signerManager",
      "outputs": [
        {
          "internalType": "contract INexeraIDSignerManager",
          "name": "",
          "type": "address"
        }
      ],
      "stateMutability": "view",
      "type": "function"
    },
    {
      "inputs": [
        {
          "internalType": "bytes4",
          "name": "interfaceId",
          "type": "bytes4"
        }
      ],
      "name": "supportsInterface",
      "outputs": [
        {
          "internalType": "bool",
          "name": "",
          "type": "bool"
        }
      ],
      "stateMutability": "view",
      "type": "function"
    },
    {
      "inputs": [
        {
          "internalType": "address",
          "name": "newOwner",
          "type": "address"
        }
      ],
      "name": "transferSignerManagerOwnership",
      "outputs": [],
      "stateMutability": "nonpayable",
      "type": "function"
    }
  ],
  "transactionHash": "0x7e9cf6dd75c36b2f2c622b91b3b542a81716bb56185076e1c01ebd02c02741af",
  "args": [
    "0x35397c221C42F7487F62Da87E31EeA00daB937aA"
  ],
  "numDeployments": 1,
  "solcInputHash": "be44bb7f015d113e116cfe0e24645790",
  "bytecode": "0x60803461014157601f610dce38819003918201601f1916830192916001600160401b03841183851017610146578083926040958652833960209283918101031261014157516001600160a01b0381169081900361014157600180546001600160a01b031916919091179055600080805280825282812033825282528281205460ff161561010b575b7f65d7a28e3265b37a6474929f336521b332c1681b933f6cb9f3376673440d862a91828252818152838220338352815260ff8483205416156100d2575b8351610c51908161015d8239f35b8282528181528382209033835252828120600160ff198254161790553391600080516020610dae833981519152339280a43880806100c4565b8080528082528281203382528252828120600160ff19825416179055333382600080516020610dae8339815191528180a4610087565b600080fd5b634e487b7160e01b600052604160045260246000fdfe6080604081815260048036101561001557600080fd5b600092833560e01c90816301ffc9a71461067f5750806309e24d0114610405578063248a9ca3146103dc5780632f2ff15d1461033257806336568abe146102a0578381636c19e7831461023a5750806391d14854146101f6578063a217fddf146101db578063cba89d58146101b2578063d547741f14610171578063e63ab1e9146101325763eea70db1146100a957600080fd5b82913461012e57602036600319011261012e576100c46106ee565b6100cc610704565b6001546001600160a01b03908116803b1561012a578592836024928651978895869463f2fde38b60e01b865216908401525af1908115610121575061010e5750f35b61011790610a09565b61011e5780f35b80fd5b513d84823e3d90fd5b8580fd5b5050fd5b50503461016d578160031936011261016d57602090517f65d7a28e3265b37a6474929f336521b332c1681b933f6cb9f3376673440d862a8152f35b5080fd5b5090346101ae57806003193601126101ae576101ab91356101a660016101956106d3565b9383875286602052862001546108db565b610a71565b80f35b8280fd5b50503461016d578160031936011261016d5760015490516001600160a01b039091168152602090f35b50503461016d578160031936011261016d5751908152602090f35b50346101ae57816003193601126101ae57816020936102136106d3565b92358152808552209060018060a01b0316600052825260ff81600020541690519015158152f35b9290503461012e57602036600319011261012e576102566106ee565b61025e610704565b6001546001600160a01b03908116803b1561012a5785928360249286519788958694636c19e78360e01b865216908401525af1908115610121575061010e5750f35b5082903461016d578260031936011261016d576102bb6106d3565b90336001600160a01b038316036102d757906101ab9135610a71565b608490602085519162461bcd60e51b8352820152602f60248201527f416363657373436f6e74726f6c3a2063616e206f6e6c792072656e6f756e636560448201526e103937b632b9903337b91039b2b63360891b6064820152fd5b50346101ae57816003193601126101ae57359061034d6106d3565b9082845283602052610364600182862001546108db565b828452836020528084209160018060a01b0316918260005260205260ff81600020541615610390578380f35b8284528360205280842082600052602052600020600160ff1982541617905533917f2f8788117e7eff1d82e926ec794901d17c78024a50270940304540a733656f0d8480a43880808380f35b50346101ae5760203660031901126101ae57816020936001923581528085522001549051908152f35b5090346101ae57826003193601126101ae577f65d7a28e3265b37a6474929f336521b332c1681b933f6cb9f3376673440d862a808452602090848252828520338652825260ff8386205416156104a25750506001546001600160a01b0316918390833b1561016d5760246001918385519687948593636c19e78360e01b85528401525af19081156101215750610499575080f35b6101ab90610a09565b90936104ad33610b0c565b918351906104ba82610a33565b6042825286820192606036853782511561066c57603084538251906001918210156106595790607860218501536041915b8183116105ee575050506105ad578361057d6048889561059f9561056e9560449a99519687936105458b86019b76020b1b1b2b9b9a1b7b73a3937b61d1030b1b1b7bab73a1604d1b8d5282519283916037890191016109e6565b8401917001034b99036b4b9b9b4b733903937b6329607d1b6037840152518093868401906109e6565b01036028810185520183610a4f565b5195869462461bcd60e51b8652850152518092816024860152858501906109e6565b601f01601f19168101030190fd5b606485878087519262461bcd60e51b845283015260248201527f537472696e67733a20686578206c656e67746820696e73756666696369656e746044820152fd5b909192600f81166010811015610646576f181899199a1a9b1b9c1cb0b131b232b360811b901a61061e8587610ae5565b53881c928015610633576000190191906104eb565b634e487b7160e01b825260118952602482fd5b634e487b7160e01b835260328a52602483fd5b634e487b7160e01b815260328852602490fd5b634e487b7160e01b815260328752602490fd5b925050346101ae5760203660031901126101ae573563ffffffff60e01b81168091036101ae5760209250637965db0b60e01b81149081156106c2575b5015158152f35b6301ffc9a760e01b149050386106bb565b602435906001600160a01b03821682036106e957565b600080fd5b600435906001600160a01b03821682036106e957565b3360009081527fad3228b676f7d3cd4284a5443f17f1962b36e491b30a40b2405849e597ba5fb560209081526040808320549092919060ff161561074757505050565b61075033610b0c565b83518361075c82610a33565b604282528382019460603687378251156108c757603086538251906001918210156108c75790607860218501536041915b8183116108595750505061081757846107f3604861059f9360449798519889916107e48984019876020b1b1b2b9b9a1b7b73a3937b61d1030b1b1b7bab73a1604d1b8a52610545815180928d6037890191016109e6565b01036028810189520187610a4f565b5194859362461bcd60e51b85526004850152518092816024860152858501906109e6565b60648386519062461bcd60e51b825280600483015260248201527f537472696e67733a20686578206c656e67746820696e73756666696369656e746044820152fd5b909192600f811660108110156108b3576f181899199a1a9b1b9c1cb0b131b232b360811b901a6108898587610ae5565b5360041c92801561089f5760001901919061078d565b634e487b7160e01b82526011600452602482fd5b634e487b7160e01b83526032600452602483fd5b634e487b7160e01b81526032600452602490fd5b60008181526020818152604092838320338452825260ff8484205416156109025750505050565b61090b33610b0c565b9084519061091882610a33565b604282528382019460603687378251156108c757603086538251906001918210156108c75790607860218501536041915b8183116109a05750505061081757846107f3604861059f9360449798519889916107e48984019876020b1b1b2b9b9a1b7b73a3937b61d1030b1b1b7bab73a1604d1b8a52610545815180928d6037890191016109e6565b909192600f811660108110156108b3576f181899199a1a9b1b9c1cb0b131b232b360811b901a6109d08587610ae5565b5360041c92801561089f57600019019190610949565b60005b8381106109f95750506000910152565b81810151838201526020016109e9565b67ffffffffffffffff8111610a1d57604052565b634e487b7160e01b600052604160045260246000fd5b6080810190811067ffffffffffffffff821117610a1d57604052565b90601f8019910116810190811067ffffffffffffffff821117610a1d57604052565b9060009180835282602052604083209160018060a01b03169182845260205260ff604084205416610aa157505050565b80835282602052604083208284526020526040832060ff1981541690557ff6391f5c32d9c69d2a47ea670b442974b53935d1edc7fd64eb21e047a839171b339380a4565b908151811015610af6570160200190565b634e487b7160e01b600052603260045260246000fd5b604051906060820182811067ffffffffffffffff821117610a1d57604052602a8252602082016040368237825115610af657603090538151600190811015610af657607860218401536029905b808211610bad575050610b695790565b606460405162461bcd60e51b815260206004820152602060248201527f537472696e67733a20686578206c656e67746820696e73756666696369656e746044820152fd5b9091600f81166010811015610c06576f181899199a1a9b1b9c1cb0b131b232b360811b901a610bdc8486610ae5565b5360041c918015610bf1576000190190610b59565b60246000634e487b7160e01b81526011600452fd5b60246000634e487b7160e01b81526032600452fdfea2646970667358221220fde6d9cb1b2449bae092d18a1a4734a92b0ec5d1a00383193851ea66f2772e6a64736f6c634300081400332f8788117e7eff1d82e926ec794901d17c78024a50270940304540a733656f0d",
  "devdoc": {
    "details": "A contract to manage the NexeraID Signer Manager contract with role-based access control. DEFAULT_ADMIN_ROLE controls changing the signerAddress on the NexeraID Signer Manager and can manage PAUSER_ROLE. It is refered to as DEFAULT_ADMIN_ROLE in the docs PAUSER_ROLE can only pause the contract (change the address to ONE_ADDRESS)",
    "events": {
      "RoleAdminChanged(bytes32,bytes32,bytes32)": {
        "details": "Emitted when `newAdminRole` is set as ``role``'s admin role, replacing `previousAdminRole` `DEFAULT_ADMIN_ROLE` is the starting admin for all roles, despite {RoleAdminChanged} not being emitted signaling this. _Available since v3.1._"
      },
      "RoleGranted(bytes32,address,address)": {
        "details": "Emitted when `account` is granted `role`. `sender` is the account that originated the contract call, an admin role bearer except when using {AccessControl-_setupRole}."
      },
      "RoleRevoked(bytes32,address,address)": {
        "details": "Emitted when `account` is revoked `role`. `sender` is the account that originated the contract call:   - if using `revokeRole`, it is the admin role bearer   - if using `renounceRole`, it is the role bearer (i.e. `account`)"
      }
    },
    "kind": "dev",
    "methods": {
      "getRoleAdmin(bytes32)": {
        "details": "Returns the admin role that controls `role`. See {grantRole} and {revokeRole}. To change a role's admin, use {_setRoleAdmin}."
      },
      "grantRole(bytes32,address)": {
        "details": "Grants `role` to `account`. If `account` had not been already granted `role`, emits a {RoleGranted} event. Requirements: - the caller must have ``role``'s admin role. May emit a {RoleGranted} event."
      },
      "hasRole(bytes32,address)": {
        "details": "Returns `true` if `account` has been granted `role`."
      },
      "renounceRole(bytes32,address)": {
        "details": "Revokes `role` from the calling account. Roles are often managed via {grantRole} and {revokeRole}: this function's purpose is to provide a mechanism for accounts to lose their privileges if they are compromised (such as when a trusted device is misplaced). If the calling account had been revoked `role`, emits a {RoleRevoked} event. Requirements: - the caller must be `account`. May emit a {RoleRevoked} event."
      },
      "revokeRole(bytes32,address)": {
        "details": "Revokes `role` from `account`. If `account` had been granted `role`, emits a {RoleRevoked} event. Requirements: - the caller must have ``role``'s admin role. May emit a {RoleRevoked} event."
      },
      "supportsInterface(bytes4)": {
        "details": "See {IERC165-supportsInterface}."
      }
    },
    "title": "SignerManagerProxyOwner",
    "version": 1
  },
  "userdoc": {
    "kind": "user",
    "methods": {},
    "version": 1
  },
  "storageLayout": {
    "storage": [
      {
        "astId": 24,
        "contract": "contracts/signerManager/SignerManagerProxyOwner.sol:SignerManagerProxyOwner",
        "label": "_roles",
        "offset": 0,
        "slot": "0",
        "type": "t_mapping(t_bytes32,t_struct(RoleData)19_storage)"
      },
      {
        "astId": 1738,
        "contract": "contracts/signerManager/SignerManagerProxyOwner.sol:SignerManagerProxyOwner",
        "label": "signerManager",
        "offset": 0,
        "slot": "1",
        "type": "t_contract(INexeraIDSignerManager)1727"
      }
    ],
    "types": {
      "t_address": {
        "encoding": "inplace",
        "label": "address",
        "numberOfBytes": "20"
      },
      "t_bool": {
        "encoding": "inplace",
        "label": "bool",
        "numberOfBytes": "1"
      },
      "t_bytes32": {
        "encoding": "inplace",
        "label": "bytes32",
        "numberOfBytes": "32"
      },
      "t_contract(INexeraIDSignerManager)1727": {
        "encoding": "inplace",
        "label": "contract INexeraIDSignerManager",
        "numberOfBytes": "20"
      },
      "t_mapping(t_address,t_bool)": {
        "encoding": "mapping",
        "key": "t_address",
        "label": "mapping(address => bool)",
        "numberOfBytes": "32",
        "value": "t_bool"
      },
      "t_mapping(t_bytes32,t_struct(RoleData)19_storage)": {
        "encoding": "mapping",
        "key": "t_bytes32",
        "label": "mapping(bytes32 => struct AccessControl.RoleData)",
        "numberOfBytes": "32",
        "value": "t_struct(RoleData)19_storage"
      },
      "t_struct(RoleData)19_storage": {
        "encoding": "inplace",
        "label": "struct AccessControl.RoleData",
        "members": [
          {
            "astId": 16,
            "contract": "contracts/signerManager/SignerManagerProxyOwner.sol:SignerManagerProxyOwner",
            "label": "members",
            "offset": 0,
            "slot": "0",
            "type": "t_mapping(t_address,t_bool)"
          },
          {
            "astId": 18,
            "contract": "contracts/signerManager/SignerManagerProxyOwner.sol:SignerManagerProxyOwner",
            "label": "adminRole",
            "offset": 0,
            "slot": "1",
            "type": "t_bytes32"
          }
        ],
        "numberOfBytes": "64"
      }
    }
  }
}