{
  "address": "0xDc9D8f103Ed3B1Fa70D6AE71dA737C54C2fB2618",
  "abi": [
    {
      "inputs": [
        {
          "internalType": "address",
          "name": "_implementationContract",
          "type": "address"
        }
      ],
      "stateMutability": "nonpayable",
      "type": "constructor"
    },
    {
      "anonymous": false,
      "inputs": [
        {
          "indexed": false,
          "internalType": "address",
          "name": "scenarioVerifierAddress",
          "type": "address"
        }
      ],
      "name": "NewVerifierEntrypointDeployed",
      "type": "event"
    },
    {
      "inputs": [],
      "name": "createVerifierEntrypoint",
      "outputs": [
        {
          "internalType": "address",
          "name": "",
          "type": "address"
        }
      ],
      "stateMutability": "nonpayable",
      "type": "function"
    }
  ],
  "transactionHash": "0xc61920a96b1e28453c32fa2f718ab076ecdcd7261a52d7236214760c1def775a",
  "args": [
    "0x667b63F7103773E420df062EA6631CBf97eD0e9B"
  ],
  "numDeployments": 1,
  "solcInputHash": "ae32deb1db46c11cf63bd3a5efe635da",
  "bytecode": "0x60a0346100ca57601f6102f738819003918201601f19168301916001600160401b038311848410176100cf578084926020946040528339810103126100ca57516001600160a01b0381168082036100ca571561006f5760805260405161021190816100e682396080518160560152f35b60405162461bcd60e51b815260206004820152602d60248201527f5f696d706c656d656e746174696f6e436f6e74726163742063616e277420626560448201526c207a65726f206164647265737360981b6064820152608490fd5b600080fd5b634e487b7160e01b600052604160045260246000fdfe608080604052600436101561001357600080fd5b600090813560e01c630fdef0ec1461002a57600080fd5b34610190578160031936011261019057733d602d80600a3d3981f3363d3d373d3d3d363d7360601b81527f000000000000000000000000000000000000000000000000000000000000000060601b6094526e5af43d82803e903d91602b57fd5bf360881b60a85260378183f0906001600160a01b03821690811561015b576001600160a01b0383166080527f410e03aebce931ca4a775ffc62a5755d6ce6bf7863d607795fa6b95f002ba37290602090a1803b156101575760405163189acdbd60e31b815233600482015261012d9390918290602490829084905af1801561014a575b610131575b506040516001600160a01b0390911681529081906020820190565b0390f35b8061013e610144926101a4565b80610194565b38610112565b6101526101ce565b61010d565b8280fd5b62461bcd60e51b81526020608452601660a45275115490cc4c4d8dce8818dc99585d194819985a5b195960521b60c452606490fd5b5080fd5b600091031261019f57565b600080fd5b67ffffffffffffffff81116101b857604052565b634e487b7160e01b600052604160045260246000fd5b506040513d6000823e3d90fdfea2646970667358221220df87968f2dee2c9da984bdba425281d36e80ed77d180ae6b31400dd9d645ab8564736f6c63430008100033",
  "devdoc": {
    "details": "Factory contract to create and deploy instances of the NexeraVerifierEntrypoint contract.",
    "events": {
      "NewVerifierEntrypointDeployed(address)": {
        "details": "Event emitted when a new VerifierEntrypoint contract is created.",
        "params": {
          "scenarioVerifierAddress": "The address of the newly deployed VerifierEntrypoint contract."
        }
      }
    },
    "kind": "dev",
    "methods": {
      "constructor": {
        "details": "Constructor to set the implementation contract address.",
        "params": {
          "_implementationContract": "The address of the VerifierEntrypoint implementation contract."
        }
      },
      "createVerifierEntrypoint()": {
        "details": "Creates a new VerifierEntrypoint contract and initializes it.",
        "returns": {
          "_0": "clone The address of the newly created VerifierEntrypoint contract."
        }
      }
    },
    "title": "VerifierEntrypointFactory",
    "version": 1
  },
  "userdoc": {
    "kind": "user",
    "methods": {},
    "version": 1
  },
  "storageLayout": {
    "storage": [],
    "types": null
  }
}