{
  "address": "0x11fb5A1980f163fEd2B97D75993A9AbEc6955212",
  "abi": [
    {
      "inputs": [
        {
          "internalType": "address",
          "name": "signerAddress",
          "type": "address"
        }
      ],
      "stateMutability": "nonpayable",
      "type": "constructor"
    },
    {
      "inputs": [],
      "name": "BlockExpired",
      "type": "error"
    },
    {
      "inputs": [],
      "name": "InvalidSignature",
      "type": "error"
    },
    {
      "anonymous": false,
      "inputs": [
        {
          "indexed": false,
          "internalType": "uint256",
          "name": "chainID",
          "type": "uint256"
        },
        {
          "indexed": false,
          "internalType": "uint256",
          "name": "nonce",
          "type": "uint256"
        },
        {
          "indexed": false,
          "internalType": "uint256",
          "name": "blockExpiration",
          "type": "uint256"
        },
        {
          "indexed": false,
          "internalType": "address",
          "name": "contractAddress",
          "type": "address"
        },
        {
          "indexed": false,
          "internalType": "address",
          "name": "userAddress",
          "type": "address"
        },
        {
          "indexed": false,
          "internalType": "bytes",
          "name": "functionCallData",
          "type": "bytes"
        }
      ],
      "name": "NexeraIDSignatureVerified",
      "type": "event"
    },
    {
      "anonymous": false,
      "inputs": [
        {
          "indexed": true,
          "internalType": "address",
          "name": "previousOwner",
          "type": "address"
        },
        {
          "indexed": true,
          "internalType": "address",
          "name": "newOwner",
          "type": "address"
        }
      ],
      "name": "OwnershipTransferred",
      "type": "event"
    },
    {
      "inputs": [],
      "name": "getBytesVariable",
      "outputs": [
        {
          "internalType": "bytes",
          "name": "",
          "type": "bytes"
        }
      ],
      "stateMutability": "view",
      "type": "function"
    },
    {
      "inputs": [
        {
          "components": [
            {
              "internalType": "uint256",
              "name": "chainID",
              "type": "uint256"
            },
            {
              "internalType": "uint256",
              "name": "nonce",
              "type": "uint256"
            },
            {
              "internalType": "uint256",
              "name": "blockExpiration",
              "type": "uint256"
            },
            {
              "internalType": "address",
              "name": "contractAddress",
              "type": "address"
            },
            {
              "internalType": "address",
              "name": "userAddress",
              "type": "address"
            },
            {
              "internalType": "bytes",
              "name": "functionCallData",
              "type": "bytes"
            }
          ],
          "internalType": "struct BaseTxAuthDataVerifier.TxAuthData",
          "name": "_txAuthData",
          "type": "tuple"
        }
      ],
      "name": "getMessageHash",
      "outputs": [
        {
          "internalType": "bytes32",
          "name": "",
          "type": "bytes32"
        }
      ],
      "stateMutability": "pure",
      "type": "function"
    },
    {
      "inputs": [],
      "name": "getSignerAddress",
      "outputs": [
        {
          "internalType": "address",
          "name": "",
          "type": "address"
        }
      ],
      "stateMutability": "view",
      "type": "function"
    },
    {
      "inputs": [
        {
          "internalType": "address",
          "name": "user",
          "type": "address"
        }
      ],
      "name": "getUserNonce",
      "outputs": [
        {
          "internalType": "uint256",
          "name": "",
          "type": "uint256"
        }
      ],
      "stateMutability": "view",
      "type": "function"
    },
    {
      "inputs": [
        {
          "internalType": "address",
          "name": "",
          "type": "address"
        }
      ],
      "name": "nonces",
      "outputs": [
        {
          "internalType": "uint256",
          "name": "",
          "type": "uint256"
        }
      ],
      "stateMutability": "view",
      "type": "function"
    },
    {
      "inputs": [],
      "name": "owner",
      "outputs": [
        {
          "internalType": "address",
          "name": "",
          "type": "address"
        }
      ],
      "stateMutability": "view",
      "type": "function"
    },
    {
      "inputs": [],
      "name": "renounceOwnership",
      "outputs": [],
      "stateMutability": "nonpayable",
      "type": "function"
    },
    {
      "inputs": [
        {
          "internalType": "address",
          "name": "_signer",
          "type": "address"
        }
      ],
      "name": "setSigner",
      "outputs": [],
      "stateMutability": "nonpayable",
      "type": "function"
    },
    {
      "inputs": [
        {
          "internalType": "address",
          "name": "newOwner",
          "type": "address"
        }
      ],
      "name": "transferOwnership",
      "outputs": [],
      "stateMutability": "nonpayable",
      "type": "function"
    },
    {
      "inputs": [
        {
          "internalType": "uint256",
          "name": "_intVariable",
          "type": "uint256"
        },
        {
          "internalType": "address",
          "name": "_addressVariable",
          "type": "address"
        },
        {
          "internalType": "bytes",
          "name": "_bytesVariable",
          "type": "bytes"
        },
        {
          "internalType": "uint256",
          "name": "_blockExpiration",
          "type": "uint256"
        },
        {
          "internalType": "bytes",
          "name": "_signature",
          "type": "bytes"
        }
      ],
      "name": "updateVariables",
      "outputs": [],
      "stateMutability": "nonpayable",
      "type": "function"
    }
  ],
  "transactionHash": "0xc2135263f3718fcf37f2c005cc9e58f41c877a368b7b50f00e3690f507dd2aff",
  "args": [
    "0x0BAd9DaD98143b2E946e8A40E4f27537be2f55E2"
  ],
  "numDeployments": 2,
  "solcInputHash": "8fb776f7ed7fdfac868ca82ba00caa44",
  "bytecode": "0x6080346100a957601f610c9b38819003918201601f19168301916001600160401b038311848410176100ae578084926020946040528339810103126100a957516001600160a01b0390818116908190036100a95760018060a01b031990816000541617600055600254903390821617600255604051913391167f8be0079c531659141344cd1fd0a4f28419497f9722a3daafe3b4186f6b6457e0600084a3610bd690816100c58239f35b600080fd5b634e487b7160e01b600052604160045260246000fdfe608080604052600436101561001357600080fd5b60003560e01c9081631a296e02146107c157508063536e672f146104125780636834e3a8146103335780636c19e783146103cf578063715018a61461036d5780637ecebe0014610333578063801954a8146102675780638da5cb5b1461023e578063f1525e0f1461015e5763f2fde38b1461008d57600080fd5b34610159576020366003190112610159576100a66107e5565b6100ae6108b7565b6001600160a01b0390811690811561010557600280546001600160a01b03198116841790915560405160009390929091167f8be0079c531659141344cd1fd0a4f28419497f9722a3daafe3b4186f6b6457e08484a3f35b60405162461bcd60e51b815260206004820152602660248201527f4f776e61626c653a206e6577206f776e657220697320746865207a65726f206160448201526564647265737360d01b6064820152608490fd5b600080fd5b34610159576000366003190112610159576040516000600554916101818361090f565b928382526020938480840192600190818116908160001461022057506001146101e0575b5050506101b682604094038361080f565b6101d28351948593818552519283809286015285850190610894565b601f01601f19168101030190f35b91909450600560005284600020916000925b82841061020d575050508201909201916101b68460406101a5565b80548685018801529286019281016101f2565b60ff19168552505090151560051b83010192506101b68460406101a5565b34610159576000366003190112610159576002546040516001600160a01b039091168152602090f35b3461015957600319602036820112610159576004356001600160401b03918282116101595760c09082360301126101595760405160c081018181108482111761031d576040528160040135815260248201356020820152604482013560408201526102d4606483016107fb565b60608201526102e5608483016107fb565b608082015260a48201359283116101595761030b61031592600460209536920101610876565b60a0820152610b1b565b604051908152f35b634e487b7160e01b600052604160045260246000fd5b34610159576020366003190112610159576001600160a01b036103546107e5565b1660005260016020526020604060002054604051908152f35b34610159576000366003190112610159576103866108b7565b600280546001600160a01b0319811690915560405160009182906001600160a01b03167f8be0079c531659141344cd1fd0a4f28419497f9722a3daafe3b4186f6b6457e08284a3f35b34610159576020366003190112610159576103e86107e5565b6103f06108b7565b600080546001600160a01b0319166001600160a01b0392909216919091179055005b346101595760a0366003190112610159576024356001600160a01b0381168103610159576044356001600160401b03811161015957610455903690600401610876565b906001600160401b036084351161015957366023608435011215610159576001600160401b03608435600401351161015957366024608435600401356084350101116101595736607f19810111610787576064354310156107af57336000526001602052604060002054604051908160c08101106001600160401b0360c08401111761031d5760c08201604052468252602082015260643560408201523060608201523360808201526001600160401b03607f1936011161031d576040513660601901601f1916916105519161052e602085018261080f565b36607f1901808252600060208301376000368201605f19015260a0820152610b1b565b7f19457468657265756d205369676e6564204d6573736167653a0a333200000000600052601c526105a761059f603c6000206105993660843560040135602460843501610830565b90610a5e565b919091610949565b6000546001600160a01b0390811691160361079d577f457734c71a6a3ef35a45b3a9aed14e0158cca171cd87330ecd1de4d4d61dc8f39033600052600160205260e06040600020546040519283914683526020830152606435604083015230606083015233608083015260c060a0830152607f19360160c0830152607f1936016000848401376000606036840101528101030190a133600052600160205260406000208054906001820180921161078757556004803560035580546001600160a01b0319166001600160a01b039290921691909117905580516001600160401b03811161031d5760059061069b825461090f565b601f8111610741575b50602092601f82116001146106e057928192936000926106d5575b50508160011b916000199060031b1c1916179055005b0151905083806106bf565b601f198216938360005260206000209160005b8681106107295750836001959610610710575b505050811b019055005b015160001960f88460031b161c19169055838080610706565b919260206001819286850151815501940192016106f3565b826000526020600020601f8301841c8101916020841061077d575b601f01841c01905b81811061077157506106a4565b60008155600101610764565b909150819061075c565b634e487b7160e01b600052601160045260246000fd5b604051638baa579f60e01b8152600490fd5b6040516378fd448d60e01b8152600490fd5b34610159576000366003190112610159576000546001600160a01b03168152602090f35b600435906001600160a01b038216820361015957565b35906001600160a01b038216820361015957565b90601f801991011681019081106001600160401b0382111761031d57604052565b9291926001600160401b03821161031d5760405191610859601f8201601f19166020018461080f565b829481845281830111610159578281602093846000960137010152565b9080601f830112156101595781602061089193359101610830565b90565b60005b8381106108a75750506000910152565b8181015183820152602001610897565b6002546001600160a01b031633036108cb57565b606460405162461bcd60e51b815260206004820152602060248201527f4f776e61626c653a2063616c6c6572206973206e6f7420746865206f776e65726044820152fd5b90600182811c9216801561093f575b602083101461092957565b634e487b7160e01b600052602260045260246000fd5b91607f169161091e565b6005811015610a48578061095a5750565b600181036109a25760405162461bcd60e51b815260206004820152601860248201527745434453413a20696e76616c6964207369676e617475726560401b6044820152606490fd5b600281036109ef5760405162461bcd60e51b815260206004820152601f60248201527f45434453413a20696e76616c6964207369676e6174757265206c656e677468006044820152606490fd5b6003146109f857565b60405162461bcd60e51b815260206004820152602260248201527f45434453413a20696e76616c6964207369676e6174757265202773272076616c604482015261756560f01b6064820152608490fd5b634e487b7160e01b600052602160045260246000fd5b906041815114600014610a8c57610a88916020820151906060604084015193015160001a90610a96565b9091565b5050600090600290565b9291906fa2a8918ca85bafe22016d0b997e4df60600160ff1b038311610b0f5791608094939160ff602094604051948552168484015260408301526060820152600093849182805260015afa15610b025781516001600160a01b03811615610afc579190565b50600190565b50604051903d90823e3d90fd5b50505050600090600390565b805190610b9a60a86020830151604084015193606081015160a060808301519201519160405196879460208601998a52604086015260608501526bffffffffffffffffffffffff19809260601b16608085015260601b166094830152610b8a8151809260208686019101610894565b810103608881018452018261080f565b5190209056fea26469706673582212200389a109f8b65cf27e80b669e0d2f07de7bc25fb004fb331948b54dcc39206f464736f6c63430008100033",
  "devdoc": {
    "details": "This contract demonstrates a contract inheriting from TxAuthDataVerifier to update variables with signature verification.",
    "kind": "dev",
    "methods": {
      "constructor": {
        "details": "Initializes the contract by setting a signer address for the TxAuthDataVerifier.",
        "params": {
          "signerAddress": "The address used for transaction data signature verification."
        }
      },
      "getBytesVariable()": {
        "returns": {
          "_0": "The current value of the bytes variable."
        }
      },
      "getMessageHash((uint256,uint256,uint256,address,address,bytes))": {
        "params": {
          "_txAuthData": "The transaction authentication data to hash"
        },
        "returns": {
          "_0": "The keccak256 hash of the encoded `TxAuthData`"
        }
      },
      "getSignerAddress()": {
        "returns": {
          "_0": "The signer address"
        }
      },
      "getUserNonce(address)": {
        "params": {
          "user": "The address of the user"
        },
        "returns": {
          "_0": "The current nonce of the user"
        }
      },
      "owner()": {
        "details": "Returns the address of the current owner."
      },
      "renounceOwnership()": {
        "details": "Leaves the contract without owner. It will not be possible to call `onlyOwner` functions. Can only be called by the current owner. NOTE: Renouncing ownership will leave the contract without an owner, thereby disabling any functionality that is only available to the owner."
      },
      "setSigner(address)": {
        "details": "Can only be called by the current owner",
        "params": {
          "_signer": "The address of the new signer"
        }
      },
      "transferOwnership(address)": {
        "details": "Transfers ownership of the contract to a new account (`newOwner`). Can only be called by the current owner."
      },
      "updateVariables(uint256,address,bytes,uint256,bytes)": {
        "details": "Requires the transaction to be authenticated via `requireTxDataAuth`.",
        "params": {
          "_addressVariable": "The new value for the address variable.",
          "_blockExpiration": "The block number until which the transaction is considered valid.",
          "_bytesVariable": "The new value for the bytes variable.",
          "_intVariable": "The new value for the integer variable.",
          "_signature": "The signature proving the authenticity of the transaction data."
        }
      }
    },
    "title": "Example Multiple Inputs Contract",
    "version": 1
  },
  "userdoc": {
    "errors": {
      "BlockExpired()": [
        {
          "notice": "Custom error for handling signature expiry"
        }
      ],
      "InvalidSignature()": [
        {
          "notice": "Custom error for handling invalid signatures"
        }
      ]
    },
    "kind": "user",
    "methods": {
      "getBytesVariable()": {
        "notice": "Returns the current value of the bytes variable."
      },
      "getMessageHash((uint256,uint256,uint256,address,address,bytes))": {
        "notice": "Generates a hash of the given `TxAuthData`"
      },
      "getSignerAddress()": {
        "notice": "Retrieves the signer address"
      },
      "getUserNonce(address)": {
        "notice": "Retrieves the current nonce for a given user"
      },
      "nonces(address)": {
        "notice": "Mapping to track the nonces of users to prevent replay attacks"
      },
      "setSigner(address)": {
        "notice": "Sets a new signer address"
      },
      "updateVariables(uint256,address,bytes,uint256,bytes)": {
        "notice": "Updates the contract variables after verifying the transaction signature."
      }
    },
    "notice": "This contract allows updating certain variables only after verifying the transaction authenticity with a signature.",
    "version": 1
  },
  "storageLayout": {
    "storage": [
      {
        "astId": 6629,
        "contract": "contracts/gatedExamples/ExampleMultipleInputs.sol:ExampleMultipleInputs",
        "label": "signer",
        "offset": 0,
        "slot": "0",
        "type": "t_address"
      },
      {
        "astId": 6634,
        "contract": "contracts/gatedExamples/ExampleMultipleInputs.sol:ExampleMultipleInputs",
        "label": "nonces",
        "offset": 0,
        "slot": "1",
        "type": "t_mapping(t_address,t_uint256)"
      },
      {
        "astId": 3061,
        "contract": "contracts/gatedExamples/ExampleMultipleInputs.sol:ExampleMultipleInputs",
        "label": "_owner",
        "offset": 0,
        "slot": "2",
        "type": "t_address"
      },
      {
        "astId": 6532,
        "contract": "contracts/gatedExamples/ExampleMultipleInputs.sol:ExampleMultipleInputs",
        "label": "intVariable",
        "offset": 0,
        "slot": "3",
        "type": "t_uint256"
      },
      {
        "astId": 6534,
        "contract": "contracts/gatedExamples/ExampleMultipleInputs.sol:ExampleMultipleInputs",
        "label": "addressVariable",
        "offset": 0,
        "slot": "4",
        "type": "t_address"
      },
      {
        "astId": 6536,
        "contract": "contracts/gatedExamples/ExampleMultipleInputs.sol:ExampleMultipleInputs",
        "label": "bytesVariable",
        "offset": 0,
        "slot": "5",
        "type": "t_bytes_storage"
      }
    ],
    "types": {
      "t_address": {
        "encoding": "inplace",
        "label": "address",
        "numberOfBytes": "20"
      },
      "t_bytes_storage": {
        "encoding": "bytes",
        "label": "bytes",
        "numberOfBytes": "32"
      },
      "t_mapping(t_address,t_uint256)": {
        "encoding": "mapping",
        "key": "t_address",
        "label": "mapping(address => uint256)",
        "numberOfBytes": "32",
        "value": "t_uint256"
      },
      "t_uint256": {
        "encoding": "inplace",
        "label": "uint256",
        "numberOfBytes": "32"
      }
    }
  }
}