{
  "address": "0x824D53b553ecEdDf3476738aB9fF3D6C228D33a3",
  "abi": [
    {
      "inputs": [],
      "stateMutability": "nonpayable",
      "type": "constructor"
    },
    {
      "anonymous": false,
      "inputs": [
        {
          "indexed": false,
          "internalType": "uint8",
          "name": "version",
          "type": "uint8"
        }
      ],
      "name": "Initialized",
      "type": "event"
    },
    {
      "anonymous": false,
      "inputs": [
        {
          "indexed": true,
          "internalType": "address",
          "name": "previousOwner",
          "type": "address"
        },
        {
          "indexed": true,
          "internalType": "address",
          "name": "newOwner",
          "type": "address"
        }
      ],
      "name": "OwnershipTransferred",
      "type": "event"
    },
    {
      "anonymous": false,
      "inputs": [
        {
          "indexed": false,
          "internalType": "address",
          "name": "scenarioVerifierAddress",
          "type": "address"
        }
      ],
      "name": "ScenarioVerifierAdded",
      "type": "event"
    },
    {
      "anonymous": false,
      "inputs": [
        {
          "indexed": false,
          "internalType": "address",
          "name": "scenarioVerifierAddress",
          "type": "address"
        }
      ],
      "name": "ScenarioVerifierDeleted",
      "type": "event"
    },
    {
      "anonymous": false,
      "inputs": [
        {
          "indexed": false,
          "internalType": "address",
          "name": "scenarioVerifierAddress",
          "type": "address"
        }
      ],
      "name": "ScenarioVerifierDisabled",
      "type": "event"
    },
    {
      "anonymous": false,
      "inputs": [
        {
          "indexed": false,
          "internalType": "address",
          "name": "scenarioVerifierAddress",
          "type": "address"
        }
      ],
      "name": "ScenarioVerifierEnabled",
      "type": "event"
    },
    {
      "anonymous": false,
      "inputs": [
        {
          "indexed": false,
          "internalType": "address",
          "name": "oldScenarioVerifierAddress",
          "type": "address"
        },
        {
          "indexed": false,
          "internalType": "address",
          "name": "newScenarioVerifierAddress",
          "type": "address"
        }
      ],
      "name": "ScenarioVerifierUpdated",
      "type": "event"
    },
    {
      "inputs": [
        {
          "internalType": "address",
          "name": "scenarioVerifierAddress",
          "type": "address"
        }
      ],
      "name": "addScenarioVerifier",
      "outputs": [],
      "stateMutability": "nonpayable",
      "type": "function"
    },
    {
      "inputs": [
        {
          "internalType": "address",
          "name": "scenarioVerifierAddress",
          "type": "address"
        }
      ],
      "name": "deleteScenarioVerifier",
      "outputs": [],
      "stateMutability": "nonpayable",
      "type": "function"
    },
    {
      "inputs": [
        {
          "internalType": "address",
          "name": "scenarioVerifierAddress",
          "type": "address"
        }
      ],
      "name": "disableScenario",
      "outputs": [],
      "stateMutability": "nonpayable",
      "type": "function"
    },
    {
      "inputs": [
        {
          "internalType": "address",
          "name": "scenarioVerifierAddress",
          "type": "address"
        }
      ],
      "name": "enableScenario",
      "outputs": [],
      "stateMutability": "nonpayable",
      "type": "function"
    },
    {
      "inputs": [
        {
          "internalType": "address",
          "name": "scenarioVerifierAddress",
          "type": "address"
        }
      ],
      "name": "getIsScenarioEnabled",
      "outputs": [
        {
          "internalType": "bool",
          "name": "",
          "type": "bool"
        }
      ],
      "stateMutability": "view",
      "type": "function"
    },
    {
      "inputs": [
        {
          "internalType": "uint256",
          "name": "index",
          "type": "uint256"
        }
      ],
      "name": "getScenarioVerifierAddress",
      "outputs": [
        {
          "internalType": "address",
          "name": "",
          "type": "address"
        }
      ],
      "stateMutability": "view",
      "type": "function"
    },
    {
      "inputs": [
        {
          "internalType": "address",
          "name": "newOwner",
          "type": "address"
        }
      ],
      "name": "initialize",
      "outputs": [],
      "stateMutability": "nonpayable",
      "type": "function"
    },
    {
      "inputs": [
        {
          "internalType": "address",
          "name": "user",
          "type": "address"
        }
      ],
      "name": "isAllowedForEntrypoint",
      "outputs": [
        {
          "internalType": "bool",
          "name": "",
          "type": "bool"
        }
      ],
      "stateMutability": "view",
      "type": "function"
    },
    {
      "inputs": [],
      "name": "owner",
      "outputs": [
        {
          "internalType": "address",
          "name": "",
          "type": "address"
        }
      ],
      "stateMutability": "view",
      "type": "function"
    },
    {
      "inputs": [],
      "name": "renounceOwnership",
      "outputs": [],
      "stateMutability": "nonpayable",
      "type": "function"
    },
    {
      "inputs": [
        {
          "internalType": "address",
          "name": "newOwner",
          "type": "address"
        }
      ],
      "name": "transferOwnership",
      "outputs": [],
      "stateMutability": "nonpayable",
      "type": "function"
    },
    {
      "inputs": [
        {
          "internalType": "address",
          "name": "oldScenarioVerifierAddress",
          "type": "address"
        },
        {
          "internalType": "address",
          "name": "newScenarioVerifierAddress",
          "type": "address"
        }
      ],
      "name": "updateScenarioVerifier",
      "outputs": [],
      "stateMutability": "nonpayable",
      "type": "function"
    }
  ],
  "transactionHash": "0x53c4eb3c080380eba045d4fbcca4d9edc14593583dc3d9e13969f22e37e2e20b",
  "args": [],
  "numDeployments": 1,
  "solcInputHash": "01f3f48de4e4d02d39c4cf8b4c5f3a4c",
  "bytecode": "0x60806040523480156200001157600080fd5b5062000032620000266200004860201b60201c565b6200005060201b60201c565b620000426200011560201b60201c565b620002bf565b600033905090565b60008060029054906101000a900473ffffffffffffffffffffffffffffffffffffffff16905081600060026101000a81548173ffffffffffffffffffffffffffffffffffffffff021916908373ffffffffffffffffffffffffffffffffffffffff1602179055508173ffffffffffffffffffffffffffffffffffffffff168173ffffffffffffffffffffffffffffffffffffffff167f8be0079c531659141344cd1fd0a4f28419497f9722a3daafe3b4186f6b6457e060405160405180910390a35050565b600060019054906101000a900460ff161562000168576040517f08c379a00000000000000000000000000000000000000000000000000000000081526004016200015f9062000262565b60405180910390fd5b60ff801660008054906101000a900460ff1660ff1614620001d95760ff6000806101000a81548160ff021916908360ff1602179055507f7f26b83ff96e1f2b6a682f133852f6798a09c465da95921460cefb384740249860ff604051620001d09190620002a2565b60405180910390a15b565b600082825260208201905092915050565b7f496e697469616c697a61626c653a20636f6e747261637420697320696e69746960008201527f616c697a696e6700000000000000000000000000000000000000000000000000602082015250565b60006200024a602783620001db565b91506200025782620001ec565b604082019050919050565b600060208201905081810360008301526200027d816200023b565b9050919050565b600060ff82169050919050565b6200029c8162000284565b82525050565b6000602082019050620002b9600083018462000291565b92915050565b61151280620002cf6000396000f3fe608060405234801561001057600080fd5b50600436106100b45760003560e01c80638da5cb5b116100715780638da5cb5b14610163578063b347e74114610181578063c4d66de8146101b1578063d1a2851d146101cd578063da872ffa146101fd578063f2fde38b14610219576100b4565b8063010f25d7146100b95780630192e6c8146100d55780633288c682146100f1578063715018a61461010d57806386ba2519146101175780638b7458c614610133575b600080fd5b6100d360048036038101906100ce9190610f37565b610235565b005b6100ef60048036038101906100ea9190610f77565b6102d4565b005b61010b60048036038101906101069190610f77565b61036c565b005b610115610404565b005b610131600480360381019061012c9190610f77565b610418565b005b61014d60048036038101906101489190610f77565b6104e3565b60405161015a9190610fbf565b60405180910390f35b61016b61050d565b6040516101789190610fe9565b60405180910390f35b61019b60048036038101906101969190610f77565b610536565b6040516101a89190610fbf565b60405180910390f35b6101cb60048036038101906101c69190610f77565b610611565b005b6101e760048036038101906101e2919061103a565b610751565b6040516101f49190610fe9565b60405180910390f35b61021760048036038101906102129190610f77565b610765565b005b610233600480360381019061022e9190610f77565b610807565b005b61023d61088a565b61024682610908565b610285576040517f08c379a000000000000000000000000000000000000000000000000000000000815260040161027c906110ea565b60405180910390fd5b61028e82610765565b61029781610418565b7f7e895ef684dc2bc346da08dc2f907aee03d3f2fbaf9634e53d9c848081e354bc82826040516102c892919061110a565b60405180910390a15050565b6102dc61088a565b6102e581610908565b610324576040517f08c379a000000000000000000000000000000000000000000000000000000000815260040161031b906110ea565b60405180910390fd5b610331600382600161091c565b507f18694eb16874b3190b87ff4555f9e0bf11824582bbff638dbf1cf695c9ead06d816040516103619190610fe9565b60405180910390a150565b61037461088a565b61037d81610908565b6103bc576040517f08c379a00000000000000000000000000000000000000000000000000000000081526004016103b3906110ea565b60405180910390fd5b6103c9600382600061091c565b507fc24ce0afc93b75393d529101473eace78db706e505db6dff99f36a6098b6527f816040516103f99190610fe9565b60405180910390a150565b61040c61088a565b6104166000610951565b565b61042061088a565b600073ffffffffffffffffffffffffffffffffffffffff168173ffffffffffffffffffffffffffffffffffffffff160361048f576040517f08c379a0000000000000000000000000000000000000000000000000000000008152600401610486906111a5565b60405180910390fd5b61049a600182610a16565b506104a8600382600161091c565b507f9cb35b4d87a29c981b43fe2b083241b12e94b901ee8278d73d81ce7dc3180ac7816040516104d89190610fe9565b60405180910390a150565b60008060006104f3600385610a46565b915091508180156105045750600181145b92505050919050565b60008060029054906101000a900473ffffffffffffffffffffffffffffffffffffffff16905090565b6000806001905060006105496001610a88565b905060008151905060005b818110156106055782818151811061056f5761056e6111c5565b5b602002602001015173ffffffffffffffffffffffffffffffffffffffff1663398cfb76876040518263ffffffff1660e01b81526004016105af9190610fe9565b602060405180830381865afa1580156105cc573d6000803e3d6000fd5b505050506040513d601f19601f820116820180604052508101906105f09190611220565b93508315610605578080600101915050610554565b50829350505050919050565b60008060019054906101000a900460ff161590508080156106425750600160008054906101000a900460ff1660ff16105b8061066f575061065130610aa9565b15801561066e5750600160008054906101000a900460ff1660ff16145b5b6106ae576040517f08c379a00000000000000000000000000000000000000000000000000000000081526004016106a5906112bf565b60405180910390fd5b60016000806101000a81548160ff021916908360ff16021790555080156106eb576001600060016101000a81548160ff0219169083151502179055505b6106f482610951565b801561074d5760008060016101000a81548160ff0219169083151502179055507f7f26b83ff96e1f2b6a682f133852f6798a09c465da95921460cefb384740249860016040516107449190611331565b60405180910390a15b5050565b600061075e600183610acc565b9050919050565b61076d61088a565b61077681610908565b6107b5576040517f08c379a00000000000000000000000000000000000000000000000000000000081526004016107ac906110ea565b60405180910390fd5b6107c0600182610ae6565b506107cc600382610b16565b507f6d2f0e1df68c030383a28d88dd5c68415e7a6546fbe379c429b28b5cc9339e0c816040516107fc9190610fe9565b60405180910390a150565b61080f61088a565b600073ffffffffffffffffffffffffffffffffffffffff168173ffffffffffffffffffffffffffffffffffffffff160361087e576040517f08c379a0000000000000000000000000000000000000000000000000000000008152600401610875906113be565b60405180910390fd5b61088781610951565b50565b610892610b46565b73ffffffffffffffffffffffffffffffffffffffff166108b061050d565b73ffffffffffffffffffffffffffffffffffffffff1614610906576040517f08c379a00000000000000000000000000000000000000000000000000000000081526004016108fd9061142a565b60405180910390fd5b565b6000610915600183610b4e565b9050919050565b6000610948846000018473ffffffffffffffffffffffffffffffffffffffff1660001b8460001b610b7e565b90509392505050565b60008060029054906101000a900473ffffffffffffffffffffffffffffffffffffffff16905081600060026101000a81548173ffffffffffffffffffffffffffffffffffffffff021916908373ffffffffffffffffffffffffffffffffffffffff1602179055508173ffffffffffffffffffffffffffffffffffffffff168173ffffffffffffffffffffffffffffffffffffffff167f8be0079c531659141344cd1fd0a4f28419497f9722a3daafe3b4186f6b6457e060405160405180910390a35050565b6000610a3e836000018373ffffffffffffffffffffffffffffffffffffffff1660001b610bb9565b905092915050565b600080600080610a72866000018673ffffffffffffffffffffffffffffffffffffffff1660001b610c29565b91509150818160001c9350935050509250929050565b60606000610a9883600001610c78565b905060608190508092505050919050565b6000808273ffffffffffffffffffffffffffffffffffffffff163b119050919050565b6000610adb8360000183610cd4565b60001c905092915050565b6000610b0e836000018373ffffffffffffffffffffffffffffffffffffffff1660001b610cff565b905092915050565b6000610b3e836000018373ffffffffffffffffffffffffffffffffffffffff1660001b610e13565b905092915050565b600033905090565b6000610b76836000018373ffffffffffffffffffffffffffffffffffffffff1660001b610e4c565b905092915050565b60008184600201600085815260200190815260200160002081905550610bb08385600001610e6f90919063ffffffff16565b90509392505050565b6000610bc58383610e4c565b610c1e578260000182908060018154018082558091505060019003906000526020600020016000909190919091505582600001805490508360010160008481526020019081526020016000208190555060019050610c23565b600090505b92915050565b60008060008460020160008581526020019081526020016000205490506000801b8103610c6857610c5a8585610e86565b6000801b9250925050610c71565b60018192509250505b9250929050565b606081600001805480602002602001604051908101604052809291908181526020018280548015610cc857602002820191906000526020600020905b815481526020019060010190808311610cb4575b50505050509050919050565b6000826000018281548110610cec57610ceb6111c5565b5b9060005260206000200154905092915050565b60008083600101600084815260200190815260200160002054905060008114610e07576000600182610d319190611479565b9050600060018660000180549050610d499190611479565b9050818114610db8576000866000018281548110610d6a57610d696111c5565b5b9060005260206000200154905080876000018481548110610d8e57610d8d6111c5565b5b90600052602060002001819055508387600101600083815260200190815260200160002081905550505b85600001805480610dcc57610dcb6114ad565b5b600190038181906000526020600020016000905590558560010160008681526020019081526020016000206000905560019350505050610e0d565b60009150505b92915050565b600082600201600083815260200190815260200160002060009055610e448284600001610ea690919063ffffffff16565b905092915050565b600080836001016000848152602001908152602001600020541415905092915050565b6000610e7e8360000183610bb9565b905092915050565b6000610e9e8284600001610ebd90919063ffffffff16565b905092915050565b6000610eb58360000183610cff565b905092915050565b6000610ecc8360000183610e4c565b905092915050565b600080fd5b600073ffffffffffffffffffffffffffffffffffffffff82169050919050565b6000610f0482610ed9565b9050919050565b610f1481610ef9565b8114610f1f57600080fd5b50565b600081359050610f3181610f0b565b92915050565b60008060408385031215610f4e57610f4d610ed4565b5b6000610f5c85828601610f22565b9250506020610f6d85828601610f22565b9150509250929050565b600060208284031215610f8d57610f8c610ed4565b5b6000610f9b84828501610f22565b91505092915050565b60008115159050919050565b610fb981610fa4565b82525050565b6000602082019050610fd46000830184610fb0565b92915050565b610fe381610ef9565b82525050565b6000602082019050610ffe6000830184610fda565b92915050565b6000819050919050565b61101781611004565b811461102257600080fd5b50565b6000813590506110348161100e565b92915050565b6000602082840312156110505761104f610ed4565b5b600061105e84828501611025565b91505092915050565b600082825260208201905092915050565b7f4e65786572612056657269666965723a205363656e6172696f2056657269666960008201527f6572204164647265737320646f65736e27742065786973740000000000000000602082015250565b60006110d4603883611067565b91506110df82611078565b604082019050919050565b60006020820190508181036000830152611103816110c7565b9050919050565b600060408201905061111f6000830185610fda565b61112c6020830184610fda565b9392505050565b7f496e707574205363656e6172696f20616464726573732063616e6e6f7420626560008201527f20746865207a65726f2061646472657373000000000000000000000000000000602082015250565b600061118f603183611067565b915061119a82611133565b604082019050919050565b600060208201905081810360008301526111be81611182565b9050919050565b7f4e487b7100000000000000000000000000000000000000000000000000000000600052603260045260246000fd5b6111fd81610fa4565b811461120857600080fd5b50565b60008151905061121a816111f4565b92915050565b60006020828403121561123657611235610ed4565b5b60006112448482850161120b565b91505092915050565b7f496e697469616c697a61626c653a20636f6e747261637420697320616c72656160008201527f647920696e697469616c697a6564000000000000000000000000000000000000602082015250565b60006112a9602e83611067565b91506112b48261124d565b604082019050919050565b600060208201905081810360008301526112d88161129c565b9050919050565b6000819050919050565b600060ff82169050919050565b6000819050919050565b600061131b611316611311846112df565b6112f6565b6112e9565b9050919050565b61132b81611300565b82525050565b60006020820190506113466000830184611322565b92915050565b7f4f776e61626c653a206e6577206f776e657220697320746865207a65726f206160008201527f6464726573730000000000000000000000000000000000000000000000000000602082015250565b60006113a8602683611067565b91506113b38261134c565b604082019050919050565b600060208201905081810360008301526113d78161139b565b9050919050565b7f4f776e61626c653a2063616c6c6572206973206e6f7420746865206f776e6572600082015250565b6000611414602083611067565b915061141f826113de565b602082019050919050565b6000602082019050818103600083015261144381611407565b9050919050565b7f4e487b7100000000000000000000000000000000000000000000000000000000600052601160045260246000fd5b600061148482611004565b915061148f83611004565b92508282039050818111156114a7576114a661144a565b5b92915050565b7f4e487b7100000000000000000000000000000000000000000000000000000000600052603160045260246000fdfea26469706673582212205e9e7c354e73032330348082807e5d3565e2606647637116d205a90a48c89a0a64736f6c63430008100033",
  "devdoc": {
    "events": {
      "ScenarioVerifierAdded(address)": {
        "details": "Event emitted when a Scenario Verifier is added"
      },
      "ScenarioVerifierDeleted(address)": {
        "details": "Event emitted when a Scenario Verifier is deleted"
      },
      "ScenarioVerifierDisabled(address)": {
        "details": "Event emitted when a Scenario Verifier is disabled"
      },
      "ScenarioVerifierEnabled(address)": {
        "details": "Event emitted when a Scenario Verifier is enabled"
      },
      "ScenarioVerifierUpdated(address,address)": {
        "details": "Event emitted when a Scenario Verifier is updated"
      }
    },
    "kind": "dev",
    "methods": {
      "addScenarioVerifier(address)": {
        "params": {
          "scenarioVerifierAddress": "Address of the new scenario verifier"
        }
      },
      "deleteScenarioVerifier(address)": {
        "params": {
          "scenarioVerifierAddress": "Address of the scenario verifier to delete"
        }
      },
      "disableScenario(address)": {
        "params": {
          "scenarioVerifierAddress": "Address of the scenario verifier to disable"
        }
      },
      "enableScenario(address)": {
        "params": {
          "scenarioVerifierAddress": "Address of the scenario verifier to enable"
        }
      },
      "getIsScenarioEnabled(address)": {
        "params": {
          "scenarioVerifierAddress": "Address of the scenario verifier to check"
        },
        "returns": {
          "_0": "Boolean with the response"
        }
      },
      "getScenarioVerifierAddress(uint256)": {
        "params": {
          "index": "The index of the verifier in the list"
        },
        "returns": {
          "_0": "Address of the scenario verifier"
        }
      },
      "initialize(address)": {
        "details": "Initialize proxied contract with owner",
        "params": {
          "newOwner": "The address of the thing owner"
        }
      },
      "isAllowedForEntrypoint(address)": {
        "params": {
          "user": "The address of the user to check"
        },
        "returns": {
          "_0": "isUserAllowed True if the user is allowed, false otherwise"
        }
      },
      "owner()": {
        "details": "Returns the address of the current owner."
      },
      "renounceOwnership()": {
        "details": "Leaves the contract without owner. It will not be possible to call `onlyOwner` functions. Can only be called by the current owner. NOTE: Renouncing ownership will leave the contract without an owner, thereby disabling any functionality that is only available to the owner."
      },
      "transferOwnership(address)": {
        "details": "Transfers ownership of the contract to a new account (`newOwner`). Can only be called by the current owner."
      },
      "updateScenarioVerifier(address,address)": {
        "params": {
          "newScenarioVerifierAddress": "Address of the new scenario verifier",
          "oldScenarioVerifierAddress": "Address of the existing scenario verifier"
        }
      }
    },
    "title": "Nexera Verifier Entrypoint",
    "version": 1
  },
  "userdoc": {
    "kind": "user",
    "methods": {
      "addScenarioVerifier(address)": {
        "notice": "Adds a new scenario verifier to the entrypoint"
      },
      "deleteScenarioVerifier(address)": {
        "notice": "Deletes a scenario verifier from the entrypoint"
      },
      "disableScenario(address)": {
        "notice": "Disables a scenario verifier"
      },
      "enableScenario(address)": {
        "notice": "Enables a scenario verifier"
      },
      "getIsScenarioEnabled(address)": {
        "notice": "Gets if a scenario is enabled"
      },
      "getScenarioVerifierAddress(uint256)": {
        "notice": "Gets the address of a scenario verifier by index"
      },
      "isAllowedForEntrypoint(address)": {
        "notice": "Checks if a user is allowed for the entrypoint"
      },
      "updateScenarioVerifier(address,address)": {
        "notice": "Updates an existing scenario verifier"
      }
    },
    "notice": "This contract manages the registration, update, and verification of Scenario Verifiers for a single project",
    "version": 1
  },
  "storageLayout": {
    "storage": [
      {
        "astId": 3607,
        "contract": "contracts/NexeraVerifierEntrypoint.sol:NexeraVerifierEntrypoint",
        "label": "_initialized",
        "offset": 0,
        "slot": "0",
        "type": "t_uint8"
      },
      {
        "astId": 3610,
        "contract": "contracts/NexeraVerifierEntrypoint.sol:NexeraVerifierEntrypoint",
        "label": "_initializing",
        "offset": 1,
        "slot": "0",
        "type": "t_bool"
      },
      {
        "astId": 3443,
        "contract": "contracts/NexeraVerifierEntrypoint.sol:NexeraVerifierEntrypoint",
        "label": "_owner",
        "offset": 2,
        "slot": "0",
        "type": "t_address"
      },
      {
        "astId": 6898,
        "contract": "contracts/NexeraVerifierEntrypoint.sol:NexeraVerifierEntrypoint",
        "label": "scenarioVerifierAddresses",
        "offset": 0,
        "slot": "1",
        "type": "t_struct(AddressSet)6403_storage"
      },
      {
        "astId": 6901,
        "contract": "contracts/NexeraVerifierEntrypoint.sol:NexeraVerifierEntrypoint",
        "label": "isScenarioEnabled",
        "offset": 0,
        "slot": "3",
        "type": "t_struct(AddressToUintMap)5585_storage"
      }
    ],
    "types": {
      "t_address": {
        "encoding": "inplace",
        "label": "address",
        "numberOfBytes": "20"
      },
      "t_array(t_bytes32)dyn_storage": {
        "base": "t_bytes32",
        "encoding": "dynamic_array",
        "label": "bytes32[]",
        "numberOfBytes": "32"
      },
      "t_bool": {
        "encoding": "inplace",
        "label": "bool",
        "numberOfBytes": "1"
      },
      "t_bytes32": {
        "encoding": "inplace",
        "label": "bytes32",
        "numberOfBytes": "32"
      },
      "t_mapping(t_bytes32,t_bytes32)": {
        "encoding": "mapping",
        "key": "t_bytes32",
        "label": "mapping(bytes32 => bytes32)",
        "numberOfBytes": "32",
        "value": "t_bytes32"
      },
      "t_mapping(t_bytes32,t_uint256)": {
        "encoding": "mapping",
        "key": "t_bytes32",
        "label": "mapping(bytes32 => uint256)",
        "numberOfBytes": "32",
        "value": "t_uint256"
      },
      "t_struct(AddressSet)6403_storage": {
        "encoding": "inplace",
        "label": "struct EnumerableSet.AddressSet",
        "members": [
          {
            "astId": 6402,
            "contract": "contracts/NexeraVerifierEntrypoint.sol:NexeraVerifierEntrypoint",
            "label": "_inner",
            "offset": 0,
            "slot": "0",
            "type": "t_struct(Set)6088_storage"
          }
        ],
        "numberOfBytes": "64"
      },
      "t_struct(AddressToUintMap)5585_storage": {
        "encoding": "inplace",
        "label": "struct EnumerableMap.AddressToUintMap",
        "members": [
          {
            "astId": 5584,
            "contract": "contracts/NexeraVerifierEntrypoint.sol:NexeraVerifierEntrypoint",
            "label": "_inner",
            "offset": 0,
            "slot": "0",
            "type": "t_struct(Bytes32ToBytes32Map)4835_storage"
          }
        ],
        "numberOfBytes": "96"
      },
      "t_struct(Bytes32Set)6282_storage": {
        "encoding": "inplace",
        "label": "struct EnumerableSet.Bytes32Set",
        "members": [
          {
            "astId": 6281,
            "contract": "contracts/NexeraVerifierEntrypoint.sol:NexeraVerifierEntrypoint",
            "label": "_inner",
            "offset": 0,
            "slot": "0",
            "type": "t_struct(Set)6088_storage"
          }
        ],
        "numberOfBytes": "64"
      },
      "t_struct(Bytes32ToBytes32Map)4835_storage": {
        "encoding": "inplace",
        "label": "struct EnumerableMap.Bytes32ToBytes32Map",
        "members": [
          {
            "astId": 4830,
            "contract": "contracts/NexeraVerifierEntrypoint.sol:NexeraVerifierEntrypoint",
            "label": "_keys",
            "offset": 0,
            "slot": "0",
            "type": "t_struct(Bytes32Set)6282_storage"
          },
          {
            "astId": 4834,
            "contract": "contracts/NexeraVerifierEntrypoint.sol:NexeraVerifierEntrypoint",
            "label": "_values",
            "offset": 0,
            "slot": "2",
            "type": "t_mapping(t_bytes32,t_bytes32)"
          }
        ],
        "numberOfBytes": "96"
      },
      "t_struct(Set)6088_storage": {
        "encoding": "inplace",
        "label": "struct EnumerableSet.Set",
        "members": [
          {
            "astId": 6083,
            "contract": "contracts/NexeraVerifierEntrypoint.sol:NexeraVerifierEntrypoint",
            "label": "_values",
            "offset": 0,
            "slot": "0",
            "type": "t_array(t_bytes32)dyn_storage"
          },
          {
            "astId": 6087,
            "contract": "contracts/NexeraVerifierEntrypoint.sol:NexeraVerifierEntrypoint",
            "label": "_indexes",
            "offset": 0,
            "slot": "1",
            "type": "t_mapping(t_bytes32,t_uint256)"
          }
        ],
        "numberOfBytes": "64"
      },
      "t_uint256": {
        "encoding": "inplace",
        "label": "uint256",
        "numberOfBytes": "32"
      },
      "t_uint8": {
        "encoding": "inplace",
        "label": "uint8",
        "numberOfBytes": "1"
      }
    }
  }
}