{
  "address": "0xFD07540ffBD4Dff2fF348b6D08020330679C7b3a",
  "abi": [
    {
      "anonymous": false,
      "inputs": [
        {
          "indexed": false,
          "internalType": "uint8",
          "name": "version",
          "type": "uint8"
        }
      ],
      "name": "Initialized",
      "type": "event"
    },
    {
      "anonymous": false,
      "inputs": [
        {
          "indexed": true,
          "internalType": "address",
          "name": "previousOwner",
          "type": "address"
        },
        {
          "indexed": true,
          "internalType": "address",
          "name": "newOwner",
          "type": "address"
        }
      ],
      "name": "OwnershipTransferred",
      "type": "event"
    },
    {
      "inputs": [],
      "name": "VERSION",
      "outputs": [
        {
          "internalType": "string",
          "name": "",
          "type": "string"
        }
      ],
      "stateMutability": "view",
      "type": "function"
    },
    {
      "inputs": [],
      "name": "getSupportedCircuitIds",
      "outputs": [
        {
          "internalType": "string[]",
          "name": "ids",
          "type": "string[]"
        }
      ],
      "stateMutability": "view",
      "type": "function"
    },
    {
      "inputs": [],
      "name": "gistRootExpirationTimeout",
      "outputs": [
        {
          "internalType": "uint256",
          "name": "",
          "type": "uint256"
        }
      ],
      "stateMutability": "view",
      "type": "function"
    },
    {
      "inputs": [
        {
          "internalType": "address",
          "name": "_verifierContractAddr",
          "type": "address"
        },
        {
          "internalType": "address",
          "name": "_stateContractAddr",
          "type": "address"
        }
      ],
      "name": "initialize",
      "outputs": [],
      "stateMutability": "nonpayable",
      "type": "function"
    },
    {
      "inputs": [
        {
          "internalType": "string",
          "name": "name",
          "type": "string"
        }
      ],
      "name": "inputIndexOf",
      "outputs": [
        {
          "internalType": "uint256",
          "name": "",
          "type": "uint256"
        }
      ],
      "stateMutability": "view",
      "type": "function"
    },
    {
      "inputs": [],
      "name": "owner",
      "outputs": [
        {
          "internalType": "address",
          "name": "",
          "type": "address"
        }
      ],
      "stateMutability": "view",
      "type": "function"
    },
    {
      "inputs": [
        {
          "internalType": "uint256[]",
          "name": "inputs",
          "type": "uint256[]"
        }
      ],
      "name": "parseCommonPubSignals",
      "outputs": [
        {
          "components": [
            {
              "internalType": "uint256",
              "name": "merklized",
              "type": "uint256"
            },
            {
              "internalType": "uint256",
              "name": "userID",
              "type": "uint256"
            },
            {
              "internalType": "uint256",
              "name": "issuerState",
              "type": "uint256"
            },
            {
              "internalType": "uint256",
              "name": "circuitQueryHash",
              "type": "uint256"
            },
            {
              "internalType": "uint256",
              "name": "requestID",
              "type": "uint256"
            },
            {
              "internalType": "uint256",
              "name": "challenge",
              "type": "uint256"
            },
            {
              "internalType": "uint256",
              "name": "gistRoot",
              "type": "uint256"
            },
            {
              "internalType": "uint256",
              "name": "issuerID",
              "type": "uint256"
            },
            {
              "internalType": "uint256",
              "name": "isRevocationChecked",
              "type": "uint256"
            },
            {
              "internalType": "uint256",
              "name": "issuerClaimNonRevState",
              "type": "uint256"
            },
            {
              "internalType": "uint256",
              "name": "timestamp",
              "type": "uint256"
            }
          ],
          "internalType": "struct CredentialAtomicQueryValidator.CommonPubSignals",
          "name": "",
          "type": "tuple"
        }
      ],
      "stateMutability": "pure",
      "type": "function"
    },
    {
      "inputs": [],
      "name": "proofExpirationTimeout",
      "outputs": [
        {
          "internalType": "uint256",
          "name": "",
          "type": "uint256"
        }
      ],
      "stateMutability": "view",
      "type": "function"
    },
    {
      "inputs": [],
      "name": "renounceOwnership",
      "outputs": [],
      "stateMutability": "nonpayable",
      "type": "function"
    },
    {
      "inputs": [],
      "name": "revocationStateExpirationTimeout",
      "outputs": [
        {
          "internalType": "uint256",
          "name": "",
          "type": "uint256"
        }
      ],
      "stateMutability": "view",
      "type": "function"
    },
    {
      "inputs": [
        {
          "internalType": "uint256",
          "name": "expirationTimeout",
          "type": "uint256"
        }
      ],
      "name": "setGISTRootExpirationTimeout",
      "outputs": [],
      "stateMutability": "nonpayable",
      "type": "function"
    },
    {
      "inputs": [
        {
          "internalType": "uint256",
          "name": "expirationTimeout",
          "type": "uint256"
        }
      ],
      "name": "setProofExpirationTimeout",
      "outputs": [],
      "stateMutability": "nonpayable",
      "type": "function"
    },
    {
      "inputs": [
        {
          "internalType": "uint256",
          "name": "expirationTimeout",
          "type": "uint256"
        }
      ],
      "name": "setRevocationStateExpirationTimeout",
      "outputs": [],
      "stateMutability": "nonpayable",
      "type": "function"
    },
    {
      "inputs": [
        {
          "internalType": "address",
          "name": "stateContractAddr",
          "type": "address"
        }
      ],
      "name": "setStateAddress",
      "outputs": [],
      "stateMutability": "nonpayable",
      "type": "function"
    },
    {
      "inputs": [],
      "name": "state",
      "outputs": [
        {
          "internalType": "contract IState",
          "name": "",
          "type": "address"
        }
      ],
      "stateMutability": "view",
      "type": "function"
    },
    {
      "inputs": [
        {
          "internalType": "address",
          "name": "newOwner",
          "type": "address"
        }
      ],
      "name": "transferOwnership",
      "outputs": [],
      "stateMutability": "nonpayable",
      "type": "function"
    },
    {
      "inputs": [
        {
          "internalType": "uint256[]",
          "name": "inputs",
          "type": "uint256[]"
        },
        {
          "internalType": "uint256[2]",
          "name": "a",
          "type": "uint256[2]"
        },
        {
          "internalType": "uint256[2][2]",
          "name": "b",
          "type": "uint256[2][2]"
        },
        {
          "internalType": "uint256[2]",
          "name": "c",
          "type": "uint256[2]"
        },
        {
          "internalType": "bytes",
          "name": "data",
          "type": "bytes"
        }
      ],
      "name": "verify",
      "outputs": [],
      "stateMutability": "view",
      "type": "function"
    }
  ],
  "transactionHash": "0xf14354c085fb8e1b866746035ce3c70e6586c1f64d4385f7aba0f8d7100700da",
  "args": [],
  "numDeployments": 1,
  "solcInputHash": "01f3f48de4e4d02d39c4cf8b4c5f3a4c",
  "bytecode": "0x608060405234801561001057600080fd5b506137c3806100206000396000f3fe608060405234801561001057600080fd5b506004361061010b5760003560e01c80638da5cb5b116100a2578063c19d93fb11610071578063c19d93fb1461026a578063cb5aa55814610288578063f2fde38b146102b8578063fb5af2a2146102d4578063ffa1ad74146102f25761010b565b80638da5cb5b146101e05780638eff038a146101fe5780639a8a5b171461021c578063b16a394f1461023a5761010b565b806348d36920116100de57806348d36920146101825780635307e79f1461019e578063652377dc146101ba578063715018a6146101d65761010b565b80631134b480146101105780631af6d99b1461012c5780631c4c7fd81461014a578063485cc95514610166575b600080fd5b61012a60048036038101906101259190611b10565b610310565b005b610134610323565b6040516101419190611b4c565b60405180910390f35b610164600480360381019061015f9190611bc5565b61032a565b005b610180600480360381019061017b9190611bf2565b610377565b005b61019c60048036038101906101979190611b10565b610828565b005b6101b860048036038101906101b39190611d31565b61083b565b005b6101d460048036038101906101cf9190611b10565b610853565b005b6101de610866565b005b6101e861087a565b6040516101f59190611dfe565b60405180910390f35b6102066108a4565b6040516102139190611b4c565b60405180910390f35b6102246108ab565b6040516102319190611b4c565b60405180910390f35b610254600480360381019061024f9190611f5a565b6108b2565b6040516102619190611b4c565b60405180910390f35b61027261092f565b60405161027f9190612002565b60405180910390f35b6102a2600480360381019061029d919061201d565b610956565b6040516102af919061215a565b60405180910390f35b6102d260048036038101906102cd9190611bc5565b610ad6565b005b6102dc610b59565b6040516102e991906122b7565b60405180910390f35b6102fa610c33565b6040516103079190612323565b60405180910390f35b610318610c6c565b8061025e8190555050565b61025d5481565b610332610c6c565b8061025b60006101000a81548173ffffffffffffffffffffffffffffffffffffffff021916908373ffffffffffffffffffffffffffffffffffffffff16021790555050565b60008060019054906101000a900460ff161590508080156103a85750600160008054906101000a900460ff1660ff16105b806103d557506103b730610cea565b1580156103d45750600160008054906101000a900460ff1660ff16145b5b610414576040517f08c379a000000000000000000000000000000000000000000000000000000000815260040161040b906123b7565b60405180910390fd5b60016000806101000a81548160ff021916908360ff1602179055508015610451576001600060016101000a81548160ff0219169083151502179055505b6104916040518060400160405280600981526020017f6d65726b6c697a656400000000000000000000000000000000000000000000008152506000610d0d565b6104d16040518060400160405280600681526020017f75736572494400000000000000000000000000000000000000000000000000008152506001610d0d565b6105116040518060400160405280601081526020017f63697263756974517565727948617368000000000000000000000000000000008152506002610d0d565b6105516040518060400160405280600f81526020017f69737375657241757468537461746500000000000000000000000000000000008152506003610d0d565b6105916040518060400160405280600981526020017f72657175657374494400000000000000000000000000000000000000000000008152506004610d0d565b6105d16040518060400160405280600981526020017f6368616c6c656e676500000000000000000000000000000000000000000000008152506005610d0d565b6106116040518060400160405280600881526020017f67697374526f6f740000000000000000000000000000000000000000000000008152506006610d0d565b6106516040518060400160405280600881526020017f69737375657249440000000000000000000000000000000000000000000000008152506007610d0d565b6106916040518060400160405280601381526020017f69735265766f636174696f6e436865636b6564000000000000000000000000008152506008610d0d565b6106d16040518060400160405280601681526020017f697373756572436c61696d4e6f6e5265765374617465000000000000000000008152506009610d0d565b6107116040518060400160405280600981526020017f74696d657374616d700000000000000000000000000000000000000000000000815250600a610d0d565b604051806020016040528060405180606001604052806021815260200161376d6021913981525061025a906001610749929190611992565b508261025960405180606001604052806021815260200161376d602191396040516107749190612413565b908152602001604051809103902060006101000a81548173ffffffffffffffffffffffffffffffffffffffff021916908373ffffffffffffffffffffffffffffffffffffffff1602179055506107ca8383610d41565b80156108235760008060016101000a81548160ff0219169083151502179055507f7f26b83ff96e1f2b6a682f133852f6798a09c465da95921460cefb3847402498600160405161081a9190612472565b60405180910390a15b505050565b610830610c6c565b8061025d8190555050565b61084a87878787878787610dfc565b50505050505050565b61085b610c6c565b8061025c8190555050565b61086e610c6c565b610878600061104e565b565b6000603360009054906101000a900473ffffffffffffffffffffffffffffffffffffffff16905090565b61025c5481565b61025e5481565b60008061025f836040516108c69190612413565b90815260200160405180910390205490506000810361091a576040517f08c379a0000000000000000000000000000000000000000000000000000000008152600401610911906124d9565b60405180910390fd5b8061092490612528565b905080915050919050565b61025b60009054906101000a900473ffffffffffffffffffffffffffffffffffffffff1681565b61095e6119eb565b6000604051806101600160405280858560008181106109805761097f612551565b5b905060200201358152602001858560018181106109a05761099f612551565b5b905060200201358152602001858560038181106109c0576109bf612551565b5b905060200201358152602001858560028181106109e0576109df612551565b5b90506020020135815260200185856004818110610a00576109ff612551565b5b90506020020135815260200185856005818110610a2057610a1f612551565b5b90506020020135815260200185856006818110610a4057610a3f612551565b5b90506020020135815260200185856007818110610a6057610a5f612551565b5b90506020020135815260200185856008818110610a8057610a7f612551565b5b90506020020135815260200185856009818110610aa057610a9f612551565b5b9050602002013581526020018585600a818110610ac057610abf612551565b5b9050602002013581525090508091505092915050565b610ade610c6c565b600073ffffffffffffffffffffffffffffffffffffffff168173ffffffffffffffffffffffffffffffffffffffff1603610b4d576040517f08c379a0000000000000000000000000000000000000000000000000000000008152600401610b44906125f2565b60405180910390fd5b610b568161104e565b50565b606061025a805480602002602001604051908101604052809291908181526020016000905b82821015610c2a578382906000526020600020018054610b9d90612641565b80601f0160208091040260200160405190810160405280929190818152602001828054610bc990612641565b8015610c165780601f10610beb57610100808354040283529160200191610c16565b820191906000526020600020905b815481529060010190602001808311610bf957829003601f168201915b505050505081526020019060010190610b7e565b50505050905090565b6040518060400160405280600581526020017f312e302e3100000000000000000000000000000000000000000000000000000081525081565b610c74611114565b73ffffffffffffffffffffffffffffffffffffffff16610c9261087a565b73ffffffffffffffffffffffffffffffffffffffff1614610ce8576040517f08c379a0000000000000000000000000000000000000000000000000000000008152600401610cdf906126be565b60405180910390fd5b565b6000808273ffffffffffffffffffffffffffffffffffffffff163b119050919050565b80610d17906126de565b90508061025f83604051610d2b9190612413565b9081526020016040518091039020819055505050565b600060019054906101000a900460ff16610d90576040517f08c379a0000000000000000000000000000000000000000000000000000000008152600401610d8790612798565b60405180910390fd5b610e1061025c81905550610e1061025d81905550610e1061025e819055508061025b60006101000a81548173ffffffffffffffffffffffffffffffffffffffff021916908373ffffffffffffffffffffffffffffffffffffffff160217905550610df861111c565b5050565b60008282810190610e0d9190612ae8565b905060006102598260e00151600081518110610e2c57610e2b612551565b5b6020026020010151604051610e419190612413565b908152602001604051809103902060009054906101000a900473ffffffffffffffffffffffffffffffffffffffff16905060018260e0015151148015610eb45750600073ffffffffffffffffffffffffffffffffffffffff168173ffffffffffffffffffffffffffffffffffffffff1614155b610ef3576040517f08c379a0000000000000000000000000000000000000000000000000000000008152600401610eea90612b7d565b60405180910390fd5b8073ffffffffffffffffffffffffffffffffffffffff16632612907c8888888d8d6040518663ffffffff1660e01b8152600401610f34959493929190612ce7565b602060405180830381865afa158015610f51573d6000803e3d6000fd5b505050506040513d601f19601f82011682018060405250810190610f759190612d4c565b610fb4576040517f08c379a0000000000000000000000000000000000000000000000000000000008152600401610fab90612dc5565b60405180910390fd5b6000610fc08a8a610956565b90508260a0015181606001511461100c576040517f08c379a000000000000000000000000000000000000000000000000000000000815260040161100390612e57565b60405180910390fd5b61101e81600001518460200151611175565b6110308160e001518460c001516111d4565b6110428160e001518260400151611264565b50505050505050505050565b6000603360009054906101000a900473ffffffffffffffffffffffffffffffffffffffff16905081603360006101000a81548173ffffffffffffffffffffffffffffffffffffffff021916908373ffffffffffffffffffffffffffffffffffffffff1602179055508173ffffffffffffffffffffffffffffffffffffffff168173ffffffffffffffffffffffffffffffffffffffff167f8be0079c531659141344cd1fd0a4f28419497f9722a3daafe3b4186f6b6457e060405160405180910390a35050565b600033905090565b600060019054906101000a900460ff1661116b576040517f08c379a000000000000000000000000000000000000000000000000000000000815260040161116290612798565b60405180910390fd5b611173611367565b565b6000808203611185576000611188565b60015b60ff1690508083146111cf576040517f08c379a00000000000000000000000000000000000000000000000000000000081526004016111c690612ec3565b60405180910390fd5b505050565b6000815103156112605760005b8151811015611224578181815181106111fd576111fc612551565b5b602002602001015183036112115750611260565b808061121c906126de565b9150506111e1565b506040517f08c379a000000000000000000000000000000000000000000000000000000000815260040161125790612f55565b60405180910390fd5b5050565b600061127083836113c8565b90508061136257600061025b60009054906101000a900473ffffffffffffffffffffffffffffffffffffffff1673ffffffffffffffffffffffffffffffffffffffff166353c8731285856040518363ffffffff1660e01b81526004016112d7929190612f75565b60e060405180830381865afa1580156112f4573d6000803e3d6000fd5b505050506040513d601f19601f820116820180604052508101906113189190613067565b905080600001518414611360576040517f08c379a000000000000000000000000000000000000000000000000000000000815260040161135790613106565b60405180910390fd5b505b505050565b600060019054906101000a900460ff166113b6576040517f08c379a00000000000000000000000000000000000000000000000000000000081526004016113ad90612798565b60405180910390fd5b6113c66113c1611114565b61104e565b565b6000806113dc6113d785611402565b61154e565b6113e59061318f565b905060006113f382856115ab565b90508085149250505092915050565b600081905060087eff00ff00ff00ff00ff00ff00ff00ff00ff00ff00ff00ff00ff00ff00ff00ff8216901b60087fff00ff00ff00ff00ff00ff00ff00ff00ff00ff00ff00ff00ff00ff00ff00ff008316901c17905060107dffff0000ffff0000ffff0000ffff0000ffff0000ffff0000ffff0000ffff8216901b60107fffff0000ffff0000ffff0000ffff0000ffff0000ffff0000ffff0000ffff00008316901c17905060207bffffffff00000000ffffffff00000000ffffffff00000000ffffffff8216901b60207fffffffff00000000ffffffff00000000ffffffff00000000ffffffff000000008316901c179050604077ffffffffffffffff0000000000000000ffffffffffffffff8216901b60407fffffffffffffffff0000000000000000ffffffffffffffff00000000000000008316901c179050608081901b608082901c179050919050565b6060602067ffffffffffffffff81111561156b5761156a611e2f565b5b6040519080825280601f01601f19166020018201604052801561159d5781602001600182028036833780820191505090505b509050816020820152919050565b6000806115bf6115ba84611402565b61154e565b905060006115dc82601b84516115d591906131f6565b601b6116f9565b90506000611609866040516020016115f4919061324b565b6040516020818303038152906040528361170f565b9050601d81511461164f576040517f08c379a0000000000000000000000000000000000000000000000000000000008152600401611646906132d8565b60405180910390fd5b600061166261165d83611723565b6117bd565b9050600081604051602001611677919061333c565b60405160208183030381529060405290506000611694848361170f565b9050601f8151146116da576040517f08c379a00000000000000000000000000000000000000000000000000000000081526004016116d1906133a3565b60405180910390fd5b6116eb6116e6826117dc565b611402565b965050505050505092915050565b60606117068484846117ea565b90509392505050565b606061171b8383611908565b905092915050565b6000601d825114611769576040517f08c379a0000000000000000000000000000000000000000000000000000000008152600401611760906132d8565b60405180910390fd5b60005b82518110156117b75782818151811061178857611787612551565b5b602001015160f81c60f81b60f81c60ff16826117a491906133c3565b9150806117b0906126de565b905061176c565b50919050565b600081905060088161ffff16901b60088261ffff16901c179050919050565b600060208201519050919050565b606081601f836117fa91906133f9565b101561183b576040517f08c379a000000000000000000000000000000000000000000000000000000000815260040161183290613479565b60405180910390fd5b818361184791906133f9565b8451101561188a576040517f08c379a0000000000000000000000000000000000000000000000000000000008152600401611881906134e5565b60405180910390fd5b60608215600081146118ab57604051915060008252602082016040526118fc565b6040519150601f8416801560200281840101858101878315602002848b0101015b818310156118e957805183526020830192506020810190506118cc565b50868552601f19601f8301166040525050505b50809150509392505050565b6060806040519050835180825260208201818101602087015b8183101561193e5780518352602083019250602081019050611921565b50855192508351830184528091508282019050602086015b818310156119735780518352602083019250602081019050611956565b50601f19601f8851850115830101166040525050508091505092915050565b8280548282559060005260206000209081019282156119da579160200282015b828111156119d95782518290816119c9919061369a565b50916020019190600101906119b2565b5b5090506119e79190611a45565b5090565b60405180610160016040528060008152602001600081526020016000815260200160008152602001600081526020016000815260200160008152602001600081526020016000815260200160008152602001600081525090565b5b80821115611a655760008181611a5c9190611a69565b50600101611a46565b5090565b508054611a7590612641565b6000825580601f10611a875750611aa6565b601f016020900490600052602060002090810190611aa59190611aa9565b5b50565b5b80821115611ac2576000816000905550600101611aaa565b5090565b6000604051905090565b600080fd5b600080fd5b6000819050919050565b611aed81611ada565b8114611af857600080fd5b50565b600081359050611b0a81611ae4565b92915050565b600060208284031215611b2657611b25611ad0565b5b6000611b3484828501611afb565b91505092915050565b611b4681611ada565b82525050565b6000602082019050611b616000830184611b3d565b92915050565b600073ffffffffffffffffffffffffffffffffffffffff82169050919050565b6000611b9282611b67565b9050919050565b611ba281611b87565b8114611bad57600080fd5b50565b600081359050611bbf81611b99565b92915050565b600060208284031215611bdb57611bda611ad0565b5b6000611be984828501611bb0565b91505092915050565b60008060408385031215611c0957611c08611ad0565b5b6000611c1785828601611bb0565b9250506020611c2885828601611bb0565b9150509250929050565b600080fd5b600080fd5b600080fd5b60008083601f840112611c5757611c56611c32565b5b8235905067ffffffffffffffff811115611c7457611c73611c37565b5b602083019150836020820283011115611c9057611c8f611c3c565b5b9250929050565b600081905082602060020282011115611cb357611cb2611c3c565b5b92915050565b600081905082604060020282011115611cd557611cd4611c3c565b5b92915050565b60008083601f840112611cf157611cf0611c32565b5b8235905067ffffffffffffffff811115611d0e57611d0d611c37565b5b602083019150836001820283011115611d2a57611d29611c3c565b5b9250929050565b6000806000806000806000610140888a031215611d5157611d50611ad0565b5b600088013567ffffffffffffffff811115611d6f57611d6e611ad5565b5b611d7b8a828b01611c41565b97509750506020611d8e8a828b01611c97565b9550506060611d9f8a828b01611cb9565b94505060e0611db08a828b01611c97565b93505061012088013567ffffffffffffffff811115611dd257611dd1611ad5565b5b611dde8a828b01611cdb565b925092505092959891949750929550565b611df881611b87565b82525050565b6000602082019050611e136000830184611def565b92915050565b600080fd5b6000601f19601f8301169050919050565b7f4e487b7100000000000000000000000000000000000000000000000000000000600052604160045260246000fd5b611e6782611e1e565b810181811067ffffffffffffffff82111715611e8657611e85611e2f565b5b80604052505050565b6000611e99611ac6565b9050611ea58282611e5e565b919050565b600067ffffffffffffffff821115611ec557611ec4611e2f565b5b611ece82611e1e565b9050602081019050919050565b82818337600083830152505050565b6000611efd611ef884611eaa565b611e8f565b905082815260208101848484011115611f1957611f18611e19565b5b611f24848285611edb565b509392505050565b600082601f830112611f4157611f40611c32565b5b8135611f51848260208601611eea565b91505092915050565b600060208284031215611f7057611f6f611ad0565b5b600082013567ffffffffffffffff811115611f8e57611f8d611ad5565b5b611f9a84828501611f2c565b91505092915050565b6000819050919050565b6000611fc8611fc3611fbe84611b67565b611fa3565b611b67565b9050919050565b6000611fda82611fad565b9050919050565b6000611fec82611fcf565b9050919050565b611ffc81611fe1565b82525050565b60006020820190506120176000830184611ff3565b92915050565b6000806020838503121561203457612033611ad0565b5b600083013567ffffffffffffffff81111561205257612051611ad5565b5b61205e85828601611c41565b92509250509250929050565b61207381611ada565b82525050565b61016082016000820151612090600085018261206a565b5060208201516120a3602085018261206a565b5060408201516120b6604085018261206a565b5060608201516120c9606085018261206a565b5060808201516120dc608085018261206a565b5060a08201516120ef60a085018261206a565b5060c082015161210260c085018261206a565b5060e082015161211560e085018261206a565b5061010082015161212a61010085018261206a565b5061012082015161213f61012085018261206a565b5061014082015161215461014085018261206a565b50505050565b6000610160820190506121706000830184612079565b92915050565b600081519050919050565b600082825260208201905092915050565b6000819050602082019050919050565b600081519050919050565b600082825260208201905092915050565b60005b838110156121dc5780820151818401526020810190506121c1565b60008484015250505050565b60006121f3826121a2565b6121fd81856121ad565b935061220d8185602086016121be565b61221681611e1e565b840191505092915050565b600061222d83836121e8565b905092915050565b6000602082019050919050565b600061224d82612176565b6122578185612181565b93508360208202850161226985612192565b8060005b858110156122a557848403895281516122868582612221565b945061229183612235565b925060208a0199505060018101905061226d565b50829750879550505050505092915050565b600060208201905081810360008301526122d18184612242565b905092915050565b600082825260208201905092915050565b60006122f5826121a2565b6122ff81856122d9565b935061230f8185602086016121be565b61231881611e1e565b840191505092915050565b6000602082019050818103600083015261233d81846122ea565b905092915050565b7f496e697469616c697a61626c653a20636f6e747261637420697320616c72656160008201527f647920696e697469616c697a6564000000000000000000000000000000000000602082015250565b60006123a1602e836122d9565b91506123ac82612345565b604082019050919050565b600060208201905081810360008301526123d081612394565b9050919050565b600081905092915050565b60006123ed826121a2565b6123f781856123d7565b93506124078185602086016121be565b80840191505092915050565b600061241f82846123e2565b915081905092915050565b6000819050919050565b600060ff82169050919050565b600061245c6124576124528461242a565b611fa3565b612434565b9050919050565b61246c81612441565b82525050565b60006020820190506124876000830184612463565b92915050565b7f496e707574206e616d65206e6f7420666f756e64000000000000000000000000600082015250565b60006124c36014836122d9565b91506124ce8261248d565b602082019050919050565b600060208201905081810360008301526124f2816124b6565b9050919050565b7f4e487b7100000000000000000000000000000000000000000000000000000000600052601160045260246000fd5b600061253382611ada565b915060008203612546576125456124f9565b5b600182039050919050565b7f4e487b7100000000000000000000000000000000000000000000000000000000600052603260045260246000fd5b7f4f776e61626c653a206e6577206f776e657220697320746865207a65726f206160008201527f6464726573730000000000000000000000000000000000000000000000000000602082015250565b60006125dc6026836122d9565b91506125e782612580565b604082019050919050565b6000602082019050818103600083015261260b816125cf565b9050919050565b7f4e487b7100000000000000000000000000000000000000000000000000000000600052602260045260246000fd5b6000600282049050600182168061265957607f821691505b60208210810361266c5761266b612612565b5b50919050565b7f4f776e61626c653a2063616c6c6572206973206e6f7420746865206f776e6572600082015250565b60006126a86020836122d9565b91506126b382612672565b602082019050919050565b600060208201905081810360008301526126d78161269b565b9050919050565b60006126e982611ada565b91507fffffffffffffffffffffffffffffffffffffffffffffffffffffffffffffffff820361271b5761271a6124f9565b5b600182019050919050565b7f496e697469616c697a61626c653a20636f6e7472616374206973206e6f74206960008201527f6e697469616c697a696e67000000000000000000000000000000000000000000602082015250565b6000612782602b836122d9565b915061278d82612726565b604082019050919050565b600060208201905081810360008301526127b181612775565b9050919050565b600080fd5b600080fd5b600067ffffffffffffffff8211156127dd576127dc611e2f565b5b602082029050602081019050919050565b60006128016127fc846127c2565b611e8f565b9050808382526020820190506020840283018581111561282457612823611c3c565b5b835b8181101561284d57806128398882611afb565b845260208401935050602081019050612826565b5050509392505050565b600082601f83011261286c5761286b611c32565b5b813561287c8482602086016127ee565b91505092915050565b600067ffffffffffffffff8211156128a05761289f611e2f565b5b602082029050602081019050919050565b60006128c46128bf84612885565b611e8f565b905080838252602082019050602084028301858111156128e7576128e6611c3c565b5b835b8181101561292e57803567ffffffffffffffff81111561290c5761290b611c32565b5b8086016129198982611f2c565b855260208501945050506020810190506128e9565b5050509392505050565b600082601f83011261294d5761294c611c32565b5b813561295d8482602086016128b1565b91505092915050565b60008115159050919050565b61297b81612966565b811461298657600080fd5b50565b60008135905061299881612972565b92915050565b600061014082840312156129b5576129b46127b8565b5b6129c0610140611e8f565b905060006129d084828501611afb565b60008301525060206129e484828501611afb565b60208301525060406129f884828501611afb565b6040830152506060612a0c84828501611afb565b606083015250608082013567ffffffffffffffff811115612a3057612a2f6127bd565b5b612a3c84828501612857565b60808301525060a0612a5084828501611afb565b60a08301525060c082013567ffffffffffffffff811115612a7457612a736127bd565b5b612a8084828501612857565b60c08301525060e082013567ffffffffffffffff811115612aa457612aa36127bd565b5b612ab084828501612938565b60e083015250610100612ac584828501612989565b61010083015250610120612adb84828501611afb565b6101208301525092915050565b600060208284031215612afe57612afd611ad0565b5b600082013567ffffffffffffffff811115612b1c57612b1b611ad5565b5b612b288482850161299e565b91505092915050565b7f496e76616c696420636972637569742049440000000000000000000000000000600082015250565b6000612b676012836122d9565b9150612b7282612b31565b602082019050919050565b60006020820190508181036000830152612b9681612b5a565b9050919050565b82818337505050565b612bb260408383612b9d565b5050565b600060029050919050565b600081905092915050565b6000819050919050565b612be260408383612b9d565b5050565b6000612bf28383612bd6565b60408301905092915050565b600082905092915050565b6000604082019050919050565b612c1f81612bb6565b612c298184612bc1565b9250612c3482612bcc565b8060005b83811015612c6d57612c4a8284612bfe565b612c548782612be6565b9650612c5f83612c09565b925050600181019050612c38565b505050505050565b600082825260208201905092915050565b600080fd5b6000612c978385612c75565b93507f07ffffffffffffffffffffffffffffffffffffffffffffffffffffffffffffff831115612cca57612cc9612c86565b5b602083029250612cdb838584612b9d565b82840190509392505050565b600061012082019050612cfd6000830188612ba6565b612d0a6040830187612c16565b612d1760c0830186612ba6565b818103610100830152612d2b818486612c8b565b90509695505050505050565b600081519050612d4681612972565b92915050565b600060208284031215612d6257612d61611ad0565b5b6000612d7084828501612d37565b91505092915050565b7f50726f6f66206973206e6f742076616c69640000000000000000000000000000600082015250565b6000612daf6012836122d9565b9150612dba82612d79565b602082019050919050565b60006020820190508181036000830152612dde81612da2565b9050919050565b7f5175657279206861736820646f6573206e6f74206d617463682074686520726560008201527f71756573746564206f6e65000000000000000000000000000000000000000000602082015250565b6000612e41602b836122d9565b9150612e4c82612de5565b604082019050919050565b60006020820190508181036000830152612e7081612e34565b9050919050565b7f4d65726b6c697a65642076616c7565206973206e6f7420636f72726563740000600082015250565b6000612ead601e836122d9565b9150612eb882612e77565b602082019050919050565b60006020820190508181036000830152612edc81612ea0565b9050919050565b7f497373756572206973206e6f74206f6e2074686520416c6c6f7765642049737360008201527f75657273206c6973740000000000000000000000000000000000000000000000602082015250565b6000612f3f6029836122d9565b9150612f4a82612ee3565b604082019050919050565b60006020820190508181036000830152612f6e81612f32565b9050919050565b6000604082019050612f8a6000830185611b3d565b612f976020830184611b3d565b9392505050565b600081519050612fad81611ae4565b92915050565b600060e08284031215612fc957612fc86127b8565b5b612fd360e0611e8f565b90506000612fe384828501612f9e565b6000830152506020612ff784828501612f9e565b602083015250604061300b84828501612f9e565b604083015250606061301f84828501612f9e565b606083015250608061303384828501612f9e565b60808301525060a061304784828501612f9e565b60a08301525060c061305b84828501612f9e565b60c08301525092915050565b600060e0828403121561307d5761307c611ad0565b5b600061308b84828501612fb3565b91505092915050565b7f537461746520646f65736e277420657869737420696e20737461746520636f6e60008201527f7472616374000000000000000000000000000000000000000000000000000000602082015250565b60006130f06025836122d9565b91506130fb82613094565b604082019050919050565b6000602082019050818103600083015261311f816130e3565b9050919050565b600081519050919050565b6000819050602082019050919050565b60007fffff00000000000000000000000000000000000000000000000000000000000082169050919050565b60006131798251613141565b80915050919050565b600082821b905092915050565b600061319a82613126565b826131a484613131565b90506131af8161316d565b925060028210156131ef576131ea7fffff00000000000000000000000000000000000000000000000000000000000083600203600802613182565b831692505b5050919050565b600061320182611ada565b915061320c83611ada565b9250828203905081811115613224576132236124f9565b5b92915050565b6000819050919050565b61324561324082613141565b61322a565b82525050565b60006132578284613234565b60028201915081905092915050565b7f436865636b73756d207265717569726573203239206c656e677468206172726160008201527f7900000000000000000000000000000000000000000000000000000000000000602082015250565b60006132c26021836122d9565b91506132cd82613266565b604082019050919050565b600060208201905081810360008301526132f1816132b5565b9050919050565b600061ffff82169050919050565b60008160f01b9050919050565b600061331e82613306565b9050919050565b613336613331826132f8565b613313565b82525050565b60006133488284613325565b60028201915081905092915050565b7f69644279746573207265717569726573203331206c656e677468206172726179600082015250565b600061338d6020836122d9565b915061339882613357565b602082019050919050565b600060208201905081810360008301526133bc81613380565b9050919050565b60006133ce826132f8565b91506133d9836132f8565b9250828201905061ffff8111156133f3576133f26124f9565b5b92915050565b600061340482611ada565b915061340f83611ada565b9250828201905080821115613427576134266124f9565b5b92915050565b7f736c6963655f6f766572666c6f77000000000000000000000000000000000000600082015250565b6000613463600e836122d9565b915061346e8261342d565b602082019050919050565b6000602082019050818103600083015261349281613456565b9050919050565b7f736c6963655f6f75744f66426f756e6473000000000000000000000000000000600082015250565b60006134cf6011836122d9565b91506134da82613499565b602082019050919050565b600060208201905081810360008301526134fe816134c2565b9050919050565b60008190508160005260206000209050919050565b60006020601f8301049050919050565b60006008830261355a7fffffffffffffffffffffffffffffffffffffffffffffffffffffffffffffffff82613182565b6135648683613182565b95508019841693508086168417925050509392505050565b600061359761359261358d84611ada565b611fa3565b611ada565b9050919050565b6000819050919050565b6135b18361357c565b6135c56135bd8261359e565b84845461352a565b825550505050565b600090565b6135da6135cd565b6135e58184846135a8565b505050565b5b81811015613609576135fe6000826135d2565b6001810190506135eb565b5050565b601f82111561364e5761361f81613505565b6136288461351a565b81016020851015613637578190505b61364b6136438561351a565b8301826135ea565b50505b505050565b600082821c905092915050565b600061367160001984600802613653565b1980831691505092915050565b600061368a8383613660565b9150826002028217905092915050565b6136a3826121a2565b67ffffffffffffffff8111156136bc576136bb611e2f565b5b6136c68254612641565b6136d182828561360d565b600060209050601f83116001811461370457600084156136f2578287015190505b6136fc858261367e565b865550613764565b601f19841661371286613505565b60005b8281101561373a57848901518255600182019150602085019450602081019050613715565b868310156137575784890151613753601f891682613660565b8355505b6001600288020188555050505b50505050505056fe63726564656e7469616c41746f6d6963517565727953696756324f6e436861696ea2646970667358221220fc51950bbcad75f1370e03a19e5f687ec4adb66263b2cb3a2cdd3c2f47472b4564736f6c63430008100033",
  "devdoc": {
    "kind": "dev",
    "methods": {
      "owner()": {
        "details": "Returns the address of the current owner."
      },
      "renounceOwnership()": {
        "details": "Leaves the contract without owner. It will not be possible to call `onlyOwner` functions. Can only be called by the current owner. NOTE: Renouncing ownership will leave the contract without an owner, thereby disabling any functionality that is only available to the owner."
      },
      "transferOwnership(address)": {
        "details": "Transfers ownership of the contract to a new account (`newOwner`). Can only be called by the current owner."
      }
    },
    "stateVariables": {
      "VERSION": {
        "details": "Version of contract"
      }
    },
    "version": 1
  },
  "userdoc": {
    "kind": "user",
    "methods": {},
    "version": 1
  },
  "storageLayout": {
    "storage": [
      {
        "astId": 2892,
        "contract": "contracts/validators/CredentialAtomicQuerySigValidator.sol:CredentialAtomicQuerySigValidator",
        "label": "_initialized",
        "offset": 0,
        "slot": "0",
        "type": "t_uint8"
      },
      {
        "astId": 2895,
        "contract": "contracts/validators/CredentialAtomicQuerySigValidator.sol:CredentialAtomicQuerySigValidator",
        "label": "_initializing",
        "offset": 1,
        "slot": "0",
        "type": "t_bool"
      },
      {
        "astId": 3434,
        "contract": "contracts/validators/CredentialAtomicQuerySigValidator.sol:CredentialAtomicQuerySigValidator",
        "label": "__gap",
        "offset": 0,
        "slot": "1",
        "type": "t_array(t_uint256)50_storage"
      },
      {
        "astId": 2764,
        "contract": "contracts/validators/CredentialAtomicQuerySigValidator.sol:CredentialAtomicQuerySigValidator",
        "label": "_owner",
        "offset": 0,
        "slot": "51",
        "type": "t_address"
      },
      {
        "astId": 2884,
        "contract": "contracts/validators/CredentialAtomicQuerySigValidator.sol:CredentialAtomicQuerySigValidator",
        "label": "__gap",
        "offset": 0,
        "slot": "52",
        "type": "t_array(t_uint256)49_storage"
      },
      {
        "astId": 8673,
        "contract": "contracts/validators/CredentialAtomicQuerySigValidator.sol:CredentialAtomicQuerySigValidator",
        "label": "__gap_before_base",
        "offset": 0,
        "slot": "101",
        "type": "t_array(t_uint256)500_storage"
      },
      {
        "astId": 8678,
        "contract": "contracts/validators/CredentialAtomicQuerySigValidator.sol:CredentialAtomicQuerySigValidator",
        "label": "_circuitIdToVerifier",
        "offset": 0,
        "slot": "601",
        "type": "t_mapping(t_string_memory_ptr,t_contract(IVerifier)1410)"
      },
      {
        "astId": 8681,
        "contract": "contracts/validators/CredentialAtomicQuerySigValidator.sol:CredentialAtomicQuerySigValidator",
        "label": "_supportedCircuitIds",
        "offset": 0,
        "slot": "602",
        "type": "t_array(t_string_storage)dyn_storage"
      },
      {
        "astId": 8684,
        "contract": "contracts/validators/CredentialAtomicQuerySigValidator.sol:CredentialAtomicQuerySigValidator",
        "label": "state",
        "offset": 0,
        "slot": "603",
        "type": "t_contract(IState)1385"
      },
      {
        "astId": 8686,
        "contract": "contracts/validators/CredentialAtomicQuerySigValidator.sol:CredentialAtomicQuerySigValidator",
        "label": "revocationStateExpirationTimeout",
        "offset": 0,
        "slot": "604",
        "type": "t_uint256"
      },
      {
        "astId": 8688,
        "contract": "contracts/validators/CredentialAtomicQuerySigValidator.sol:CredentialAtomicQuerySigValidator",
        "label": "proofExpirationTimeout",
        "offset": 0,
        "slot": "605",
        "type": "t_uint256"
      },
      {
        "astId": 8690,
        "contract": "contracts/validators/CredentialAtomicQuerySigValidator.sol:CredentialAtomicQuerySigValidator",
        "label": "gistRootExpirationTimeout",
        "offset": 0,
        "slot": "606",
        "type": "t_uint256"
      },
      {
        "astId": 8694,
        "contract": "contracts/validators/CredentialAtomicQuerySigValidator.sol:CredentialAtomicQuerySigValidator",
        "label": "_inputNameToIndex",
        "offset": 0,
        "slot": "607",
        "type": "t_mapping(t_string_memory_ptr,t_uint256)"
      },
      {
        "astId": 8698,
        "contract": "contracts/validators/CredentialAtomicQuerySigValidator.sol:CredentialAtomicQuerySigValidator",
        "label": "__gap_after_base",
        "offset": 0,
        "slot": "608",
        "type": "t_array(t_uint256)43_storage"
      },
      {
        "astId": 8430,
        "contract": "contracts/validators/CredentialAtomicQuerySigValidator.sol:CredentialAtomicQuerySigValidator",
        "label": "__gap_before",
        "offset": 0,
        "slot": "651",
        "type": "t_array(t_uint256)500_storage"
      },
      {
        "astId": 8434,
        "contract": "contracts/validators/CredentialAtomicQuerySigValidator.sol:CredentialAtomicQuerySigValidator",
        "label": "__gap_after",
        "offset": 0,
        "slot": "1151",
        "type": "t_array(t_uint256)50_storage"
      }
    ],
    "types": {
      "t_address": {
        "encoding": "inplace",
        "label": "address",
        "numberOfBytes": "20"
      },
      "t_array(t_string_storage)dyn_storage": {
        "base": "t_string_storage",
        "encoding": "dynamic_array",
        "label": "string[]",
        "numberOfBytes": "32"
      },
      "t_array(t_uint256)43_storage": {
        "base": "t_uint256",
        "encoding": "inplace",
        "label": "uint256[43]",
        "numberOfBytes": "1376"
      },
      "t_array(t_uint256)49_storage": {
        "base": "t_uint256",
        "encoding": "inplace",
        "label": "uint256[49]",
        "numberOfBytes": "1568"
      },
      "t_array(t_uint256)500_storage": {
        "base": "t_uint256",
        "encoding": "inplace",
        "label": "uint256[500]",
        "numberOfBytes": "16000"
      },
      "t_array(t_uint256)50_storage": {
        "base": "t_uint256",
        "encoding": "inplace",
        "label": "uint256[50]",
        "numberOfBytes": "1600"
      },
      "t_bool": {
        "encoding": "inplace",
        "label": "bool",
        "numberOfBytes": "1"
      },
      "t_contract(IState)1385": {
        "encoding": "inplace",
        "label": "contract IState",
        "numberOfBytes": "20"
      },
      "t_contract(IVerifier)1410": {
        "encoding": "inplace",
        "label": "contract IVerifier",
        "numberOfBytes": "20"
      },
      "t_mapping(t_string_memory_ptr,t_contract(IVerifier)1410)": {
        "encoding": "mapping",
        "key": "t_string_memory_ptr",
        "label": "mapping(string => contract IVerifier)",
        "numberOfBytes": "32",
        "value": "t_contract(IVerifier)1410"
      },
      "t_mapping(t_string_memory_ptr,t_uint256)": {
        "encoding": "mapping",
        "key": "t_string_memory_ptr",
        "label": "mapping(string => uint256)",
        "numberOfBytes": "32",
        "value": "t_uint256"
      },
      "t_string_memory_ptr": {
        "encoding": "bytes",
        "label": "string",
        "numberOfBytes": "32"
      },
      "t_string_storage": {
        "encoding": "bytes",
        "label": "string",
        "numberOfBytes": "32"
      },
      "t_uint256": {
        "encoding": "inplace",
        "label": "uint256",
        "numberOfBytes": "32"
      },
      "t_uint8": {
        "encoding": "inplace",
        "label": "uint8",
        "numberOfBytes": "1"
      }
    }
  }
}