{
  "address": "0xa94647E8f4D302A907A53A5616297d66B4b4A7b5",
  "abi": [
    {
      "inputs": [],
      "stateMutability": "nonpayable",
      "type": "constructor"
    },
    {
      "inputs": [],
      "name": "BlockExpired",
      "type": "error"
    },
    {
      "inputs": [],
      "name": "InvalidSignature",
      "type": "error"
    },
    {
      "anonymous": false,
      "inputs": [
        {
          "indexed": true,
          "internalType": "address",
          "name": "owner",
          "type": "address"
        },
        {
          "indexed": true,
          "internalType": "address",
          "name": "approved",
          "type": "address"
        },
        {
          "indexed": true,
          "internalType": "uint256",
          "name": "tokenId",
          "type": "uint256"
        }
      ],
      "name": "Approval",
      "type": "event"
    },
    {
      "anonymous": false,
      "inputs": [
        {
          "indexed": true,
          "internalType": "address",
          "name": "owner",
          "type": "address"
        },
        {
          "indexed": true,
          "internalType": "address",
          "name": "operator",
          "type": "address"
        },
        {
          "indexed": false,
          "internalType": "bool",
          "name": "approved",
          "type": "bool"
        }
      ],
      "name": "ApprovalForAll",
      "type": "event"
    },
    {
      "anonymous": false,
      "inputs": [
        {
          "indexed": false,
          "internalType": "uint8",
          "name": "version",
          "type": "uint8"
        }
      ],
      "name": "Initialized",
      "type": "event"
    },
    {
      "anonymous": false,
      "inputs": [
        {
          "indexed": false,
          "internalType": "uint256",
          "name": "chainID",
          "type": "uint256"
        },
        {
          "indexed": false,
          "internalType": "uint256",
          "name": "nonce",
          "type": "uint256"
        },
        {
          "indexed": false,
          "internalType": "uint256",
          "name": "blockExpiration",
          "type": "uint256"
        },
        {
          "indexed": false,
          "internalType": "address",
          "name": "contractAddress",
          "type": "address"
        },
        {
          "indexed": false,
          "internalType": "address",
          "name": "userAddress",
          "type": "address"
        },
        {
          "indexed": false,
          "internalType": "bytes",
          "name": "functionCallData",
          "type": "bytes"
        }
      ],
      "name": "NexeraIDSignatureVerified",
      "type": "event"
    },
    {
      "anonymous": false,
      "inputs": [
        {
          "indexed": true,
          "internalType": "address",
          "name": "previousOwner",
          "type": "address"
        },
        {
          "indexed": true,
          "internalType": "address",
          "name": "newOwner",
          "type": "address"
        }
      ],
      "name": "OwnershipTransferred",
      "type": "event"
    },
    {
      "anonymous": false,
      "inputs": [
        {
          "indexed": true,
          "internalType": "address",
          "name": "from",
          "type": "address"
        },
        {
          "indexed": true,
          "internalType": "address",
          "name": "to",
          "type": "address"
        },
        {
          "indexed": true,
          "internalType": "uint256",
          "name": "tokenId",
          "type": "uint256"
        }
      ],
      "name": "Transfer",
      "type": "event"
    },
    {
      "inputs": [
        {
          "internalType": "address",
          "name": "to",
          "type": "address"
        },
        {
          "internalType": "uint256",
          "name": "tokenId",
          "type": "uint256"
        }
      ],
      "name": "approve",
      "outputs": [],
      "stateMutability": "nonpayable",
      "type": "function"
    },
    {
      "inputs": [
        {
          "internalType": "address",
          "name": "owner",
          "type": "address"
        }
      ],
      "name": "balanceOf",
      "outputs": [
        {
          "internalType": "uint256",
          "name": "",
          "type": "uint256"
        }
      ],
      "stateMutability": "view",
      "type": "function"
    },
    {
      "inputs": [
        {
          "internalType": "uint256",
          "name": "tokenId",
          "type": "uint256"
        }
      ],
      "name": "getApproved",
      "outputs": [
        {
          "internalType": "address",
          "name": "",
          "type": "address"
        }
      ],
      "stateMutability": "view",
      "type": "function"
    },
    {
      "inputs": [],
      "name": "getLastTokenId",
      "outputs": [
        {
          "internalType": "uint256",
          "name": "",
          "type": "uint256"
        }
      ],
      "stateMutability": "view",
      "type": "function"
    },
    {
      "inputs": [
        {
          "components": [
            {
              "internalType": "uint256",
              "name": "chainID",
              "type": "uint256"
            },
            {
              "internalType": "uint256",
              "name": "nonce",
              "type": "uint256"
            },
            {
              "internalType": "uint256",
              "name": "blockExpiration",
              "type": "uint256"
            },
            {
              "internalType": "address",
              "name": "contractAddress",
              "type": "address"
            },
            {
              "internalType": "address",
              "name": "userAddress",
              "type": "address"
            },
            {
              "internalType": "bytes",
              "name": "functionCallData",
              "type": "bytes"
            }
          ],
          "internalType": "struct BaseTxAuthDataVerifier.TxAuthData",
          "name": "_txAuthData",
          "type": "tuple"
        }
      ],
      "name": "getMessageHash",
      "outputs": [
        {
          "internalType": "bytes32",
          "name": "",
          "type": "bytes32"
        }
      ],
      "stateMutability": "pure",
      "type": "function"
    },
    {
      "inputs": [],
      "name": "getSignerAddress",
      "outputs": [
        {
          "internalType": "address",
          "name": "",
          "type": "address"
        }
      ],
      "stateMutability": "view",
      "type": "function"
    },
    {
      "inputs": [
        {
          "internalType": "address",
          "name": "user",
          "type": "address"
        }
      ],
      "name": "getUserNonce",
      "outputs": [
        {
          "internalType": "uint256",
          "name": "",
          "type": "uint256"
        }
      ],
      "stateMutability": "view",
      "type": "function"
    },
    {
      "inputs": [
        {
          "internalType": "address",
          "name": "signerAddress",
          "type": "address"
        }
      ],
      "name": "initialize",
      "outputs": [],
      "stateMutability": "nonpayable",
      "type": "function"
    },
    {
      "inputs": [
        {
          "internalType": "address",
          "name": "owner",
          "type": "address"
        },
        {
          "internalType": "address",
          "name": "operator",
          "type": "address"
        }
      ],
      "name": "isApprovedForAll",
      "outputs": [
        {
          "internalType": "bool",
          "name": "",
          "type": "bool"
        }
      ],
      "stateMutability": "view",
      "type": "function"
    },
    {
      "inputs": [
        {
          "internalType": "address",
          "name": "recipient",
          "type": "address"
        },
        {
          "internalType": "uint256",
          "name": "_blockExpiration",
          "type": "uint256"
        },
        {
          "internalType": "bytes",
          "name": "_signature",
          "type": "bytes"
        }
      ],
      "name": "mintNFTGated",
      "outputs": [
        {
          "internalType": "uint256",
          "name": "",
          "type": "uint256"
        }
      ],
      "stateMutability": "nonpayable",
      "type": "function"
    },
    {
      "inputs": [],
      "name": "name",
      "outputs": [
        {
          "internalType": "string",
          "name": "",
          "type": "string"
        }
      ],
      "stateMutability": "view",
      "type": "function"
    },
    {
      "inputs": [
        {
          "internalType": "address",
          "name": "",
          "type": "address"
        }
      ],
      "name": "nonces",
      "outputs": [
        {
          "internalType": "uint256",
          "name": "",
          "type": "uint256"
        }
      ],
      "stateMutability": "view",
      "type": "function"
    },
    {
      "inputs": [],
      "name": "owner",
      "outputs": [
        {
          "internalType": "address",
          "name": "",
          "type": "address"
        }
      ],
      "stateMutability": "view",
      "type": "function"
    },
    {
      "inputs": [
        {
          "internalType": "uint256",
          "name": "tokenId",
          "type": "uint256"
        }
      ],
      "name": "ownerOf",
      "outputs": [
        {
          "internalType": "address",
          "name": "",
          "type": "address"
        }
      ],
      "stateMutability": "view",
      "type": "function"
    },
    {
      "inputs": [],
      "name": "renounceOwnership",
      "outputs": [],
      "stateMutability": "nonpayable",
      "type": "function"
    },
    {
      "inputs": [
        {
          "internalType": "address",
          "name": "from",
          "type": "address"
        },
        {
          "internalType": "address",
          "name": "to",
          "type": "address"
        },
        {
          "internalType": "uint256",
          "name": "tokenId",
          "type": "uint256"
        }
      ],
      "name": "safeTransferFrom",
      "outputs": [],
      "stateMutability": "nonpayable",
      "type": "function"
    },
    {
      "inputs": [
        {
          "internalType": "address",
          "name": "from",
          "type": "address"
        },
        {
          "internalType": "address",
          "name": "to",
          "type": "address"
        },
        {
          "internalType": "uint256",
          "name": "tokenId",
          "type": "uint256"
        },
        {
          "internalType": "bytes",
          "name": "data",
          "type": "bytes"
        }
      ],
      "name": "safeTransferFrom",
      "outputs": [],
      "stateMutability": "nonpayable",
      "type": "function"
    },
    {
      "inputs": [
        {
          "internalType": "address",
          "name": "operator",
          "type": "address"
        },
        {
          "internalType": "bool",
          "name": "approved",
          "type": "bool"
        }
      ],
      "name": "setApprovalForAll",
      "outputs": [],
      "stateMutability": "nonpayable",
      "type": "function"
    },
    {
      "inputs": [
        {
          "internalType": "address",
          "name": "_signer",
          "type": "address"
        }
      ],
      "name": "setSigner",
      "outputs": [],
      "stateMutability": "nonpayable",
      "type": "function"
    },
    {
      "inputs": [
        {
          "internalType": "bytes4",
          "name": "interfaceId",
          "type": "bytes4"
        }
      ],
      "name": "supportsInterface",
      "outputs": [
        {
          "internalType": "bool",
          "name": "",
          "type": "bool"
        }
      ],
      "stateMutability": "view",
      "type": "function"
    },
    {
      "inputs": [],
      "name": "symbol",
      "outputs": [
        {
          "internalType": "string",
          "name": "",
          "type": "string"
        }
      ],
      "stateMutability": "view",
      "type": "function"
    },
    {
      "inputs": [
        {
          "internalType": "uint256",
          "name": "tokenId",
          "type": "uint256"
        }
      ],
      "name": "tokenURI",
      "outputs": [
        {
          "internalType": "string",
          "name": "",
          "type": "string"
        }
      ],
      "stateMutability": "view",
      "type": "function"
    },
    {
      "inputs": [
        {
          "internalType": "address",
          "name": "from",
          "type": "address"
        },
        {
          "internalType": "address",
          "name": "to",
          "type": "address"
        },
        {
          "internalType": "uint256",
          "name": "tokenId",
          "type": "uint256"
        }
      ],
      "name": "transferFrom",
      "outputs": [],
      "stateMutability": "nonpayable",
      "type": "function"
    },
    {
      "inputs": [
        {
          "internalType": "address",
          "name": "newOwner",
          "type": "address"
        }
      ],
      "name": "transferOwnership",
      "outputs": [],
      "stateMutability": "nonpayable",
      "type": "function"
    }
  ],
  "transactionHash": "0x57466ac23e0eddeb7acd2e5b79fffc8deb150904d94e89afc54691e6edb2bfcc",
  "args": [],
  "numDeployments": 2,
  "solcInputHash": "8fb776f7ed7fdfac868ca82ba00caa44",
  "bytecode": "0x608080604052346100c1576002549060ff8260081c1661006f575060ff80821603610034575b604051611c1b90816100c78239f35b60ff90811916176002557f7f26b83ff96e1f2b6a682f133852f6798a09c465da95921460cefb3847402498602060405160ff8152a138610025565b62461bcd60e51b815260206004820152602760248201527f496e697469616c697a61626c653a20636f6e747261637420697320696e697469604482015266616c697a696e6760c81b6064820152608490fd5b600080fdfe6080604081815260048036101561001557600080fd5b600092833560e01c90816301ffc9a7146111745750806306fdde03146110ce578063081812fc146110ae578063095ea7b314610f3d5780631a296e0214610f1557806323b872dd14610eea57806342842e0e14610e9b5780636352211e14610e6a5780636834e3a814610cfb5780636c19e78314610e2957806370a0823114610d93578063715018a614610d335780637ecebe0014610cfb578063801954a814610c3057806383c4c00d14610c115780638da5cb5b14610be857806395d89b4114610b07578063a22cb46514610a3c578063b88d4fde146109ea578063c4d66de814610599578063c87b56dd14610529578063d7ce794b14610211578063e985e9c5146101bf5763f2fde38b1461012b57600080fd5b346101bb5760203660031901126101bb57610144611228565b9061014d611364565b6001600160a01b038216156101695750610166906113bc565b51f35b608490602084519162461bcd60e51b8352820152602660248201527f4f776e61626c653a206e6577206f776e657220697320746865207a65726f206160448201526564647265737360d01b6064820152fd5b8280fd5b50503461020d578060031936011261020d5760ff816020936101df611228565b6101e7611243565b6001600160a01b039182168352606c875283832091168252855220549151911615158152f35b5080fd5b5091903461020d57606036600319011261020d5761022d611228565b90602490813594604435906001600160401b039687831161052557366023840112156105255782820135888111610521573686828601011161052157607f193601903682116104dd57824310156105115733895260019460209a868c52878b205488519160c0830190838210908211176104ff57928c7f19457468657265756d205369676e6564204d6573736167653a0a3332000000008f8897958d6103449b9a85610323946103369961033c9c8552468652818601528d8486015230606086015233608086015261030a610301846112f4565b945194856112d3565b82845283013784605f19368301015260a0820152611b60565b9152601c52603c8d20928b36920161130f565b90611aa3565b93909361198e565b88546001600160a01b0393908416908416036104ef57907f457734c71a6a3ef35a45b3a9aed14e0158cca171cd87330ecd1de4d4d61dc8f391338a52858b52868a2054918751924684528c8401528783015230606083015233608083015260c060a08301528060c08301528960e0830137886060368301015260e081601f196060193601168101030190a13387528288528387208054908482018092116104dd57558260cb5401958660cb551693841561049c5750506000848152606960205260409020548493929190610424906001600160a01b031615155b15611942565b600084815260696020526040902054610447906001600160a01b0316151561041e565b828652606a8752818620805490910190558285526069865280852080546001600160a01b0319168317905551937fddf252ad1be2c89b69c2b068fc378daa952ba7f163c4a11628f55a4df523b3ef8186a48152f35b835162461bcd60e51b815291820188905281018790527f4552433732313a206d696e7420746f20746865207a65726f20616464726573736044820152606490fd5b634e487b7160e01b8952601184528689fd5b8551638baa579f60e01b81528490fd5b634e487b7160e01b8d52604188528a8dfd5b85516378fd448d60e01b81528490fd5b8780fd5b8680fd5b5091903461020d57602036600319011261020d576105686105636105959435600052606960205260018060a01b0360406000205416151590565b61140a565b818151610574816112a2565b52805191610581836112a2565b825251918291602083526020830190611203565b0390f35b50346101bb576020806003193601126109e6576105b4611228565b916002549060ff8260081c1615908180926109d9575b80156109c2575b1561096857600192828460ff19831617600255610956575b5085516001600160401b03916060820183811183821017610943578852602282527f4d794578616d706c6547617465644e46544d696e74657255706772616465616286830152616c6560f01b88830152875190888201828110858211176109305789526005825264474e46545560d81b8783015261067760ff60025460081c16610672816118e2565b6118e2565b8251848111610930578061068c606754611474565b94601f958681116108de575b5089908d87841160011461087d5792610872575b5050600019600383901b1c191690871b176067555b815193841161085f57509082916106d9606854611474565b82811161080e575b50869183116001146107ad5789926107a2575b5050600019600383901b1c191690831b176068555b61071e60ff60025460081c16610672816118e2565b610727336113bc565b61075f6002549460ff8660081c169061073f826118e2565b88546001600160a01b0319166001600160a01b03919091161788556118e2565b61076a575b50505051f35b7f7f26b83ff96e1f2b6a682f133852f6798a09c465da95921460cefb38474024989261ff0019166002558351908152a1388080610764565b0151905038806106f4565b60688a52868a208694509190601f1984168b5b898282106107f857505084116107df575b505050811b01606855610709565b015160001960f88460031b161c191690553880806107d1565b83850151865589979095019493840193016107c0565b9091925060688a52868a208380860160051c820192898710610856575b91869589929594930160051c01915b8281106108485750506106e1565b8c815586955088910161083a565b9250819261082b565b634e487b7160e01b8a5260419052602489fd5b0151905038806106ac565b91908a9450601f198416606784528c8420935b8d8282106108c857505084116108af575b505050811b016067556106c1565b015160001960f88460031b161c191690553880806108a1565b8385015186558d97909501949384019301610890565b90915060678d52898d208680850160051c8201928c8610610927575b859493910160051c909101908a908f5b83821061091957505050610698565b81558594508b91018f61090a565b925081926108fa565b634e487b7160e01b8b526041825260248bfd5b634e487b7160e01b8a526041825260248afd5b61ffff191661010117600255386105e9565b855162461bcd60e51b8152908101849052602e60248201527f496e697469616c697a61626c653a20636f6e747261637420697320616c72656160448201526d191e481a5b9a5d1a585b1a5e995960921b6064820152608490fd5b50303b1580156105d15750600160ff8416146105d1565b50600160ff8416106105ca565b8380fd5b50346101bb5760803660031901126101bb57610a04611228565b610a0c611243565b906064356001600160401b038111610a385761016693610a2e91369101611346565b916044359161154e565b8580fd5b50346101bb57816003193601126101bb57610a55611228565b60243590811515809203610b03576001600160a01b031691338314610ac45750338452606c60205282842082855260205282842060ff1981541660ff831617905582519081527f17307eab39ab6107e8899845ad3d59bd9653f200f220920489ca2b5937696c3160203392a351f35b606490602085519162461bcd60e51b8352820152601960248201527822a9219b99189d1030b8383937bb32903a379031b0b63632b960391b6044820152fd5b8480fd5b50503461020d578160031936011261020d5780519082606854610b2981611474565b80855290600190818116908115610bc05750600114610b67575b505050610b55826105959403836112d3565b51918291602083526020830190611203565b60688352602095507fa2153420d844928b4421650203c77babc8b33d7f2e7b450e2966db0c220977535b828410610bad575050508261059594610b559282010194610b43565b8054868501880152928601928101610b91565b6105959750610b559450602092508693915060ff191682840152151560051b82010194610b43565b50503461020d578160031936011261020d5760995490516001600160a01b039091168152602090f35b50503461020d578160031936011261020d5760209060cb549051908152f35b50346101bb57600319906020368301126109e6578035916001600160401b0390818411610a385760c0908436030112610b035783519460c0860186811083821117610ce857855283830135865260248401356020870152604484013585870152610c9c60648501611259565b6060870152610cad60848501611259565b608087015260a4840135918211610ce55750610cde9260209592610cd49236920101611346565b60a0820152611b60565b9051908152f35b80fd5b634e487b7160e01b825260418452602482fd5b50503461020d57602036600319011261020d5760209181906001600160a01b03610d23611228565b1681526001845220549051908152f35b50503461020d578160031936011261020d57610d4d611364565b609980546001600160a01b0319811690915590519082906001600160a01b03167f8be0079c531659141344cd1fd0a4f28419497f9722a3daafe3b4186f6b6457e08284a3f35b5082903461020d57602036600319011261020d576001600160a01b03610db7611228565b16908115610dd4576020848085858152606a845220549051908152f35b608490602085519162461bcd60e51b8352820152602960248201527f4552433732313a2061646472657373207a65726f206973206e6f7420612076616044820152683634b21037bbb732b960b91b6064820152fd5b50503461020d57602036600319011261020d57610e44611228565b610e4c611364565b82546001600160a01b0319166001600160a01b039190911617825551f35b509134610ce5576020366003190112610ce55750610e8a60209235611451565b90516001600160a01b039091168152f35b5091903461020d57610eac3661126d565b90835192602084018481106001600160401b03821117610ed75785610166969798505286845261154e565b634e487b7160e01b875260418852602487fd5b50503461020d57610166610efd3661126d565b91610f10610f0b84336115e9565b6114ec565b6116b1565b50503461020d578160031936011261020d57905490516001600160a01b039091168152602090f35b50346101bb57816003193601126101bb57610f56611228565b602435916001600160a01b03908180610f6e86611451565b1693169280841461106157803314908115611042575b5015610fd95750828552606b60205283852080546001600160a01b03191683179055610faf83611451565b169251927f8c5be1e5ebec7d5bd14f71427d1e84f3dd0314c0f7b2291e5b200ac8c7c3b9258585a4f35b608490602086519162461bcd60e51b8352820152603d60248201527f4552433732313a20617070726f76652063616c6c6572206973206e6f7420746f60448201527f6b656e206f776e6572206f7220617070726f76656420666f7220616c6c0000006064820152fd5b90508652606c60205284862033875260205260ff858720541638610f84565b855162461bcd60e51b8152602081840152602160248201527f4552433732313a20617070726f76616c20746f2063757272656e74206f776e656044820152603960f91b6064820152608490fd5b509134610ce5576020366003190112610ce55750610e8a602092356114ae565b50503461020d578160031936011261020d57805190826067546110f081611474565b80855290600190818116908115610bc0575060011461111b57505050610b55826105959403836112d3565b60678352602095507f9787eeb91fe3101235e4a76063c7023ecb40f923f97916639c598592fa30d6ae5b828410611161575050508261059594610b559282010194610b43565b8054868501880152928601928101611145565b925050346101bb5760203660031901126101bb573563ffffffff60e01b81168091036101bb57602092506380ac58cd60e01b81149081156111cf575b81156111be575b5015158152f35b6301ffc9a760e01b149050386111b7565b635b5e139f60e01b811491506111b0565b60005b8381106111f35750506000910152565b81810151838201526020016111e3565b9060209161121c815180928185528580860191016111e0565b601f01601f1916010190565b600435906001600160a01b038216820361123e57565b600080fd5b602435906001600160a01b038216820361123e57565b35906001600160a01b038216820361123e57565b606090600319011261123e576001600160a01b0390600435828116810361123e5791602435908116810361123e579060443590565b602081019081106001600160401b038211176112bd57604052565b634e487b7160e01b600052604160045260246000fd5b90601f801991011681019081106001600160401b038211176112bd57604052565b6001600160401b0381116112bd57601f01601f191660200190565b92919261131b826112f4565b9161132960405193846112d3565b82948184528183011161123e578281602093846000960137010152565b9080601f8301121561123e578160206113619335910161130f565b90565b6099546001600160a01b0316330361137857565b606460405162461bcd60e51b815260206004820152602060248201527f4f776e61626c653a2063616c6c6572206973206e6f7420746865206f776e65726044820152fd5b609980546001600160a01b039283166001600160a01b031982168117909255604051919216907f8be0079c531659141344cd1fd0a4f28419497f9722a3daafe3b4186f6b6457e090600090a3565b1561141157565b60405162461bcd60e51b8152602060048201526018602482015277115490cdcc8c4e881a5b9d985b1a59081d1bdad95b88125160421b6044820152606490fd5b6000908152606960205260409020546001600160a01b031661136181151561140a565b90600182811c921680156114a4575b602083101461148e57565b634e487b7160e01b600052602260045260246000fd5b91607f1691611483565b6000818152606960205260409020546114d1906001600160a01b0316151561140a565b6000908152606b60205260409020546001600160a01b031690565b156114f357565b60405162461bcd60e51b815260206004820152602d60248201527f4552433732313a2063616c6c6572206973206e6f7420746f6b656e206f776e6560448201526c1c881bdc88185c1c1c9bdd9959609a1b6064820152608490fd5b90611572939291611562610f0b84336115e9565b61156d8383836116b1565b6117c1565b1561157957565b60405162461bcd60e51b81528061159260048201611596565b0390fd5b60809060208152603260208201527f4552433732313a207472616e7366657220746f206e6f6e20455243373231526560408201527131b2b4bb32b91034b6b83632b6b2b73a32b960711b60608201520190565b906001600160a01b0380806115fd84611451565b16931691838314938415611630575b50831561161a575b50505090565b611626919293506114ae565b1614388080611614565b909350600052606c60205260406000208260005260205260ff60406000205416923861160c565b1561165e57565b60405162461bcd60e51b815260206004820152602560248201527f4552433732313a207472616e736665722066726f6d20696e636f72726563742060448201526437bbb732b960d91b6064820152608490fd5b906116d9916116bf84611451565b6001600160a01b0393918416928492909183168414611657565b1691821561177057816116f6916116ef86611451565b1614611657565b7fddf252ad1be2c89b69c2b068fc378daa952ba7f163c4a11628f55a4df523b3ef6000848152606b6020526040812060018060a01b031990818154169055838252606a60205260408220600019815401905584825260408220600181540190558582526069602052846040832091825416179055604051a4565b60405162461bcd60e51b8152602060048201526024808201527f4552433732313a207472616e7366657220746f20746865207a65726f206164646044820152637265737360e01b6064820152608490fd5b9293600093909291803b156118d75794849161181b9660405180948193630a85bd0160e11b9788845233600485015260018060a01b0380921660248501526044840152608060648401528260209b8c976084830190611203565b0393165af1849181611897575b50611886575050503d60001461187e573d611842816112f4565b9061185060405192836112d3565b81528091833d92013e5b8051918261187b5760405162461bcd60e51b81528061159260048201611596565b01fd5b50606061185a565b6001600160e01b0319161492509050565b9091508581813d83116118d0575b6118af81836112d3565b81010312610b0357516001600160e01b031981168103610b03579038611828565b503d6118a5565b505050915050600190565b156118e957565b60405162461bcd60e51b815260206004820152602b60248201527f496e697469616c697a61626c653a20636f6e7472616374206973206e6f74206960448201526a6e697469616c697a696e6760a81b6064820152608490fd5b1561194957565b60405162461bcd60e51b815260206004820152601c60248201527f4552433732313a20746f6b656e20616c7265616479206d696e746564000000006044820152606490fd5b6005811015611a8d578061199f5750565b600181036119e75760405162461bcd60e51b815260206004820152601860248201527745434453413a20696e76616c6964207369676e617475726560401b6044820152606490fd5b60028103611a345760405162461bcd60e51b815260206004820152601f60248201527f45434453413a20696e76616c6964207369676e6174757265206c656e677468006044820152606490fd5b600314611a3d57565b60405162461bcd60e51b815260206004820152602260248201527f45434453413a20696e76616c6964207369676e6174757265202773272076616c604482015261756560f01b6064820152608490fd5b634e487b7160e01b600052602160045260246000fd5b906041815114600014611ad157611acd916020820151906060604084015193015160001a90611adb565b9091565b5050600090600290565b9291906fa2a8918ca85bafe22016d0b997e4df60600160ff1b038311611b545791608094939160ff602094604051948552168484015260408301526060820152600093849182805260015afa15611b475781516001600160a01b03811615611b41579190565b50600190565b50604051903d90823e3d90fd5b50505050600090600390565b805190611bdf60a86020830151604084015193606081015160a060808301519201519160405196879460208601998a52604086015260608501526bffffffffffffffffffffffff19809260601b16608085015260601b166094830152611bcf81518092602086860191016111e0565b81010360888101845201826112d3565b5190209056fea2646970667358221220a055a2fcabe195653c8b8788fae973886e1ebe98cc198cc23f52856dbada667664736f6c63430008100033",
  "devdoc": {
    "details": "Upgradeable NFT minting contract with gated access based on off-chain signature verification. This contract extends ERC721Upgradeable for NFT functionality, TxAuthDataVerifierUpgradeable for signature verification, and OwnableUpgradeable for ownership management. It uses a counter to assign unique token IDs to minted NFTs. The contract is designed to be used with a proxy for upgradeability.",
    "kind": "dev",
    "methods": {
      "approve(address,uint256)": {
        "details": "See {IERC721-approve}."
      },
      "balanceOf(address)": {
        "details": "See {IERC721-balanceOf}."
      },
      "getApproved(uint256)": {
        "details": "See {IERC721-getApproved}."
      },
      "getLastTokenId()": {
        "details": "Returns the last token ID that was minted.",
        "returns": {
          "_0": "The current value of the token ID counter, which corresponds to the last minted token ID."
        }
      },
      "getMessageHash((uint256,uint256,uint256,address,address,bytes))": {
        "params": {
          "_txAuthData": "The transaction authentication data to hash"
        },
        "returns": {
          "_0": "The keccak256 hash of the encoded `TxAuthData`"
        }
      },
      "getSignerAddress()": {
        "returns": {
          "_0": "The signer address"
        }
      },
      "getUserNonce(address)": {
        "params": {
          "user": "The address of the user"
        },
        "returns": {
          "_0": "The current nonce of the user"
        }
      },
      "initialize(address)": {
        "params": {
          "signerAddress": "The address allowed to sign transaction data for minting authorization."
        }
      },
      "isApprovedForAll(address,address)": {
        "details": "See {IERC721-isApprovedForAll}."
      },
      "mintNFTGated(address,uint256,bytes)": {
        "details": "Leverages the `requireTxDataAuthOpti` modifier for efficient signature verification.",
        "params": {
          "_blockExpiration": "The block number after which the request is considered expired.",
          "_signature": "The signature provided for verification.",
          "recipient": "The address to which the NFT will be minted."
        },
        "returns": {
          "_0": "The ID of the newly minted NFT upon successful verification and minting."
        }
      },
      "name()": {
        "details": "See {IERC721Metadata-name}."
      },
      "owner()": {
        "details": "Returns the address of the current owner."
      },
      "ownerOf(uint256)": {
        "details": "See {IERC721-ownerOf}."
      },
      "renounceOwnership()": {
        "details": "Leaves the contract without owner. It will not be possible to call `onlyOwner` functions. Can only be called by the current owner. NOTE: Renouncing ownership will leave the contract without an owner, thereby disabling any functionality that is only available to the owner."
      },
      "safeTransferFrom(address,address,uint256)": {
        "details": "See {IERC721-safeTransferFrom}."
      },
      "safeTransferFrom(address,address,uint256,bytes)": {
        "details": "See {IERC721-safeTransferFrom}."
      },
      "setApprovalForAll(address,bool)": {
        "details": "See {IERC721-setApprovalForAll}."
      },
      "setSigner(address)": {
        "details": "Can only be called by the current owner",
        "params": {
          "_signer": "The address of the new signer"
        }
      },
      "supportsInterface(bytes4)": {
        "details": "See {IERC165-supportsInterface}."
      },
      "symbol()": {
        "details": "See {IERC721Metadata-symbol}."
      },
      "tokenURI(uint256)": {
        "details": "See {IERC721Metadata-tokenURI}."
      },
      "transferFrom(address,address,uint256)": {
        "details": "See {IERC721-transferFrom}."
      },
      "transferOwnership(address)": {
        "details": "Transfers ownership of the contract to a new account (`newOwner`). Can only be called by the current owner."
      }
    },
    "title": "Example Gated NFT Minter (Upgradeable)",
    "version": 1
  },
  "userdoc": {
    "errors": {
      "BlockExpired()": [
        {
          "notice": "Custom error for handling signature expiry"
        }
      ],
      "InvalidSignature()": [
        {
          "notice": "Custom error for handling invalid signatures"
        }
      ]
    },
    "kind": "user",
    "methods": {
      "constructor": {
        "notice": "constructor conform OZ upgradable pattern"
      },
      "getLastTokenId()": {
        "notice": "Retrieves the current value of the token ID counter."
      },
      "getMessageHash((uint256,uint256,uint256,address,address,bytes))": {
        "notice": "Generates a hash of the given `TxAuthData`"
      },
      "getSignerAddress()": {
        "notice": "Retrieves the signer address"
      },
      "getUserNonce(address)": {
        "notice": "Retrieves the current nonce for a given user"
      },
      "initialize(address)": {
        "notice": "Initializes the contract by setting a name, symbol, and signer for TxAuthDataVerifierUpgradeable."
      },
      "mintNFTGated(address,uint256,bytes)": {
        "notice": "Mints a new NFT to a specified recipient, using an optimized signature verification process."
      },
      "nonces(address)": {
        "notice": "Mapping to track the nonces of users to prevent replay attacks"
      },
      "setSigner(address)": {
        "notice": "Sets a new signer address"
      }
    },
    "version": 1
  },
  "storageLayout": {
    "storage": [
      {
        "astId": 6629,
        "contract": "contracts/gatedExamples/ExampleGatedNFTMinterUpgradeable.sol:ExampleGatedNFTMinterUpgradeable",
        "label": "signer",
        "offset": 0,
        "slot": "0",
        "type": "t_address"
      },
      {
        "astId": 6634,
        "contract": "contracts/gatedExamples/ExampleGatedNFTMinterUpgradeable.sol:ExampleGatedNFTMinterUpgradeable",
        "label": "nonces",
        "offset": 0,
        "slot": "1",
        "type": "t_mapping(t_address,t_uint256)"
      },
      {
        "astId": 139,
        "contract": "contracts/gatedExamples/ExampleGatedNFTMinterUpgradeable.sol:ExampleGatedNFTMinterUpgradeable",
        "label": "_initialized",
        "offset": 0,
        "slot": "2",
        "type": "t_uint8"
      },
      {
        "astId": 142,
        "contract": "contracts/gatedExamples/ExampleGatedNFTMinterUpgradeable.sol:ExampleGatedNFTMinterUpgradeable",
        "label": "_initializing",
        "offset": 1,
        "slot": "2",
        "type": "t_bool"
      },
      {
        "astId": 1795,
        "contract": "contracts/gatedExamples/ExampleGatedNFTMinterUpgradeable.sol:ExampleGatedNFTMinterUpgradeable",
        "label": "__gap",
        "offset": 0,
        "slot": "3",
        "type": "t_array(t_uint256)50_storage"
      },
      {
        "astId": 2069,
        "contract": "contracts/gatedExamples/ExampleGatedNFTMinterUpgradeable.sol:ExampleGatedNFTMinterUpgradeable",
        "label": "__gap",
        "offset": 0,
        "slot": "53",
        "type": "t_array(t_uint256)50_storage"
      },
      {
        "astId": 331,
        "contract": "contracts/gatedExamples/ExampleGatedNFTMinterUpgradeable.sol:ExampleGatedNFTMinterUpgradeable",
        "label": "_name",
        "offset": 0,
        "slot": "103",
        "type": "t_string_storage"
      },
      {
        "astId": 333,
        "contract": "contracts/gatedExamples/ExampleGatedNFTMinterUpgradeable.sol:ExampleGatedNFTMinterUpgradeable",
        "label": "_symbol",
        "offset": 0,
        "slot": "104",
        "type": "t_string_storage"
      },
      {
        "astId": 337,
        "contract": "contracts/gatedExamples/ExampleGatedNFTMinterUpgradeable.sol:ExampleGatedNFTMinterUpgradeable",
        "label": "_owners",
        "offset": 0,
        "slot": "105",
        "type": "t_mapping(t_uint256,t_address)"
      },
      {
        "astId": 341,
        "contract": "contracts/gatedExamples/ExampleGatedNFTMinterUpgradeable.sol:ExampleGatedNFTMinterUpgradeable",
        "label": "_balances",
        "offset": 0,
        "slot": "106",
        "type": "t_mapping(t_address,t_uint256)"
      },
      {
        "astId": 345,
        "contract": "contracts/gatedExamples/ExampleGatedNFTMinterUpgradeable.sol:ExampleGatedNFTMinterUpgradeable",
        "label": "_tokenApprovals",
        "offset": 0,
        "slot": "107",
        "type": "t_mapping(t_uint256,t_address)"
      },
      {
        "astId": 351,
        "contract": "contracts/gatedExamples/ExampleGatedNFTMinterUpgradeable.sol:ExampleGatedNFTMinterUpgradeable",
        "label": "_operatorApprovals",
        "offset": 0,
        "slot": "108",
        "type": "t_mapping(t_address,t_mapping(t_address,t_bool))"
      },
      {
        "astId": 1253,
        "contract": "contracts/gatedExamples/ExampleGatedNFTMinterUpgradeable.sol:ExampleGatedNFTMinterUpgradeable",
        "label": "__gap",
        "offset": 0,
        "slot": "109",
        "type": "t_array(t_uint256)44_storage"
      },
      {
        "astId": 11,
        "contract": "contracts/gatedExamples/ExampleGatedNFTMinterUpgradeable.sol:ExampleGatedNFTMinterUpgradeable",
        "label": "_owner",
        "offset": 0,
        "slot": "153",
        "type": "t_address"
      },
      {
        "astId": 131,
        "contract": "contracts/gatedExamples/ExampleGatedNFTMinterUpgradeable.sol:ExampleGatedNFTMinterUpgradeable",
        "label": "__gap",
        "offset": 0,
        "slot": "154",
        "type": "t_array(t_uint256)49_storage"
      },
      {
        "astId": 6418,
        "contract": "contracts/gatedExamples/ExampleGatedNFTMinterUpgradeable.sol:ExampleGatedNFTMinterUpgradeable",
        "label": "_tokenIds",
        "offset": 0,
        "slot": "203",
        "type": "t_struct(Counter)4620_storage"
      }
    ],
    "types": {
      "t_address": {
        "encoding": "inplace",
        "label": "address",
        "numberOfBytes": "20"
      },
      "t_array(t_uint256)44_storage": {
        "base": "t_uint256",
        "encoding": "inplace",
        "label": "uint256[44]",
        "numberOfBytes": "1408"
      },
      "t_array(t_uint256)49_storage": {
        "base": "t_uint256",
        "encoding": "inplace",
        "label": "uint256[49]",
        "numberOfBytes": "1568"
      },
      "t_array(t_uint256)50_storage": {
        "base": "t_uint256",
        "encoding": "inplace",
        "label": "uint256[50]",
        "numberOfBytes": "1600"
      },
      "t_bool": {
        "encoding": "inplace",
        "label": "bool",
        "numberOfBytes": "1"
      },
      "t_mapping(t_address,t_bool)": {
        "encoding": "mapping",
        "key": "t_address",
        "label": "mapping(address => bool)",
        "numberOfBytes": "32",
        "value": "t_bool"
      },
      "t_mapping(t_address,t_mapping(t_address,t_bool))": {
        "encoding": "mapping",
        "key": "t_address",
        "label": "mapping(address => mapping(address => bool))",
        "numberOfBytes": "32",
        "value": "t_mapping(t_address,t_bool)"
      },
      "t_mapping(t_address,t_uint256)": {
        "encoding": "mapping",
        "key": "t_address",
        "label": "mapping(address => uint256)",
        "numberOfBytes": "32",
        "value": "t_uint256"
      },
      "t_mapping(t_uint256,t_address)": {
        "encoding": "mapping",
        "key": "t_uint256",
        "label": "mapping(uint256 => address)",
        "numberOfBytes": "32",
        "value": "t_address"
      },
      "t_string_storage": {
        "encoding": "bytes",
        "label": "string",
        "numberOfBytes": "32"
      },
      "t_struct(Counter)4620_storage": {
        "encoding": "inplace",
        "label": "struct Counters.Counter",
        "members": [
          {
            "astId": 4619,
            "contract": "contracts/gatedExamples/ExampleGatedNFTMinterUpgradeable.sol:ExampleGatedNFTMinterUpgradeable",
            "label": "_value",
            "offset": 0,
            "slot": "0",
            "type": "t_uint256"
          }
        ],
        "numberOfBytes": "32"
      },
      "t_uint256": {
        "encoding": "inplace",
        "label": "uint256",
        "numberOfBytes": "32"
      },
      "t_uint8": {
        "encoding": "inplace",
        "label": "uint8",
        "numberOfBytes": "1"
      }
    }
  }
}