{
  "address": "0x9E702Ea3f1Eb6a38fb4aE9feC2006602D3e1F4b6",
  "abi": [
    {
      "inputs": [
        {
          "internalType": "address",
          "name": "signerAddress",
          "type": "address"
        }
      ],
      "stateMutability": "nonpayable",
      "type": "constructor"
    },
    {
      "inputs": [],
      "name": "BlockExpired",
      "type": "error"
    },
    {
      "inputs": [],
      "name": "InvalidSignature",
      "type": "error"
    },
    {
      "anonymous": false,
      "inputs": [
        {
          "indexed": true,
          "internalType": "address",
          "name": "owner",
          "type": "address"
        },
        {
          "indexed": true,
          "internalType": "address",
          "name": "approved",
          "type": "address"
        },
        {
          "indexed": true,
          "internalType": "uint256",
          "name": "tokenId",
          "type": "uint256"
        }
      ],
      "name": "Approval",
      "type": "event"
    },
    {
      "anonymous": false,
      "inputs": [
        {
          "indexed": true,
          "internalType": "address",
          "name": "owner",
          "type": "address"
        },
        {
          "indexed": true,
          "internalType": "address",
          "name": "operator",
          "type": "address"
        },
        {
          "indexed": false,
          "internalType": "bool",
          "name": "approved",
          "type": "bool"
        }
      ],
      "name": "ApprovalForAll",
      "type": "event"
    },
    {
      "anonymous": false,
      "inputs": [
        {
          "indexed": false,
          "internalType": "uint256",
          "name": "chainID",
          "type": "uint256"
        },
        {
          "indexed": false,
          "internalType": "uint256",
          "name": "nonce",
          "type": "uint256"
        },
        {
          "indexed": false,
          "internalType": "uint256",
          "name": "blockExpiration",
          "type": "uint256"
        },
        {
          "indexed": false,
          "internalType": "address",
          "name": "contractAddress",
          "type": "address"
        },
        {
          "indexed": false,
          "internalType": "address",
          "name": "userAddress",
          "type": "address"
        },
        {
          "indexed": false,
          "internalType": "bytes",
          "name": "functionCallData",
          "type": "bytes"
        }
      ],
      "name": "NexeraIDSignatureVerified",
      "type": "event"
    },
    {
      "anonymous": false,
      "inputs": [
        {
          "indexed": true,
          "internalType": "address",
          "name": "previousOwner",
          "type": "address"
        },
        {
          "indexed": true,
          "internalType": "address",
          "name": "newOwner",
          "type": "address"
        }
      ],
      "name": "OwnershipTransferred",
      "type": "event"
    },
    {
      "anonymous": false,
      "inputs": [
        {
          "indexed": true,
          "internalType": "address",
          "name": "from",
          "type": "address"
        },
        {
          "indexed": true,
          "internalType": "address",
          "name": "to",
          "type": "address"
        },
        {
          "indexed": true,
          "internalType": "uint256",
          "name": "tokenId",
          "type": "uint256"
        }
      ],
      "name": "Transfer",
      "type": "event"
    },
    {
      "inputs": [
        {
          "internalType": "address",
          "name": "to",
          "type": "address"
        },
        {
          "internalType": "uint256",
          "name": "tokenId",
          "type": "uint256"
        }
      ],
      "name": "approve",
      "outputs": [],
      "stateMutability": "nonpayable",
      "type": "function"
    },
    {
      "inputs": [
        {
          "internalType": "address",
          "name": "owner",
          "type": "address"
        }
      ],
      "name": "balanceOf",
      "outputs": [
        {
          "internalType": "uint256",
          "name": "",
          "type": "uint256"
        }
      ],
      "stateMutability": "view",
      "type": "function"
    },
    {
      "inputs": [
        {
          "internalType": "uint256",
          "name": "tokenId",
          "type": "uint256"
        }
      ],
      "name": "getApproved",
      "outputs": [
        {
          "internalType": "address",
          "name": "",
          "type": "address"
        }
      ],
      "stateMutability": "view",
      "type": "function"
    },
    {
      "inputs": [],
      "name": "getLastTokenId",
      "outputs": [
        {
          "internalType": "uint256",
          "name": "",
          "type": "uint256"
        }
      ],
      "stateMutability": "view",
      "type": "function"
    },
    {
      "inputs": [
        {
          "components": [
            {
              "internalType": "uint256",
              "name": "chainID",
              "type": "uint256"
            },
            {
              "internalType": "uint256",
              "name": "nonce",
              "type": "uint256"
            },
            {
              "internalType": "uint256",
              "name": "blockExpiration",
              "type": "uint256"
            },
            {
              "internalType": "address",
              "name": "contractAddress",
              "type": "address"
            },
            {
              "internalType": "address",
              "name": "userAddress",
              "type": "address"
            },
            {
              "internalType": "bytes",
              "name": "functionCallData",
              "type": "bytes"
            }
          ],
          "internalType": "struct BaseTxAuthDataVerifier.TxAuthData",
          "name": "_txAuthData",
          "type": "tuple"
        }
      ],
      "name": "getMessageHash",
      "outputs": [
        {
          "internalType": "bytes32",
          "name": "",
          "type": "bytes32"
        }
      ],
      "stateMutability": "pure",
      "type": "function"
    },
    {
      "inputs": [],
      "name": "getSignerAddress",
      "outputs": [
        {
          "internalType": "address",
          "name": "",
          "type": "address"
        }
      ],
      "stateMutability": "view",
      "type": "function"
    },
    {
      "inputs": [
        {
          "internalType": "address",
          "name": "user",
          "type": "address"
        }
      ],
      "name": "getUserNonce",
      "outputs": [
        {
          "internalType": "uint256",
          "name": "",
          "type": "uint256"
        }
      ],
      "stateMutability": "view",
      "type": "function"
    },
    {
      "inputs": [
        {
          "internalType": "address",
          "name": "owner",
          "type": "address"
        },
        {
          "internalType": "address",
          "name": "operator",
          "type": "address"
        }
      ],
      "name": "isApprovedForAll",
      "outputs": [
        {
          "internalType": "bool",
          "name": "",
          "type": "bool"
        }
      ],
      "stateMutability": "view",
      "type": "function"
    },
    {
      "inputs": [
        {
          "internalType": "address",
          "name": "recipient",
          "type": "address"
        },
        {
          "internalType": "uint256",
          "name": "_blockExpiration",
          "type": "uint256"
        },
        {
          "internalType": "bytes",
          "name": "_signature",
          "type": "bytes"
        }
      ],
      "name": "mintNFTGated",
      "outputs": [
        {
          "internalType": "uint256",
          "name": "",
          "type": "uint256"
        }
      ],
      "stateMutability": "nonpayable",
      "type": "function"
    },
    {
      "inputs": [],
      "name": "name",
      "outputs": [
        {
          "internalType": "string",
          "name": "",
          "type": "string"
        }
      ],
      "stateMutability": "view",
      "type": "function"
    },
    {
      "inputs": [
        {
          "internalType": "address",
          "name": "",
          "type": "address"
        }
      ],
      "name": "nonces",
      "outputs": [
        {
          "internalType": "uint256",
          "name": "_value",
          "type": "uint256"
        }
      ],
      "stateMutability": "view",
      "type": "function"
    },
    {
      "inputs": [],
      "name": "owner",
      "outputs": [
        {
          "internalType": "address",
          "name": "",
          "type": "address"
        }
      ],
      "stateMutability": "view",
      "type": "function"
    },
    {
      "inputs": [
        {
          "internalType": "uint256",
          "name": "tokenId",
          "type": "uint256"
        }
      ],
      "name": "ownerOf",
      "outputs": [
        {
          "internalType": "address",
          "name": "",
          "type": "address"
        }
      ],
      "stateMutability": "view",
      "type": "function"
    },
    {
      "inputs": [],
      "name": "renounceOwnership",
      "outputs": [],
      "stateMutability": "nonpayable",
      "type": "function"
    },
    {
      "inputs": [
        {
          "internalType": "address",
          "name": "from",
          "type": "address"
        },
        {
          "internalType": "address",
          "name": "to",
          "type": "address"
        },
        {
          "internalType": "uint256",
          "name": "tokenId",
          "type": "uint256"
        }
      ],
      "name": "safeTransferFrom",
      "outputs": [],
      "stateMutability": "nonpayable",
      "type": "function"
    },
    {
      "inputs": [
        {
          "internalType": "address",
          "name": "from",
          "type": "address"
        },
        {
          "internalType": "address",
          "name": "to",
          "type": "address"
        },
        {
          "internalType": "uint256",
          "name": "tokenId",
          "type": "uint256"
        },
        {
          "internalType": "bytes",
          "name": "data",
          "type": "bytes"
        }
      ],
      "name": "safeTransferFrom",
      "outputs": [],
      "stateMutability": "nonpayable",
      "type": "function"
    },
    {
      "inputs": [
        {
          "internalType": "address",
          "name": "operator",
          "type": "address"
        },
        {
          "internalType": "bool",
          "name": "approved",
          "type": "bool"
        }
      ],
      "name": "setApprovalForAll",
      "outputs": [],
      "stateMutability": "nonpayable",
      "type": "function"
    },
    {
      "inputs": [
        {
          "internalType": "address",
          "name": "_signer",
          "type": "address"
        }
      ],
      "name": "setSigner",
      "outputs": [],
      "stateMutability": "nonpayable",
      "type": "function"
    },
    {
      "inputs": [
        {
          "internalType": "bytes4",
          "name": "interfaceId",
          "type": "bytes4"
        }
      ],
      "name": "supportsInterface",
      "outputs": [
        {
          "internalType": "bool",
          "name": "",
          "type": "bool"
        }
      ],
      "stateMutability": "view",
      "type": "function"
    },
    {
      "inputs": [],
      "name": "symbol",
      "outputs": [
        {
          "internalType": "string",
          "name": "",
          "type": "string"
        }
      ],
      "stateMutability": "view",
      "type": "function"
    },
    {
      "inputs": [
        {
          "internalType": "uint256",
          "name": "tokenId",
          "type": "uint256"
        }
      ],
      "name": "tokenURI",
      "outputs": [
        {
          "internalType": "string",
          "name": "",
          "type": "string"
        }
      ],
      "stateMutability": "view",
      "type": "function"
    },
    {
      "inputs": [
        {
          "internalType": "address",
          "name": "from",
          "type": "address"
        },
        {
          "internalType": "address",
          "name": "to",
          "type": "address"
        },
        {
          "internalType": "uint256",
          "name": "tokenId",
          "type": "uint256"
        }
      ],
      "name": "transferFrom",
      "outputs": [],
      "stateMutability": "nonpayable",
      "type": "function"
    },
    {
      "inputs": [
        {
          "internalType": "address",
          "name": "newOwner",
          "type": "address"
        }
      ],
      "name": "transferOwnership",
      "outputs": [],
      "stateMutability": "nonpayable",
      "type": "function"
    }
  ],
  "transactionHash": "0x40d616ce4489413204e3b852620c22dc510dd2613d54af9054b702127798a4a7",
  "args": [
    "0x0BAd9DaD98143b2E946e8A40E4f27537be2f55E2"
  ],
  "numDeployments": 5,
  "solcInputHash": "4bb1480ae4cbbae86e861932532ea6bc",
  "bytecode": "0x6080346200038a57601f906001600160401b0390601f1962001ad1388190038581018316840185811185821017620002a0578492829160405283396020938491810103126200038a57516001600160a01b039485821694918590036200038a57620000696200038f565b90601782527f4d794578616d706c6547617465644e46544d696e746572000000000000000000858301526200009d6200038f565b600481526311d3919560e21b868201528251848111620002a0576002546001948582811c921680156200037f575b898310146200027f57818584931162000328575b508890858311600114620002c257600092620002b6575b5050600019600383901b1c191690841b176002555b8051938411620002a05760039586548481811c9116801562000295575b828210146200027f5783811162000234575b5080928511600114620001cc575083945090839291600094620001c0575b50501b9160001990841b1c19161790555b60088054336001600160a01b03198083168217909355604051949091167f8be0079c531659141344cd1fd0a4f28419497f9722a3daafe3b4186f6b6457e0600086a360005416176000556117219081620003b08239f35b01519250388062000158565b9294849081168760005284600020946000905b8883831062000219575050501062000200575b505050811b01905562000169565b015160001983861b60f8161c19169055388080620001f2565b858701518855909601959485019487935090810190620001df565b87600052816000208480880160051c82019284891062000275575b0160051c019085905b828110620002685750506200013a565b6000815501859062000258565b925081926200024f565b634e487b7160e01b600052602260045260246000fd5b90607f169062000128565b634e487b7160e01b600052604160045260246000fd5b015190503880620000f6565b90888794169160026000528a6000209260005b8c828210620003115750508411620002f7575b505050811b016002556200010b565b015160001960f88460031b161c19169055388080620002e8565b8385015186558a97909501949384019301620002d5565b9091506002600052886000208580850160051c8201928b861062000375575b918891869594930160051c01915b82811062000365575050620000df565b6000815585945088910162000355565b9250819262000347565b91607f1691620000cb565b600080fd5b60408051919082016001600160401b03811183821017620002a05760405256fe6080604081815260048036101561001557600080fd5b600092833560e01c90816301ffc9a714610d625750806306fdde0314610cb3578063081812fc14610c93578063095ea7b314610b225780631a296e0214610afa57806323b872dd14610acf57806342842e0e14610a805780636352211e14610a4f5780636834e3a8146108e05780636c19e78314610a0e57806370a0823114610978578063715018a6146109185780637ecebe00146108e0578063801954a81461081457806383c4c00d146107f55780638da5cb5b146107cc57806395d89b41146106d3578063a22cb46514610608578063b88d4fde146105b7578063c87b56dd14610547578063d7ce794b1461023a578063e985e9c5146101e85763f2fde38b1461012057600080fd5b346101e45760203660031901126101e457610139610e16565b610141610f52565b6001600160a01b039081169182156101925750600880546001600160a01b031981168417909155925192167f8be0079c531659141344cd1fd0a4f28419497f9722a3daafe3b4186f6b6457e08484a3f35b608490602085519162461bcd60e51b8352820152602660248201527f4f776e61626c653a206e6577206f776e657220697320746865207a65726f206160448201526564647265737360d01b6064820152fd5b8280fd5b50503461023657806003193601126102365760ff81602093610208610e16565b610210610e31565b6001600160a01b0391821683526007875283832091168252855220549151911615158152f35b5080fd5b50913461054457606036600319011261054457610255610e16565b6024803593604435956001600160401b03958688116105405736602389011215610540578782013587811161053c573685828b01011161053c57607f1936019036821161052a578243101561051a573388526001996020998b8b52868a205487519160c08301908382109082111761050857926103288695938a8f8f90998161036a9c9b61035c986103629b8652468752818701528c8587015230606087015233608087015261031061030784610ee2565b95519586610ec1565b828552840137368201605f19015260a0820152611666565b7f19457468657265756d205369676e6564204d6573736167653a0a3332000000008d52601c52603c8c20928a369201610efd565b9061155d565b939093611448565b87546001600160a01b0393908416908416036104f857907f457734c71a6a3ef35a45b3a9aed14e0158cca171cd87330ecd1de4d4d61dc8f3913389528a8a5285892054918651924684528b8401528683015230606083015233608083015260c060a08301528060c08301528860e0830137876060368301015260e081601f196060193601168101030190a133865287875282862088815401905587600954019485600955169283156104b957508394959661044361043d86600052600460205260018060a01b0360406000205416151590565b1561161a565b600085815260046020526040902054610466906001600160a01b0316151561043d565b8387526005885282872080549091019055838652865280852080546001600160a01b0319168317905551937fddf252ad1be2c89b69c2b068fc378daa952ba7f163c4a11628f55a4df523b3ef8186a48152f35b869081606494519362461bcd60e51b85528401528201527f4552433732313a206d696e7420746f20746865207a65726f20616464726573736044820152fd5b8451638baa579f60e01b81528490fd5b634e487b7160e01b8c5260418852898cfd5b84516378fd448d60e01b81528490fd5b634e487b7160e01b8852601184528588fd5b8680fd5b8580fd5b80fd5b50919034610236576020366003190112610236576105866105816105b39435600052600460205260018060a01b0360406000205416151590565b610faa565b81815161059281610e90565b5280519161059f83610e90565b825251918291602083526020830190610df1565b0390f35b50346101e45760803660031901126101e4576105d1610e16565b6105d9610e31565b906064356001600160401b03811161054057610605936105fb91369101610f34565b91604435916110b4565b51f35b50346101e457816003193601126101e457610621610e16565b602435908115158092036106cf576001600160a01b0316913383146106905750338452600760205282842082855260205282842060ff1981541660ff831617905582519081527f17307eab39ab6107e8899845ad3d59bd9653f200f220920489ca2b5937696c3160203392a351f35b606490602085519162461bcd60e51b8352820152601960248201527822a9219b99189d1030b8383937bb32903a379031b0b63632b960391b6044820152fd5b8480fd5b5091346105445780600319360112610544578151918160035492600184811c918186169586156107c2575b60209687851081146107af578899509688969785829a52918260001461078857505060011461074a575b5050506105b3929161073b910385610ec1565b51928284938452830190610df1565b9190869350600383528383205b828410610770575050508201018161073b6105b3610728565b8054848a018601528895508794909301928101610757565b60ff19168782015293151560051b8601909301935084925061073b91506105b39050610728565b634e487b7160e01b835260228a52602483fd5b92607f16926106fe565b50503461023657816003193601126102365760085490516001600160a01b039091168152602090f35b5050346102365781600319360112610236576020906009549051908152f35b50346101e457600319906020368301126108dc578035916001600160401b03908184116105405760c09084360301126106cf5783519460c08601868110838211176108c95785528383013586526024840135602087015260448401358587015261088060648501610e47565b606087015261089160848501610e47565b608087015260a484013591821161054457506108c292602095926108b89236920101610f34565b60a0820152611666565b9051908152f35b634e487b7160e01b825260418452602482fd5b8380fd5b5050346102365760203660031901126102365760209181906001600160a01b03610908610e16565b1681526001845220549051908152f35b505034610236578160031936011261023657610932610f52565b600880546001600160a01b0319811690915590519082906001600160a01b03167f8be0079c531659141344cd1fd0a4f28419497f9722a3daafe3b4186f6b6457e08284a3f35b50829034610236576020366003190112610236576001600160a01b0361099c610e16565b169081156109b95760208480858581526005845220549051908152f35b608490602085519162461bcd60e51b8352820152602960248201527f4552433732313a2061646472657373207a65726f206973206e6f7420612076616044820152683634b21037bbb732b960b91b6064820152fd5b50503461023657602036600319011261023657610a29610e16565b610a31610f52565b82546001600160a01b0319166001600160a01b039190911617825551f35b5091346105445760203660031901126105445750610a6f60209235610ff1565b90516001600160a01b039091168152f35b5091903461023657610a9136610e5b565b90835192602084018481106001600160401b03821117610abc578561060596979850528684526110b4565b634e487b7160e01b875260418852602487fd5b50503461023657610605610ae236610e5b565b91610af5610af0843361114f565b611052565b611217565b505034610236578160031936011261023657905490516001600160a01b039091168152602090f35b50346101e457816003193601126101e457610b3b610e16565b602435916001600160a01b03908180610b5386610ff1565b16931692808414610c4657803314908115610c27575b5015610bbe5750828552600660205283852080546001600160a01b03191683179055610b9483610ff1565b169251927f8c5be1e5ebec7d5bd14f71427d1e84f3dd0314c0f7b2291e5b200ac8c7c3b9258585a4f35b608490602086519162461bcd60e51b8352820152603d60248201527f4552433732313a20617070726f76652063616c6c6572206973206e6f7420746f60448201527f6b656e206f776e6572206f7220617070726f76656420666f7220616c6c0000006064820152fd5b90508652600760205284862033875260205260ff858720541638610b69565b855162461bcd60e51b8152602081840152602160248201527f4552433732313a20617070726f76616c20746f2063757272656e74206f776e656044820152603960f91b6064820152608490fd5b5091346105445760203660031901126105445750610a6f60209235611014565b5091346105445780600319360112610544578151918160025492600184811c91818616958615610d58575b60209687851081146107af578899509688969785829a529182600014610788575050600114610d1a575050506105b3929161073b910385610ec1565b9190869350600283528383205b828410610d40575050508201018161073b6105b3610728565b8054848a018601528895508794909301928101610d27565b92607f1692610cde565b925050346101e45760203660031901126101e4573563ffffffff60e01b81168091036101e457602092506380ac58cd60e01b8114908115610dbd575b8115610dac575b5015158152f35b6301ffc9a760e01b14905038610da5565b635b5e139f60e01b81149150610d9e565b60005b838110610de15750506000910152565b8181015183820152602001610dd1565b90602091610e0a81518092818552858086019101610dce565b601f01601f1916010190565b600435906001600160a01b0382168203610e2c57565b600080fd5b602435906001600160a01b0382168203610e2c57565b35906001600160a01b0382168203610e2c57565b6060906003190112610e2c576001600160a01b03906004358281168103610e2c57916024359081168103610e2c579060443590565b602081019081106001600160401b03821117610eab57604052565b634e487b7160e01b600052604160045260246000fd5b90601f801991011681019081106001600160401b03821117610eab57604052565b6001600160401b038111610eab57601f01601f191660200190565b929192610f0982610ee2565b91610f176040519384610ec1565b829481845281830111610e2c578281602093846000960137010152565b9080601f83011215610e2c57816020610f4f93359101610efd565b90565b6008546001600160a01b03163303610f6657565b606460405162461bcd60e51b815260206004820152602060248201527f4f776e61626c653a2063616c6c6572206973206e6f7420746865206f776e65726044820152fd5b15610fb157565b60405162461bcd60e51b8152602060048201526018602482015277115490cdcc8c4e881a5b9d985b1a59081d1bdad95b88125160421b6044820152606490fd5b6000908152600460205260409020546001600160a01b0316610f4f811515610faa565b600081815260046020526040902054611037906001600160a01b03161515610faa565b6000908152600660205260409020546001600160a01b031690565b1561105957565b60405162461bcd60e51b815260206004820152602d60248201527f4552433732313a2063616c6c6572206973206e6f7420746f6b656e206f776e6560448201526c1c881bdc88185c1c1c9bdd9959609a1b6064820152608490fd5b906110d89392916110c8610af0843361114f565b6110d3838383611217565b611327565b156110df57565b60405162461bcd60e51b8152806110f8600482016110fc565b0390fd5b60809060208152603260208201527f4552433732313a207472616e7366657220746f206e6f6e20455243373231526560408201527131b2b4bb32b91034b6b83632b6b2b73a32b960711b60608201520190565b906001600160a01b03808061116384610ff1565b16931691838314938415611196575b508315611180575b50505090565b61118c91929350611014565b161438808061117a565b909350600052600760205260406000208260005260205260ff604060002054169238611172565b156111c457565b60405162461bcd60e51b815260206004820152602560248201527f4552433732313a207472616e736665722066726f6d20696e636f72726563742060448201526437bbb732b960d91b6064820152608490fd5b9061123f9161122584610ff1565b6001600160a01b03939184169284929091831684146111bd565b169182156112d6578161125c9161125586610ff1565b16146111bd565b7fddf252ad1be2c89b69c2b068fc378daa952ba7f163c4a11628f55a4df523b3ef600084815260066020526040812060018060a01b031990818154169055838252600560205260408220600019815401905584825260408220600181540190558582526004602052846040832091825416179055604051a4565b60405162461bcd60e51b8152602060048201526024808201527f4552433732313a207472616e7366657220746f20746865207a65726f206164646044820152637265737360e01b6064820152608490fd5b9293600093909291803b1561143d579484916113819660405180948193630a85bd0160e11b9788845233600485015260018060a01b0380921660248501526044840152608060648401528260209b8c976084830190610df1565b0393165af18491816113fd575b506113ec575050503d6000146113e4573d6113a881610ee2565b906113b66040519283610ec1565b81528091833d92013e5b805191826113e15760405162461bcd60e51b8152806110f8600482016110fc565b01fd5b5060606113c0565b6001600160e01b0319161492509050565b9091508581813d8311611436575b6114158183610ec1565b810103126106cf57516001600160e01b0319811681036106cf57903861138e565b503d61140b565b505050915050600190565b600581101561154757806114595750565b600181036114a15760405162461bcd60e51b815260206004820152601860248201527745434453413a20696e76616c6964207369676e617475726560401b6044820152606490fd5b600281036114ee5760405162461bcd60e51b815260206004820152601f60248201527f45434453413a20696e76616c6964207369676e6174757265206c656e677468006044820152606490fd5b6003146114f757565b60405162461bcd60e51b815260206004820152602260248201527f45434453413a20696e76616c6964207369676e6174757265202773272076616c604482015261756560f01b6064820152608490fd5b634e487b7160e01b600052602160045260246000fd5b90604181511460001461158b57611587916020820151906060604084015193015160001a90611595565b9091565b5050600090600290565b9291906fa2a8918ca85bafe22016d0b997e4df60600160ff1b03831161160e5791608094939160ff602094604051948552168484015260408301526060820152600093849182805260015afa156116015781516001600160a01b038116156115fb579190565b50600190565b50604051903d90823e3d90fd5b50505050600090600390565b1561162157565b60405162461bcd60e51b815260206004820152601c60248201527f4552433732313a20746f6b656e20616c7265616479206d696e746564000000006044820152606490fd5b8051906116e560a86020830151604084015193606081015160a060808301519201519160405196879460208601998a52604086015260608501526bffffffffffffffffffffffff19809260601b16608085015260601b1660948301526116d58151809260208686019101610dce565b8101036088810184520182610ec1565b5190209056fea26469706673582212201d42d59995df8799662d3c2f93118ae2334d44afe62b8aa05b6708feb22f330664736f6c63430008100033",
  "devdoc": {
    "details": "Inherits from OpenZeppelin's ERC721 for NFT functionality and a custom TxAuthDataVerifier for signature verification.",
    "kind": "dev",
    "methods": {
      "approve(address,uint256)": {
        "details": "See {IERC721-approve}."
      },
      "balanceOf(address)": {
        "details": "See {IERC721-balanceOf}."
      },
      "constructor": {
        "params": {
          "signerAddress": "The address allowed to sign transaction data for minting authorization."
        }
      },
      "getApproved(uint256)": {
        "details": "See {IERC721-getApproved}."
      },
      "getLastTokenId()": {
        "details": "Returns the last token ID that was minted.",
        "returns": {
          "_0": "The current value of the token ID counter, which corresponds to the last minted token ID."
        }
      },
      "getMessageHash((uint256,uint256,uint256,address,address,bytes))": {
        "params": {
          "_txAuthData": "The transaction authentication data to hash"
        },
        "returns": {
          "_0": "The keccak256 hash of the encoded `TxAuthData`"
        }
      },
      "getSignerAddress()": {
        "returns": {
          "_0": "The signer address"
        }
      },
      "getUserNonce(address)": {
        "params": {
          "user": "The address of the user"
        },
        "returns": {
          "_0": "The current nonce of the user"
        }
      },
      "isApprovedForAll(address,address)": {
        "details": "See {IERC721-isApprovedForAll}."
      },
      "mintNFTGated(address,uint256,bytes)": {
        "details": "Leverages the `requireTxDataAuthOpti` modifier for efficient signature verification.",
        "params": {
          "_blockExpiration": "The block number after which the request is considered expired.",
          "_signature": "The signature provided for verification.",
          "recipient": "The address to which the NFT will be minted."
        },
        "returns": {
          "_0": "The ID of the newly minted NFT upon successful verification and minting."
        }
      },
      "name()": {
        "details": "See {IERC721Metadata-name}."
      },
      "owner()": {
        "details": "Returns the address of the current owner."
      },
      "ownerOf(uint256)": {
        "details": "See {IERC721-ownerOf}."
      },
      "renounceOwnership()": {
        "details": "Leaves the contract without owner. It will not be possible to call `onlyOwner` functions. Can only be called by the current owner. NOTE: Renouncing ownership will leave the contract without an owner, thereby disabling any functionality that is only available to the owner."
      },
      "safeTransferFrom(address,address,uint256)": {
        "details": "See {IERC721-safeTransferFrom}."
      },
      "safeTransferFrom(address,address,uint256,bytes)": {
        "details": "See {IERC721-safeTransferFrom}."
      },
      "setApprovalForAll(address,bool)": {
        "details": "See {IERC721-setApprovalForAll}."
      },
      "setSigner(address)": {
        "details": "Can only be called by the current owner",
        "params": {
          "_signer": "The address of the new signer"
        }
      },
      "supportsInterface(bytes4)": {
        "details": "See {IERC165-supportsInterface}."
      },
      "symbol()": {
        "details": "See {IERC721Metadata-symbol}."
      },
      "tokenURI(uint256)": {
        "details": "See {IERC721Metadata-tokenURI}."
      },
      "transferFrom(address,address,uint256)": {
        "details": "See {IERC721-transferFrom}."
      },
      "transferOwnership(address)": {
        "details": "Transfers ownership of the contract to a new account (`newOwner`). Can only be called by the current owner."
      }
    },
    "title": "Example Gated NFT Minter",
    "version": 1
  },
  "userdoc": {
    "errors": {
      "BlockExpired()": [
        {
          "notice": "Custom error for handling signature expiry"
        }
      ],
      "InvalidSignature()": [
        {
          "notice": "Custom error for handling invalid signatures"
        }
      ]
    },
    "kind": "user",
    "methods": {
      "constructor": {
        "notice": "Initializes the contract by setting a name, symbol, and signer for TxAuthDataVerifier."
      },
      "getLastTokenId()": {
        "notice": "Retrieves the current value of the token ID counter."
      },
      "getMessageHash((uint256,uint256,uint256,address,address,bytes))": {
        "notice": "Generates a hash of the given `TxAuthData`"
      },
      "getSignerAddress()": {
        "notice": "Retrieves the signer address"
      },
      "getUserNonce(address)": {
        "notice": "Retrieves the current nonce for a given user"
      },
      "mintNFTGated(address,uint256,bytes)": {
        "notice": "Mints a new NFT to a specified recipient, using an optimized signature verification process."
      },
      "nonces(address)": {
        "notice": "Mapping to track the nonces of users to prevent replay attacks"
      },
      "setSigner(address)": {
        "notice": "Sets a new signer address"
      }
    },
    "notice": "This contract demonstrates an NFT minting process gated by off-chain signature verification.",
    "version": 1
  },
  "storageLayout": {
    "storage": [
      {
        "astId": 6580,
        "contract": "contracts/gatedExamples/ExampleGatedNFTMinter.sol:ExampleGatedNFTMinter",
        "label": "signer",
        "offset": 0,
        "slot": "0",
        "type": "t_address"
      },
      {
        "astId": 6586,
        "contract": "contracts/gatedExamples/ExampleGatedNFTMinter.sol:ExampleGatedNFTMinter",
        "label": "nonces",
        "offset": 0,
        "slot": "1",
        "type": "t_mapping(t_address,t_struct(Counter)4620_storage)"
      },
      {
        "astId": 3192,
        "contract": "contracts/gatedExamples/ExampleGatedNFTMinter.sol:ExampleGatedNFTMinter",
        "label": "_name",
        "offset": 0,
        "slot": "2",
        "type": "t_string_storage"
      },
      {
        "astId": 3194,
        "contract": "contracts/gatedExamples/ExampleGatedNFTMinter.sol:ExampleGatedNFTMinter",
        "label": "_symbol",
        "offset": 0,
        "slot": "3",
        "type": "t_string_storage"
      },
      {
        "astId": 3198,
        "contract": "contracts/gatedExamples/ExampleGatedNFTMinter.sol:ExampleGatedNFTMinter",
        "label": "_owners",
        "offset": 0,
        "slot": "4",
        "type": "t_mapping(t_uint256,t_address)"
      },
      {
        "astId": 3202,
        "contract": "contracts/gatedExamples/ExampleGatedNFTMinter.sol:ExampleGatedNFTMinter",
        "label": "_balances",
        "offset": 0,
        "slot": "5",
        "type": "t_mapping(t_address,t_uint256)"
      },
      {
        "astId": 3206,
        "contract": "contracts/gatedExamples/ExampleGatedNFTMinter.sol:ExampleGatedNFTMinter",
        "label": "_tokenApprovals",
        "offset": 0,
        "slot": "6",
        "type": "t_mapping(t_uint256,t_address)"
      },
      {
        "astId": 3212,
        "contract": "contracts/gatedExamples/ExampleGatedNFTMinter.sol:ExampleGatedNFTMinter",
        "label": "_operatorApprovals",
        "offset": 0,
        "slot": "7",
        "type": "t_mapping(t_address,t_mapping(t_address,t_bool))"
      },
      {
        "astId": 3061,
        "contract": "contracts/gatedExamples/ExampleGatedNFTMinter.sol:ExampleGatedNFTMinter",
        "label": "_owner",
        "offset": 0,
        "slot": "8",
        "type": "t_address"
      },
      {
        "astId": 6306,
        "contract": "contracts/gatedExamples/ExampleGatedNFTMinter.sol:ExampleGatedNFTMinter",
        "label": "_tokenIds",
        "offset": 0,
        "slot": "9",
        "type": "t_struct(Counter)4620_storage"
      }
    ],
    "types": {
      "t_address": {
        "encoding": "inplace",
        "label": "address",
        "numberOfBytes": "20"
      },
      "t_bool": {
        "encoding": "inplace",
        "label": "bool",
        "numberOfBytes": "1"
      },
      "t_mapping(t_address,t_bool)": {
        "encoding": "mapping",
        "key": "t_address",
        "label": "mapping(address => bool)",
        "numberOfBytes": "32",
        "value": "t_bool"
      },
      "t_mapping(t_address,t_mapping(t_address,t_bool))": {
        "encoding": "mapping",
        "key": "t_address",
        "label": "mapping(address => mapping(address => bool))",
        "numberOfBytes": "32",
        "value": "t_mapping(t_address,t_bool)"
      },
      "t_mapping(t_address,t_struct(Counter)4620_storage)": {
        "encoding": "mapping",
        "key": "t_address",
        "label": "mapping(address => struct Counters.Counter)",
        "numberOfBytes": "32",
        "value": "t_struct(Counter)4620_storage"
      },
      "t_mapping(t_address,t_uint256)": {
        "encoding": "mapping",
        "key": "t_address",
        "label": "mapping(address => uint256)",
        "numberOfBytes": "32",
        "value": "t_uint256"
      },
      "t_mapping(t_uint256,t_address)": {
        "encoding": "mapping",
        "key": "t_uint256",
        "label": "mapping(uint256 => address)",
        "numberOfBytes": "32",
        "value": "t_address"
      },
      "t_string_storage": {
        "encoding": "bytes",
        "label": "string",
        "numberOfBytes": "32"
      },
      "t_struct(Counter)4620_storage": {
        "encoding": "inplace",
        "label": "struct Counters.Counter",
        "members": [
          {
            "astId": 4619,
            "contract": "contracts/gatedExamples/ExampleGatedNFTMinter.sol:ExampleGatedNFTMinter",
            "label": "_value",
            "offset": 0,
            "slot": "0",
            "type": "t_uint256"
          }
        ],
        "numberOfBytes": "32"
      },
      "t_uint256": {
        "encoding": "inplace",
        "label": "uint256",
        "numberOfBytes": "32"
      }
    }
  }
}