{
  "address": "0xc463F1E7c098b0D818A6c15117E454A116068849",
  "abi": [
    {
      "inputs": [
        {
          "internalType": "address",
          "name": "_nexeraVerifierAddress",
          "type": "address"
        }
      ],
      "stateMutability": "nonpayable",
      "type": "constructor"
    },
    {
      "stateMutability": "payable",
      "type": "fallback"
    },
    {
      "inputs": [],
      "name": "aavePoolAddress",
      "outputs": [
        {
          "internalType": "address",
          "name": "",
          "type": "address"
        }
      ],
      "stateMutability": "view",
      "type": "function"
    },
    {
      "inputs": [],
      "name": "nexeraVerifierAddress",
      "outputs": [
        {
          "internalType": "address",
          "name": "",
          "type": "address"
        }
      ],
      "stateMutability": "view",
      "type": "function"
    },
    {
      "inputs": [
        {
          "internalType": "address",
          "name": "_token",
          "type": "address"
        },
        {
          "internalType": "uint256",
          "name": "_amount",
          "type": "uint256"
        },
        {
          "internalType": "address",
          "name": "_user",
          "type": "address"
        }
      ],
      "name": "supply",
      "outputs": [],
      "stateMutability": "nonpayable",
      "type": "function"
    },
    {
      "inputs": [
        {
          "internalType": "address",
          "name": "asset",
          "type": "address"
        },
        {
          "internalType": "uint256",
          "name": "amount",
          "type": "uint256"
        },
        {
          "internalType": "address",
          "name": "onBehalfOf",
          "type": "address"
        },
        {
          "internalType": "uint16",
          "name": "referralCode",
          "type": "uint16"
        },
        {
          "internalType": "uint256",
          "name": "deadline",
          "type": "uint256"
        },
        {
          "internalType": "uint8",
          "name": "permitV",
          "type": "uint8"
        },
        {
          "internalType": "bytes32",
          "name": "permitR",
          "type": "bytes32"
        },
        {
          "internalType": "bytes32",
          "name": "permitS",
          "type": "bytes32"
        }
      ],
      "name": "supplyWithPermit",
      "outputs": [],
      "stateMutability": "nonpayable",
      "type": "function"
    },
    {
      "stateMutability": "payable",
      "type": "receive"
    }
  ],
  "transactionHash": "0xb602fe225b04e9849cafcdc3a8c6e946f35328125121b79189401d22eceea4c8",
  "args": [
    "0xC40702B192E37d710C60389dD130b3fB813A5bC1"
  ],
  "numDeployments": 1,
  "solcInputHash": "01f3f48de4e4d02d39c4cf8b4c5f3a4c",
  "bytecode": "0x608060405234801561001057600080fd5b506040516109b43803806109b4833981810160405281019061003291906100db565b806000806101000a81548173ffffffffffffffffffffffffffffffffffffffff021916908373ffffffffffffffffffffffffffffffffffffffff16021790555050610108565b600080fd5b600073ffffffffffffffffffffffffffffffffffffffff82169050919050565b60006100a88261007d565b9050919050565b6100b88161009d565b81146100c357600080fd5b50565b6000815190506100d5816100af565b92915050565b6000602082840312156100f1576100f0610078565b5b60006100ff848285016100c6565b91505092915050565b61089d806101176000396000f3fe6080604052600436106100435760003560e01c806302c205f01461005c5780638b2a4df514610085578063a654897b146100ae578063ee567cd9146100d957610052565b3661005257610050610104565b005b61005a61011e565b005b34801561006857600080fd5b50610083600480360381019061007e91906105e6565b6102a1565b005b34801561009157600080fd5b506100ac60048036038101906100a7919061069c565b610417565b005b3480156100ba57600080fd5b506100c3610424565b6040516100d091906106fe565b60405180910390f35b3480156100e557600080fd5b506100ee610448565b6040516100fb91906106fe565b60405180910390f35b61010c610460565b61011c610117610462565b61047e565b565b600073cc6114b983e4ed2737e9bd3961c9924e6216c7049050600073ffffffffffffffffffffffffffffffffffffffff168173ffffffffffffffffffffffffffffffffffffffff16036101a6576040517f08c379a000000000000000000000000000000000000000000000000000000000815260040161019d90610776565b60405180910390fd5b60008054906101000a900473ffffffffffffffffffffffffffffffffffffffff1673ffffffffffffffffffffffffffffffffffffffff1663b347e741336040518263ffffffff1660e01b81526004016101ff91906106fe565b6020604051808303816000875af115801561021e573d6000803e3d6000fd5b505050506040513d601f19601f8201168201806040525081019061024291906107ce565b610281576040517f08c379a000000000000000000000000000000000000000000000000000000000815260040161027890610847565b60405180910390fd5b61029e73cc6114b983e4ed2737e9bd3961c9924e6216c70461047e565b50565b600073cc6114b983e4ed2737e9bd3961c9924e6216c7049050600073ffffffffffffffffffffffffffffffffffffffff168173ffffffffffffffffffffffffffffffffffffffff1603610329576040517f08c379a000000000000000000000000000000000000000000000000000000000815260040161032090610776565b60405180910390fd5b60008054906101000a900473ffffffffffffffffffffffffffffffffffffffff1673ffffffffffffffffffffffffffffffffffffffff1663b347e741336040518263ffffffff1660e01b815260040161038291906106fe565b6020604051808303816000875af11580156103a1573d6000803e3d6000fd5b505050506040513d601f19601f820116820180604052508101906103c591906107ce565b610404576040517f08c379a00000000000000000000000000000000000000000000000000000000081526004016103fb90610847565b60405180910390fd5b61040c61011e565b505050505050505050565b61041f61011e565b505050565b60008054906101000a900473ffffffffffffffffffffffffffffffffffffffff1681565b73cc6114b983e4ed2737e9bd3961c9924e6216c70481565b565b600073cc6114b983e4ed2737e9bd3961c9924e6216c704905090565b3660008037600080366000845af43d6000803e806000811461049f573d6000f35b3d6000fd5b600080fd5b600073ffffffffffffffffffffffffffffffffffffffff82169050919050565b60006104d4826104a9565b9050919050565b6104e4816104c9565b81146104ef57600080fd5b50565b600081359050610501816104db565b92915050565b6000819050919050565b61051a81610507565b811461052557600080fd5b50565b60008135905061053781610511565b92915050565b600061ffff82169050919050565b6105548161053d565b811461055f57600080fd5b50565b6000813590506105718161054b565b92915050565b600060ff82169050919050565b61058d81610577565b811461059857600080fd5b50565b6000813590506105aa81610584565b92915050565b6000819050919050565b6105c3816105b0565b81146105ce57600080fd5b50565b6000813590506105e0816105ba565b92915050565b600080600080600080600080610100898b031215610607576106066104a4565b5b60006106158b828c016104f2565b98505060206106268b828c01610528565b97505060406106378b828c016104f2565b96505060606106488b828c01610562565b95505060806106598b828c01610528565b94505060a061066a8b828c0161059b565b93505060c061067b8b828c016105d1565b92505060e061068c8b828c016105d1565b9150509295985092959890939650565b6000806000606084860312156106b5576106b46104a4565b5b60006106c3868287016104f2565b93505060206106d486828701610528565b92505060406106e5868287016104f2565b9150509250925092565b6106f8816104c9565b82525050565b600060208201905061071360008301846106ef565b92915050565b600082825260208201905092915050565b7f496d706c656d656e746174696f6e2061646472657373206e6f74207365740000600082015250565b6000610760601e83610719565b915061076b8261072a565b602082019050919050565b6000602082019050818103600083015261078f81610753565b9050919050565b60008115159050919050565b6107ab81610796565b81146107b657600080fd5b50565b6000815190506107c8816107a2565b92915050565b6000602082840312156107e4576107e36104a4565b5b60006107f2848285016107b9565b91505092915050565b7f55736572206973206e6f742077686974656c6973746564000000000000000000600082015250565b6000610831601783610719565b915061083c826107fb565b602082019050919050565b6000602082019050818103600083015261086081610824565b905091905056fea2646970667358221220f51bd562d98032de7dcf150330f73959358112f329f63e13ab43f6eb0f5fadca64736f6c63430008100033",
  "devdoc": {
    "kind": "dev",
    "methods": {
      "constructor": {
        "details": "Constructor that sets the Nexera Verifier address.",
        "params": {
          "_nexeraVerifierAddress": "Address of the Nexera Verifier contract."
        }
      },
      "supply(address,uint256,address)": {
        "details": "we add this in addition to the fallback in order to get it in the generated interface",
        "params": {
          "_amount": "Amount of the token to supply.",
          "_token": "Address of the token being supplied.",
          "_user": "Address of the user on whose behalf the supply is made."
        }
      },
      "supplyWithPermit(address,uint256,address,uint16,uint256,uint8,bytes32,bytes32)": {
        "details": "we add this in addition to the fallback in order to get it in the generated interface",
        "params": {
          "amount": "Amount of the asset.",
          "asset": "Address of the asset.",
          "deadline": "Deadline after which the permit is no longer valid.",
          "onBehalfOf": "Address of the user on whose behalf the supply is made.",
          "permitR": "R component of the permit signature.",
          "permitS": "S component of the permit signature.",
          "permitV": "V component of the permit signature.",
          "referralCode": "Referral code."
        }
      }
    },
    "title": "ProxyAavePool",
    "version": 1
  },
  "userdoc": {
    "kind": "user",
    "methods": {
      "supply(address,uint256,address)": {
        "notice": "Delegates the supply function call to the Aave Pool."
      },
      "supplyWithPermit(address,uint256,address,uint16,uint256,uint8,bytes32,bytes32)": {
        "notice": "Delegates the supplyWithPermit function call to the Aave Pool."
      }
    },
    "notice": "This example contract acts as a proxy for interacting with the Aave Pool, integrating with the Nexera entrypoint verifier for gating users.",
    "version": 1
  },
  "storageLayout": {
    "storage": [
      {
        "astId": 7990,
        "contract": "contracts/proxyExamples/ProxyAavePool.sol:ProxyAavePool",
        "label": "nexeraVerifierAddress",
        "offset": 0,
        "slot": "0",
        "type": "t_address"
      }
    ],
    "types": {
      "t_address": {
        "encoding": "inplace",
        "label": "address",
        "numberOfBytes": "20"
      }
    }
  }
}