{
  "address": "0xFaBE810Cc1BCA4Fe730ea90071799565a2A876ae",
  "abi": [
    {
      "inputs": [
        {
          "internalType": "uint256[2]",
          "name": "a",
          "type": "uint256[2]"
        },
        {
          "internalType": "uint256[2][2]",
          "name": "b",
          "type": "uint256[2][2]"
        },
        {
          "internalType": "uint256[2]",
          "name": "c",
          "type": "uint256[2]"
        },
        {
          "internalType": "uint256[]",
          "name": "input",
          "type": "uint256[]"
        }
      ],
      "name": "verify",
      "outputs": [
        {
          "internalType": "bool",
          "name": "r",
          "type": "bool"
        }
      ],
      "stateMutability": "view",
      "type": "function"
    },
    {
      "inputs": [
        {
          "internalType": "uint256[2]",
          "name": "_pA",
          "type": "uint256[2]"
        },
        {
          "internalType": "uint256[2][2]",
          "name": "_pB",
          "type": "uint256[2][2]"
        },
        {
          "internalType": "uint256[2]",
          "name": "_pC",
          "type": "uint256[2]"
        },
        {
          "internalType": "uint256[11]",
          "name": "_pubSignals",
          "type": "uint256[11]"
        }
      ],
      "name": "verifyProof",
      "outputs": [
        {
          "internalType": "bool",
          "name": "",
          "type": "bool"
        }
      ],
      "stateMutability": "view",
      "type": "function"
    }
  ],
  "transactionHash": "0xc8bdec602014a50fcb198b2c5ef6fff9daeac1b6de37d1cdb531d1f0f939b5c3",
  "args": [],
  "numDeployments": 1,
  "solcInputHash": "ae32deb1db46c11cf63bd3a5efe635da",
  "bytecode": "0x6080806040523461001657610e19908161001c8239f35b600080fdfe60806040526004361015610013575b600080fd5b6000803560e01c9081632612907c1461003e575063b9c6ea871461003657600080fd5b61000e6100fb565b346100d0576101203660031901126100d057610059366100d3565b610062366100ee565b61006b366100e0565b906101043567ffffffffffffffff948582116100d057366023830112156100d05781600401359586116100d0573660248760051b840101116100d0576100cc6100ba876024850187878a610d16565b60405190151581529081906020820190565b0390f35b80fd5b9060049160441161000e57565b9060c4916101041161000e57565b9060449160c41161000e57565b503461000e5761026036600319011261000e57610117366100d3565b610120366100ee565b610129366100e0565b6102649136831161000e576101d6936101d1604051946103808601604052610153610104356101df565b61015f610124356101df565b61016b610144356101df565b610177610164356101df565b610183610184356101df565b61018f6101a4356101df565b61019b6101c4356101df565b6101a76101e4356101df565b6101b3610204356101df565b6101bf610224356101df565b6101cb610244356101df565b356101df565b6107df565b60005260206000f35b7f30644e72e131a029b85045b68181585d97816a916871ca8d3c208c16d87cfd47111561020857565b6000805260206000f35b604080517f11788a050c473369bbac1d2e011ec3236dc2e426bf33950035d783539419e03b81527f1622d9ce6cd690e847704358fe99032bcf337ba5c8f17181b36216c8a61b89b460208201528082019384526107cf1991816060816007865a01fa1561020857600660809260409585519052602085015160608401525a01fa1561020857565b604080517f19dcba7a8a64168495e184fa3ce0be0d08ab53712d2bb51ebd016cab0679c89b81527f0b70d29ed3ae4b77ab974d5624d17cef7bc8a6c91d157a36637dbc85a311a59760208201528082019384526107cf1991816060816007865a01fa1561020857600660809260409585519052602085015160608401525a01fa1561020857565b604080517f03d16811819c4ff82df949af146566ada7540c0e620d0a3a243927b0a4f6b0db81527f10412904e7135f93df873a768f47e26eaf7649cf526233820d4e705ee7cc816860208201528082019384526107cf1991816060816007865a01fa1561020857600660809260409585519052602085015160608401525a01fa1561020857565b604080517f161628f234fb50ecce9c863ea7a616d4790276ed14f410062964ce932e77bf0681527f0a837cd8825cf5fa6feeb51b4b85f3c411db9db2df64da913a0fedc14d12d77d60208201528082019384526107cf1991816060816007865a01fa1561020857600660809260409585519052602085015160608401525a01fa1561020857565b604080517f233e0ce24b641fa92543e2251944350e1ba373aff7a2f6296403855ba1163b2d81527f10a808acd38d95f293e7595ac1d254314023fe5a4b417d46a457216250683b1a60208201528082019384526107cf1991816060816007865a01fa1561020857600660809260409585519052602085015160608401525a01fa1561020857565b604080517f0c2d90736caddcdbe291f31a2543dd6edaa258a516960ffb9c3cea7e2da18d1581527f20cf4b8faf4cc3ddef5428e3ec7ac6ab8fac15d3a408ab9be92c7c3636959bff60208201528082019384526107cf1991816060816007865a01fa1561020857600660809260409585519052602085015160608401525a01fa1561020857565b604080517f2af675475a9a8c80732328cca338fdc7b0d082049982557e0e663a9fd85ce44481527f24ea85494a29b0493f759cdecc86f90166567ba7fa3dfafc612441df8212987060208201528082019384526107cf1991816060816007865a01fa1561020857600660809260409585519052602085015160608401525a01fa1561020857565b604080517f0da6d80e9f321df5ac17ec71cf7b1d5a7564f79b51be0c74bedb8c2266a4ba8e81527f070d9dbbd07134b5bbee59c1d7f8e3d631430dd6394698fbba5f53384848bdf060208201528082019384526107cf1991816060816007865a01fa1561020857600660809260409585519052602085015160608401525a01fa1561020857565b604080517f2d23bb3f195568e6d21110df201b9520e2a0e49f433ac618afc3536ebef3adb881527f1d6c48d0c956333d81951c4ec0240786f431aa7899010a6360bd50a063dd509760208201528082019384526107cf1991816060816007865a01fa1561020857600660809260409585519052602085015160608401525a01fa1561020857565b604080517f032eda83efb2182f8abd68311a50bd1c1acde67ab2959d45fbc26941639e5ad481527f105e3dd896cb03b12043762dce2f72ea2a58a985fea546ba5bbd115d0bef7aaa60208201528082019384526107cf1991816060816007865a01fa1561020857600660809260409585519052602085015160608401525a01fa1561020857565b604080517f293ec4a0dd36216f02bcdc9c329cffaa450d2b5a44f55b61cabfc8300929a92a81527f21ef8dfeae61f0040d207a37d86209217a484587294fcde52f50d2095167820f60208201528082019384526107cf1991816060816007865a01fa1561020857600660809260409585519052602085015160608401525a01fa1561020857565b9260208093606095608084019687957f0992267e58f93dac7a7beb752274c98029cfc357435f878ea72b030d1085100a8652848601927ea1152a41bb3aa4fbe1aa7882c2e2a8e1b6e968f077ff4af210d42e0d7072b584526108446101043588610212565b6108516101243588610299565b61085e6101443588610320565b61086b61016435886103a7565b610878610184358861042e565b6108856101a435886104b5565b6108926101c4358861053c565b61089f6101e435886105c3565b6108ac610204358861064a565b6108b961022435886106d1565b6108c66102443588610758565b80358852857f30644e72e131a029b85045b68181585d97816a916871ca8d3c208c16d87cfd4791013581030660a0870152803560c08701528481013560e0870152604081013561010087015201356101208501527f2d4d9aa7e302d9df41749d5507949d05dbea33fbb16c643b22f599a2be6df2e26101408501527f14bedd503c37ceb061d8ec60209fe345ce89830a19230301f076caff004d19266101608501527f0967032fcbf776d1afc985f88877f182d38480a653f2decaa9794cbc3bf3060c6101808501527f0e187847ad4c798374d0d6732bf501847dd68bc0e071241e0213bc7fc13db7ab6101a08501527f304cfbd1e08a704a99f5e847d93f8c3caafddec46b7a0d379da69a4d112346a76101c08501527f1739c1b1a457a8c7313123d24d2f9192f896b7c63eea05a9d57f06547ad0cec86101e08501528351610200850152516102208401527f198e9393920d483a7260bfb731fb5d25f1aa493335a9e71297e485b7aef312c26102408401527f1800deef121f1e76426a00665e5c4479674322d4f75edadd46debd5cd992f6ed6102608401527f090689d0585ff075ec9e99ad690c3395bc4b313370b38ef355acdadcd122975b6102808401527f12c85ea5db8c6deb4aab71808dcb408fe3d1e7690c43d37b4ce6cc0166fa7daa6102a084015280356102c084015201356102e08201527f2a1bf8e0abf527ccfb58440a7364da4944f71aac2c9b5faa5c9a26f37034f2cc610360610300927f1469e40d51ed9ca8f5677275a3111e52ef96f34c58c29d156f87087010907429848201527f03c7e502253d6cfe7a9314775ac2d0fe4704763560fd70e78bec59fd4f6da94b6103208201527f2b90580b4fd31c34ac334b8581fd0de1b6d8af80163ae34b60a5fc851797a24b61034082015201528160086107cf195a01fa90511690565b50634e487b7160e01b600052604160045260246000fd5b610160810190811067ffffffffffffffff821117610ba057604052565b610ba8610b6c565b604052565b90601f8019910116810190811067ffffffffffffffff821117610ba057604052565b15610bd657565b60405162461bcd60e51b815260206004820152601b60248201527f6578706563746564206172726179206c656e67746820697320313100000000006044820152606490fd5b6000198114610c2a5760010190565b634e487b7160e01b600052601160045260246000fd5b50634e487b7160e01b600052603260045260246000fd5b9190811015610c68575b60051b0190565b610c70610c40565b610c61565b90600b811015610c685760051b0190565b9081602091031261000e5751801515810361000e5790565b9194939261026083019560408093853760008484015b60028210610cf45750505090829160c061010094013701906000915b600b8310610cdd57505050565b600190825181526020809101920192019190610cd0565b84808281866001953701930191019091610cb4565b506040513d6000823e3d90fd5b909192949360405190610d2882610b83565b610160368337600b90610d3c828214610bcf565b60005b828110610dbe57505060405163b9c6ea8760e01b815295965060209486948594610d6e94935060048601610c9e565b0381305afa908115610db1575b600091610d86575090565b610da7915060203d8111610daa575b610d9f8183610bad565b810190610c86565b90565b503d610d95565b610db9610d09565b610d7b565b80610dcd610dde92848c610c57565b35610dd88287610c75565b52610c1b565b610d3f56fea2646970667358221220ce0483fcac87f062200951062a889b68318e34ea19a5cfda189aae190d42b3c364736f6c63430008100033",
  "devdoc": {
    "kind": "dev",
    "methods": {
      "verify(uint256[2],uint256[2][2],uint256[2],uint256[])": {
        "returns": {
          "r": " bool true if proof is valid"
        }
      }
    },
    "stateVariables": {
      "PUBSIGNALS_LENGTH": {
        "details": "Number of public signals for atomic sig circuit"
      }
    },
    "version": 1
  },
  "userdoc": {
    "kind": "user",
    "methods": {},
    "version": 1
  },
  "storageLayout": {
    "storage": [],
    "types": null
  }
}