{
  "address": "0x2344EeC2343F251280b4CD548d1f17Eb3B846526",
  "abi": [
    {
      "inputs": [
        {
          "internalType": "address",
          "name": "signerAddress",
          "type": "address"
        }
      ],
      "stateMutability": "nonpayable",
      "type": "constructor"
    },
    {
      "inputs": [],
      "name": "BlockExpired",
      "type": "error"
    },
    {
      "inputs": [],
      "name": "InvalidSignature",
      "type": "error"
    },
    {
      "anonymous": false,
      "inputs": [
        {
          "indexed": true,
          "internalType": "address",
          "name": "owner",
          "type": "address"
        },
        {
          "indexed": true,
          "internalType": "address",
          "name": "approved",
          "type": "address"
        },
        {
          "indexed": true,
          "internalType": "uint256",
          "name": "tokenId",
          "type": "uint256"
        }
      ],
      "name": "Approval",
      "type": "event"
    },
    {
      "anonymous": false,
      "inputs": [
        {
          "indexed": true,
          "internalType": "address",
          "name": "owner",
          "type": "address"
        },
        {
          "indexed": true,
          "internalType": "address",
          "name": "operator",
          "type": "address"
        },
        {
          "indexed": false,
          "internalType": "bool",
          "name": "approved",
          "type": "bool"
        }
      ],
      "name": "ApprovalForAll",
      "type": "event"
    },
    {
      "anonymous": false,
      "inputs": [
        {
          "indexed": false,
          "internalType": "uint256",
          "name": "chainID",
          "type": "uint256"
        },
        {
          "indexed": false,
          "internalType": "uint256",
          "name": "nonce",
          "type": "uint256"
        },
        {
          "indexed": false,
          "internalType": "uint256",
          "name": "blockExpiration",
          "type": "uint256"
        },
        {
          "indexed": false,
          "internalType": "address",
          "name": "contractAddress",
          "type": "address"
        },
        {
          "indexed": false,
          "internalType": "address",
          "name": "userAddress",
          "type": "address"
        },
        {
          "indexed": false,
          "internalType": "bytes",
          "name": "functionCallData",
          "type": "bytes"
        }
      ],
      "name": "NexeraIDSignatureVerified",
      "type": "event"
    },
    {
      "anonymous": false,
      "inputs": [
        {
          "indexed": true,
          "internalType": "address",
          "name": "previousOwner",
          "type": "address"
        },
        {
          "indexed": true,
          "internalType": "address",
          "name": "newOwner",
          "type": "address"
        }
      ],
      "name": "OwnershipTransferred",
      "type": "event"
    },
    {
      "anonymous": false,
      "inputs": [
        {
          "indexed": true,
          "internalType": "address",
          "name": "newSigner",
          "type": "address"
        }
      ],
      "name": "SignerChanged",
      "type": "event"
    },
    {
      "anonymous": false,
      "inputs": [
        {
          "indexed": true,
          "internalType": "address",
          "name": "from",
          "type": "address"
        },
        {
          "indexed": true,
          "internalType": "address",
          "name": "to",
          "type": "address"
        },
        {
          "indexed": true,
          "internalType": "uint256",
          "name": "tokenId",
          "type": "uint256"
        }
      ],
      "name": "Transfer",
      "type": "event"
    },
    {
      "inputs": [
        {
          "internalType": "address",
          "name": "to",
          "type": "address"
        },
        {
          "internalType": "uint256",
          "name": "tokenId",
          "type": "uint256"
        }
      ],
      "name": "approve",
      "outputs": [],
      "stateMutability": "nonpayable",
      "type": "function"
    },
    {
      "inputs": [
        {
          "internalType": "address",
          "name": "owner",
          "type": "address"
        }
      ],
      "name": "balanceOf",
      "outputs": [
        {
          "internalType": "uint256",
          "name": "",
          "type": "uint256"
        }
      ],
      "stateMutability": "view",
      "type": "function"
    },
    {
      "inputs": [
        {
          "internalType": "uint256",
          "name": "tokenId",
          "type": "uint256"
        }
      ],
      "name": "getApproved",
      "outputs": [
        {
          "internalType": "address",
          "name": "",
          "type": "address"
        }
      ],
      "stateMutability": "view",
      "type": "function"
    },
    {
      "inputs": [
        {
          "components": [
            {
              "internalType": "uint256",
              "name": "chainID",
              "type": "uint256"
            },
            {
              "internalType": "uint256",
              "name": "nonce",
              "type": "uint256"
            },
            {
              "internalType": "uint256",
              "name": "blockExpiration",
              "type": "uint256"
            },
            {
              "internalType": "address",
              "name": "contractAddress",
              "type": "address"
            },
            {
              "internalType": "address",
              "name": "userAddress",
              "type": "address"
            },
            {
              "internalType": "bytes",
              "name": "functionCallData",
              "type": "bytes"
            }
          ],
          "internalType": "struct BaseTxAuthDataVerifier.TxAuthData",
          "name": "_txAuthData",
          "type": "tuple"
        }
      ],
      "name": "getMessageHash",
      "outputs": [
        {
          "internalType": "bytes32",
          "name": "",
          "type": "bytes32"
        }
      ],
      "stateMutability": "pure",
      "type": "function"
    },
    {
      "inputs": [
        {
          "internalType": "address",
          "name": "owner",
          "type": "address"
        },
        {
          "internalType": "address",
          "name": "operator",
          "type": "address"
        }
      ],
      "name": "isApprovedForAll",
      "outputs": [
        {
          "internalType": "bool",
          "name": "",
          "type": "bool"
        }
      ],
      "stateMutability": "view",
      "type": "function"
    },
    {
      "inputs": [],
      "name": "lastTokenId",
      "outputs": [
        {
          "internalType": "uint256",
          "name": "",
          "type": "uint256"
        }
      ],
      "stateMutability": "view",
      "type": "function"
    },
    {
      "inputs": [
        {
          "internalType": "address",
          "name": "recipient",
          "type": "address"
        }
      ],
      "name": "mintNFTGated",
      "outputs": [
        {
          "internalType": "uint256",
          "name": "",
          "type": "uint256"
        }
      ],
      "stateMutability": "nonpayable",
      "type": "function"
    },
    {
      "inputs": [],
      "name": "name",
      "outputs": [
        {
          "internalType": "string",
          "name": "",
          "type": "string"
        }
      ],
      "stateMutability": "view",
      "type": "function"
    },
    {
      "inputs": [
        {
          "internalType": "address",
          "name": "",
          "type": "address"
        }
      ],
      "name": "nonces",
      "outputs": [
        {
          "internalType": "uint256",
          "name": "",
          "type": "uint256"
        }
      ],
      "stateMutability": "view",
      "type": "function"
    },
    {
      "inputs": [],
      "name": "owner",
      "outputs": [
        {
          "internalType": "address",
          "name": "",
          "type": "address"
        }
      ],
      "stateMutability": "view",
      "type": "function"
    },
    {
      "inputs": [
        {
          "internalType": "uint256",
          "name": "tokenId",
          "type": "uint256"
        }
      ],
      "name": "ownerOf",
      "outputs": [
        {
          "internalType": "address",
          "name": "",
          "type": "address"
        }
      ],
      "stateMutability": "view",
      "type": "function"
    },
    {
      "inputs": [],
      "name": "renounceOwnership",
      "outputs": [],
      "stateMutability": "nonpayable",
      "type": "function"
    },
    {
      "inputs": [
        {
          "internalType": "address",
          "name": "from",
          "type": "address"
        },
        {
          "internalType": "address",
          "name": "to",
          "type": "address"
        },
        {
          "internalType": "uint256",
          "name": "tokenId",
          "type": "uint256"
        }
      ],
      "name": "safeTransferFrom",
      "outputs": [],
      "stateMutability": "nonpayable",
      "type": "function"
    },
    {
      "inputs": [
        {
          "internalType": "address",
          "name": "from",
          "type": "address"
        },
        {
          "internalType": "address",
          "name": "to",
          "type": "address"
        },
        {
          "internalType": "uint256",
          "name": "tokenId",
          "type": "uint256"
        },
        {
          "internalType": "bytes",
          "name": "data",
          "type": "bytes"
        }
      ],
      "name": "safeTransferFrom",
      "outputs": [],
      "stateMutability": "nonpayable",
      "type": "function"
    },
    {
      "inputs": [
        {
          "internalType": "address",
          "name": "operator",
          "type": "address"
        },
        {
          "internalType": "bool",
          "name": "approved",
          "type": "bool"
        }
      ],
      "name": "setApprovalForAll",
      "outputs": [],
      "stateMutability": "nonpayable",
      "type": "function"
    },
    {
      "inputs": [
        {
          "internalType": "address",
          "name": "_signer",
          "type": "address"
        }
      ],
      "name": "setSigner",
      "outputs": [],
      "stateMutability": "nonpayable",
      "type": "function"
    },
    {
      "inputs": [
        {
          "internalType": "bytes4",
          "name": "interfaceId",
          "type": "bytes4"
        }
      ],
      "name": "supportsInterface",
      "outputs": [
        {
          "internalType": "bool",
          "name": "",
          "type": "bool"
        }
      ],
      "stateMutability": "view",
      "type": "function"
    },
    {
      "inputs": [],
      "name": "symbol",
      "outputs": [
        {
          "internalType": "string",
          "name": "",
          "type": "string"
        }
      ],
      "stateMutability": "view",
      "type": "function"
    },
    {
      "inputs": [
        {
          "internalType": "uint256",
          "name": "tokenId",
          "type": "uint256"
        }
      ],
      "name": "tokenURI",
      "outputs": [
        {
          "internalType": "string",
          "name": "",
          "type": "string"
        }
      ],
      "stateMutability": "view",
      "type": "function"
    },
    {
      "inputs": [
        {
          "internalType": "address",
          "name": "from",
          "type": "address"
        },
        {
          "internalType": "address",
          "name": "to",
          "type": "address"
        },
        {
          "internalType": "uint256",
          "name": "tokenId",
          "type": "uint256"
        }
      ],
      "name": "transferFrom",
      "outputs": [],
      "stateMutability": "nonpayable",
      "type": "function"
    },
    {
      "inputs": [
        {
          "internalType": "address",
          "name": "newOwner",
          "type": "address"
        }
      ],
      "name": "transferOwnership",
      "outputs": [],
      "stateMutability": "nonpayable",
      "type": "function"
    },
    {
      "inputs": [],
      "name": "txAuthDataSignerAddress",
      "outputs": [
        {
          "internalType": "address",
          "name": "",
          "type": "address"
        }
      ],
      "stateMutability": "view",
      "type": "function"
    },
    {
      "inputs": [
        {
          "internalType": "address",
          "name": "user",
          "type": "address"
        }
      ],
      "name": "txAuthDataUserNonce",
      "outputs": [
        {
          "internalType": "uint256",
          "name": "",
          "type": "uint256"
        }
      ],
      "stateMutability": "view",
      "type": "function"
    }
  ],
  "transactionHash": "0x89e15c06cc42b3bc19003769eee025c577519b7648ce1bb8d2c31093fce7d71d",
  "args": [
    "0x916709a9051F813df2b8569FB18fD602853c74aa"
  ],
  "numDeployments": 3,
  "solcInputHash": "d90630363329ff16d6925429141b9c1d",
  "bytecode": "0x60803462000451576001600160401b0390601f1990601f9062001c3a38819003838101851683018681118482101762000456578392829160405283396020928391810103126200045157516001600160a01b03808216959094909186900362000451576200006c6200046c565b91601783527f4d794578616d706c6547617465644e46544d696e74657200000000000000000084840152620000a06200046c565b926004958685526311d3919560e21b8686015281518381116200043c57600254926001938481811c9116801562000431575b898210146200041c57908184849311620003c5575b5088908483116001146200035f5760009262000353575b5050600019600383901b1c191690831b176002555b84519283116200033e5760039485548381811c9116801562000333575b888210146200031e57828111620002d3575b50869184116001146200026e578394509083929160009462000262575b50501b9160001990841b1c19161790555b8315620001f9575050600080546001600160a01b031990811684178255604051939092917f5719a5656c5cfdaafa148ecf366fd3b0a7fae06449ce2a46225977fb7417e29d9080a26008549133908316176008553391167f8be0079c531659141344cd1fd0a4f28419497f9722a3daafe3b4186f6b6457e0600080a36117ad90816200048d8239f35b60405162461bcd60e51b815291820152603660248201527f426173655478417574684461746156657269666965723a206e6577207369676e60448201527f657220697320746865207a65726f206164647265737300000000000000000000606482015260849150fd5b0151925038806200015f565b91938316918560005283876000209360005b8988838310620002bb5750505010620002a2575b505050811b01905562000170565b015160001983861b60f8161c1916905538808062000294565b86860151885590960195948501948793500162000280565b86600052876000208380870160051c8201928a881062000314575b0160051c019084905b8281106200030757505062000142565b60008155018490620002f7565b92508192620002ee565b602289634e487b7160e01b6000525260246000fd5b90607f169062000130565b604187634e487b7160e01b6000525260246000fd5b015190503880620000fe565b90878694169160026000528a6000209260005b8c828210620003ae575050841162000394575b505050811b0160025562000113565b015160001960f88460031b161c1916905538808062000385565b838501518655899790950194938401930162000372565b9091506002600052886000208480850160051c8201928b861062000412575b918791869594930160051c01915b82811062000402575050620000e7565b60008155859450879101620003f2565b92508192620003e4565b60228a634e487b7160e01b6000525260246000fd5b90607f1690620000d2565b604188634e487b7160e01b6000525260246000fd5b600080fd5b634e487b7160e01b600052604160045260246000fd5b60408051919082016001600160401b03811183821017620004565760405256fe608060408181526004918236101561001657600080fd5b600092833560e01c91826301ffc9a714610eba5750816306fdde0314610ded578163081812fc14610dcd578163095ea7b314610c5c57816318c718da146109b757816323b872dd14610c32578163374eb0b314610c0a57816342842e0e14610be15781636352211e14610bb05781636c19e78314610ae257816370a0823114610a4c578163715018a6146109ef5781637ecebe00146109b7578163801954a8146109005781638da5cb5b146108d757816395d89b41146107bd578163a22cb465146106f1578163b88d4fde1461069a578163c87b56dd1461062b578163d5b0f87a1461025c578163e985e9c51461020e578163f2fde38b14610143575063f84ddf0b1461012257600080fd5b3461013f578160031936011261013f576020906009549051908152f35b5080fd5b90503461020a57602036600319011261020a5761015e610f6d565b906101676110c8565b6001600160a01b039182169283156101b8575050600854826001600160601b0360a01b821617600855167f8be0079c531659141344cd1fd0a4f28419497f9722a3daafe3b4186f6b6457e08380a380f35b906020608492519162461bcd60e51b8352820152602660248201527f4f776e61626c653a206e6577206f776e657220697320746865207a65726f206160448201526564647265737360d01b6064820152fd5b8280fd5b50503461013f578060031936011261013f5760ff8160209361022e610f6d565b610236610f88565b6001600160a01b0391821683526007875283832091168252855220549151911615158152f35b83833461013f576020928360031936011261020a57610279610f6d565b916060193601368111610618576040198036013681116106055761029e81843661161a565b919035918981106105ef575b506102b79036903661161a565b9093824310156105df5733895260018a5261032c8a878b8181209788549860018a01905585828451956102e987610fe7565b4687528b818801528a8688015230606088015233608088015261031761030e84611057565b96519687611035565b828652850137368301015260a08201526116f7565b7f19457468657265756d205369676e6564204d6573736167653a0a3332000000008a52601c52603c8920928651944686528b8601528685015230606085015233608085015260c060a08501528060c08501528860e085013787607f36850101527f457734c71a6a3ef35a45b3a9aed14e0158cca171cd87330ecd1de4d4d61dc8f3601f199360e081866041193601168101030190a187546001600160a01b0394908516916103dc91369190611073565b6103e68184611630565b60058196929610156105cc5790868b9493921596876105c0575b5050851561052f575b50505050501561052157600954936001850180951161050e5784600955169182156104ce576000848152600460205260409020548493929190610458906001600160a01b031615155b156115ce565b60008481526004602052604090205461047b906001600160a01b03161515610452565b8286526005875281862080546001019055838652865280852080546001600160a01b0319168317905551937fddf252ad1be2c89b69c2b068fc378daa952ba7f163c4a11628f55a4df523b3ef8180a48152f35b8580606493519262461bcd60e51b845283015260248201527f4552433732313a206d696e7420746f20746865207a65726f20616464726573736044820152fd5b634e487b7160e01b865260118452602486fd5b5051638baa579f60e01b8152fd5b83949550610570610564918d8a51938491820195630b135d3f60e11b9a8b885260248401528c60448401526064830190610f48565b03908101835282611035565b51915afa9061057d6114a3565b826105b3575b82610595575b50508786818080610409565b90915087818051810103126105af57870151148780610589565b8680fd5b9150878251101591610583565b1683149550868d610400565b634e487b7160e01b8b526021895260248bfd5b85516378fd448d60e01b81528790fd5b600019908a0360031b1b909116906102b76102aa565b634e487b7160e01b875260118552602487fd5b634e487b7160e01b855260118352602485fd5b83833461013f57602036600319011261013f576106696106646106969435600052600460205260018060a01b0360406000205416151590565b611120565b81815161067581611019565b5280519161068283611019565b825251918291602083526020830190610f48565b0390f35b83903461013f57608036600319011261013f576106b5610f6d565b6106bd610f88565b9060643567ffffffffffffffff81116106ed576106ea936106e0913691016110aa565b916044359161122f565b80f35b8480fd5b9190503461020a578060031936011261020a5761070c610f6d565b90602435918215158093036106ed576001600160a01b03169233841461077b5750338452600760205280842083855260205280842060ff1981541660ff8416179055519081527f17307eab39ab6107e8899845ad3d59bd9653f200f220920489ca2b5937696c3160203392a380f35b6020606492519162461bcd60e51b8352820152601960248201527f4552433732313a20617070726f766520746f2063616c6c6572000000000000006044820152fd5b8284346108d457806003193601126108d4578151918160035492600184811c918186169586156108ca575b60209687851081146108b7578899509688969785829a529182600014610890575050600114610834575b5050506106969291610825910385611035565b51928284938452830190610f48565b9190869350600383527fc2575a0e9e593c00f959f8c92f12db2869c3395a3b0502d05e2516446f71f85b5b8284106108785750505082010181610825610696610812565b8054848a01860152889550879490930192810161085f565b60ff19168782015293151560051b8601909301935084925061082591506106969050610812565b634e487b7160e01b835260228a52602483fd5b92607f16926107e8565b80fd5b50503461013f578160031936011261013f5760085490516001600160a01b039091168152602090f35b90503461020a57600319906020368301126109b35780359167ffffffffffffffff908184116109af5760c09084360301126106ed5783519461094186610fe7565b8383013586526024840135602087015260448401358587015261096660648501610f9e565b606087015261097760848501610f9e565b608087015260a48401359182116108d457506109a8926020959261099e92369201016110aa565b60a08201526116f7565b9051908152f35b8580fd5b8380fd5b50503461013f57602036600319011261013f5760209181906001600160a01b036109df610f6d565b1681526001845220549051908152f35b83346108d457806003193601126108d457610a086110c8565b600880546001600160a01b0319811690915581906001600160a01b03167f8be0079c531659141344cd1fd0a4f28419497f9722a3daafe3b4186f6b6457e08280a380f35b8391503461013f57602036600319011261013f576001600160a01b03610a70610f6d565b16908115610a8d5760208480858581526005845220549051908152f35b608490602085519162461bcd60e51b8352820152602960248201527f4552433732313a2061646472657373207a65726f206973206e6f7420612076616044820152683634b21037bbb732b960b91b6064820152fd5b90503461020a57602036600319011261020a57610afd610f6d565b610b056110c8565b6001600160a01b0316918215610b4e57505081546001600160a01b031916811782557f5719a5656c5cfdaafa148ecf366fd3b0a7fae06449ce2a46225977fb7417e29d8280a280f35b906020608492519162461bcd60e51b8352820152603660248201527f426173655478417574684461746156657269666965723a206e6577207369676e604482015275657220697320746865207a65726f206164647265737360501b6064820152fd5b8284346108d45760203660031901126108d45750610bd06020923561116c565b90516001600160a01b039091168152f35b50503461013f576106ea90610bf536610fb2565b91925192610c0284611019565b85845261122f565b50503461013f578160031936011261013f57905490516001600160a01b039091168152602090f35b83346108d4576106ea610c4436610fb2565b91610c57610c5284336112ca565b6111cd565b611392565b90503461020a578160031936011261020a57610c76610f6d565b6024359290916001600160a01b0391908280610c918761116c565b16941693808514610d8057803314908115610d61575b5015610cf957508385526006602052842080546001600160a01b03191683179055610cd18361116c565b167f8c5be1e5ebec7d5bd14f71427d1e84f3dd0314c0f7b2291e5b200ac8c7c3b9258480a480f35b6020608492519162461bcd60e51b8352820152603d60248201527f4552433732313a20617070726f76652063616c6c6572206973206e6f7420746f60448201527f6b656e206f776e6572206f7220617070726f76656420666f7220616c6c0000006064820152fd5b90508652600760205281862033875260205260ff828720541638610ca7565b506020608492519162461bcd60e51b8352820152602160248201527f4552433732313a20617070726f76616c20746f2063757272656e74206f776e656044820152603960f91b6064820152fd5b8284346108d45760203660031901126108d45750610bd06020923561118f565b8284346108d457806003193601126108d4578151918160025492600184811c91818616958615610eb0575b60209687851081146108b7578899509688969785829a529182600014610890575050600114610e54575050506106969291610825910385611035565b9190869350600283527f405787fa12a823e0f2b7631cc41b3ba8828b3321ca811111fa75cd3aa3bb5ace5b828410610e985750505082010181610825610696610812565b8054848a018601528895508794909301928101610e7f565b92607f1692610e18565b84913461020a57602036600319011261020a573563ffffffff60e01b811680910361020a57602092506380ac58cd60e01b8114908115610f14575b8115610f03575b5015158152f35b6301ffc9a760e01b14905083610efc565b635b5e139f60e01b81149150610ef5565b60005b838110610f385750506000910152565b8181015183820152602001610f28565b90602091610f6181518092818552858086019101610f25565b601f01601f1916010190565b600435906001600160a01b0382168203610f8357565b600080fd5b602435906001600160a01b0382168203610f8357565b35906001600160a01b0382168203610f8357565b6060906003190112610f83576001600160a01b03906004358281168103610f8357916024359081168103610f83579060443590565b60c0810190811067ffffffffffffffff82111761100357604052565b634e487b7160e01b600052604160045260246000fd5b6020810190811067ffffffffffffffff82111761100357604052565b90601f8019910116810190811067ffffffffffffffff82111761100357604052565b67ffffffffffffffff811161100357601f01601f191660200190565b92919261107f82611057565b9161108d6040519384611035565b829481845281830111610f83578281602093846000960137010152565b9080601f83011215610f83578160206110c593359101611073565b90565b6008546001600160a01b031633036110dc57565b606460405162461bcd60e51b815260206004820152602060248201527f4f776e61626c653a2063616c6c6572206973206e6f7420746865206f776e65726044820152fd5b1561112757565b60405162461bcd60e51b815260206004820152601860248201527f4552433732313a20696e76616c696420746f6b656e20494400000000000000006044820152606490fd5b6000908152600460205260409020546001600160a01b03166110c5811515611120565b6000818152600460205260409020546111b2906001600160a01b03161515611120565b6000908152600660205260409020546001600160a01b031690565b156111d457565b60405162461bcd60e51b815260206004820152602d60248201527f4552433732313a2063616c6c6572206973206e6f7420746f6b656e206f776e6560448201526c1c881bdc88185c1c1c9bdd9959609a1b6064820152608490fd5b90611253939291611243610c5284336112ca565b61124e838383611392565b6114d3565b1561125a57565b60405162461bcd60e51b81528061127360048201611277565b0390fd5b60809060208152603260208201527f4552433732313a207472616e7366657220746f206e6f6e20455243373231526560408201527131b2b4bb32b91034b6b83632b6b2b73a32b960711b60608201520190565b906001600160a01b0380806112de8461116c565b16931691838314938415611311575b5083156112fb575b50505090565b6113079192935061118f565b16143880806112f5565b909350600052600760205260406000208260005260205260ff6040600020541692386112ed565b1561133f57565b60405162461bcd60e51b815260206004820152602560248201527f4552433732313a207472616e736665722066726f6d20696e636f72726563742060448201526437bbb732b960d91b6064820152608490fd5b906113ba916113a08461116c565b6001600160a01b0393918416928492909183168414611338565b1691821561145257816113d7916113d08661116c565b1614611338565b7fddf252ad1be2c89b69c2b068fc378daa952ba7f163c4a11628f55a4df523b3ef60008481526006602052604081206001600160601b0360a01b9081815416905583825260056020526040822060001981540190558482526040822060018154019055858252600460205284604083209182541617905580a4565b60405162461bcd60e51b8152602060048201526024808201527f4552433732313a207472616e7366657220746f20746865207a65726f206164646044820152637265737360e01b6064820152608490fd5b3d156114ce573d906114b482611057565b916114c26040519384611035565b82523d6000602084013e565b606090565b919290803b156115c557604051630a85bd0160e11b8082523360048301526001600160a01b03948516602483015260448201959095526080606482015291602091839182908190611528906084830190610f48565b03916000968791165af19082908261157d575b505061156f576115496114a3565b8051908161156a5760405162461bcd60e51b81528061127360048201611277565b602001fd5b6001600160e01b0319161490565b909192506020813d82116115bd575b8161159960209383611035565b8101031261013f5751906001600160e01b0319821682036108d4575090388061153b565b3d915061158c565b50505050600190565b156115d557565b60405162461bcd60e51b815260206004820152601c60248201527f4552433732313a20746f6b656e20616c7265616479206d696e746564000000006044820152606490fd5b929192838211610f83578311610f835780920390565b90604181511460001461165e5761165a916020820151906060604084015193015160001a90611668565b9091565b5050600090600290565b9291907f7fffffffffffffffffffffffffffffff5d576e7357a4501ddfe92f46681b20a083116116eb5791608094939160ff602094604051948552168484015260408301526060820152600093849182805260015afa156116de5781516001600160a01b038116156116d8579190565b50600190565b50604051903d90823e3d90fd5b50505050600090600390565b80519061177160a86020830151604084015193606081015160a060808301519201519160405196879460208601998a52604086015260608501526001600160601b0319809260601b16608085015260601b1660948301526117618151809260208686019101610f25565b8101036088810184520182611035565b5190209056fea26469706673582212207d0b3d8b94ac6795a1dc06f64c662260888ef41bf042e67a8f699ad6351487f464736f6c63430008140033",
  "devdoc": {
    "details": "NFT minting contract with gated access based on off-chain signature verification. This contract extends ERC721 for NFT functionality, TxAuthDataVerifier for signature verification, and Ownable for ownership management. It uses a counter to assign unique token IDs to minted NFTs.",
    "events": {
      "Approval(address,address,uint256)": {
        "details": "Emitted when `owner` enables `approved` to manage the `tokenId` token."
      },
      "ApprovalForAll(address,address,bool)": {
        "details": "Emitted when `owner` enables or disables (`approved`) `operator` to manage all of its assets."
      },
      "NexeraIDSignatureVerified(uint256,uint256,uint256,address,address,bytes)": {
        "details": "Event emitted when a signature is verified"
      },
      "Transfer(address,address,uint256)": {
        "details": "Emitted when `tokenId` token is transferred from `from` to `to`."
      }
    },
    "kind": "dev",
    "methods": {
      "approve(address,uint256)": {
        "details": "See {IERC721-approve}."
      },
      "balanceOf(address)": {
        "details": "See {IERC721-balanceOf}."
      },
      "constructor": {
        "params": {
          "signerAddress": "The address allowed to sign transaction data for minting authorization."
        }
      },
      "getApproved(uint256)": {
        "details": "See {IERC721-getApproved}."
      },
      "getMessageHash((uint256,uint256,uint256,address,address,bytes))": {
        "params": {
          "_txAuthData": "The transaction authentication data to hash"
        },
        "returns": {
          "_0": "The keccak256 hash of the encoded `TxAuthData`"
        }
      },
      "isApprovedForAll(address,address)": {
        "details": "See {IERC721-isApprovedForAll}."
      },
      "lastTokenId()": {
        "details": "Returns the last token ID that was minted.",
        "returns": {
          "_0": "The current value of the token ID counter, which corresponds to the last minted token ID."
        }
      },
      "mintNFTGated(address)": {
        "details": "Leverages the `requireTxDataAuth` modifier for efficient signature verification.",
        "params": {
          "recipient": "The address to which the NFT will be minted."
        },
        "returns": {
          "_0": "The ID of the newly minted NFT upon successful verification and minting."
        }
      },
      "name()": {
        "details": "See {IERC721Metadata-name}."
      },
      "owner()": {
        "details": "Returns the address of the current owner."
      },
      "ownerOf(uint256)": {
        "details": "See {IERC721-ownerOf}."
      },
      "renounceOwnership()": {
        "details": "Leaves the contract without owner. It will not be possible to call `onlyOwner` functions. Can only be called by the current owner. NOTE: Renouncing ownership will leave the contract without an owner, thereby disabling any functionality that is only available to the owner."
      },
      "safeTransferFrom(address,address,uint256)": {
        "details": "See {IERC721-safeTransferFrom}."
      },
      "safeTransferFrom(address,address,uint256,bytes)": {
        "details": "See {IERC721-safeTransferFrom}."
      },
      "setApprovalForAll(address,bool)": {
        "details": "See {IERC721-setApprovalForAll}."
      },
      "setSigner(address)": {
        "details": "Can only be called by the current owner",
        "params": {
          "_signer": "The address of the new signer"
        }
      },
      "supportsInterface(bytes4)": {
        "details": "See {IERC165-supportsInterface}."
      },
      "symbol()": {
        "details": "See {IERC721Metadata-symbol}."
      },
      "tokenURI(uint256)": {
        "details": "See {IERC721Metadata-tokenURI}."
      },
      "transferFrom(address,address,uint256)": {
        "details": "See {IERC721-transferFrom}."
      },
      "transferOwnership(address)": {
        "details": "Transfers ownership of the contract to a new account (`newOwner`). Can only be called by the current owner."
      },
      "txAuthDataSignerAddress()": {
        "returns": {
          "_0": "The signer address"
        }
      },
      "txAuthDataUserNonce(address)": {
        "params": {
          "user": "The address of the user"
        },
        "returns": {
          "_0": "The current nonce of the user"
        }
      }
    },
    "title": "Example Gated NFT Minter",
    "version": 1
  },
  "userdoc": {
    "errors": {
      "BlockExpired()": [
        {
          "notice": "Custom error for handling signature expiry"
        }
      ],
      "InvalidSignature()": [
        {
          "notice": "Custom error for handling invalid signatures"
        }
      ]
    },
    "kind": "user",
    "methods": {
      "constructor": {
        "notice": "Initializes the contract by setting a name, symbol, and signer for TxAuthDataVerifier."
      },
      "getMessageHash((uint256,uint256,uint256,address,address,bytes))": {
        "notice": "Generates a hash of the given `TxAuthData`"
      },
      "lastTokenId()": {
        "notice": "Retrieves the current value of the token ID counter."
      },
      "mintNFTGated(address)": {
        "notice": "Mints a new NFT to a specified recipient, using an optimized signature verification process."
      },
      "nonces(address)": {
        "notice": "Mapping to track the nonces of users to prevent replay attacks"
      },
      "setSigner(address)": {
        "notice": "Sets a new signer address"
      },
      "txAuthDataSignerAddress()": {
        "notice": "Retrieves the signer address"
      },
      "txAuthDataUserNonce(address)": {
        "notice": "Retrieves the current nonce for a given user"
      }
    },
    "notice": "This is an example contract, not intended for deployment.",
    "version": 1
  },
  "storageLayout": {
    "storage": [
      {
        "astId": 6838,
        "contract": "contracts/gatedExamples/ExampleGatedNFTMinter.sol:ExampleGatedNFTMinter",
        "label": "_signerAddress",
        "offset": 0,
        "slot": "0",
        "type": "t_address"
      },
      {
        "astId": 6843,
        "contract": "contracts/gatedExamples/ExampleGatedNFTMinter.sol:ExampleGatedNFTMinter",
        "label": "nonces",
        "offset": 0,
        "slot": "1",
        "type": "t_mapping(t_address,t_uint256)"
      },
      {
        "astId": 3206,
        "contract": "contracts/gatedExamples/ExampleGatedNFTMinter.sol:ExampleGatedNFTMinter",
        "label": "_name",
        "offset": 0,
        "slot": "2",
        "type": "t_string_storage"
      },
      {
        "astId": 3208,
        "contract": "contracts/gatedExamples/ExampleGatedNFTMinter.sol:ExampleGatedNFTMinter",
        "label": "_symbol",
        "offset": 0,
        "slot": "3",
        "type": "t_string_storage"
      },
      {
        "astId": 3212,
        "contract": "contracts/gatedExamples/ExampleGatedNFTMinter.sol:ExampleGatedNFTMinter",
        "label": "_owners",
        "offset": 0,
        "slot": "4",
        "type": "t_mapping(t_uint256,t_address)"
      },
      {
        "astId": 3216,
        "contract": "contracts/gatedExamples/ExampleGatedNFTMinter.sol:ExampleGatedNFTMinter",
        "label": "_balances",
        "offset": 0,
        "slot": "5",
        "type": "t_mapping(t_address,t_uint256)"
      },
      {
        "astId": 3220,
        "contract": "contracts/gatedExamples/ExampleGatedNFTMinter.sol:ExampleGatedNFTMinter",
        "label": "_tokenApprovals",
        "offset": 0,
        "slot": "6",
        "type": "t_mapping(t_uint256,t_address)"
      },
      {
        "astId": 3226,
        "contract": "contracts/gatedExamples/ExampleGatedNFTMinter.sol:ExampleGatedNFTMinter",
        "label": "_operatorApprovals",
        "offset": 0,
        "slot": "7",
        "type": "t_mapping(t_address,t_mapping(t_address,t_bool))"
      },
      {
        "astId": 3061,
        "contract": "contracts/gatedExamples/ExampleGatedNFTMinter.sol:ExampleGatedNFTMinter",
        "label": "_owner",
        "offset": 0,
        "slot": "8",
        "type": "t_address"
      },
      {
        "astId": 6343,
        "contract": "contracts/gatedExamples/ExampleGatedNFTMinter.sol:ExampleGatedNFTMinter",
        "label": "_tokenIds",
        "offset": 0,
        "slot": "9",
        "type": "t_uint256"
      }
    ],
    "types": {
      "t_address": {
        "encoding": "inplace",
        "label": "address",
        "numberOfBytes": "20"
      },
      "t_bool": {
        "encoding": "inplace",
        "label": "bool",
        "numberOfBytes": "1"
      },
      "t_mapping(t_address,t_bool)": {
        "encoding": "mapping",
        "key": "t_address",
        "label": "mapping(address => bool)",
        "numberOfBytes": "32",
        "value": "t_bool"
      },
      "t_mapping(t_address,t_mapping(t_address,t_bool))": {
        "encoding": "mapping",
        "key": "t_address",
        "label": "mapping(address => mapping(address => bool))",
        "numberOfBytes": "32",
        "value": "t_mapping(t_address,t_bool)"
      },
      "t_mapping(t_address,t_uint256)": {
        "encoding": "mapping",
        "key": "t_address",
        "label": "mapping(address => uint256)",
        "numberOfBytes": "32",
        "value": "t_uint256"
      },
      "t_mapping(t_uint256,t_address)": {
        "encoding": "mapping",
        "key": "t_uint256",
        "label": "mapping(uint256 => address)",
        "numberOfBytes": "32",
        "value": "t_address"
      },
      "t_string_storage": {
        "encoding": "bytes",
        "label": "string",
        "numberOfBytes": "32"
      },
      "t_uint256": {
        "encoding": "inplace",
        "label": "uint256",
        "numberOfBytes": "32"
      }
    }
  }
}