{
  "address": "0x35a16a6B2e688bf53f758f02995BF53a419f9F51",
  "abi": [
    {
      "inputs": [
        {
          "internalType": "address",
          "name": "initialSigner",
          "type": "address"
        },
        {
          "internalType": "address",
          "name": "initialOwner",
          "type": "address"
        }
      ],
      "stateMutability": "nonpayable",
      "type": "constructor"
    },
    {
      "anonymous": false,
      "inputs": [
        {
          "indexed": true,
          "internalType": "address",
          "name": "previousOwner",
          "type": "address"
        },
        {
          "indexed": true,
          "internalType": "address",
          "name": "newOwner",
          "type": "address"
        }
      ],
      "name": "OwnershipTransferred",
      "type": "event"
    },
    {
      "anonymous": false,
      "inputs": [
        {
          "indexed": true,
          "internalType": "address",
          "name": "newSigner",
          "type": "address"
        }
      ],
      "name": "SignerChanged",
      "type": "event"
    },
    {
      "inputs": [],
      "name": "getSignerAddress",
      "outputs": [
        {
          "internalType": "address",
          "name": "",
          "type": "address"
        }
      ],
      "stateMutability": "view",
      "type": "function"
    },
    {
      "inputs": [
        {
          "internalType": "bytes32",
          "name": "hash",
          "type": "bytes32"
        },
        {
          "internalType": "bytes",
          "name": "signature",
          "type": "bytes"
        }
      ],
      "name": "isValidSignature",
      "outputs": [
        {
          "internalType": "bytes4",
          "name": "",
          "type": "bytes4"
        }
      ],
      "stateMutability": "view",
      "type": "function"
    },
    {
      "inputs": [],
      "name": "owner",
      "outputs": [
        {
          "internalType": "address",
          "name": "",
          "type": "address"
        }
      ],
      "stateMutability": "view",
      "type": "function"
    },
    {
      "inputs": [],
      "name": "renounceOwnership",
      "outputs": [],
      "stateMutability": "nonpayable",
      "type": "function"
    },
    {
      "inputs": [
        {
          "internalType": "address",
          "name": "newSigner",
          "type": "address"
        }
      ],
      "name": "setSigner",
      "outputs": [],
      "stateMutability": "nonpayable",
      "type": "function"
    },
    {
      "inputs": [
        {
          "internalType": "address",
          "name": "newOwner",
          "type": "address"
        }
      ],
      "name": "transferOwnership",
      "outputs": [],
      "stateMutability": "nonpayable",
      "type": "function"
    }
  ],
  "transactionHash": "0x2ef84ee213df616fd9bc48541b867b6c27acb140e083b13829841bd5245c57e9",
  "args": [
    "0x0BAd9DaD98143b2E946e8A40E4f27537be2f55E2",
    "0x0BAd9DaD98143b2E946e8A40E4f27537be2f55E2"
  ],
  "numDeployments": 2,
  "solcInputHash": "d1cad771a987c3b689ce4ac6e41d820e",
  "bytecode": "0x6080346101d25761086390601f38839003908101601f19168201906001600160401b038211838310176101d757808391604095869485528339810103126101d257610055602061004e836101ed565b92016101ed565b9061005f33610201565b6001600160a01b03908116801561016857600180546001600160a01b031916821790558351907f5719a5656c5cfdaafa148ecf366fd3b0a7fae06449ce2a46225977fb7417e29d600080a23382600054160361012657508116156100d3576100c690610201565b5161061a90816102498239f35b815162461bcd60e51b815260206004820152602660248201527f4f776e61626c653a206e6577206f776e657220697320746865207a65726f206160448201526564647265737360d01b6064820152608490fd5b62461bcd60e51b815260206004820181905260248201527f4f776e61626c653a2063616c6c6572206973206e6f7420746865206f776e65726044820152606490fd5b835162461bcd60e51b815260206004820152603560248201527f4e657865726149445369676e65724d616e616765723a206e6577207369676e6560448201527f7220697320746865207a65726f206164647265737300000000000000000000006064820152608490fd5b600080fd5b634e487b7160e01b600052604160045260246000fd5b51906001600160a01b03821682036101d257565b600080546001600160a01b039283166001600160a01b03198216811783559216907f8be0079c531659141344cd1fd0a4f28419497f9722a3daafe3b4186f6b6457e09080a356fe608060408181526004908136101561001657600080fd5b600092833560e01c9081631626ba7e146102ba575080631a296e02146102915780636c19e783146101bb578063715018a61461015e5780638da5cb5b146101325763f2fde38b1461006657600080fd5b3461012e57602036600319011261012e576001600160a01b0382358181169391929084900361012a5761009761036a565b83156100d857505082546001600160a01b0319811683178455167f8be0079c531659141344cd1fd0a4f28419497f9722a3daafe3b4186f6b6457e08380a380f35b906020608492519162461bcd60e51b8352820152602660248201527f4f776e61626c653a206e6577206f776e657220697320746865207a65726f206160448201526564647265737360d01b6064820152fd5b8480fd5b8280fd5b83823461015a578160031936011261015a57905490516001600160a01b039091168152602090f35b5080fd5b83346101b857806003193601126101b85761017761036a565b80546001600160a01b03198116825581906001600160a01b03167f8be0079c531659141344cd1fd0a4f28419497f9722a3daafe3b4186f6b6457e08280a380f35b80fd5b50903461012e57602036600319011261012e5780356001600160a01b038116929083900361028d576101eb61036a565b821561022c575050600180546001600160a01b031916821790557f5719a5656c5cfdaafa148ecf366fd3b0a7fae06449ce2a46225977fb7417e29d8280a280f35b906020608492519162461bcd60e51b8352820152603560248201527f4e657865726149445369676e65724d616e616765723a206e6577207369676e656044820152747220697320746865207a65726f206164647265737360581b6064820152fd5b8380fd5b83823461015a578160031936011261015a5760015490516001600160a01b039091168152602090f35b919290503461028d578260031936011261028d5767ffffffffffffffff602435818111610353573660238201121561035357808301359180831161035757601f8301601f19908116603f01168501908111858210176103575785528184523660248383010111610353579460208261034195949360248399018387013784010152356103c2565b90516001600160e01b03199091168152f35b8580fd5b634e487b7160e01b875260418452602487fd5b6000546001600160a01b0316330361037e57565b606460405162461bcd60e51b815260206004820152602060248201527f4f776e61626c653a2063616c6c6572206973206e6f7420746865206f776e65726044820152fd5b6103d7916103cf9161051d565b919091610403565b6001546001600160a01b039182169116036103f757630b135d3f60e11b90565b6001600160e01b031990565b600581101561050757806104145750565b600181036104615760405162461bcd60e51b815260206004820152601860248201527f45434453413a20696e76616c6964207369676e617475726500000000000000006044820152606490fd5b600281036104ae5760405162461bcd60e51b815260206004820152601f60248201527f45434453413a20696e76616c6964207369676e6174757265206c656e677468006044820152606490fd5b6003146104b757565b60405162461bcd60e51b815260206004820152602260248201527f45434453413a20696e76616c6964207369676e6174757265202773272076616c604482015261756560f01b6064820152608490fd5b634e487b7160e01b600052602160045260246000fd5b90604181511460001461054b57610547916020820151906060604084015193015160001a90610555565b9091565b5050600090600290565b9291907f7fffffffffffffffffffffffffffffff5d576e7357a4501ddfe92f46681b20a083116105d85791608094939160ff602094604051948552168484015260408301526060820152600093849182805260015afa156105cb5781516001600160a01b038116156105c5579190565b50600190565b50604051903d90823e3d90fd5b5050505060009060039056fea26469706673582212204f18254ca413f5a5e1bc99fed2a84ace3e83d30808f15b86b723c1c86940694664736f6c63430008120033",
  "devdoc": {
    "details": "Implementation of the IERC1271 interface to support signature validation using a designated signer. This contract allows the management of a signer address, which can be updated by the contract owner (Nexera ID). It provides a mechanism to validate signatures according to EIP-1271, enabling the contract to act as an identity with the ability to authorize actions through off-chain signed messages.",
    "kind": "dev",
    "methods": {
      "constructor": {
        "details": "Initializes the contract by setting the initial signer.",
        "params": {
          "initialOwner": "The address of the initial owner of the contract.",
          "initialSigner": "The address of the initial signer."
        }
      },
      "getSignerAddress()": {
        "returns": {
          "_0": "The signer address"
        }
      },
      "isValidSignature(bytes32,bytes)": {
        "details": "See {IERC1271-isValidSignature}.",
        "params": {
          "hash": "The hash of the data signed.",
          "signature": "The signature bytes."
        },
        "returns": {
          "_0": "magicValue bytes4 constant `MAGIC_VALUE` if the signature is valid."
        }
      },
      "owner()": {
        "details": "Returns the address of the current owner."
      },
      "renounceOwnership()": {
        "details": "Leaves the contract without owner. It will not be possible to call `onlyOwner` functions. Can only be called by the current owner. NOTE: Renouncing ownership will leave the contract without an owner, thereby disabling any functionality that is only available to the owner."
      },
      "setSigner(address)": {
        "details": "Sets a new signer address.",
        "params": {
          "newSigner": "The address of the new signer. Requirements: - The caller must be the contract owner."
        }
      },
      "transferOwnership(address)": {
        "details": "Transfers ownership of the contract to a new account (`newOwner`). Can only be called by the current owner."
      }
    },
    "title": "NexeraID Signer Manager",
    "version": 1
  },
  "userdoc": {
    "kind": "user",
    "methods": {
      "getSignerAddress()": {
        "notice": "Retrieves the current signer address"
      }
    },
    "version": 1
  },
  "storageLayout": {
    "storage": [
      {
        "astId": 3061,
        "contract": "contracts/signerManager/NexeraIDSignerManager.sol:NexeraIDSignerManager",
        "label": "_owner",
        "offset": 0,
        "slot": "0",
        "type": "t_address"
      },
      {
        "astId": 7150,
        "contract": "contracts/signerManager/NexeraIDSignerManager.sol:NexeraIDSignerManager",
        "label": "_signer",
        "offset": 0,
        "slot": "1",
        "type": "t_address"
      }
    ],
    "types": {
      "t_address": {
        "encoding": "inplace",
        "label": "address",
        "numberOfBytes": "20"
      }
    }
  }
}