{
  "address": "0x5cEAB27b6B2787116C3c6AC1c2dEE091a2a6DA05",
  "abi": [
    {
      "anonymous": false,
      "inputs": [
        {
          "indexed": true,
          "internalType": "address",
          "name": "previousOwner",
          "type": "address"
        },
        {
          "indexed": true,
          "internalType": "address",
          "name": "newOwner",
          "type": "address"
        }
      ],
      "name": "OwnershipTransferred",
      "type": "event"
    },
    {
      "anonymous": false,
      "inputs": [
        {
          "indexed": false,
          "internalType": "uint64",
          "name": "requestId",
          "type": "uint64"
        },
        {
          "indexed": false,
          "internalType": "bytes",
          "name": "data",
          "type": "bytes"
        },
        {
          "indexed": false,
          "internalType": "contract ICircuitValidator",
          "name": "validator",
          "type": "address"
        },
        {
          "indexed": false,
          "internalType": "string",
          "name": "metadata",
          "type": "string"
        }
      ],
      "name": "ZKPRequestSet",
      "type": "event"
    },
    {
      "inputs": [],
      "name": "REQUESTS_RETURN_LIMIT",
      "outputs": [
        {
          "internalType": "uint256",
          "name": "",
          "type": "uint256"
        }
      ],
      "stateMutability": "view",
      "type": "function"
    },
    {
      "inputs": [],
      "name": "TRANSFER_REQUEST_ID",
      "outputs": [
        {
          "internalType": "uint64",
          "name": "",
          "type": "uint64"
        }
      ],
      "stateMutability": "view",
      "type": "function"
    },
    {
      "inputs": [
        {
          "internalType": "address",
          "name": "",
          "type": "address"
        }
      ],
      "name": "addressToId",
      "outputs": [
        {
          "internalType": "uint256",
          "name": "",
          "type": "uint256"
        }
      ],
      "stateMutability": "view",
      "type": "function"
    },
    {
      "inputs": [
        {
          "internalType": "uint64",
          "name": "requestId",
          "type": "uint64"
        }
      ],
      "name": "getZKPRequest",
      "outputs": [
        {
          "components": [
            {
              "internalType": "string",
              "name": "metadata",
              "type": "string"
            },
            {
              "internalType": "contract ICircuitValidator",
              "name": "validator",
              "type": "address"
            },
            {
              "internalType": "bytes",
              "name": "data",
              "type": "bytes"
            }
          ],
          "internalType": "struct IZKPVerifier.ZKPRequest",
          "name": "",
          "type": "tuple"
        }
      ],
      "stateMutability": "view",
      "type": "function"
    },
    {
      "inputs": [
        {
          "internalType": "uint256",
          "name": "startIndex",
          "type": "uint256"
        },
        {
          "internalType": "uint256",
          "name": "length",
          "type": "uint256"
        }
      ],
      "name": "getZKPRequests",
      "outputs": [
        {
          "components": [
            {
              "internalType": "string",
              "name": "metadata",
              "type": "string"
            },
            {
              "internalType": "contract ICircuitValidator",
              "name": "validator",
              "type": "address"
            },
            {
              "internalType": "bytes",
              "name": "data",
              "type": "bytes"
            }
          ],
          "internalType": "struct IZKPVerifier.ZKPRequest[]",
          "name": "",
          "type": "tuple[]"
        }
      ],
      "stateMutability": "view",
      "type": "function"
    },
    {
      "inputs": [],
      "name": "getZKPRequestsCount",
      "outputs": [
        {
          "internalType": "uint256",
          "name": "",
          "type": "uint256"
        }
      ],
      "stateMutability": "view",
      "type": "function"
    },
    {
      "inputs": [
        {
          "internalType": "uint256",
          "name": "",
          "type": "uint256"
        }
      ],
      "name": "idToAddress",
      "outputs": [
        {
          "internalType": "address",
          "name": "",
          "type": "address"
        }
      ],
      "stateMutability": "view",
      "type": "function"
    },
    {
      "inputs": [],
      "name": "owner",
      "outputs": [
        {
          "internalType": "address",
          "name": "",
          "type": "address"
        }
      ],
      "stateMutability": "view",
      "type": "function"
    },
    {
      "inputs": [
        {
          "internalType": "address",
          "name": "",
          "type": "address"
        },
        {
          "internalType": "uint64",
          "name": "",
          "type": "uint64"
        }
      ],
      "name": "proofs",
      "outputs": [
        {
          "internalType": "bool",
          "name": "",
          "type": "bool"
        }
      ],
      "stateMutability": "view",
      "type": "function"
    },
    {
      "inputs": [],
      "name": "renounceOwnership",
      "outputs": [],
      "stateMutability": "nonpayable",
      "type": "function"
    },
    {
      "inputs": [
        {
          "internalType": "uint64",
          "name": "requestId",
          "type": "uint64"
        }
      ],
      "name": "requestIdExists",
      "outputs": [
        {
          "internalType": "bool",
          "name": "",
          "type": "bool"
        }
      ],
      "stateMutability": "view",
      "type": "function"
    },
    {
      "inputs": [
        {
          "internalType": "uint64",
          "name": "requestId",
          "type": "uint64"
        },
        {
          "components": [
            {
              "internalType": "string",
              "name": "metadata",
              "type": "string"
            },
            {
              "internalType": "contract ICircuitValidator",
              "name": "validator",
              "type": "address"
            },
            {
              "internalType": "bytes",
              "name": "data",
              "type": "bytes"
            }
          ],
          "internalType": "struct IZKPVerifier.ZKPRequest",
          "name": "request",
          "type": "tuple"
        }
      ],
      "name": "setNexeraZKPRequest",
      "outputs": [],
      "stateMutability": "nonpayable",
      "type": "function"
    },
    {
      "inputs": [
        {
          "internalType": "uint64",
          "name": "requestId",
          "type": "uint64"
        },
        {
          "components": [
            {
              "internalType": "string",
              "name": "metadata",
              "type": "string"
            },
            {
              "internalType": "contract ICircuitValidator",
              "name": "validator",
              "type": "address"
            },
            {
              "internalType": "bytes",
              "name": "data",
              "type": "bytes"
            }
          ],
          "internalType": "struct IZKPVerifier.ZKPRequest",
          "name": "request",
          "type": "tuple"
        }
      ],
      "name": "setZKPRequest",
      "outputs": [],
      "stateMutability": "nonpayable",
      "type": "function"
    },
    {
      "inputs": [
        {
          "internalType": "uint64",
          "name": "requestId",
          "type": "uint64"
        },
        {
          "internalType": "uint256[]",
          "name": "inputs",
          "type": "uint256[]"
        },
        {
          "internalType": "uint256[2]",
          "name": "a",
          "type": "uint256[2]"
        },
        {
          "internalType": "uint256[2][2]",
          "name": "b",
          "type": "uint256[2][2]"
        },
        {
          "internalType": "uint256[2]",
          "name": "c",
          "type": "uint256[2]"
        }
      ],
      "name": "submitZKPResponse",
      "outputs": [],
      "stateMutability": "nonpayable",
      "type": "function"
    },
    {
      "inputs": [
        {
          "internalType": "address",
          "name": "newOwner",
          "type": "address"
        }
      ],
      "name": "transferOwnership",
      "outputs": [],
      "stateMutability": "nonpayable",
      "type": "function"
    },
    {
      "inputs": [
        {
          "internalType": "address",
          "name": "",
          "type": "address"
        }
      ],
      "name": "whitelist",
      "outputs": [
        {
          "internalType": "bool",
          "name": "",
          "type": "bool"
        }
      ],
      "stateMutability": "view",
      "type": "function"
    }
  ],
  "transactionHash": "0xec992648d1210ef542e5ec40ef3e069eb50a7167b42bf6eeec872517fe838a12",
  "args": [],
  "numDeployments": 1,
  "solcInputHash": "01f3f48de4e4d02d39c4cf8b4c5f3a4c",
  "bytecode": "0x60806040523480156200001157600080fd5b5062000032620000266200003860201b60201c565b6200004060201b60201c565b62000104565b600033905090565b60008060009054906101000a900473ffffffffffffffffffffffffffffffffffffffff169050816000806101000a81548173ffffffffffffffffffffffffffffffffffffffff021916908373ffffffffffffffffffffffffffffffffffffffff1602179055508173ffffffffffffffffffffffffffffffffffffffff168173ffffffffffffffffffffffffffffffffffffffff167f8be0079c531659141344cd1fd0a4f28419497f9722a3daafe3b4186f6b6457e060405160405180910390a35050565b6131a780620001146000396000f3fe608060405234801561001057600080fd5b50600436106101005760003560e01c80639f5223e011610097578063c76d084511610066578063c76d0845146102af578063cb0e0d7d146102df578063f2fde38b1461030f578063f82ddf0a1461032b57610100565b80639f5223e014610217578063ab7bcfb714610233578063b45c0fdf14610263578063b68967e21461029357610100565b80636508e1b4116100d35780636508e1b4146101a1578063715018a6146101bf5780638da5cb5b146101c95780639b19251a146101e757610100565b80631905e7b1146101055780632a2d0c47146101235780635f9e60d71461015357806363ec508f14610183575b600080fd5b61010d610347565b60405161011a91906118c7565b60405180910390f35b61013d60048036038101906101389190611918565b61034d565b60405161014a9190611986565b60405180910390f35b61016d600480360381019061016891906119a1565b610381565b60405161017a9190611c3e565b60405180910390f35b61018b610643565b6040516101989190611c83565b60405180910390f35b6101a9610648565b6040516101b691906118c7565b60405180910390f35b6101c7610656565b005b6101d161066a565b6040516101de9190611986565b60405180910390f35b61020160048036038101906101fc9190611cca565b610693565b60405161020e9190611d12565b60405180910390f35b610231600480360381019061022c9190611d7d565b6106b4565b005b61024d60048036038101906102489190611dd9565b61074f565b60405161025a9190611d12565b60405180910390f35b61027d60048036038101906102789190611e06565b6107e6565b60405161028a9190611d12565b60405180910390f35b6102ad60048036038101906102a89190611eef565b610816565b005b6102c960048036038101906102c49190611dd9565b610a94565b6040516102d69190611fe2565b60405180910390f35b6102f960048036038101906102f49190611cca565b610c98565b60405161030691906118c7565b60405180910390f35b61032960048036038101906103249190611cca565b610cb1565b005b61034560048036038101906103409190611d7d565b610d34565b005b6103e881565b6102276020528060005260406000206000915054906101000a900473ffffffffffffffffffffffffffffffffffffffff1681565b606060008061039a6101f78054905086866103e8610dc2565b91509150600082826103ac9190612033565b67ffffffffffffffff8111156103c5576103c4612067565b5b6040519080825280602002602001820160405280156103fe57816020015b6103eb611877565b8152602001906001900390816103e35790505b50905060008390505b82811015610636576101f660006101f7838154811061042957610428612096565b5b90600052602060002090600491828204019190066008029054906101000a900467ffffffffffffffff1667ffffffffffffffff1667ffffffffffffffff168152602001908152602001600020604051806060016040529081600082018054610490906120f4565b80601f01602080910402602001604051908101604052809291908181526020018280546104bc906120f4565b80156105095780601f106104de57610100808354040283529160200191610509565b820191906000526020600020905b8154815290600101906020018083116104ec57829003601f168201915b505050505081526020016001820160009054906101000a900473ffffffffffffffffffffffffffffffffffffffff1673ffffffffffffffffffffffffffffffffffffffff1673ffffffffffffffffffffffffffffffffffffffff168152602001600282018054610578906120f4565b80601f01602080910402602001604051908101604052809291908181526020018280546105a4906120f4565b80156105f15780601f106105c6576101008083540402835291602001916105f1565b820191906000526020600020905b8154815290600101906020018083116105d457829003601f168201915b5050505050815250508285836106079190612033565b8151811061061857610617612096565b5b6020026020010181905250808061062e90612125565b915050610407565b5080935050505092915050565b600181565b60006101f780549050905090565b61065e610eb9565b6106686000610f37565b565b60008060009054906101000a900473ffffffffffffffffffffffffffffffffffffffff16905090565b6102296020528060005260406000206000915054906101000a900460ff1681565b6106bc610eb9565b806101f660008467ffffffffffffffff1667ffffffffffffffff16815260200190815260200160002081816106f1919061274f565b9050506101f78290806001815401808255809150506001900390600052602060002090600491828204019190066008029091909190916101000a81548167ffffffffffffffff021916908367ffffffffffffffff1602179055505050565b600080600090505b6101f7805490508110156107db578267ffffffffffffffff166101f7828154811061078557610784612096565b5b90600052602060002090600491828204019190066008029054906101000a900467ffffffffffffffff1667ffffffffffffffff16036107c85760019150506107e1565b80806107d390612125565b915050610757565b50600090505b919050565b6101f56020528160005260406000206020528060005260406000206000915091509054906101000a900460ff1681565b600073ffffffffffffffffffffffffffffffffffffffff166101f660008867ffffffffffffffff1667ffffffffffffffff16815260200190815260200160002060010160009054906101000a900473ffffffffffffffffffffffffffffffffffffffff1673ffffffffffffffffffffffffffffffffffffffff16036108d0576040517f08c379a00000000000000000000000000000000000000000000000000000000081526004016108c7906127e0565b60405180910390fd5b61096786868680806020026020016040519081016040528093929190818152602001838360200280828437600081840152601f19601f820116905080830192505050505050506101f660008a67ffffffffffffffff1667ffffffffffffffff16815260200190815260200160002060010160009054906101000a900473ffffffffffffffffffffffffffffffffffffffff16610ffb565b61097686868686868633611114565b5060016101f560003373ffffffffffffffffffffffffffffffffffffffff1673ffffffffffffffffffffffffffffffffffffffff16815260200190815260200160002060008867ffffffffffffffff1667ffffffffffffffff16815260200190815260200160002060006101000a81548160ff021916908315150217905550610a8c86868680806020026020016040519081016040528093929190818152602001838360200280828437600081840152601f19601f820116905080830192505050505050506101f660008a67ffffffffffffffff1667ffffffffffffffff16815260200190815260200160002060010160009054906101000a900473ffffffffffffffffffffffffffffffffffffffff16611400565b505050505050565b610a9c611877565b610aa58261074f565b610ae4576040517f08c379a0000000000000000000000000000000000000000000000000000000008152600401610adb9061284c565b60405180910390fd5b6101f660008367ffffffffffffffff1667ffffffffffffffff168152602001908152602001600020604051806060016040529081600082018054610b27906120f4565b80601f0160208091040260200160405190810160405280929190818152602001828054610b53906120f4565b8015610ba05780601f10610b7557610100808354040283529160200191610ba0565b820191906000526020600020905b815481529060010190602001808311610b8357829003601f168201915b505050505081526020016001820160009054906101000a900473ffffffffffffffffffffffffffffffffffffffff1673ffffffffffffffffffffffffffffffffffffffff1673ffffffffffffffffffffffffffffffffffffffff168152602001600282018054610c0f906120f4565b80601f0160208091040260200160405190810160405280929190818152602001828054610c3b906120f4565b8015610c885780601f10610c5d57610100808354040283529160200191610c88565b820191906000526020600020905b815481529060010190602001808311610c6b57829003601f168201915b5050505050815250509050919050565b6102286020528060005260406000206000915090505481565b610cb9610eb9565b600073ffffffffffffffffffffffffffffffffffffffff168173ffffffffffffffffffffffffffffffffffffffff1603610d28576040517f08c379a0000000000000000000000000000000000000000000000000000000008152600401610d1f906128de565b60405180910390fd5b610d3181610f37565b50565b610d3c610eb9565b610d4682826106b4565b7febf5fc5d525575febff148871346e1458de02c705c900ba0bc9b5361d5eba08a82828060400190610d78919061253f565b846020016020810190610d8b9190612913565b858060000190610d9b919061217c565b604051610dad969594939291906129c9565b60405180910390a1610dbe82611693565b5050565b60008060008411610e08576040517f08c379a0000000000000000000000000000000000000000000000000000000008152600401610dff90612a6c565b60405180910390fd5b82841115610e4b576040517f08c379a0000000000000000000000000000000000000000000000000000000008152600401610e4290612ad8565b60405180910390fd5b858510610e8d576040517f08c379a0000000000000000000000000000000000000000000000000000000008152600401610e8490612b44565b60405180910390fd5b60008486610e9b9190612b64565b905086811115610ea9578690505b8581925092505094509492505050565b610ec1611696565b73ffffffffffffffffffffffffffffffffffffffff16610edf61066a565b73ffffffffffffffffffffffffffffffffffffffff1614610f35576040517f08c379a0000000000000000000000000000000000000000000000000000000008152600401610f2c90612be4565b60405180910390fd5b565b60008060009054906101000a900473ffffffffffffffffffffffffffffffffffffffff169050816000806101000a81548173ffffffffffffffffffffffffffffffffffffffff021916908373ffffffffffffffffffffffffffffffffffffffff1602179055508173ffffffffffffffffffffffffffffffffffffffff168173ffffffffffffffffffffffffffffffffffffffff167f8be0079c531659141344cd1fd0a4f28419497f9722a3daafe3b4186f6b6457e060405160405180910390a35050565b6000611097838373ffffffffffffffffffffffffffffffffffffffff1663b16a394f6040518163ffffffff1660e01b815260040161103890612c50565b602060405180830381865afa158015611055573d6000803e3d6000fd5b505050506040513d601f19601f820116820180604052508101906110799190612c85565b8151811061108a57611089612096565b5b602002602001015161169e565b90508073ffffffffffffffffffffffffffffffffffffffff166110b8611696565b73ffffffffffffffffffffffffffffffffffffffff161461110e576040517f08c379a000000000000000000000000000000000000000000000000000000000815260040161110590612d24565b60405180910390fd5b50505050565b6000806101f660008a67ffffffffffffffff1667ffffffffffffffff16815260200190815260200160002060405180606001604052908160008201805461115a906120f4565b80601f0160208091040260200160405190810160405280929190818152602001828054611186906120f4565b80156111d35780601f106111a8576101008083540402835291602001916111d3565b820191906000526020600020905b8154815290600101906020018083116111b657829003601f168201915b505050505081526020016001820160009054906101000a900473ffffffffffffffffffffffffffffffffffffffff1673ffffffffffffffffffffffffffffffffffffffff1673ffffffffffffffffffffffffffffffffffffffff168152602001600282018054611242906120f4565b80601f016020809104026020016040519081016040528092919081815260200182805461126e906120f4565b80156112bb5780601f10611290576101008083540402835291602001916112bb565b820191906000526020600020905b81548152906001019060200180831161129e57829003601f168201915b50505050508152505090506000635307e79f60e01b90506000818a8a8a8a8a88604001516040516020016112f496959493929190612ec7565b6040516020818303038152906040528660405160200161131693929190612ffd565b6040516020818303038152906040529050600080846020015173ffffffffffffffffffffffffffffffffffffffff16836040516113539190613036565b6000604051808303816000865af19150503d8060008114611390576040519150601f19603f3d011682016040523d82523d6000602084013e611395565b606091505b5091509150816113ed576000815111156113b25780518082602001fd5b6040517f08c379a00000000000000000000000000000000000000000000000000000000081526004016113e4906130bf565b60405180910390fd5b8195505050505050979650505050505050565b600167ffffffffffffffff168367ffffffffffffffff1614801561146b57506000610228600061142e611696565b73ffffffffffffffffffffffffffffffffffffffff1673ffffffffffffffffffffffffffffffffffffffff16815260200190815260200160002054145b6114aa576040517f08c379a00000000000000000000000000000000000000000000000000000000081526004016114a190613151565b60405180910390fd5b6000826001815181106114c0576114bf612096565b5b60200260200101519050600073ffffffffffffffffffffffffffffffffffffffff16610227600083815260200190815260200160002060009054906101000a900473ffffffffffffffffffffffffffffffffffffffff1673ffffffffffffffffffffffffffffffffffffffff16148015611581575060006102286000611544611696565b73ffffffffffffffffffffffffffffffffffffffff1673ffffffffffffffffffffffffffffffffffffffff16815260200190815260200160002054145b1561168d5760016102296000611595611696565b73ffffffffffffffffffffffffffffffffffffffff1673ffffffffffffffffffffffffffffffffffffffff16815260200190815260200160002060006101000a81548160ff0219169083151502179055508061022860006115f4611696565b73ffffffffffffffffffffffffffffffffffffffff1673ffffffffffffffffffffffffffffffffffffffff1681526020019081526020016000208190555061163a611696565b610227600083815260200190815260200160002060006101000a81548173ffffffffffffffffffffffffffffffffffffffff021916908373ffffffffffffffffffffffffffffffffffffffff1602179055505b50505050565b50565b600033905090565b60006116b96116b46116af846116c0565b61180c565b611869565b9050919050565b600081905060087eff00ff00ff00ff00ff00ff00ff00ff00ff00ff00ff00ff00ff00ff00ff00ff8216901b60087fff00ff00ff00ff00ff00ff00ff00ff00ff00ff00ff00ff00ff00ff00ff00ff008316901c17905060107dffff0000ffff0000ffff0000ffff0000ffff0000ffff0000ffff0000ffff8216901b60107fffff0000ffff0000ffff0000ffff0000ffff0000ffff0000ffff0000ffff00008316901c17905060207bffffffff00000000ffffffff00000000ffffffff00000000ffffffff8216901b60207fffffffff00000000ffffffff00000000ffffffff00000000ffffffff000000008316901c179050604077ffffffffffffffff0000000000000000ffffffffffffffff8216901b60407fffffffffffffffff0000000000000000ffffffffffffffff00000000000000008316901c179050608081901b608082901c179050919050565b6060602067ffffffffffffffff81111561182957611828612067565b5b6040519080825280601f01601f19166020018201604052801561185b5781602001600182028036833780820191505090505b509050816020820152919050565b600060148201519050919050565b604051806060016040528060608152602001600073ffffffffffffffffffffffffffffffffffffffff168152602001606081525090565b6000819050919050565b6118c1816118ae565b82525050565b60006020820190506118dc60008301846118b8565b92915050565b600080fd5b600080fd5b6118f5816118ae565b811461190057600080fd5b50565b600081359050611912816118ec565b92915050565b60006020828403121561192e5761192d6118e2565b5b600061193c84828501611903565b91505092915050565b600073ffffffffffffffffffffffffffffffffffffffff82169050919050565b600061197082611945565b9050919050565b61198081611965565b82525050565b600060208201905061199b6000830184611977565b92915050565b600080604083850312156119b8576119b76118e2565b5b60006119c685828601611903565b92505060206119d785828601611903565b9150509250929050565b600081519050919050565b600082825260208201905092915050565b6000819050602082019050919050565b600081519050919050565b600082825260208201905092915050565b60005b83811015611a47578082015181840152602081019050611a2c565b60008484015250505050565b6000601f19601f8301169050919050565b6000611a6f82611a0d565b611a798185611a18565b9350611a89818560208601611a29565b611a9281611a53565b840191505092915050565b6000819050919050565b6000611ac2611abd611ab884611945565b611a9d565b611945565b9050919050565b6000611ad482611aa7565b9050919050565b6000611ae682611ac9565b9050919050565b611af681611adb565b82525050565b600081519050919050565b600082825260208201905092915050565b6000611b2382611afc565b611b2d8185611b07565b9350611b3d818560208601611a29565b611b4681611a53565b840191505092915050565b60006060830160008301518482036000860152611b6e8282611a64565b9150506020830151611b836020860182611aed565b5060408301518482036040860152611b9b8282611b18565b9150508091505092915050565b6000611bb48383611b51565b905092915050565b6000602082019050919050565b6000611bd4826119e1565b611bde81856119ec565b935083602082028501611bf0856119fd565b8060005b85811015611c2c5784840389528151611c0d8582611ba8565b9450611c1883611bbc565b925060208a01995050600181019050611bf4565b50829750879550505050505092915050565b60006020820190508181036000830152611c588184611bc9565b905092915050565b600067ffffffffffffffff82169050919050565b611c7d81611c60565b82525050565b6000602082019050611c986000830184611c74565b92915050565b611ca781611965565b8114611cb257600080fd5b50565b600081359050611cc481611c9e565b92915050565b600060208284031215611ce057611cdf6118e2565b5b6000611cee84828501611cb5565b91505092915050565b60008115159050919050565b611d0c81611cf7565b82525050565b6000602082019050611d276000830184611d03565b92915050565b611d3681611c60565b8114611d4157600080fd5b50565b600081359050611d5381611d2d565b92915050565b600080fd5b600060608284031215611d7457611d73611d59565b5b81905092915050565b60008060408385031215611d9457611d936118e2565b5b6000611da285828601611d44565b925050602083013567ffffffffffffffff811115611dc357611dc26118e7565b5b611dcf85828601611d5e565b9150509250929050565b600060208284031215611def57611dee6118e2565b5b6000611dfd84828501611d44565b91505092915050565b60008060408385031215611e1d57611e1c6118e2565b5b6000611e2b85828601611cb5565b9250506020611e3c85828601611d44565b9150509250929050565b600080fd5b600080fd5b600080fd5b60008083601f840112611e6b57611e6a611e46565b5b8235905067ffffffffffffffff811115611e8857611e87611e4b565b5b602083019150836020820283011115611ea457611ea3611e50565b5b9250929050565b600081905082602060020282011115611ec757611ec6611e50565b5b92915050565b600081905082604060020282011115611ee957611ee8611e50565b5b92915050565b6000806000806000806101408789031215611f0d57611f0c6118e2565b5b6000611f1b89828a01611d44565b965050602087013567ffffffffffffffff811115611f3c57611f3b6118e7565b5b611f4889828a01611e55565b95509550506040611f5b89828a01611eab565b9350506080611f6c89828a01611ecd565b925050610100611f7e89828a01611eab565b9150509295509295509295565b60006060830160008301518482036000860152611fa88282611a64565b9150506020830151611fbd6020860182611aed565b5060408301518482036040860152611fd58282611b18565b9150508091505092915050565b60006020820190508181036000830152611ffc8184611f8b565b905092915050565b7f4e487b7100000000000000000000000000000000000000000000000000000000600052601160045260246000fd5b600061203e826118ae565b9150612049836118ae565b925082820390508181111561206157612060612004565b5b92915050565b7f4e487b7100000000000000000000000000000000000000000000000000000000600052604160045260246000fd5b7f4e487b7100000000000000000000000000000000000000000000000000000000600052603260045260246000fd5b7f4e487b7100000000000000000000000000000000000000000000000000000000600052602260045260246000fd5b6000600282049050600182168061210c57607f821691505b60208210810361211f5761211e6120c5565b5b50919050565b6000612130826118ae565b91507fffffffffffffffffffffffffffffffffffffffffffffffffffffffffffffffff820361216257612161612004565b5b600182019050919050565b600080fd5b600080fd5b600080fd5b600080833560016020038436030381126121995761219861216d565b5b80840192508235915067ffffffffffffffff8211156121bb576121ba612172565b5b6020830192506001820236038313156121d7576121d6612177565b5b509250929050565b600082905092915050565b60008190508160005260206000209050919050565b60006020601f8301049050919050565b600082821b905092915050565b60006008830261224c7fffffffffffffffffffffffffffffffffffffffffffffffffffffffffffffffff8261220f565b612256868361220f565b95508019841693508086168417925050509392505050565b600061228961228461227f846118ae565b611a9d565b6118ae565b9050919050565b6000819050919050565b6122a38361226e565b6122b76122af82612290565b84845461221c565b825550505050565b600090565b6122cc6122bf565b6122d781848461229a565b505050565b5b818110156122fb576122f06000826122c4565b6001810190506122dd565b5050565b601f82111561234057612311816121ea565b61231a846121ff565b81016020851015612329578190505b61233d612335856121ff565b8301826122dc565b50505b505050565b600082821c905092915050565b600061236360001984600802612345565b1980831691505092915050565b600061237c8383612352565b9150826002028217905092915050565b61239683836121df565b67ffffffffffffffff8111156123af576123ae612067565b5b6123b982546120f4565b6123c48282856122ff565b6000601f8311600181146123f357600084156123e1578287013590505b6123eb8582612370565b865550612453565b601f198416612401866121ea565b60005b8281101561242957848901358255600182019150602085019450602081019050612404565b868310156124465784890135612442601f891682612352565b8355505b6001600288020188555050505b50505050505050565b61246783838361238c565b505050565b600061247782611965565b9050919050565b6124878161246c565b811461249257600080fd5b50565b600081356124a28161247e565b80915050919050565b60008160001b9050919050565b600073ffffffffffffffffffffffffffffffffffffffff6124d8846124ab565b9350801983169250808416831791505092915050565b60006124f982611aa7565b9050919050565b600061250b826124ee565b9050919050565b6000819050919050565b61252582612500565b61253861253182612512565b83546124b8565b8255505050565b6000808335600160200384360303811261255c5761255b61216d565b5b80840192508235915067ffffffffffffffff82111561257e5761257d612172565b5b60208301925060018202360383131561259a57612599612177565b5b509250929050565b600082905092915050565b60008190508160005260206000209050919050565b601f821115612603576125d4816125ad565b6125dd846121ff565b810160208510156125ec578190505b6126006125f8856121ff565b8301826122dc565b50505b505050565b61261283836125a2565b67ffffffffffffffff81111561262b5761262a612067565b5b61263582546120f4565b6126408282856125c2565b6000601f83116001811461266f576000841561265d578287013590505b6126678582612370565b8655506126cf565b601f19841661267d866125ad565b60005b828110156126a557848901358255600182019150602085019450602081019050612680565b868310156126c257848901356126be601f891682612352565b8355505b6001600288020188555050505b50505050505050565b6126e3838383612608565b505050565b60008101600083016126fa818561217c565b61270581838661245c565b5050505060018101602083018061271b81612495565b9050612727818461251c565b505050600281016040830161273c818561253f565b6127478183866126d8565b505050505050565b61275982826126e8565b5050565b600082825260208201905092915050565b7f76616c696461746f72206973206e6f742073657420666f72207468697320726560008201527f7175657374206964000000000000000000000000000000000000000000000000602082015250565b60006127ca60288361275d565b91506127d58261276e565b604082019050919050565b600060208201905081810360008301526127f9816127bd565b9050919050565b7f7265717565737420696420646f65736e27742065786973740000000000000000600082015250565b600061283660188361275d565b915061284182612800565b602082019050919050565b6000602082019050818103600083015261286581612829565b9050919050565b7f4f776e61626c653a206e6577206f776e657220697320746865207a65726f206160008201527f6464726573730000000000000000000000000000000000000000000000000000602082015250565b60006128c860268361275d565b91506128d38261286c565b604082019050919050565b600060208201905081810360008301526128f7816128bb565b9050919050565b60008135905061290d8161247e565b92915050565b600060208284031215612929576129286118e2565b5b6000612937848285016128fe565b91505092915050565b600082825260208201905092915050565b82818337600083830152505050565b600061296c8385612940565b9350612979838584612951565b61298283611a53565b840190509392505050565b61299681611adb565b82525050565b60006129a8838561275d565b93506129b5838584612951565b6129be83611a53565b840190509392505050565b60006080820190506129de6000830189611c74565b81810360208301526129f1818789612960565b9050612a00604083018661298d565b8181036060830152612a1381848661299c565b9050979650505050505050565b7f4c656e6774682073686f756c642062652067726561746572207468616e203000600082015250565b6000612a56601f8361275d565b9150612a6182612a20565b602082019050919050565b60006020820190508181036000830152612a8581612a49565b9050919050565b7f4c656e677468206c696d69742065786365656465640000000000000000000000600082015250565b6000612ac260158361275d565b9150612acd82612a8c565b602082019050919050565b60006020820190508181036000830152612af181612ab5565b9050919050565b7f537461727420696e646578206f7574206f6620626f756e647300000000000000600082015250565b6000612b2e60198361275d565b9150612b3982612af8565b602082019050919050565b60006020820190508181036000830152612b5d81612b21565b9050919050565b6000612b6f826118ae565b9150612b7a836118ae565b9250828201905080821115612b9257612b91612004565b5b92915050565b7f4f776e61626c653a2063616c6c6572206973206e6f7420746865206f776e6572600082015250565b6000612bce60208361275d565b9150612bd982612b98565b602082019050919050565b60006020820190508181036000830152612bfd81612bc1565b9050919050565b7f6368616c6c656e67650000000000000000000000000000000000000000000000600082015250565b6000612c3a60098361275d565b9150612c4582612c04565b602082019050919050565b60006020820190508181036000830152612c6981612c2d565b9050919050565b600081519050612c7f816118ec565b92915050565b600060208284031215612c9b57612c9a6118e2565b5b6000612ca984828501612c70565b91505092915050565b7f6164647265737320696e2070726f6f66206973206e6f7420612073656e64657260008201527f2061646472657373000000000000000000000000000000000000000000000000602082015250565b6000612d0e60288361275d565b9150612d1982612cb2565b604082019050919050565b60006020820190508181036000830152612d3d81612d01565b9050919050565b600082825260208201905092915050565b600080fd5b82818337505050565b6000612d6f8385612d44565b93507f07ffffffffffffffffffffffffffffffffffffffffffffffffffffffffffffff831115612da257612da1612d55565b5b602083029250612db3838584612d5a565b82840190509392505050565b612dcb60408383612d5a565b5050565b600060029050919050565b600081905092915050565b6000819050919050565b612dfb60408383612d5a565b5050565b6000612e0b8383612def565b60408301905092915050565b600082905092915050565b6000604082019050919050565b612e3881612dcf565b612e428184612dda565b9250612e4d82612de5565b8060005b83811015612e8657612e638284612e17565b612e6d8782612dff565b9650612e7883612e22565b925050600181019050612e51565b505050505050565b6000612e9982611afc565b612ea38185612940565b9350612eb3818560208601611a29565b612ebc81611a53565b840191505092915050565b6000610140820190508181036000830152612ee381888a612d63565b9050612ef26020830187612dbf565b612eff6060830186612e2f565b612f0c60e0830185612dbf565b818103610120830152612f1f8184612e8e565b9050979650505050505050565b60007fffffffff0000000000000000000000000000000000000000000000000000000082169050919050565b6000819050919050565b612f73612f6e82612f2c565b612f58565b82525050565b600081905092915050565b6000612f8f82611afc565b612f998185612f79565b9350612fa9818560208601611a29565b80840191505092915050565b60008160601b9050919050565b6000612fcd82612fb5565b9050919050565b6000612fdf82612fc2565b9050919050565b612ff7612ff282611965565b612fd4565b82525050565b60006130098286612f62565b6004820191506130198285612f84565b91506130258284612fe6565b601482019150819050949350505050565b60006130428284612f84565b915081905092915050565b7f4661696c656420746f207665726966792070726f6f6620776974686f7574207260008201527f657665727420726561736f6e0000000000000000000000000000000000000000602082015250565b60006130a9602c8361275d565b91506130b48261304d565b604082019050919050565b600060208201905081810360008301526130d88161309c565b9050919050565b7f70726f6f662063616e206e6f74206265207375626d6974746564206d6f72652060008201527f7468616e206f6e63650000000000000000000000000000000000000000000000602082015250565b600061313b60298361275d565b9150613146826130df565b604082019050919050565b6000602082019050818103600083015261316a8161312e565b905091905056fea2646970667358221220219102f73dc232072d179c7d0141aa50b76089749bae78223d5981d40d944ad864736f6c63430008100033",
  "devdoc": {
    "kind": "dev",
    "methods": {
      "owner()": {
        "details": "Returns the address of the current owner."
      },
      "renounceOwnership()": {
        "details": "Leaves the contract without owner. It will not be possible to call `onlyOwner` functions. Can only be called by the current owner. NOTE: Renouncing ownership will leave the contract without an owner, thereby disabling any functionality that is only available to the owner."
      },
      "setNexeraZKPRequest(uint64,(string,address,bytes))": {
        "params": {
          "request": "The ZKP request data.",
          "requestId": "The ID of the request to be set."
        }
      },
      "transferOwnership(address)": {
        "details": "Transfers ownership of the contract to a new account (`newOwner`). Can only be called by the current owner."
      }
    },
    "title": "SimpleWhitelist",
    "version": 1
  },
  "userdoc": {
    "kind": "user",
    "methods": {
      "setNexeraZKPRequest(uint64,(string,address,bytes))": {
        "notice": "Sets a Nexera ZKP request and emits an event."
      }
    },
    "notice": "This example contract implements a simple whitelist mechanism using Zero-Knowledge Proofs (ZKPs).",
    "version": 1
  },
  "storageLayout": {
    "storage": [
      {
        "astId": 3443,
        "contract": "contracts/SimpleWhitelist.sol:SimpleWhitelist",
        "label": "_owner",
        "offset": 0,
        "slot": "0",
        "type": "t_address"
      },
      {
        "astId": 2389,
        "contract": "contracts/SimpleWhitelist.sol:SimpleWhitelist",
        "label": "__gap_before",
        "offset": 0,
        "slot": "1",
        "type": "t_array(t_uint256)500_storage"
      },
      {
        "astId": 2395,
        "contract": "contracts/SimpleWhitelist.sol:SimpleWhitelist",
        "label": "proofs",
        "offset": 0,
        "slot": "501",
        "type": "t_mapping(t_address,t_mapping(t_uint64,t_bool))"
      },
      {
        "astId": 2400,
        "contract": "contracts/SimpleWhitelist.sol:SimpleWhitelist",
        "label": "_requests",
        "offset": 0,
        "slot": "502",
        "type": "t_mapping(t_uint64,t_struct(ZKPRequest)1422_storage)"
      },
      {
        "astId": 2403,
        "contract": "contracts/SimpleWhitelist.sol:SimpleWhitelist",
        "label": "_requestIds",
        "offset": 0,
        "slot": "503",
        "type": "t_array(t_uint64)dyn_storage"
      },
      {
        "astId": 2407,
        "contract": "contracts/SimpleWhitelist.sol:SimpleWhitelist",
        "label": "__gap_after",
        "offset": 0,
        "slot": "504",
        "type": "t_array(t_uint256)47_storage"
      },
      {
        "astId": 7668,
        "contract": "contracts/SimpleWhitelist.sol:SimpleWhitelist",
        "label": "idToAddress",
        "offset": 0,
        "slot": "551",
        "type": "t_mapping(t_uint256,t_address)"
      },
      {
        "astId": 7672,
        "contract": "contracts/SimpleWhitelist.sol:SimpleWhitelist",
        "label": "addressToId",
        "offset": 0,
        "slot": "552",
        "type": "t_mapping(t_address,t_uint256)"
      },
      {
        "astId": 7676,
        "contract": "contracts/SimpleWhitelist.sol:SimpleWhitelist",
        "label": "whitelist",
        "offset": 0,
        "slot": "553",
        "type": "t_mapping(t_address,t_bool)"
      }
    ],
    "types": {
      "t_address": {
        "encoding": "inplace",
        "label": "address",
        "numberOfBytes": "20"
      },
      "t_array(t_uint256)47_storage": {
        "base": "t_uint256",
        "encoding": "inplace",
        "label": "uint256[47]",
        "numberOfBytes": "1504"
      },
      "t_array(t_uint256)500_storage": {
        "base": "t_uint256",
        "encoding": "inplace",
        "label": "uint256[500]",
        "numberOfBytes": "16000"
      },
      "t_array(t_uint64)dyn_storage": {
        "base": "t_uint64",
        "encoding": "dynamic_array",
        "label": "uint64[]",
        "numberOfBytes": "32"
      },
      "t_bool": {
        "encoding": "inplace",
        "label": "bool",
        "numberOfBytes": "1"
      },
      "t_bytes_storage": {
        "encoding": "bytes",
        "label": "bytes",
        "numberOfBytes": "32"
      },
      "t_contract(ICircuitValidator)1237": {
        "encoding": "inplace",
        "label": "contract ICircuitValidator",
        "numberOfBytes": "20"
      },
      "t_mapping(t_address,t_bool)": {
        "encoding": "mapping",
        "key": "t_address",
        "label": "mapping(address => bool)",
        "numberOfBytes": "32",
        "value": "t_bool"
      },
      "t_mapping(t_address,t_mapping(t_uint64,t_bool))": {
        "encoding": "mapping",
        "key": "t_address",
        "label": "mapping(address => mapping(uint64 => bool))",
        "numberOfBytes": "32",
        "value": "t_mapping(t_uint64,t_bool)"
      },
      "t_mapping(t_address,t_uint256)": {
        "encoding": "mapping",
        "key": "t_address",
        "label": "mapping(address => uint256)",
        "numberOfBytes": "32",
        "value": "t_uint256"
      },
      "t_mapping(t_uint256,t_address)": {
        "encoding": "mapping",
        "key": "t_uint256",
        "label": "mapping(uint256 => address)",
        "numberOfBytes": "32",
        "value": "t_address"
      },
      "t_mapping(t_uint64,t_bool)": {
        "encoding": "mapping",
        "key": "t_uint64",
        "label": "mapping(uint64 => bool)",
        "numberOfBytes": "32",
        "value": "t_bool"
      },
      "t_mapping(t_uint64,t_struct(ZKPRequest)1422_storage)": {
        "encoding": "mapping",
        "key": "t_uint64",
        "label": "mapping(uint64 => struct IZKPVerifier.ZKPRequest)",
        "numberOfBytes": "32",
        "value": "t_struct(ZKPRequest)1422_storage"
      },
      "t_string_storage": {
        "encoding": "bytes",
        "label": "string",
        "numberOfBytes": "32"
      },
      "t_struct(ZKPRequest)1422_storage": {
        "encoding": "inplace",
        "label": "struct IZKPVerifier.ZKPRequest",
        "members": [
          {
            "astId": 1416,
            "contract": "contracts/SimpleWhitelist.sol:SimpleWhitelist",
            "label": "metadata",
            "offset": 0,
            "slot": "0",
            "type": "t_string_storage"
          },
          {
            "astId": 1419,
            "contract": "contracts/SimpleWhitelist.sol:SimpleWhitelist",
            "label": "validator",
            "offset": 0,
            "slot": "1",
            "type": "t_contract(ICircuitValidator)1237"
          },
          {
            "astId": 1421,
            "contract": "contracts/SimpleWhitelist.sol:SimpleWhitelist",
            "label": "data",
            "offset": 0,
            "slot": "2",
            "type": "t_bytes_storage"
          }
        ],
        "numberOfBytes": "96"
      },
      "t_uint256": {
        "encoding": "inplace",
        "label": "uint256",
        "numberOfBytes": "32"
      },
      "t_uint64": {
        "encoding": "inplace",
        "label": "uint64",
        "numberOfBytes": "8"
      }
    }
  }
}