{
  "address": "0x4AA324bda254AB0Ff604225E2dd9162774a4A16c",
  "abi": [
    {
      "inputs": [],
      "stateMutability": "nonpayable",
      "type": "constructor"
    },
    {
      "anonymous": false,
      "inputs": [
        {
          "indexed": false,
          "internalType": "address",
          "name": "userAddress",
          "type": "address"
        },
        {
          "indexed": false,
          "internalType": "uint256",
          "name": "userId",
          "type": "uint256"
        }
      ],
      "name": "AddressIdConnection",
      "type": "event"
    },
    {
      "anonymous": false,
      "inputs": [
        {
          "indexed": false,
          "internalType": "uint8",
          "name": "version",
          "type": "uint8"
        }
      ],
      "name": "Initialized",
      "type": "event"
    },
    {
      "anonymous": false,
      "inputs": [
        {
          "indexed": true,
          "internalType": "address",
          "name": "previousOwner",
          "type": "address"
        },
        {
          "indexed": true,
          "internalType": "address",
          "name": "newOwner",
          "type": "address"
        }
      ],
      "name": "OwnershipTransferred",
      "type": "event"
    },
    {
      "anonymous": false,
      "inputs": [
        {
          "indexed": false,
          "internalType": "uint64",
          "name": "requestId",
          "type": "uint64"
        }
      ],
      "name": "RequestRegistered",
      "type": "event"
    },
    {
      "anonymous": false,
      "inputs": [
        {
          "indexed": false,
          "internalType": "address",
          "name": "userAddress",
          "type": "address"
        },
        {
          "components": [
            {
              "internalType": "uint64",
              "name": "requestId",
              "type": "uint64"
            },
            {
              "internalType": "uint256[]",
              "name": "inputs",
              "type": "uint256[]"
            },
            {
              "internalType": "uint256[2]",
              "name": "a",
              "type": "uint256[2]"
            },
            {
              "internalType": "uint256[2][2]",
              "name": "b",
              "type": "uint256[2][2]"
            },
            {
              "internalType": "uint256[2]",
              "name": "c",
              "type": "uint256[2]"
            }
          ],
          "indexed": false,
          "internalType": "struct IScenarioVerifier.ZKP[]",
          "name": "zkps",
          "type": "tuple[]"
        }
      ],
      "name": "SubmitedAllZKPsForUser",
      "type": "event"
    },
    {
      "anonymous": false,
      "inputs": [
        {
          "indexed": false,
          "internalType": "address",
          "name": "userAddress",
          "type": "address"
        },
        {
          "indexed": false,
          "internalType": "uint64",
          "name": "requestId",
          "type": "uint64"
        }
      ],
      "name": "UserAllowedForRequest",
      "type": "event"
    },
    {
      "anonymous": false,
      "inputs": [
        {
          "indexed": false,
          "internalType": "address",
          "name": "userAddress",
          "type": "address"
        }
      ],
      "name": "UserAllowedForScenario",
      "type": "event"
    },
    {
      "anonymous": false,
      "inputs": [
        {
          "indexed": false,
          "internalType": "uint64",
          "name": "requestId",
          "type": "uint64"
        },
        {
          "indexed": false,
          "internalType": "bytes",
          "name": "data",
          "type": "bytes"
        },
        {
          "indexed": false,
          "internalType": "contract ICircuitValidator",
          "name": "validator",
          "type": "address"
        },
        {
          "indexed": false,
          "internalType": "string",
          "name": "metadata",
          "type": "string"
        }
      ],
      "name": "ZKPRequestSet",
      "type": "event"
    },
    {
      "inputs": [],
      "name": "REQUESTS_RETURN_LIMIT",
      "outputs": [
        {
          "internalType": "uint256",
          "name": "",
          "type": "uint256"
        }
      ],
      "stateMutability": "view",
      "type": "function"
    },
    {
      "inputs": [
        {
          "internalType": "address",
          "name": "",
          "type": "address"
        }
      ],
      "name": "addressToId",
      "outputs": [
        {
          "internalType": "uint256",
          "name": "",
          "type": "uint256"
        }
      ],
      "stateMutability": "view",
      "type": "function"
    },
    {
      "inputs": [
        {
          "components": [
            {
              "internalType": "uint64",
              "name": "requestId",
              "type": "uint64"
            },
            {
              "internalType": "uint256[]",
              "name": "inputs",
              "type": "uint256[]"
            },
            {
              "internalType": "uint256[2]",
              "name": "a",
              "type": "uint256[2]"
            },
            {
              "internalType": "uint256[2][2]",
              "name": "b",
              "type": "uint256[2][2]"
            },
            {
              "internalType": "uint256[2]",
              "name": "c",
              "type": "uint256[2]"
            }
          ],
          "internalType": "struct IScenarioVerifier.ZKP[]",
          "name": "zkps",
          "type": "tuple[]"
        }
      ],
      "name": "allowUserForScenario",
      "outputs": [
        {
          "internalType": "bool",
          "name": "",
          "type": "bool"
        }
      ],
      "stateMutability": "nonpayable",
      "type": "function"
    },
    {
      "inputs": [
        {
          "internalType": "address",
          "name": "user",
          "type": "address"
        }
      ],
      "name": "finalizeAllowListScenario",
      "outputs": [
        {
          "internalType": "bool",
          "name": "",
          "type": "bool"
        }
      ],
      "stateMutability": "nonpayable",
      "type": "function"
    },
    {
      "inputs": [
        {
          "internalType": "uint64",
          "name": "requestId",
          "type": "uint64"
        }
      ],
      "name": "getZKPRequest",
      "outputs": [
        {
          "components": [
            {
              "internalType": "string",
              "name": "metadata",
              "type": "string"
            },
            {
              "internalType": "contract ICircuitValidator",
              "name": "validator",
              "type": "address"
            },
            {
              "internalType": "bytes",
              "name": "data",
              "type": "bytes"
            }
          ],
          "internalType": "struct IZKPVerifier.ZKPRequest",
          "name": "",
          "type": "tuple"
        }
      ],
      "stateMutability": "view",
      "type": "function"
    },
    {
      "inputs": [
        {
          "internalType": "uint256",
          "name": "startIndex",
          "type": "uint256"
        },
        {
          "internalType": "uint256",
          "name": "length",
          "type": "uint256"
        }
      ],
      "name": "getZKPRequests",
      "outputs": [
        {
          "components": [
            {
              "internalType": "string",
              "name": "metadata",
              "type": "string"
            },
            {
              "internalType": "contract ICircuitValidator",
              "name": "validator",
              "type": "address"
            },
            {
              "internalType": "bytes",
              "name": "data",
              "type": "bytes"
            }
          ],
          "internalType": "struct IZKPVerifier.ZKPRequest[]",
          "name": "",
          "type": "tuple[]"
        }
      ],
      "stateMutability": "view",
      "type": "function"
    },
    {
      "inputs": [],
      "name": "getZKPRequestsCount",
      "outputs": [
        {
          "internalType": "uint256",
          "name": "",
          "type": "uint256"
        }
      ],
      "stateMutability": "view",
      "type": "function"
    },
    {
      "inputs": [
        {
          "internalType": "uint256",
          "name": "",
          "type": "uint256"
        }
      ],
      "name": "idToAddress",
      "outputs": [
        {
          "internalType": "address",
          "name": "",
          "type": "address"
        }
      ],
      "stateMutability": "view",
      "type": "function"
    },
    {
      "inputs": [
        {
          "internalType": "address",
          "name": "newOwner",
          "type": "address"
        }
      ],
      "name": "initialize",
      "outputs": [],
      "stateMutability": "nonpayable",
      "type": "function"
    },
    {
      "inputs": [
        {
          "internalType": "address",
          "name": "user",
          "type": "address"
        }
      ],
      "name": "isAllowedForScenario",
      "outputs": [
        {
          "internalType": "bool",
          "name": "",
          "type": "bool"
        }
      ],
      "stateMutability": "view",
      "type": "function"
    },
    {
      "inputs": [
        {
          "internalType": "uint64",
          "name": "",
          "type": "uint64"
        }
      ],
      "name": "isRuleIdRegistered",
      "outputs": [
        {
          "internalType": "bool",
          "name": "",
          "type": "bool"
        }
      ],
      "stateMutability": "view",
      "type": "function"
    },
    {
      "inputs": [],
      "name": "owner",
      "outputs": [
        {
          "internalType": "address",
          "name": "",
          "type": "address"
        }
      ],
      "stateMutability": "view",
      "type": "function"
    },
    {
      "inputs": [
        {
          "internalType": "address",
          "name": "",
          "type": "address"
        },
        {
          "internalType": "uint64",
          "name": "",
          "type": "uint64"
        }
      ],
      "name": "proofs",
      "outputs": [
        {
          "internalType": "bool",
          "name": "",
          "type": "bool"
        }
      ],
      "stateMutability": "view",
      "type": "function"
    },
    {
      "inputs": [
        {
          "internalType": "uint64",
          "name": "",
          "type": "uint64"
        },
        {
          "internalType": "address",
          "name": "",
          "type": "address"
        }
      ],
      "name": "queryRequestWhitelist",
      "outputs": [
        {
          "internalType": "bool",
          "name": "",
          "type": "bool"
        }
      ],
      "stateMutability": "view",
      "type": "function"
    },
    {
      "inputs": [
        {
          "internalType": "uint256",
          "name": "",
          "type": "uint256"
        }
      ],
      "name": "registeredRuleIDs",
      "outputs": [
        {
          "internalType": "uint64",
          "name": "",
          "type": "uint64"
        }
      ],
      "stateMutability": "view",
      "type": "function"
    },
    {
      "inputs": [],
      "name": "renounceOwnership",
      "outputs": [],
      "stateMutability": "nonpayable",
      "type": "function"
    },
    {
      "inputs": [
        {
          "internalType": "uint64",
          "name": "requestId",
          "type": "uint64"
        }
      ],
      "name": "requestIdExists",
      "outputs": [
        {
          "internalType": "bool",
          "name": "",
          "type": "bool"
        }
      ],
      "stateMutability": "view",
      "type": "function"
    },
    {
      "inputs": [
        {
          "internalType": "address",
          "name": "",
          "type": "address"
        }
      ],
      "name": "scenarioAllowList",
      "outputs": [
        {
          "internalType": "bool",
          "name": "",
          "type": "bool"
        }
      ],
      "stateMutability": "view",
      "type": "function"
    },
    {
      "inputs": [
        {
          "internalType": "uint64",
          "name": "requestId",
          "type": "uint64"
        },
        {
          "components": [
            {
              "internalType": "string",
              "name": "metadata",
              "type": "string"
            },
            {
              "internalType": "contract ICircuitValidator",
              "name": "validator",
              "type": "address"
            },
            {
              "internalType": "bytes",
              "name": "data",
              "type": "bytes"
            }
          ],
          "internalType": "struct IZKPVerifier.ZKPRequest",
          "name": "request",
          "type": "tuple"
        }
      ],
      "name": "setNexeraZKPRequest",
      "outputs": [],
      "stateMutability": "nonpayable",
      "type": "function"
    },
    {
      "inputs": [
        {
          "internalType": "uint64",
          "name": "requestId",
          "type": "uint64"
        },
        {
          "components": [
            {
              "internalType": "string",
              "name": "metadata",
              "type": "string"
            },
            {
              "internalType": "contract ICircuitValidator",
              "name": "validator",
              "type": "address"
            },
            {
              "internalType": "bytes",
              "name": "data",
              "type": "bytes"
            }
          ],
          "internalType": "struct IZKPVerifier.ZKPRequest",
          "name": "request",
          "type": "tuple"
        }
      ],
      "name": "setZKPRequest",
      "outputs": [],
      "stateMutability": "nonpayable",
      "type": "function"
    },
    {
      "inputs": [
        {
          "internalType": "uint64",
          "name": "requestId",
          "type": "uint64"
        },
        {
          "internalType": "uint256[]",
          "name": "inputs",
          "type": "uint256[]"
        },
        {
          "internalType": "uint256[2]",
          "name": "a",
          "type": "uint256[2]"
        },
        {
          "internalType": "uint256[2][2]",
          "name": "b",
          "type": "uint256[2][2]"
        },
        {
          "internalType": "uint256[2]",
          "name": "c",
          "type": "uint256[2]"
        }
      ],
      "name": "submitZKPResponse",
      "outputs": [],
      "stateMutability": "nonpayable",
      "type": "function"
    },
    {
      "inputs": [
        {
          "internalType": "address",
          "name": "newOwner",
          "type": "address"
        }
      ],
      "name": "transferOwnership",
      "outputs": [],
      "stateMutability": "nonpayable",
      "type": "function"
    }
  ],
  "transactionHash": "0xa42f9a244e6afb74cd40ce23992bcb81d4d6f25454045dc389d00226350f564b",
  "args": [],
  "numDeployments": 1,
  "solcInputHash": "ae32deb1db46c11cf63bd3a5efe635da",
  "bytecode": "0x60808060405234610129576000805462010000600160b01b0319811633601081811b62010000600160b01b031692831780865593959294929360ff9390929187901c6001600160a01b0316907f8be0079c531659141344cd1fd0a4f28419497f9722a3daafe3b4186f6b6457e09086a360081c166100d7575060ff80831603610092575b604051612230908161012f8239f35b60ff9161ff01600160b01b03191617176000557f7f26b83ff96e1f2b6a682f133852f6798a09c465da95921460cefb3847402498602060405160ff8152a13880610083565b62461bcd60e51b815260206004820152602760248201527f496e697469616c697a61626c653a20636f6e747261637420697320696e697469604482015266616c697a696e6760c81b6064820152608490fd5b600080fdfe60806040526004361015610013575b600080fd5b60003560e01c806315be5190146101c25780631905e7b1146101b9578063197bf195146101b05780632a2d0c47146101a7578063398cfb76146101955780635f9e60d71461019e57806360fc1cb5146101955780636508e1b41461018c5780636d76b36314610183578063715018a61461017a57806371941da5146101715780638da5cb5b146101685780639f5223e01461015f578063a9b9e3e114610156578063ab7bcfb71461014d578063b45c0fdf14610144578063b68967e21461013b578063c4d66de814610132578063c76d084514610129578063cb0e0d7d14610120578063f2fde38b146101175763f82ddf0a1461010f57600080fd5b61000e610f38565b5061000e610ea6565b5061000e610e67565b5061000e610dbf565b5061000e610cc0565b5061000e610b27565b5061000e610ac8565b5061000e610aa0565b5061000e610a6e565b5061000e6108f0565b5061000e610884565b5061000e61081d565b5061000e610703565b5061000e610698565b5061000e610678565b5061000e6103da565b5061000e610507565b5061000e610393565b5061000e61034e565b5061000e61031f565b5061000e6101fb565b9181601f8401121561000e578235916001600160401b03831161000e576020808501948460051b01011161000e57565b503461000e5760208060031936011261000e576001600160401b039060043582811161000e5761022f9036906004016101cb565b9160005b838110610291576040517fefbe0f7f95f99f3446b18c397ba10fec2af0a6ef272d84266ccb64303fd469ef908061026c878733846120ef565b0390a161028d61027b33611f81565b60405190151581529081906020820190565b0390f35b61029c818585612096565b35906102a78261033d565b6102b2818686612096565b8381013590601e198136030182121561000e570180359087821161000e578401928160051b3603841361000e576001936103199260406102f3868b8b612096565b01906080610302878c8c612096565b0192610100610312888d8d612096565b01946111fd565b01610233565b503461000e57600036600319011261000e5760206040516103e88152f35b6001600160401b0381160361000e57565b503461000e57602036600319011261000e576001600160401b036004356103748161033d565b16600052610228602052602060ff604060002054166040519015158152f35b503461000e57602036600319011261000e5760043560005261022b602052602060018060a01b0360406000205416604051908152f35b6001600160a01b0381160361000e57565b503461000e57602036600319011261000e576004356103f8816103c9565b60018060a01b031660005261022a602052602060ff604060002054166040519015158152f35b60005b8381106104315750506000910152565b8181015183820152602001610421565b9060209161045a8151809281855285808601910161041e565b601f01601f1916010190565b6104a291604061047f8351606084526060840190610441565b9260018060a01b0360208201511660208401520151906040818403910152610441565b90565b602080820190808352835180925260408301928160408460051b8301019501936000915b8483106104d95750505050505090565b90919293949584806104f7600193603f198682030187528a51610466565b98019301930191949392906104c9565b503461000e57604036600319011261000e576004356024356101f754908015610633576103e881116105f65761054890610542838510611972565b836119be565b908082116105ee575b5061056461055f83836118eb565b611900565b91805b82811061057c576040518061028d86826104a5565b806105e36105bf6105a56105926105e995610781565b90546001600160401b039160031b1c1690565b6001600160401b03166000526101f6602052604060002090565b6105d26105cc86856118eb565b91611346565b6105dc8289611950565b5286611950565b50611880565b610567565b905038610551565b60405162461bcd60e51b815260206004820152601560248201527413195b99dd1a081b1a5b5a5d08195e18d959591959605a1b6044820152606490fd5b60405162461bcd60e51b815260206004820152601f60248201527f4c656e6774682073686f756c642062652067726561746572207468616e2030006044820152606490fd5b503461000e57600036600319011261000e5760206101f754604051908152f35b503461000e57604036600319011261000e57602060ff6106f76004356106bd8161033d565b6001600160401b03602435916106d2836103c9565b16600052610229845260406000209060018060a01b0316600052602052604060002090565b54166040519015158152f35b503461000e576000806003193601126107675761071e6119cb565b805462010000600160b01b03198116825560405190829060101c6001600160a01b03167f8be0079c531659141344cd1fd0a4f28419497f9722a3daafe3b4186f6b6457e08284a3f35b80fd5b50634e487b7160e01b600052603260045260246000fd5b906101f780548310156107c2575b60005260188260021c7fab423d91e51275f405563b297e90b3a62f6d51fbcf68f05522049701393dd8c3019260031b1690565b6107ca61076a565b61078f565b906102278054831015610810575b60005260188260021c7f8d7b118779a4b0205c79f94f344a4defe81224f08798a220a7a72624ce9f429b019260031b1690565b61081861076a565b6107dd565b503461000e57602036600319011261000e5760043561022790815481101561000e576020916000526001600160401b038160021c7f8d7b118779a4b0205c79f94f344a4defe81224f08798a220a7a72624ce9f429b015460c06040519360061b161c168152f35b503461000e57600036600319011261000e5760005460405160109190911c6001600160a01b03168152602090f35b9060031960408184011261000e576004356108cc8161033d565b92602435916001600160401b03831161000e578260609203011261000e5760040190565b503461000e576108ff366108b2565b906109086119cb565b6001600160401b039060009180821683526020936101f68552604084209161093082806116b2565b918211610a61575b61094c826109468654611276565b866116e4565b8590601f83116001146109e057926109b86109958899856109cb98966109c2966002996109d09d926109d5575b50508160011b916000199060031b1c19161786555b8301611738565b6001850180546001600160a01b0319166001600160a01b03909216919091179055565b60408101906116b2565b92909101611742565b611817565b604051f35b013590503880610979565b601f198316916109f586600052602060002090565b92885b818110610a4a57506109d098996001866109c296600299966109b8966109cb9c9a6109959710610a30575b505050811b01865561098e565b0135600019600384901b60f8161c19169055388080610a23565b91938a6001819287870135815501950192016109f8565b610a69611129565b610938565b503461000e57602036600319011261000e576020610a96600435610a91816103c9565b611f81565b6040519015158152f35b503461000e57602036600319011261000e576020610a96600435610ac38161033d565b61189c565b503461000e57604036600319011261000e57602060ff6106f7600435610aed816103c9565b60243590610afa8261033d565b60018060a01b03166000526101f584526040600020906001600160401b0316600052602052604060002090565b503461000e5761014036600319011261000e57600435610b468161033d565b6001600160401b039060243582811161000e57610b679036906004016101cb565b90923660841161000e57366101041161000e57366101441161000e57821660009081526101f660205260409020600101546001600160a01b031615610c6a57610c6892610c6291610bf2610be26001610bd4876001600160401b03166000526101f6602052604060002090565b01546001600160a01b031690565b610bed3684866111af565b611c93565b610bfe33828487611524565b503360009081526101f560205260409020610c3c90610c2f90866001600160401b0316600052602052604060002090565b805460ff19166001179055565b610c5a846001600160401b03166000526101f6602052604060002090565b5036916111af565b90611e8b565b005b60405162461bcd60e51b815260206004820152602860248201527f76616c696461746f72206973206e6f742073657420666f7220746869732072656044820152671c5d595cdd081a5960c21b6064820152608490fd5b503461000e57602036600319011261000e57600435610cde816103c9565b610d2260005491610d0660ff8460081c161580948195610da0575b8115610d80575b50611af0565b82610d19600160ff196000541617600055565b610d6757611a26565b610d2857005b610d3861ff001960005416600055565b604051600181527f7f26b83ff96e1f2b6a682f133852f6798a09c465da95921460cefb384740249890602090a1005b610d7b61010061ff00196000541617600055565b611a26565b303b15915081610d92575b5038610d00565b6001915060ff161438610d8b565b600160ff8216109150610cf9565b9060206104a2928181520190610466565b503461000e57602036600319011261000e57600435610ddd8161033d565b610de5611692565b50610def8161189c565b15610e22576001600160401b03166000526101f660205261028d610e166040600020611346565b60405191829182610dae565b60405162461bcd60e51b815260206004820152601860248201527f7265717565737420696420646f65736e277420657869737400000000000000006044820152606490fd5b503461000e57602036600319011261000e57600435610e85816103c9565b60018060a01b031660005261022c6020526020604060002054604051908152f35b503461000e57602036600319011261000e57600435610ec4816103c9565b610ecc6119cb565b6001600160a01b03811615610ee457610c6890611a26565b60405162461bcd60e51b815260206004820152602660248201527f4f776e61626c653a206e6577206f776e657220697320746865207a65726f206160448201526564647265737360d01b6064820152608490fd5b503461000e57610f47366108b2565b90610f506119cb565b610f586119cb565b6001600160401b039060009180821683526020936101f685526040842091610f8082806116b2565b91821161111c575b610f96826109468654611276565b8590601f831160011461107c579261105b61104c8899857febf5fc5d525575febff148871346e1458de02c705c900ba0bc9b5361d5eba08a989661106996611054996109d09d92611071575b50508160011b916000199060031b1c19161786555b83019461102961100687611738565b6001830180546001600160a01b0319166001600160a01b03909216919091179055565b61103d600260408601926109c284886116b2565b61104689611817565b836116b2565b959094611738565b91806116b2565b916040519586958987611aaa565b0390a1611b53565b013590503880610fe2565b601f1983169161109186600052602060002090565b92885b81811061110557506109d0989960018661106996611054999661105b967febf5fc5d525575febff148871346e1458de02c705c900ba0bc9b5361d5eba08a9c9a61104c97106110eb575b505050811b018655610ff7565b0135600019600384901b60f8161c191690553880806110de565b91938a600181928787013581550195019201611094565b611124611129565b610f88565b50634e487b7160e01b600052604160045260246000fd5b606081019081106001600160401b0382111761115b57604052565b611163611129565b604052565b90601f801991011681019081106001600160401b0382111761115b57604052565b6020906001600160401b0381116111a2575b60051b0190565b6111aa611129565b61119b565b92916111ba82611189565b916111c86040519384611168565b829481845260208094019160051b810192831161000e57905b8282106111ee5750505050565b813581529083019083016111e1565b939492949190916001600160401b0385166000526101f660205260018060a01b036001604060002001541615610c6a5761127495610c6294610bfe9261126a61125f6001610bd48b6001600160401b03166000526101f6602052604060002090565b610bed36888a6111af565b339285878a611640565b565b90600182811c921680156112a6575b602083101461129057565b634e487b7160e01b600052602260045260246000fd5b91607f1691611285565b90600092918054916112c183611276565b91828252600193848116908160001461132357506001146112e3575b50505050565b90919394506000526020928360002092846000945b83861061130f5750505050010190388080806112dd565b8054858701830152940193859082016112f8565b9294505050602093945060ff191683830152151560051b010190388080806112dd565b9060026040805161135681611140565b61139f819583516113728161136b81856112b0565b0382611168565b835260018101546001600160a01b031660208401528351948591611398918391016112b0565b0384611168565b0152565b81835290916001600160fb1b03831161000e5760209260051b809284830137010190565b60409137565b939291906113e3916101408087528601916113a3565b9060409384604460208301376084946000606083015b6002821061141f5750506104a294955061010460e0830137610120818403910152610441565b828082818b60019537019801910190966113f9565b92919061144d91979694976101408086528501916113a3565b936040809260208501376000606084015b600282106114815750506104a295965060e0830137610120818403910152610441565b838082818c600195370199019101909761145e565b9060189291635307e79f60e01b81526114b982518093602060048501910161041e565b01906bffffffffffffffffffffffff199060601b1660048201520190565b3d1561151f573d906001600160401b038211611512575b60405191611506601f8201601f191660200184611168565b82523d6000602084013e565b61151a611129565b6114ee565b606090565b9160006115c06115b4602061159a956115a6859961155f61155a889b6001600160401b03166000526101f6602052604060002090565b611346565b9261157660408501516040519a8b938885016113cd565b039061158a601f19928381018b528a611168565b604051998a918683019a8b611496565b03908101895288611168565b01516001600160a01b031690565b6001600160a01b031690565b9251925af16115cd6114d7565b81156115d7575090565b8051156115e657805190602001fd5b60405162461bcd60e51b815260206004820152602c60248201527f4661696c656420746f207665726966792070726f6f6620776974686f7574207260448201526b32bb32b93a103932b0b9b7b760a11b6064820152608490fd5b602061159a956115a66000996115c0956115768c9b998c999a61167d61155a6115b49a6001600160401b03166000526101f6602052604060002090565b966040880151926040519d8e968b8801611434565b6040519061169f82611140565b6060604083828152600060208201520152565b903590601e198136030182121561000e57018035906001600160401b03821161000e5760200191813603831361000e57565b90601f81116116f257505050565b600091825260208220906020601f850160051c8301941061172e575b601f0160051c01915b82811061172357505050565b818155600101611717565b909250829061170e565b356104a2816103c9565b9092916001600160401b03811161180a575b611768816117628454611276565b846116e4565b6000601f82116001146117a25781929394600092611797575b50508160011b916000199060031b1c1916179055565b013590503880611781565b601f198216946117b784600052602060002090565b91805b8781106117f25750836001959697106117d8575b505050811b019055565b0135600019600384901b60f8161c191690553880806117ce565b909260206001819286860135815501940191016117ba565b611812611129565b611754565b6118386101f7805490600160401b82101561185c575b600182019055610781565b819291549060031b916001600160401b039283811b93849216901b16911916179055565b611864611129565b61182d565b50634e487b7160e01b600052601160045260246000fd5b6001906000198114611890570190565b611898611869565b0190565b6101f7549060005b8281106118b357505050600090565b6118bc81610781565b90546001600160401b03908185169260031b1c16146118e3576118de90611880565b6118a4565b505050600190565b919082039182116118f857565b611274611869565b9061190a82611189565b6119176040519182611168565b8281528092611928601f1991611189565b019060005b82811061193957505050565b602090611944611692565b8282850101520161192d565b6020918151811015611965575b60051b010190565b61196d61076a565b61195d565b1561197957565b60405162461bcd60e51b815260206004820152601960248201527f537461727420696e646578206f7574206f6620626f756e6473000000000000006044820152606490fd5b919082018092116118f857565b60005460101c6001600160a01b031633036119e257565b606460405162461bcd60e51b815260206004820152602060248201527f4f776e61626c653a2063616c6c6572206973206e6f7420746865206f776e65726044820152fd5b6000805462010000600160b01b03198116601084811b62010000600160b01b03169190911783556040516001600160a01b03948516949290911c909116917f8be0079c531659141344cd1fd0a4f28419497f9722a3daafe3b4186f6b6457e091a3565b908060209392818452848401376000828201840152601f01601f1916010190565b916104a2969495936001600160401b03611ad293168452608060208501526080840191611a89565b6001600160a01b039094166040820152808403606090910152611a89565b15611af757565b60405162461bcd60e51b815260206004820152602e60248201527f496e697469616c697a61626c653a20636f6e747261637420697320616c72656160448201526d191e481a5b9a5d1a585b1a5e995960921b6064820152608490fd5b6001600160401b0380821691826000526102288060205260ff6040600020541615611b7e5750505050565b83611c0e937f56b7ddf97528e633ab570995fc0cf2e93f6eb557b29e5d715965018a34f4295e95611bc6610227805490600160401b821015611c1a575b6001820190556107cf565b909283549160031b90811b9283911b169119161790556000526020526040600020600160ff19825416179055604051918291829190916001600160401b036020820193169052565b0390a1388080806112dd565b611c22611129565b611bbb565b9081602091031261000e575190565b15611c3d57565b60405162461bcd60e51b815260206004820152602860248201527f6164647265737320696e2070726f6f66206973206e6f7420612073656e646572604482015267206164647265737360c01b6064820152608490fd5b906040519163b16a394f60e01b83526020600484015260096024840152686368616c6c656e676560b81b604484015260208360648160018060a01b038096165afa928315611d335761127493611cfb92611cf592600092611d03575b50611950565b51611d3f565b163314611c36565b611d2591925060203d8111611d2c575b611d1d8183611168565b810190611c27565b9038611cef565b503d611d13565b6040513d6000823e3d90fd5b6014908060081c9060081b907eff000000ff000000ff000000ff000000ff000000ff000000ff000000ff00007fff000000ff000000ff000000ff000000ff000000ff000000ff000000ff0000007dff000000ff000000ff000000ff000000ff000000ff000000ff000000ff0084167cff000000ff000000ff000000ff000000ff000000ff000000ff000000ff84161760101b931691161760101c177bffffffff00000000ffffffff00000000ffffffff00000000ffffffff7fffffffff00000000ffffffff00000000ffffffff00000000ffffffff000000008260201b169160201c161777ffffffffffffffff0000000000000000ffffffffffffffff80198260401b169160401c161760405190604082018281106001600160401b03821117611e7e575b604052602082528060801b9060801c176020820152015190565b611e86611129565b611e64565b907f681ea469fc50f02bc3788c40f25e78e5eaa619484685a28003af83fb0dc8dd6791815160011015611f74575b611f5b6001600160401b03604080940151927f646b8bd6cf28645be11999db4a2cdbe4fdd61ea8f95a3877ffc1258f903be3c28560009533875261022c602052808288205580875261022b602052611f2f338389209060018060a01b03166bffffffffffffffffffffffff60a01b825416179055565b8151903382526020820152a1168083526102296020908152928490203360009081529352604090922090565b600160ff198254161790558151903382526020820152a1565b611f7c61076a565b611eb9565b600190816102275490600091825b818410612012575b5050505061200c81611ff284611fe17f14e9c7a267790ab46f2189d66cb068dbf65a27e7f844cb8aded907134d3646749560018060a01b031660005261022a602052604060002090565b9060ff801983541691151516179055565b6040516001600160a01b0390911681529081906020820190565b0390a190565b90919294506001600160401b038560021c7f8d7b118779a4b0205c79f94f344a4defe81224f08798a220a7a72624ce9f429b015460c08760061b161c16815261022960205261208061207985604084209060018060a01b0316600052602052604060002090565b5460ff1690565b948515612091578301929190611f8f565b611f97565b91908110156120ba575b60051b8101359061013e198136030182121561000e570190565b6120c261076a565b6120a0565b6000915b600283106120d857505050565b6001906040818185819437019201920191906120cb565b92906040938481019160018060a01b031681528260209286848401525260608101600590606085831b84010196866000945b8786106121345750505050505050505090565b909192939495969798605f19828203018552893561013e198436030181121561000e5783018035916121658361033d565b6001600160401b03809316815289820135601e198336030181121561000e578201908a8235920193821161000e5781891b3603841361000e576121e78b936121bb600196869561014080888801528601916113a3565b926121ca8a82018b84016113c7565b6121da60808083019084016120c7565b61010080910191016113c7565b9b0195019601949397969592919061212156fea26469706673582212201266c8f2f6795d502d18211b0a2cf774254885a5aa8a8a0bddd0b5608a08773264736f6c63430008100033",
  "devdoc": {
    "events": {
      "AddressIdConnection(address,uint256)": {
        "details": "Event emitted when an address is associated with a Polygon ID"
      },
      "RequestRegistered(uint64)": {
        "details": "Event emitted when a ZKPRequest is registered in the verifier"
      },
      "SubmitedAllZKPsForUser(address,(uint64,uint256[],uint256[2],uint256[2][2],uint256[2])[])": {
        "details": "Event emitted when all ZKPs for a user are submitted"
      },
      "UserAllowedForRequest(address,uint64)": {
        "details": "Event emitted when a user address is allowed for a request ID"
      },
      "UserAllowedForScenario(address)": {
        "details": "Event emitted when an address is allowed for the scenario verifier"
      }
    },
    "kind": "dev",
    "methods": {
      "allowUserForScenario((uint64,uint256[],uint256[2],uint256[2][2],uint256[2])[])": {
        "params": {
          "zkps": "Array of ZKPs to submit"
        },
        "returns": {
          "_0": "Boolean indicating the success of the operation"
        }
      },
      "finalizeAllowListScenario(address)": {
        "details": "Once the user is allowed for all rules, call this function to finalize (this is more gas efficient than iterating over rules on every submission)",
        "params": {
          "user": "The address of the user to check"
        },
        "returns": {
          "_0": "isUserWhitelisted True if the user is allowed for all rules"
        }
      },
      "initialize(address)": {
        "details": "Initialize proxied contract with owner",
        "params": {
          "newOwner": "The address of the thing owner"
        }
      },
      "isAllowedForScenario(address)": {
        "params": {
          "user": "The address of the user to check"
        },
        "returns": {
          "_0": "Boolean indicating if the user is allowed for the scenario"
        }
      },
      "owner()": {
        "details": "Returns the address of the current owner."
      },
      "renounceOwnership()": {
        "details": "Leaves the contract without owner. It will not be possible to call `onlyOwner` functions. Can only be called by the current owner. NOTE: Renouncing ownership will leave the contract without an owner, thereby disabling any functionality that is only available to the owner."
      },
      "setNexeraZKPRequest(uint64,(string,address,bytes))": {
        "params": {
          "request": "The ZKP request data.",
          "requestId": "The ID of the request to be set."
        }
      },
      "transferOwnership(address)": {
        "details": "Transfers ownership of the contract to a new account (`newOwner`). Can only be called by the current owner."
      }
    },
    "title": "ScenarioVerifier",
    "version": 1
  },
  "userdoc": {
    "kind": "user",
    "methods": {
      "allowUserForScenario((uint64,uint256[],uint256[2],uint256[2][2],uint256[2])[])": {
        "notice": "Submits all ZKPs and allowlists a user in one call"
      },
      "finalizeAllowListScenario(address)": {
        "notice": "Finalizes the whitelisting of a user for all rules"
      },
      "isAllowedForScenario(address)": {
        "notice": "Checks if a user is allowed for the scenario"
      },
      "setNexeraZKPRequest(uint64,(string,address,bytes))": {
        "notice": "Sets a Nexera ZKP request and emits an event."
      }
    },
    "notice": "This contract manages rules for a scenario using ZKP requests, including setting a request for a rule and allowing users who submit the right ZKPs",
    "version": 1
  },
  "storageLayout": {
    "storage": [
      {
        "astId": 2314,
        "contract": "contracts/zkpVerifiers/ScenarioVerifier.sol:ScenarioVerifier",
        "label": "_initialized",
        "offset": 0,
        "slot": "0",
        "type": "t_uint8"
      },
      {
        "astId": 2317,
        "contract": "contracts/zkpVerifiers/ScenarioVerifier.sol:ScenarioVerifier",
        "label": "_initializing",
        "offset": 1,
        "slot": "0",
        "type": "t_bool"
      },
      {
        "astId": 2814,
        "contract": "contracts/zkpVerifiers/ScenarioVerifier.sol:ScenarioVerifier",
        "label": "_owner",
        "offset": 2,
        "slot": "0",
        "type": "t_address"
      },
      {
        "astId": 1944,
        "contract": "contracts/zkpVerifiers/ScenarioVerifier.sol:ScenarioVerifier",
        "label": "__gap_before",
        "offset": 0,
        "slot": "1",
        "type": "t_array(t_uint256)500_storage"
      },
      {
        "astId": 1950,
        "contract": "contracts/zkpVerifiers/ScenarioVerifier.sol:ScenarioVerifier",
        "label": "proofs",
        "offset": 0,
        "slot": "501",
        "type": "t_mapping(t_address,t_mapping(t_uint64,t_bool))"
      },
      {
        "astId": 1955,
        "contract": "contracts/zkpVerifiers/ScenarioVerifier.sol:ScenarioVerifier",
        "label": "_requests",
        "offset": 0,
        "slot": "502",
        "type": "t_mapping(t_uint64,t_struct(ZKPRequest)1274_storage)"
      },
      {
        "astId": 1958,
        "contract": "contracts/zkpVerifiers/ScenarioVerifier.sol:ScenarioVerifier",
        "label": "_requestIds",
        "offset": 0,
        "slot": "503",
        "type": "t_array(t_uint64)dyn_storage"
      },
      {
        "astId": 1962,
        "contract": "contracts/zkpVerifiers/ScenarioVerifier.sol:ScenarioVerifier",
        "label": "__gap_after",
        "offset": 0,
        "slot": "504",
        "type": "t_array(t_uint256)47_storage"
      },
      {
        "astId": 6357,
        "contract": "contracts/zkpVerifiers/ScenarioVerifier.sol:ScenarioVerifier",
        "label": "registeredRuleIDs",
        "offset": 0,
        "slot": "551",
        "type": "t_array(t_uint64)dyn_storage"
      },
      {
        "astId": 6361,
        "contract": "contracts/zkpVerifiers/ScenarioVerifier.sol:ScenarioVerifier",
        "label": "isRuleIdRegistered",
        "offset": 0,
        "slot": "552",
        "type": "t_mapping(t_uint64,t_bool)"
      },
      {
        "astId": 6367,
        "contract": "contracts/zkpVerifiers/ScenarioVerifier.sol:ScenarioVerifier",
        "label": "queryRequestWhitelist",
        "offset": 0,
        "slot": "553",
        "type": "t_mapping(t_uint64,t_mapping(t_address,t_bool))"
      },
      {
        "astId": 6371,
        "contract": "contracts/zkpVerifiers/ScenarioVerifier.sol:ScenarioVerifier",
        "label": "scenarioAllowList",
        "offset": 0,
        "slot": "554",
        "type": "t_mapping(t_address,t_bool)"
      },
      {
        "astId": 6375,
        "contract": "contracts/zkpVerifiers/ScenarioVerifier.sol:ScenarioVerifier",
        "label": "idToAddress",
        "offset": 0,
        "slot": "555",
        "type": "t_mapping(t_uint256,t_address)"
      },
      {
        "astId": 6379,
        "contract": "contracts/zkpVerifiers/ScenarioVerifier.sol:ScenarioVerifier",
        "label": "addressToId",
        "offset": 0,
        "slot": "556",
        "type": "t_mapping(t_address,t_uint256)"
      }
    ],
    "types": {
      "t_address": {
        "encoding": "inplace",
        "label": "address",
        "numberOfBytes": "20"
      },
      "t_array(t_uint256)47_storage": {
        "base": "t_uint256",
        "encoding": "inplace",
        "label": "uint256[47]",
        "numberOfBytes": "1504"
      },
      "t_array(t_uint256)500_storage": {
        "base": "t_uint256",
        "encoding": "inplace",
        "label": "uint256[500]",
        "numberOfBytes": "16000"
      },
      "t_array(t_uint64)dyn_storage": {
        "base": "t_uint64",
        "encoding": "dynamic_array",
        "label": "uint64[]",
        "numberOfBytes": "32"
      },
      "t_bool": {
        "encoding": "inplace",
        "label": "bool",
        "numberOfBytes": "1"
      },
      "t_bytes_storage": {
        "encoding": "bytes",
        "label": "bytes",
        "numberOfBytes": "32"
      },
      "t_contract(ICircuitValidator)1237": {
        "encoding": "inplace",
        "label": "contract ICircuitValidator",
        "numberOfBytes": "20"
      },
      "t_mapping(t_address,t_bool)": {
        "encoding": "mapping",
        "key": "t_address",
        "label": "mapping(address => bool)",
        "numberOfBytes": "32",
        "value": "t_bool"
      },
      "t_mapping(t_address,t_mapping(t_uint64,t_bool))": {
        "encoding": "mapping",
        "key": "t_address",
        "label": "mapping(address => mapping(uint64 => bool))",
        "numberOfBytes": "32",
        "value": "t_mapping(t_uint64,t_bool)"
      },
      "t_mapping(t_address,t_uint256)": {
        "encoding": "mapping",
        "key": "t_address",
        "label": "mapping(address => uint256)",
        "numberOfBytes": "32",
        "value": "t_uint256"
      },
      "t_mapping(t_uint256,t_address)": {
        "encoding": "mapping",
        "key": "t_uint256",
        "label": "mapping(uint256 => address)",
        "numberOfBytes": "32",
        "value": "t_address"
      },
      "t_mapping(t_uint64,t_bool)": {
        "encoding": "mapping",
        "key": "t_uint64",
        "label": "mapping(uint64 => bool)",
        "numberOfBytes": "32",
        "value": "t_bool"
      },
      "t_mapping(t_uint64,t_mapping(t_address,t_bool))": {
        "encoding": "mapping",
        "key": "t_uint64",
        "label": "mapping(uint64 => mapping(address => bool))",
        "numberOfBytes": "32",
        "value": "t_mapping(t_address,t_bool)"
      },
      "t_mapping(t_uint64,t_struct(ZKPRequest)1274_storage)": {
        "encoding": "mapping",
        "key": "t_uint64",
        "label": "mapping(uint64 => struct IZKPVerifier.ZKPRequest)",
        "numberOfBytes": "32",
        "value": "t_struct(ZKPRequest)1274_storage"
      },
      "t_string_storage": {
        "encoding": "bytes",
        "label": "string",
        "numberOfBytes": "32"
      },
      "t_struct(ZKPRequest)1274_storage": {
        "encoding": "inplace",
        "label": "struct IZKPVerifier.ZKPRequest",
        "members": [
          {
            "astId": 1268,
            "contract": "contracts/zkpVerifiers/ScenarioVerifier.sol:ScenarioVerifier",
            "label": "metadata",
            "offset": 0,
            "slot": "0",
            "type": "t_string_storage"
          },
          {
            "astId": 1271,
            "contract": "contracts/zkpVerifiers/ScenarioVerifier.sol:ScenarioVerifier",
            "label": "validator",
            "offset": 0,
            "slot": "1",
            "type": "t_contract(ICircuitValidator)1237"
          },
          {
            "astId": 1273,
            "contract": "contracts/zkpVerifiers/ScenarioVerifier.sol:ScenarioVerifier",
            "label": "data",
            "offset": 0,
            "slot": "2",
            "type": "t_bytes_storage"
          }
        ],
        "numberOfBytes": "96"
      },
      "t_uint256": {
        "encoding": "inplace",
        "label": "uint256",
        "numberOfBytes": "32"
      },
      "t_uint64": {
        "encoding": "inplace",
        "label": "uint64",
        "numberOfBytes": "8"
      },
      "t_uint8": {
        "encoding": "inplace",
        "label": "uint8",
        "numberOfBytes": "1"
      }
    }
  }
}