{
  "address": "0x8801cE2b4C3A4D500f1599547CAe90AFf229Acea",
  "abi": [
    {
      "anonymous": false,
      "inputs": [
        {
          "indexed": false,
          "internalType": "uint8",
          "name": "version",
          "type": "uint8"
        }
      ],
      "name": "Initialized",
      "type": "event"
    },
    {
      "anonymous": false,
      "inputs": [
        {
          "indexed": true,
          "internalType": "address",
          "name": "previousOwner",
          "type": "address"
        },
        {
          "indexed": true,
          "internalType": "address",
          "name": "newOwner",
          "type": "address"
        }
      ],
      "name": "OwnershipTransferred",
      "type": "event"
    },
    {
      "inputs": [],
      "name": "VERSION",
      "outputs": [
        {
          "internalType": "string",
          "name": "",
          "type": "string"
        }
      ],
      "stateMutability": "view",
      "type": "function"
    },
    {
      "inputs": [],
      "name": "getSupportedCircuitIds",
      "outputs": [
        {
          "internalType": "string[]",
          "name": "ids",
          "type": "string[]"
        }
      ],
      "stateMutability": "view",
      "type": "function"
    },
    {
      "inputs": [],
      "name": "gistRootExpirationTimeout",
      "outputs": [
        {
          "internalType": "uint256",
          "name": "",
          "type": "uint256"
        }
      ],
      "stateMutability": "view",
      "type": "function"
    },
    {
      "inputs": [
        {
          "internalType": "address",
          "name": "_verifierContractAddr",
          "type": "address"
        },
        {
          "internalType": "address",
          "name": "_stateContractAddr",
          "type": "address"
        }
      ],
      "name": "initialize",
      "outputs": [],
      "stateMutability": "nonpayable",
      "type": "function"
    },
    {
      "inputs": [
        {
          "internalType": "string",
          "name": "name",
          "type": "string"
        }
      ],
      "name": "inputIndexOf",
      "outputs": [
        {
          "internalType": "uint256",
          "name": "",
          "type": "uint256"
        }
      ],
      "stateMutability": "view",
      "type": "function"
    },
    {
      "inputs": [],
      "name": "owner",
      "outputs": [
        {
          "internalType": "address",
          "name": "",
          "type": "address"
        }
      ],
      "stateMutability": "view",
      "type": "function"
    },
    {
      "inputs": [
        {
          "internalType": "uint256[]",
          "name": "inputs",
          "type": "uint256[]"
        }
      ],
      "name": "parseCommonPubSignals",
      "outputs": [
        {
          "components": [
            {
              "internalType": "uint256",
              "name": "merklized",
              "type": "uint256"
            },
            {
              "internalType": "uint256",
              "name": "userID",
              "type": "uint256"
            },
            {
              "internalType": "uint256",
              "name": "issuerState",
              "type": "uint256"
            },
            {
              "internalType": "uint256",
              "name": "circuitQueryHash",
              "type": "uint256"
            },
            {
              "internalType": "uint256",
              "name": "requestID",
              "type": "uint256"
            },
            {
              "internalType": "uint256",
              "name": "challenge",
              "type": "uint256"
            },
            {
              "internalType": "uint256",
              "name": "gistRoot",
              "type": "uint256"
            },
            {
              "internalType": "uint256",
              "name": "issuerID",
              "type": "uint256"
            },
            {
              "internalType": "uint256",
              "name": "isRevocationChecked",
              "type": "uint256"
            },
            {
              "internalType": "uint256",
              "name": "issuerClaimNonRevState",
              "type": "uint256"
            },
            {
              "internalType": "uint256",
              "name": "timestamp",
              "type": "uint256"
            }
          ],
          "internalType": "struct CredentialAtomicQueryValidator.CommonPubSignals",
          "name": "",
          "type": "tuple"
        }
      ],
      "stateMutability": "pure",
      "type": "function"
    },
    {
      "inputs": [],
      "name": "proofExpirationTimeout",
      "outputs": [
        {
          "internalType": "uint256",
          "name": "",
          "type": "uint256"
        }
      ],
      "stateMutability": "view",
      "type": "function"
    },
    {
      "inputs": [],
      "name": "renounceOwnership",
      "outputs": [],
      "stateMutability": "nonpayable",
      "type": "function"
    },
    {
      "inputs": [],
      "name": "revocationStateExpirationTimeout",
      "outputs": [
        {
          "internalType": "uint256",
          "name": "",
          "type": "uint256"
        }
      ],
      "stateMutability": "view",
      "type": "function"
    },
    {
      "inputs": [
        {
          "internalType": "uint256",
          "name": "expirationTimeout",
          "type": "uint256"
        }
      ],
      "name": "setGISTRootExpirationTimeout",
      "outputs": [],
      "stateMutability": "nonpayable",
      "type": "function"
    },
    {
      "inputs": [
        {
          "internalType": "uint256",
          "name": "expirationTimeout",
          "type": "uint256"
        }
      ],
      "name": "setProofExpirationTimeout",
      "outputs": [],
      "stateMutability": "nonpayable",
      "type": "function"
    },
    {
      "inputs": [
        {
          "internalType": "uint256",
          "name": "expirationTimeout",
          "type": "uint256"
        }
      ],
      "name": "setRevocationStateExpirationTimeout",
      "outputs": [],
      "stateMutability": "nonpayable",
      "type": "function"
    },
    {
      "inputs": [
        {
          "internalType": "address",
          "name": "stateContractAddr",
          "type": "address"
        }
      ],
      "name": "setStateAddress",
      "outputs": [],
      "stateMutability": "nonpayable",
      "type": "function"
    },
    {
      "inputs": [],
      "name": "state",
      "outputs": [
        {
          "internalType": "contract IState",
          "name": "",
          "type": "address"
        }
      ],
      "stateMutability": "view",
      "type": "function"
    },
    {
      "inputs": [
        {
          "internalType": "address",
          "name": "newOwner",
          "type": "address"
        }
      ],
      "name": "transferOwnership",
      "outputs": [],
      "stateMutability": "nonpayable",
      "type": "function"
    },
    {
      "inputs": [
        {
          "internalType": "uint256[]",
          "name": "inputs",
          "type": "uint256[]"
        },
        {
          "internalType": "uint256[2]",
          "name": "a",
          "type": "uint256[2]"
        },
        {
          "internalType": "uint256[2][2]",
          "name": "b",
          "type": "uint256[2][2]"
        },
        {
          "internalType": "uint256[2]",
          "name": "c",
          "type": "uint256[2]"
        },
        {
          "internalType": "bytes",
          "name": "data",
          "type": "bytes"
        }
      ],
      "name": "verify",
      "outputs": [],
      "stateMutability": "view",
      "type": "function"
    }
  ],
  "transactionHash": "0x2b65bc76b55fcd258d8aae107b6b74573cc93addaae8540a4f9e923fbffc3b29",
  "args": [],
  "numDeployments": 1,
  "solcInputHash": "8b4b580e2fa4b1a7d5ea5c701fbe60fd",
  "bytecode": "0x6080806040523461001657612055908161001c8239f35b600080fdfe60806040526004361015610013575b600080fd5b60003560e01c80631134b480146101675780631af6d99b1461015e5780631c4c7fd814610155578063485cc9551461014c57806348d36920146101435780635307e79f1461013a578063652377dc14610131578063715018a6146101285780638da5cb5b1461011f5780638eff038a146101165780639a8a5b171461010d578063b16a394f14610104578063c19d93fb146100fb578063cb5aa558146100f2578063f2fde38b146100e9578063fb5af2a2146100e05763ffa1ad74146100d857600080fd5b61000e6109cf565b5061000e6108be565b5061000e610786565b5061000e6106d8565b5061000e6106ad565b5061000e61061c565b5061000e6104d9565b5061000e6104b9565b5061000e61048f565b5061000e61042a565b5061000e610407565b5061000e61037b565b5061000e61030d565b5061000e61021a565b5061000e6101d6565b5061000e61018a565b503461000e57602036600319011261000e57610181610a16565b60043561025e55005b503461000e57600036600319011261000e57602061025d54604051908152f35b600435906001600160a01b038216820361000e57565b602435906001600160a01b038216820361000e57565b503461000e57602036600319011261000e576101f06101aa565b6101f8610a16565b61025b80546001600160a01b0319166001600160a01b03909216919091179055005b503461000e57604036600319011261000e576102346101aa565b61028061023f6101c0565b6000549261026460ff8560081c1615809581966102ff575b81156102df575b50610abe565b83610277600160ff196000541617600055565b6102c657610ff8565b610287575b005b61029761ff001960005416600055565b604051600181527f7f26b83ff96e1f2b6a682f133852f6798a09c465da95921460cefb384740249890602090a1005b6102da61010061ff00196000541617600055565b610ff8565b303b159150816102f1575b503861025e565b6001915060ff1614386102ea565b600160ff8216109150610257565b503461000e57602036600319011261000e57610327610a16565b60043561025d55005b9181601f8401121561000e578235916001600160401b03831161000e576020808501948460051b01011161000e57565b9060249160641161000e57565b9060e4916101241161000e57565b503461000e5761014036600319011261000e576001600160401b0360043581811161000e576103ae903690600401610330565b91906103b936610360565b3660e41161000e576103ca3661036d565b90610124359484861161000e573660238701121561000e57856004013594851161000e57366024868801011161000e576024610285960193611793565b503461000e57602036600319011261000e57610421610a16565b60043561025c55005b503461000e5760008060031936011261048c57610445610a16565b603380546001600160a01b031981169091556040519082906001600160a01b03167f8be0079c531659141344cd1fd0a4f28419497f9722a3daafe3b4186f6b6457e08284a3f35b80fd5b503461000e57600036600319011261000e576033546040516001600160a01b039091168152602090f35b503461000e57600036600319011261000e57602061025c54604051908152f35b503461000e57600036600319011261000e57602061025e54604051908152f35b50634e487b7160e01b600052604160045260246000fd5b604081019081106001600160401b0382111761052b57604052565b6105336104f9565b604052565b90601f801991011681019081106001600160401b0382111761052b57604052565b6040519061016082018281106001600160401b0382111761052b57604052565b6040519061014082018281106001600160401b0382111761052b57604052565b60405190602082018281106001600160401b0382111761052b57604052565b81601f8201121561000e578035906001600160401b03821161060f575b604051926105ed601f8401601f191660200185610538565b8284526020838301011161000e57816000926020809301838601378301015290565b6106176104f9565b6105d5565b503461000e57602036600319011261000e576004356001600160401b03811161000e576106506106559136906004016105b8565b610faa565b54801561067157604051600019919091018152602090f35b0390f35b60405162461bcd60e51b8152602060048201526014602482015273125b9c1d5d081b985b59481b9bdd08199bdd5b9960621b6044820152606490fd5b503461000e57600036600319011261000e5761025b546040516001600160a01b039091168152602090f35b503461000e57602036600319011261000e576004356001600160401b03811161000e5761071561070f610160923690600401610330565b9061127d565b60405190805182526020810151602083015260408101516040830152606081015160608301526080810151608083015260a081015160a083015260c081015160c083015260e081015160e0830152610100808201519083015261012080820151908301526101408091015190820152f35b503461000e57602036600319011261000e576107a06101aa565b6107a8610a16565b6001600160a01b038116156107c05761028590610a6e565b60405162461bcd60e51b815260206004820152602660248201527f4f776e61626c653a206e6577206f776e657220697320746865207a65726f206160448201526564647265737360d01b6064820152608490fd5b60005b8381106108275750506000910152565b8181015183820152602001610817565b9060209161085081518092818552858086019101610814565b601f01601f1916010190565b602080820190808352835180925260408301928160408460051b8301019501936000915b8483106108905750505050505090565b90919293949584806108ae600193603f198682030187528a51610837565b9801930193019194939290610880565b503461000e5760008060031936011261048c5761025a908154906108e18261140b565b916040916108f183519485610538565b8184529384527fce0236a5efe714299a42f6f2c9cfc717a528be41a4d75e4891e940c13ffa4685938060208086015b8483106109345785518061066d898261085c565b85518285928a549261094584610d08565b8082526001948086169081156109b3575060011461097b575b5061096d816001960382610538565b815201980192019196610920565b8c8952838920955088905b80821061099c575081018301945061096d61095e565b865483830186015295850195879490910190610986565b60ff19168584015250151560051b81018301945061096d61095e565b503461000e57600036600319011261000e5761066d6040516109f081610510565b6005815264312e302e3160d81b6020820152604051918291602083526020830190610837565b6033546001600160a01b03163303610a2a57565b606460405162461bcd60e51b815260206004820152602060248201527f4f776e61626c653a2063616c6c6572206973206e6f7420746865206f776e65726044820152fd5b6033549060018060a01b0380911691826bffffffffffffffffffffffff60a01b821617603355167f8be0079c531659141344cd1fd0a4f28419497f9722a3daafe3b4186f6b6457e06000604051a3565b15610ac557565b60405162461bcd60e51b815260206004820152602e60248201527f496e697469616c697a61626c653a20636f6e747261637420697320616c72656160448201526d191e481a5b9a5d1a585b1a5e995960921b6064820152608490fd5b60405190610b2e82610510565b601082526f0c6d2e4c6ead2e8a2eacae4f290c2e6d60831b6020830152565b60405190610b5a82610510565b600f82526e69737375657241757468537461746560881b6020830152565b60405190610b8582610510565b60098252681c995c5d595cdd125160ba1b6020830152565b60405190610baa82610510565b60098252686368616c6c656e676560b81b6020830152565b60405190610bcf82610510565b600882526719da5cdd149bdbdd60c21b6020830152565b60405190610bf382610510565b60088252671a5cdcdd595c925160c21b6020830152565b60405190610c1782610510565b60138252721a5cd4995d9bd8d85d1a5bdb90da1958dad959606a1b6020830152565b60405190610c4682610510565b6016825275697373756572436c61696d4e6f6e526576537461746560501b6020830152565b60405190610c7882610510565b6009825268074696d657374616d760bc1b6020830152565b60405190606082018281106001600160401b03821117610ce4575b60405260218252603760f91b6040837f63726564656e7469616c41746f6d6963517565727953696756324f6e4368616960208201520152565b610cec6104f9565b610cab565b50634e487b7160e01b600052601160045260246000fd5b90600182811c92168015610d38575b6020831014610d2257565b634e487b7160e01b600052602260045260246000fd5b91607f1691610d17565b818110610d4d575050565b60008155600101610d42565b9190601f8111610d6857505050565b610d94926000526020600020906020601f840160051c83019310610d96575b601f0160051c0190610d42565b565b9091508190610d87565b91909182516001600160401b038111610e6f575b610dc881610dc28454610d08565b84610d59565b602080601f8311600114610e04575081929394600092610df9575b50508160011b916000199060031b1c1916179055565b015190503880610de3565b90601f19831695610e1a85600052602060002090565b926000905b888210610e5757505083600195969710610e3e575b505050811b019055565b015160001960f88460031b161c19169055388080610e34565b80600185968294968601518155019501930190610e1f565b610e776104f9565b610db4565b9061025a91825492600193848255808510610eea575b505061025a6000527fce0236a5efe714299a42f6f2c9cfc717a528be41a4d75e4891e940c13ffa4685906000905b848210610ece575050509050565b84602082610ede83945187610da0565b01930191019091610ec0565b60009182527fce0236a5efe714299a42f6f2c9cfc717a528be41a4d75e4891e940c13ffa46850190847fce0236a5efe714299a42f6f2c9cfc717a528be41a4d75e4891e940c13ffa46865b838110610f43575050610e92565b610f4d8154610d08565b80610f5c575b50018590610f35565b601f9083828211600114610f77575050508281555b38610f53565b610f9892610f8a85600052602060002090565b920160051c82019101610d42565b60008181526020812081835555610f71565b6020610fc3918160405193828580945193849201610814565b810161025f81520301902090565b6020610fea918160405193828580945193849201610814565b810161025981520301902090565b90611136610d9492600161102c60405161101181610510565b60098152681b595c9adb1a5e995960ba1b6020820152610faa565b5561105460405161103c81610510565b60068152651d5cd95c925160d21b6020820152611edf565b61106461105f610b21565b611eed565b61107461106f610b4d565b611ef8565b61108461107f610b78565b611f03565b61109461108f610b9d565b611f0e565b6110a461109f610bc2565b611f19565b6110b46110af610be6565b611f24565b6110c46110bf610c0a565b611f2f565b6110d46110cf610c39565b611f3a565b6110e46110df610c6b565b611f45565b6110fe6110ef610599565b6110f7610c90565b8152610e7c565b6001600160a01b0316611117611112610c90565b610fd1565b80546001600160a01b0319166001600160a01b03909216919091179055565b6113aa565b6040519061016082018281106001600160401b038211176111a0575b604052816101406000918281528260208201528260408201528260608201528260808201528260a08201528260c08201528260e082015282610100820152826101208201520152565b6111a86104f9565b611157565b50634e487b7160e01b600052603260045260246000fd5b90156111cd5790565b6111d56111ad565b90565b602091600110156111e7570190565b6111ef6111ad565b0190565b604091600210156111e7570190565b606091600310156111e7570190565b608091600410156111e7570190565b60a091600510156111e7570190565b60c091600610156111e7570190565b60e091600710156111e7570190565b61010091600810156111e7570190565b61012091600910156111e7570190565b61014091600a10156111e7570190565b9061128661113b565b5061129181836111c4565b359161129d82826111d8565b35916112a981836111f3565b356112b48284611202565b35906112c08385611211565b356112cb8486611220565b35906112d7858761122f565b35926112e3868861123e565b35946113056112f2888a61124d565b35976112fe818b61125d565b359961126d565b359861130f610559565b9a8b5260208b015260408a01526060890152608088015260a087015260c086015260e085015261010084015261012083015261014082015290565b1561135157565b60405162461bcd60e51b815260206004820152602b60248201527f496e697469616c697a61626c653a20636f6e7472616374206973206e6f74206960448201526a6e697469616c697a696e6760a81b6064820152608490fd5b6114029060ff60005460081c16906113c18261134a565b610e108061025c558061025d5561025e5561025b9060018060a01b03166bffffffffffffffffffffffff60a01b8254161790556113fd8161134a565b61134a565b610d9433610a6e565b6020906001600160401b038111611424575b60051b0190565b61142c6104f9565b61141d565b81601f8201121561000e578035916114488361140b565b926114566040519485610538565b808452602092838086019260051b82010192831161000e578301905b828210611480575050505090565b81358152908301908301611472565b9080601f8301121561000e578135906114a78261140b565b926114b56040519485610538565b828452602092838086019160051b8301019280841161000e57848301915b8483106114e35750505050505090565b82356001600160401b03811161000e578691611504848480948901016105b8565b8152019201916114d3565b8015150361000e57565b3590610d948261150f565b60208183031261000e5780356001600160401b039182821161000e5701906101408284031261000e57611555610579565b9282358452602083013560208501526040830135604085015260608301356060850152608083013582811161000e5781611590918501611431565b608085015260a083013560a085015260c083013582811161000e57816115b7918501611431565b60c085015260e083013591821161000e576115d391830161148f565b60e08301526101006115e6818301611519565b90830152610120809101359082015290565b6020908051156111e7570190565b602091815181101561161b575b60051b010190565b6116236111ad565b611613565b1561162f57565b60405162461bcd60e51b8152602060048201526012602482015271125b9d985b1a590818da5c98dd5a5d08125160721b6044820152606490fd5b9081602091031261000e57516111d58161150f565b929391604080928537606460008584015b84600283106116d1575050505060c0840137610120610100830181905282018190526001600160fb1b03811161000e5760051b90816101409384830137010190565b80828186600195370193019101909161168f565b506040513d6000823e3d90fd5b156116f957565b60405162461bcd60e51b8152602060048201526012602482015271141c9bdbd9881a5cc81b9bdd081d985b1a5960721b6044820152606490fd5b1561173a57565b60405162461bcd60e51b815260206004820152602b60248201527f5175657279206861736820646f6573206e6f74206d617463682074686520726560448201526a71756573746564206f6e6560a81b6064820152608490fd5b61183182602083611836966117b16040999a610d949c810190611524565b9960e08b019160016117dc6117cf6117c986516115f8565b51610fd1565b546001600160a01b031690565b93515114806118b4575b6117ef90611628565b61180e8b5196879586948594630984a41f60e21b86526004860161167e565b03916001600160a01b03165afa9081156118a7575b600091611879575b506116f2565b61127d565b9161184a606084015160a083015114611733565b61185a8351602083015190611e7b565b61186f60e084019160c0835191015190611de9565b5191015190611998565b61189a915060203d81116118a0575b6118928183610538565b810190611669565b3861182b565b503d611888565b6118af6116e5565b611823565b506001600160a01b03831615156117e6565b908160e091031261000e5760c06040519160e083018381106001600160401b03821117611931575b604052805183526020810151602084015260408101516040840152606081015160608401526080810151608084015260a081015160a0840152015160c082015290565b6119396104f9565b6118ee565b1561194557565b60405162461bcd60e51b815260206004820152602560248201527f537461746520646f65736e277420657869737420696e20737461746520636f6e6044820152641d1c9858dd60da1b6064820152608490fd5b6119db6119d5836119b06119ab85611cd6565b611cbd565b602081519101519061ffff60f01b918281169160028110611a70575b50509050611b26565b82141590565b6119e3575050565b61025b546040516329e4398960e11b8152600481018390526024810193909352610d94929060e090829060449082906001600160a01b03165afa908115611a63575b600091611a35575b50511461193e565b611a56915060e03d8111611a5c575b611a4e8183610538565b8101906118c6565b38611a2d565b503d611a44565b611a6b6116e5565b611a25565b8391925060020360031b1b16168038806119cc565b15611a8c57565b60405162461bcd60e51b815260206004820152602160248201527f436865636b73756d207265717569726573203239206c656e67746820617272616044820152607960f81b6064820152608490fd5b15611ae257565b606460405162461bcd60e51b815260206004820152602060248201527f69644279746573207265717569726573203331206c656e6774682061727261796044820152fd5b906119ab611b3391611cd6565b908151611b58601a198201828111611c3f575b611b51855191611fc9565b1115611fdf565b60405192601b84019101603684015b808310611c2c575050611c0c601f611bbd611bc286611bb1611bbd602098611c1898601b6111d59c5287199788910116928391826040528b830160029161ffff60f01b1681520190565b03868101835282610538565b611f50565b91611bd0601d845114611a85565b611bef611bdc84611c64565b60ff61ff008260081b169160081c161790565b60405194859188830160029161ffff60f01b9060f01b1681520190565b03908101845283610538565b611c25601f825114611adb565b0151611cd6565b9091825181526020809101920190611b67565b611c47610cf1565b611b46565b6001906000198114611c5c570190565b6111ef610cf1565b90600091611c75601d825114611a85565b6000925b8151841015611cb857611ca5906020858401015160f81c61ffff80921601908111611cab575b93611c4c565b92611c79565b611cb3610cf1565b611c9f565b925050565b9060405191611ccb83610510565b602083526020830152565b8060081c9060081b907eff000000ff000000ff000000ff000000ff000000ff000000ff000000ff00007fff000000ff000000ff000000ff000000ff000000ff000000ff000000ff0000007dff000000ff000000ff000000ff000000ff000000ff000000ff000000ff0084167cff000000ff000000ff000000ff000000ff000000ff000000ff000000ff84161760101b931691161760101c177bffffffff00000000ffffffff00000000ffffffff00000000ffffffff7fffffffff00000000ffffffff00000000ffffffff00000000ffffffff000000008260201b169160201c161777ffffffffffffffff0000000000000000ffffffffffffffff80198260401b169160401c16178060801b9060801c1790565b815115611e775760005b8251811015611e2057611e068184611606565b518214611e1b57611e1690611c4c565b611df3565b505050565b60405162461bcd60e51b815260206004820152602960248201527f497373756572206973206e6f74206f6e2074686520416c6c6f776564204973736044820152681d595c9cc81b1a5cdd60ba1b6064820152608490fd5b5050565b9060009015611ed7575060ff60015b1603611e9257565b60405162461bcd60e51b815260206004820152601e60248201527f4d65726b6c697a65642076616c7565206973206e6f7420636f727265637400006044820152606490fd5b60ff90611e8a565b611eea600291610faa565b55565b611eea600391610faa565b611eea600491610faa565b611eea600591610faa565b611eea600691610faa565b611eea600791610faa565b611eea600891610faa565b611eea600991610faa565b611eea600a91610faa565b611eea600b91610faa565b6040519181518084526020808501918501928184019282808701915b858110611fb95750505080518093875182018852940193828086019201905b828110611faa575050505090603f91601f199351011501011660405290565b81518152908301908301611f8b565b8251815291810191849101611f6c565b90601b8201809211611fd757565b610d94610cf1565b15611fe657565b60405162461bcd60e51b8152602060048201526011602482015270736c6963655f6f75744f66426f756e647360781b6044820152606490fdfea2646970667358221220b27e795aef88a757703cf933be1e675fff9566136ec915bdb38ab1f9135cb70164736f6c63430008100033",
  "devdoc": {
    "kind": "dev",
    "methods": {
      "owner()": {
        "details": "Returns the address of the current owner."
      },
      "renounceOwnership()": {
        "details": "Leaves the contract without owner. It will not be possible to call `onlyOwner` functions. Can only be called by the current owner. NOTE: Renouncing ownership will leave the contract without an owner, thereby disabling any functionality that is only available to the owner."
      },
      "transferOwnership(address)": {
        "details": "Transfers ownership of the contract to a new account (`newOwner`). Can only be called by the current owner."
      }
    },
    "stateVariables": {
      "VERSION": {
        "details": "Version of contract"
      }
    },
    "version": 1
  },
  "userdoc": {
    "kind": "user",
    "methods": {},
    "version": 1
  },
  "storageLayout": {
    "storage": [
      {
        "astId": 1168,
        "contract": "contracts/validators/CredentialAtomicQuerySigValidator.sol:CredentialAtomicQuerySigValidator",
        "label": "_initialized",
        "offset": 0,
        "slot": "0",
        "type": "t_uint8"
      },
      {
        "astId": 1171,
        "contract": "contracts/validators/CredentialAtomicQuerySigValidator.sol:CredentialAtomicQuerySigValidator",
        "label": "_initializing",
        "offset": 1,
        "slot": "0",
        "type": "t_bool"
      },
      {
        "astId": 1710,
        "contract": "contracts/validators/CredentialAtomicQuerySigValidator.sol:CredentialAtomicQuerySigValidator",
        "label": "__gap",
        "offset": 0,
        "slot": "1",
        "type": "t_array(t_uint256)50_storage"
      },
      {
        "astId": 1040,
        "contract": "contracts/validators/CredentialAtomicQuerySigValidator.sol:CredentialAtomicQuerySigValidator",
        "label": "_owner",
        "offset": 0,
        "slot": "51",
        "type": "t_address"
      },
      {
        "astId": 1160,
        "contract": "contracts/validators/CredentialAtomicQuerySigValidator.sol:CredentialAtomicQuerySigValidator",
        "label": "__gap",
        "offset": 0,
        "slot": "52",
        "type": "t_array(t_uint256)49_storage"
      },
      {
        "astId": 2166,
        "contract": "contracts/validators/CredentialAtomicQuerySigValidator.sol:CredentialAtomicQuerySigValidator",
        "label": "__gap_before_base",
        "offset": 0,
        "slot": "101",
        "type": "t_array(t_uint256)500_storage"
      },
      {
        "astId": 2171,
        "contract": "contracts/validators/CredentialAtomicQuerySigValidator.sol:CredentialAtomicQuerySigValidator",
        "label": "_circuitIdToVerifier",
        "offset": 0,
        "slot": "601",
        "type": "t_mapping(t_string_memory_ptr,t_contract(IVerifier)210)"
      },
      {
        "astId": 2174,
        "contract": "contracts/validators/CredentialAtomicQuerySigValidator.sol:CredentialAtomicQuerySigValidator",
        "label": "_supportedCircuitIds",
        "offset": 0,
        "slot": "602",
        "type": "t_array(t_string_storage)dyn_storage"
      },
      {
        "astId": 2177,
        "contract": "contracts/validators/CredentialAtomicQuerySigValidator.sol:CredentialAtomicQuerySigValidator",
        "label": "state",
        "offset": 0,
        "slot": "603",
        "type": "t_contract(IState)185"
      },
      {
        "astId": 2179,
        "contract": "contracts/validators/CredentialAtomicQuerySigValidator.sol:CredentialAtomicQuerySigValidator",
        "label": "revocationStateExpirationTimeout",
        "offset": 0,
        "slot": "604",
        "type": "t_uint256"
      },
      {
        "astId": 2181,
        "contract": "contracts/validators/CredentialAtomicQuerySigValidator.sol:CredentialAtomicQuerySigValidator",
        "label": "proofExpirationTimeout",
        "offset": 0,
        "slot": "605",
        "type": "t_uint256"
      },
      {
        "astId": 2183,
        "contract": "contracts/validators/CredentialAtomicQuerySigValidator.sol:CredentialAtomicQuerySigValidator",
        "label": "gistRootExpirationTimeout",
        "offset": 0,
        "slot": "606",
        "type": "t_uint256"
      },
      {
        "astId": 2187,
        "contract": "contracts/validators/CredentialAtomicQuerySigValidator.sol:CredentialAtomicQuerySigValidator",
        "label": "_inputNameToIndex",
        "offset": 0,
        "slot": "607",
        "type": "t_mapping(t_string_memory_ptr,t_uint256)"
      },
      {
        "astId": 2191,
        "contract": "contracts/validators/CredentialAtomicQuerySigValidator.sol:CredentialAtomicQuerySigValidator",
        "label": "__gap_after_base",
        "offset": 0,
        "slot": "608",
        "type": "t_array(t_uint256)43_storage"
      },
      {
        "astId": 1923,
        "contract": "contracts/validators/CredentialAtomicQuerySigValidator.sol:CredentialAtomicQuerySigValidator",
        "label": "__gap_before",
        "offset": 0,
        "slot": "651",
        "type": "t_array(t_uint256)500_storage"
      },
      {
        "astId": 1927,
        "contract": "contracts/validators/CredentialAtomicQuerySigValidator.sol:CredentialAtomicQuerySigValidator",
        "label": "__gap_after",
        "offset": 0,
        "slot": "1151",
        "type": "t_array(t_uint256)50_storage"
      }
    ],
    "types": {
      "t_address": {
        "encoding": "inplace",
        "label": "address",
        "numberOfBytes": "20"
      },
      "t_array(t_string_storage)dyn_storage": {
        "base": "t_string_storage",
        "encoding": "dynamic_array",
        "label": "string[]",
        "numberOfBytes": "32"
      },
      "t_array(t_uint256)43_storage": {
        "base": "t_uint256",
        "encoding": "inplace",
        "label": "uint256[43]",
        "numberOfBytes": "1376"
      },
      "t_array(t_uint256)49_storage": {
        "base": "t_uint256",
        "encoding": "inplace",
        "label": "uint256[49]",
        "numberOfBytes": "1568"
      },
      "t_array(t_uint256)500_storage": {
        "base": "t_uint256",
        "encoding": "inplace",
        "label": "uint256[500]",
        "numberOfBytes": "16000"
      },
      "t_array(t_uint256)50_storage": {
        "base": "t_uint256",
        "encoding": "inplace",
        "label": "uint256[50]",
        "numberOfBytes": "1600"
      },
      "t_bool": {
        "encoding": "inplace",
        "label": "bool",
        "numberOfBytes": "1"
      },
      "t_contract(IState)185": {
        "encoding": "inplace",
        "label": "contract IState",
        "numberOfBytes": "20"
      },
      "t_contract(IVerifier)210": {
        "encoding": "inplace",
        "label": "contract IVerifier",
        "numberOfBytes": "20"
      },
      "t_mapping(t_string_memory_ptr,t_contract(IVerifier)210)": {
        "encoding": "mapping",
        "key": "t_string_memory_ptr",
        "label": "mapping(string => contract IVerifier)",
        "numberOfBytes": "32",
        "value": "t_contract(IVerifier)210"
      },
      "t_mapping(t_string_memory_ptr,t_uint256)": {
        "encoding": "mapping",
        "key": "t_string_memory_ptr",
        "label": "mapping(string => uint256)",
        "numberOfBytes": "32",
        "value": "t_uint256"
      },
      "t_string_memory_ptr": {
        "encoding": "bytes",
        "label": "string",
        "numberOfBytes": "32"
      },
      "t_string_storage": {
        "encoding": "bytes",
        "label": "string",
        "numberOfBytes": "32"
      },
      "t_uint256": {
        "encoding": "inplace",
        "label": "uint256",
        "numberOfBytes": "32"
      },
      "t_uint8": {
        "encoding": "inplace",
        "label": "uint8",
        "numberOfBytes": "1"
      }
    }
  }
}