{
  "address": "0x932Aa376D8CF6076F48540B05BE4E579A7b74f8c",
  "abi": [
    {
      "inputs": [],
      "stateMutability": "nonpayable",
      "type": "constructor"
    },
    {
      "anonymous": false,
      "inputs": [
        {
          "indexed": true,
          "internalType": "address",
          "name": "owner",
          "type": "address"
        },
        {
          "indexed": true,
          "internalType": "address",
          "name": "approved",
          "type": "address"
        },
        {
          "indexed": true,
          "internalType": "uint256",
          "name": "tokenId",
          "type": "uint256"
        }
      ],
      "name": "Approval",
      "type": "event"
    },
    {
      "anonymous": false,
      "inputs": [
        {
          "indexed": true,
          "internalType": "address",
          "name": "owner",
          "type": "address"
        },
        {
          "indexed": true,
          "internalType": "address",
          "name": "operator",
          "type": "address"
        },
        {
          "indexed": false,
          "internalType": "bool",
          "name": "approved",
          "type": "bool"
        }
      ],
      "name": "ApprovalForAll",
      "type": "event"
    },
    {
      "anonymous": false,
      "inputs": [
        {
          "indexed": true,
          "internalType": "address",
          "name": "from",
          "type": "address"
        },
        {
          "indexed": true,
          "internalType": "address",
          "name": "to",
          "type": "address"
        },
        {
          "indexed": true,
          "internalType": "uint256",
          "name": "tokenId",
          "type": "uint256"
        }
      ],
      "name": "Transfer",
      "type": "event"
    },
    {
      "inputs": [
        {
          "internalType": "address",
          "name": "to",
          "type": "address"
        },
        {
          "internalType": "uint256",
          "name": "tokenId",
          "type": "uint256"
        }
      ],
      "name": "approve",
      "outputs": [],
      "stateMutability": "nonpayable",
      "type": "function"
    },
    {
      "inputs": [
        {
          "internalType": "address",
          "name": "owner",
          "type": "address"
        }
      ],
      "name": "balanceOf",
      "outputs": [
        {
          "internalType": "uint256",
          "name": "",
          "type": "uint256"
        }
      ],
      "stateMutability": "view",
      "type": "function"
    },
    {
      "inputs": [
        {
          "internalType": "uint256",
          "name": "tokenId",
          "type": "uint256"
        }
      ],
      "name": "getApproved",
      "outputs": [
        {
          "internalType": "address",
          "name": "",
          "type": "address"
        }
      ],
      "stateMutability": "view",
      "type": "function"
    },
    {
      "inputs": [],
      "name": "getLastTokenId",
      "outputs": [
        {
          "internalType": "uint256",
          "name": "",
          "type": "uint256"
        }
      ],
      "stateMutability": "view",
      "type": "function"
    },
    {
      "inputs": [
        {
          "internalType": "address",
          "name": "owner",
          "type": "address"
        },
        {
          "internalType": "address",
          "name": "operator",
          "type": "address"
        }
      ],
      "name": "isApprovedForAll",
      "outputs": [
        {
          "internalType": "bool",
          "name": "",
          "type": "bool"
        }
      ],
      "stateMutability": "view",
      "type": "function"
    },
    {
      "inputs": [
        {
          "internalType": "address",
          "name": "recipient",
          "type": "address"
        }
      ],
      "name": "mintNFT",
      "outputs": [
        {
          "internalType": "uint256",
          "name": "",
          "type": "uint256"
        }
      ],
      "stateMutability": "nonpayable",
      "type": "function"
    },
    {
      "inputs": [],
      "name": "name",
      "outputs": [
        {
          "internalType": "string",
          "name": "",
          "type": "string"
        }
      ],
      "stateMutability": "view",
      "type": "function"
    },
    {
      "inputs": [
        {
          "internalType": "uint256",
          "name": "tokenId",
          "type": "uint256"
        }
      ],
      "name": "ownerOf",
      "outputs": [
        {
          "internalType": "address",
          "name": "",
          "type": "address"
        }
      ],
      "stateMutability": "view",
      "type": "function"
    },
    {
      "inputs": [
        {
          "internalType": "address",
          "name": "from",
          "type": "address"
        },
        {
          "internalType": "address",
          "name": "to",
          "type": "address"
        },
        {
          "internalType": "uint256",
          "name": "tokenId",
          "type": "uint256"
        }
      ],
      "name": "safeTransferFrom",
      "outputs": [],
      "stateMutability": "nonpayable",
      "type": "function"
    },
    {
      "inputs": [
        {
          "internalType": "address",
          "name": "from",
          "type": "address"
        },
        {
          "internalType": "address",
          "name": "to",
          "type": "address"
        },
        {
          "internalType": "uint256",
          "name": "tokenId",
          "type": "uint256"
        },
        {
          "internalType": "bytes",
          "name": "data",
          "type": "bytes"
        }
      ],
      "name": "safeTransferFrom",
      "outputs": [],
      "stateMutability": "nonpayable",
      "type": "function"
    },
    {
      "inputs": [
        {
          "internalType": "address",
          "name": "operator",
          "type": "address"
        },
        {
          "internalType": "bool",
          "name": "approved",
          "type": "bool"
        }
      ],
      "name": "setApprovalForAll",
      "outputs": [],
      "stateMutability": "nonpayable",
      "type": "function"
    },
    {
      "inputs": [
        {
          "internalType": "bytes4",
          "name": "interfaceId",
          "type": "bytes4"
        }
      ],
      "name": "supportsInterface",
      "outputs": [
        {
          "internalType": "bool",
          "name": "",
          "type": "bool"
        }
      ],
      "stateMutability": "view",
      "type": "function"
    },
    {
      "inputs": [],
      "name": "symbol",
      "outputs": [
        {
          "internalType": "string",
          "name": "",
          "type": "string"
        }
      ],
      "stateMutability": "view",
      "type": "function"
    },
    {
      "inputs": [
        {
          "internalType": "uint256",
          "name": "tokenId",
          "type": "uint256"
        }
      ],
      "name": "tokenURI",
      "outputs": [
        {
          "internalType": "string",
          "name": "",
          "type": "string"
        }
      ],
      "stateMutability": "view",
      "type": "function"
    },
    {
      "inputs": [
        {
          "internalType": "address",
          "name": "from",
          "type": "address"
        },
        {
          "internalType": "address",
          "name": "to",
          "type": "address"
        },
        {
          "internalType": "uint256",
          "name": "tokenId",
          "type": "uint256"
        }
      ],
      "name": "transferFrom",
      "outputs": [],
      "stateMutability": "nonpayable",
      "type": "function"
    }
  ],
  "transactionHash": "0x51362c0e6eae8651f8f6095e9676e20025c623ab8286b58b2eadffe09f0aba6c",
  "args": [],
  "numDeployments": 1,
  "solcInputHash": "e301bcefdbc43e1927160df19f356733",
  "bytecode": "0x60803462000316576001600160401b03906040908082018381118282101762000300578252601281526020927126bca2bc30b6b83632a7232a26b4b73a32b960711b848301528251838101818110838211176200030057845260048152631153919560e21b85820152825190828211620003005760008054926001958685811c95168015620002f5575b89861014620002e1578190601f958681116200028e575b5089908683116001146200022a5784926200021e575b5050600019600383901b1c191690861b1781555b81519384116200020a5784548581811c91168015620001ff575b88821014620001eb57838111620001a3575b50869284116001146200013d5783949596509262000131575b5050600019600383901b1c191690821b1790555b51610fa890816200031c8239f35b0151905038806200010f565b9190601f1984169685845280842093905b8882106200018b575050838596971062000171575b505050811b01905562000123565b015160001960f88460031b161c1916905538808062000163565b8087859682949686015181550195019301906200014e565b8582528782208480870160051c8201928a8810620001e1575b0160051c019086905b828110620001d5575050620000f6565b838155018690620001c5565b92508192620001bc565b634e487b7160e01b82526022600452602482fd5b90607f1690620000e4565b634e487b7160e01b81526041600452602490fd5b015190503880620000b6565b8480528a85208994509190601f198416865b8d8282106200027757505084116200025d575b505050811b018155620000ca565b015160001960f88460031b161c191690553880806200024f565b8385015186558c979095019493840193016200023c565b9091508380528984208680850160051c8201928c8610620002d7575b918a91869594930160051c01915b828110620002c8575050620000a0565b8681558594508a9101620002b8565b92508192620002aa565b634e487b7160e01b83526022600452602483fd5b94607f169462000089565b634e487b7160e01b600052604160045260246000fd5b600080fdfe608060408181526004918236101561001657600080fd5b600092833560e01c91826301ffc9a7146108f75750816306fdde031461082c578163081812fc1461080c578163095ea7b31461069d57816323b872dd1461067257816342842e0e1461062357816354ba0f27146104ec5781636352211e146104bb57816370a082311461042557816383c4c00d1461040657816395d89b41146102ed578163a22cb4651461021d578163b88d4fde14610189578163c87b56dd1461011a575063e985e9c5146100ca57600080fd5b3461011657806003193601126101165760ff816020936100e86109a2565b6100f06109bd565b6001600160a01b0391821683526005875283832091168252855220549151911615158152f35b5080fd5b838334610116576020366003190112610116576101586101536101859435600052600260205260018060a01b0360406000205416151590565b610a78565b81815161016481610a08565b5280519161017183610a08565b825251918291602083526020830190610962565b0390f35b905034610219576080366003190112610219576101a46109a2565b906101ad6109bd565b916064359167ffffffffffffffff831161021557366023840112156102155782013592856101da85610a5c565b936101e787519586610a3a565b8585523660248783010111610116578561021296602460209301838801378501015260443591610b8a565b51f35b8580fd5b8280fd5b9050346102195781600319360112610219576102376109a2565b602435908115158092036102e9576001600160a01b0316913383146102a65750338452600560205282842082855260205282842060ff1981541660ff831617905582519081527f17307eab39ab6107e8899845ad3d59bd9653f200f220920489ca2b5937696c3160203392a351f35b606490602085519162461bcd60e51b8352820152601960248201527f4552433732313a20617070726f766520746f2063616c6c6572000000000000006044820152fd5b8480fd5b8284346104035780600319360112610403578151918160019283549384811c918186169586156103f9575b60209687851081146103e6578899509688969785829a5291826000146103bf575050600114610364575b5050506101859291610355910385610a3a565b51928284938452830190610962565b91908693508083527fb10e2d527612073b26eecdfd717e6a320cf44b4afac2b0732d9fcbe2b7fa0cf65b8284106103a75750505082010181610355610185610342565b8054848a01860152889550879490930192810161038e565b60ff19168782015293151560051b8601909301935084925061035591506101859050610342565b634e487b7160e01b835260228a52602483fd5b92607f1692610318565b80fd5b5050346101165781600319360112610116576020906006549051908152f35b83915034610116576020366003190112610116576001600160a01b036104496109a2565b169081156104665760208480858581526003845220549051908152f35b608490602085519162461bcd60e51b8352820152602960248201527f4552433732313a2061646472657373207a65726f206973206e6f7420612076616044820152683634b21037bbb732b960b91b6064820152fd5b82843461040357602036600319011261040357506104db60209235610ac4565b90516001600160a01b039091168152f35b8383346101165760209283600319360112610219576105096109a2565b9160065492600184018094116106105760068490556001600160a01b03169182156105d0575060008381526002602052604090205483929190610558906001600160a01b031615155b15610f26565b60008381526002602052604090205461057b906001600160a01b03161515610552565b81855260038652808520805460010190558285526002865280852080546001600160a01b0319168317905551937fddf252ad1be2c89b69c2b068fc378daa952ba7f163c4a11628f55a4df523b3ef8186a48152f35b8580606493519262461bcd60e51b845283015260248201527f4552433732313a206d696e7420746f20746865207a65726f20616464726573736044820152fd5b634e487b7160e01b855260118352602485fd5b83833461011657610633366109d3565b908351926020840184811067ffffffffffffffff82111761065f57856102129697985052868452610b8a565b634e487b7160e01b875260418852602487fd5b50503461011657610212610685366109d3565b916106986106938433610c25565b610b28565b610ced565b9050346102195781600319360112610219576106b76109a2565b602435916001600160a01b039081806106cf86610ac4565b169316928084146107bf578033149081156107a0575b50156107375783865260205283852080546001600160a01b0319168317905561070d83610ac4565b169251927f8c5be1e5ebec7d5bd14f71427d1e84f3dd0314c0f7b2291e5b200ac8c7c3b9258585a4f35b608490602086519162461bcd60e51b8352820152603d60248201527f4552433732313a20617070726f76652063616c6c6572206973206e6f7420746f60448201527f6b656e206f776e6572206f7220617070726f76656420666f7220616c6c0000006064820152fd5b90508652600560205284862033875260205260ff8587205416386106e5565b855162461bcd60e51b8152602081840152602160248201527f4552433732313a20617070726f76616c20746f2063757272656e74206f776e656044820152603960f91b6064820152608490fd5b82843461040357602036600319011261040357506104db60209235610aea565b82843461040357806003193601126104035781519181825492600184811c918186169586156108ed575b60209687851081146103e6578899509688969785829a5291826000146103bf575050600114610892575050506101859291610355910385610a3a565b91908693508280527f290decd9548b62a8d60345a988386fc84ba6bc95484008f6362f93160ef3e5635b8284106108d55750505082010181610355610185610342565b8054848a0186015288955087949093019281016108bc565b92607f1692610856565b849134610219576020366003190112610219573563ffffffff60e01b811680910361021957602092506380ac58cd60e01b8114908115610951575b8115610940575b5015158152f35b6301ffc9a760e01b14905083610939565b635b5e139f60e01b81149150610932565b919082519283825260005b84811061098e575050826000602080949584010152601f8019910116010190565b60208183018101518483018201520161096d565b600435906001600160a01b03821682036109b857565b600080fd5b602435906001600160a01b03821682036109b857565b60609060031901126109b8576001600160a01b039060043582811681036109b8579160243590811681036109b8579060443590565b6020810190811067ffffffffffffffff821117610a2457604052565b634e487b7160e01b600052604160045260246000fd5b90601f8019910116810190811067ffffffffffffffff821117610a2457604052565b67ffffffffffffffff8111610a2457601f01601f191660200190565b15610a7f57565b60405162461bcd60e51b815260206004820152601860248201527f4552433732313a20696e76616c696420746f6b656e20494400000000000000006044820152606490fd5b6000908152600260205260409020546001600160a01b0316610ae7811515610a78565b90565b600081815260026020526040902054610b0d906001600160a01b03161515610a78565b6000908152600460205260409020546001600160a01b031690565b15610b2f57565b60405162461bcd60e51b815260206004820152602d60248201527f4552433732313a2063616c6c6572206973206e6f7420746f6b656e206f776e6560448201526c1c881bdc88185c1c1c9bdd9959609a1b6064820152608490fd5b90610bae939291610b9e6106938433610c25565b610ba9838383610ced565b610e05565b15610bb557565b60405162461bcd60e51b815280610bce60048201610bd2565b0390fd5b60809060208152603260208201527f4552433732313a207472616e7366657220746f206e6f6e20455243373231526560408201527131b2b4bb32b91034b6b83632b6b2b73a32b960711b60608201520190565b906001600160a01b038080610c3984610ac4565b16931691838314938415610c6c575b508315610c56575b50505090565b610c6291929350610aea565b1614388080610c50565b909350600052600560205260406000208260005260205260ff604060002054169238610c48565b15610c9a57565b60405162461bcd60e51b815260206004820152602560248201527f4552433732313a207472616e736665722066726f6d20696e636f72726563742060448201526437bbb732b960d91b6064820152608490fd5b90610d1591610cfb84610ac4565b6001600160a01b0393918416928492909183168414610c93565b16918215610db45781610d3291610d2b86610ac4565b1614610c93565b7fddf252ad1be2c89b69c2b068fc378daa952ba7f163c4a11628f55a4df523b3ef60008481526004602052604081206bffffffffffffffffffffffff60a01b90818154169055838252600360205260408220600019815401905584825260408220600181540190558582526002602052846040832091825416179055604051a4565b60405162461bcd60e51b8152602060048201526024808201527f4552433732313a207472616e7366657220746f20746865207a65726f206164646044820152637265737360e01b6064820152608490fd5b9293600093909291803b15610f1b57948491610e5f9660405180948193630a85bd0160e11b9788845233600485015260018060a01b0380921660248501526044840152608060648401528260209b8c976084830190610962565b0393165af1849181610edb575b50610eca575050503d600014610ec2573d610e8681610a5c565b90610e946040519283610a3a565b81528091833d92013e5b80519182610ebf5760405162461bcd60e51b815280610bce60048201610bd2565b01fd5b506060610e9e565b6001600160e01b0319161492509050565b9091508581813d8311610f14575b610ef38183610a3a565b810103126102e957516001600160e01b0319811681036102e9579038610e6c565b503d610ee9565b505050915050600190565b15610f2d57565b60405162461bcd60e51b815260206004820152601c60248201527f4552433732313a20746f6b656e20616c7265616479206d696e746564000000006044820152606490fdfea2646970667358221220e4638085294ea3570863b4d5c1a165ad2e0607c78abef0c46602899ccee6470f64736f6c63430008100033",
  "devdoc": {
    "details": "Inherits from OpenZeppelin's ERC721 for NFT functionality.",
    "kind": "dev",
    "methods": {
      "approve(address,uint256)": {
        "details": "See {IERC721-approve}."
      },
      "balanceOf(address)": {
        "details": "See {IERC721-balanceOf}."
      },
      "getApproved(uint256)": {
        "details": "See {IERC721-getApproved}."
      },
      "getLastTokenId()": {
        "details": "Returns the last token ID that was minted.",
        "returns": {
          "_0": "The current value of the token ID counter, which corresponds to the last minted token ID."
        }
      },
      "isApprovedForAll(address,address)": {
        "details": "See {IERC721-isApprovedForAll}."
      },
      "mintNFT(address)": {
        "details": "Increments the `_tokenIds` counter, mints the NFT to the `recipient` address, and returns the new token ID.",
        "params": {
          "recipient": "The address of the recipient to whom the NFT will be minted."
        },
        "returns": {
          "_0": "newItemId The token ID of the newly minted NFT."
        }
      },
      "name()": {
        "details": "See {IERC721Metadata-name}."
      },
      "ownerOf(uint256)": {
        "details": "See {IERC721-ownerOf}."
      },
      "safeTransferFrom(address,address,uint256)": {
        "details": "See {IERC721-safeTransferFrom}."
      },
      "safeTransferFrom(address,address,uint256,bytes)": {
        "details": "See {IERC721-safeTransferFrom}."
      },
      "setApprovalForAll(address,bool)": {
        "details": "See {IERC721-setApprovalForAll}."
      },
      "supportsInterface(bytes4)": {
        "details": "See {IERC165-supportsInterface}."
      },
      "symbol()": {
        "details": "See {IERC721Metadata-symbol}."
      },
      "tokenURI(uint256)": {
        "details": "See {IERC721Metadata-tokenURI}."
      },
      "transferFrom(address,address,uint256)": {
        "details": "See {IERC721-transferFrom}."
      }
    },
    "title": "Example  NFT Minter",
    "version": 1
  },
  "userdoc": {
    "kind": "user",
    "methods": {
      "constructor": {
        "notice": "Initializes the contract by setting a name and symbol for the NFT"
      },
      "getLastTokenId()": {
        "notice": "Retrieves the current value of the token ID counter."
      },
      "mintNFT(address)": {
        "notice": "Mints a new NFT to the specified recipient address."
      }
    },
    "notice": "This contract demonstrates an NFT minting process that is not gated.",
    "version": 1
  },
  "storageLayout": {
    "storage": [
      {
        "astId": 3206,
        "contract": "contracts/gatedExamples/ExampleNFTMinter.sol:ExampleNFTMinter",
        "label": "_name",
        "offset": 0,
        "slot": "0",
        "type": "t_string_storage"
      },
      {
        "astId": 3208,
        "contract": "contracts/gatedExamples/ExampleNFTMinter.sol:ExampleNFTMinter",
        "label": "_symbol",
        "offset": 0,
        "slot": "1",
        "type": "t_string_storage"
      },
      {
        "astId": 3212,
        "contract": "contracts/gatedExamples/ExampleNFTMinter.sol:ExampleNFTMinter",
        "label": "_owners",
        "offset": 0,
        "slot": "2",
        "type": "t_mapping(t_uint256,t_address)"
      },
      {
        "astId": 3216,
        "contract": "contracts/gatedExamples/ExampleNFTMinter.sol:ExampleNFTMinter",
        "label": "_balances",
        "offset": 0,
        "slot": "3",
        "type": "t_mapping(t_address,t_uint256)"
      },
      {
        "astId": 3220,
        "contract": "contracts/gatedExamples/ExampleNFTMinter.sol:ExampleNFTMinter",
        "label": "_tokenApprovals",
        "offset": 0,
        "slot": "4",
        "type": "t_mapping(t_uint256,t_address)"
      },
      {
        "astId": 3226,
        "contract": "contracts/gatedExamples/ExampleNFTMinter.sol:ExampleNFTMinter",
        "label": "_operatorApprovals",
        "offset": 0,
        "slot": "5",
        "type": "t_mapping(t_address,t_mapping(t_address,t_bool))"
      },
      {
        "astId": 6709,
        "contract": "contracts/gatedExamples/ExampleNFTMinter.sol:ExampleNFTMinter",
        "label": "_tokenIds",
        "offset": 0,
        "slot": "6",
        "type": "t_uint256"
      }
    ],
    "types": {
      "t_address": {
        "encoding": "inplace",
        "label": "address",
        "numberOfBytes": "20"
      },
      "t_bool": {
        "encoding": "inplace",
        "label": "bool",
        "numberOfBytes": "1"
      },
      "t_mapping(t_address,t_bool)": {
        "encoding": "mapping",
        "key": "t_address",
        "label": "mapping(address => bool)",
        "numberOfBytes": "32",
        "value": "t_bool"
      },
      "t_mapping(t_address,t_mapping(t_address,t_bool))": {
        "encoding": "mapping",
        "key": "t_address",
        "label": "mapping(address => mapping(address => bool))",
        "numberOfBytes": "32",
        "value": "t_mapping(t_address,t_bool)"
      },
      "t_mapping(t_address,t_uint256)": {
        "encoding": "mapping",
        "key": "t_address",
        "label": "mapping(address => uint256)",
        "numberOfBytes": "32",
        "value": "t_uint256"
      },
      "t_mapping(t_uint256,t_address)": {
        "encoding": "mapping",
        "key": "t_uint256",
        "label": "mapping(uint256 => address)",
        "numberOfBytes": "32",
        "value": "t_address"
      },
      "t_string_storage": {
        "encoding": "bytes",
        "label": "string",
        "numberOfBytes": "32"
      },
      "t_uint256": {
        "encoding": "inplace",
        "label": "uint256",
        "numberOfBytes": "32"
      }
    }
  }
}