{
  "address": "0xc965C9D9Fa7BBd3F744BF1eFc0281eC4F8cd73d8",
  "abi": [
    {
      "inputs": [],
      "stateMutability": "nonpayable",
      "type": "constructor"
    },
    {
      "inputs": [],
      "name": "BlockExpired",
      "type": "error"
    },
    {
      "inputs": [],
      "name": "InvalidSignature",
      "type": "error"
    },
    {
      "anonymous": false,
      "inputs": [
        {
          "indexed": true,
          "internalType": "address",
          "name": "owner",
          "type": "address"
        },
        {
          "indexed": true,
          "internalType": "address",
          "name": "approved",
          "type": "address"
        },
        {
          "indexed": true,
          "internalType": "uint256",
          "name": "tokenId",
          "type": "uint256"
        }
      ],
      "name": "Approval",
      "type": "event"
    },
    {
      "anonymous": false,
      "inputs": [
        {
          "indexed": true,
          "internalType": "address",
          "name": "owner",
          "type": "address"
        },
        {
          "indexed": true,
          "internalType": "address",
          "name": "operator",
          "type": "address"
        },
        {
          "indexed": false,
          "internalType": "bool",
          "name": "approved",
          "type": "bool"
        }
      ],
      "name": "ApprovalForAll",
      "type": "event"
    },
    {
      "anonymous": false,
      "inputs": [
        {
          "indexed": false,
          "internalType": "uint8",
          "name": "version",
          "type": "uint8"
        }
      ],
      "name": "Initialized",
      "type": "event"
    },
    {
      "anonymous": false,
      "inputs": [
        {
          "indexed": true,
          "internalType": "address",
          "name": "previousOwner",
          "type": "address"
        },
        {
          "indexed": true,
          "internalType": "address",
          "name": "newOwner",
          "type": "address"
        }
      ],
      "name": "OwnershipTransferred",
      "type": "event"
    },
    {
      "anonymous": false,
      "inputs": [
        {
          "indexed": true,
          "internalType": "address",
          "name": "from",
          "type": "address"
        },
        {
          "indexed": true,
          "internalType": "address",
          "name": "to",
          "type": "address"
        },
        {
          "indexed": true,
          "internalType": "uint256",
          "name": "tokenId",
          "type": "uint256"
        }
      ],
      "name": "Transfer",
      "type": "event"
    },
    {
      "inputs": [
        {
          "internalType": "address",
          "name": "to",
          "type": "address"
        },
        {
          "internalType": "uint256",
          "name": "tokenId",
          "type": "uint256"
        }
      ],
      "name": "approve",
      "outputs": [],
      "stateMutability": "nonpayable",
      "type": "function"
    },
    {
      "inputs": [
        {
          "internalType": "address",
          "name": "owner",
          "type": "address"
        }
      ],
      "name": "balanceOf",
      "outputs": [
        {
          "internalType": "uint256",
          "name": "",
          "type": "uint256"
        }
      ],
      "stateMutability": "view",
      "type": "function"
    },
    {
      "inputs": [
        {
          "internalType": "uint256",
          "name": "tokenId",
          "type": "uint256"
        }
      ],
      "name": "getApproved",
      "outputs": [
        {
          "internalType": "address",
          "name": "",
          "type": "address"
        }
      ],
      "stateMutability": "view",
      "type": "function"
    },
    {
      "inputs": [],
      "name": "getLastTokenId",
      "outputs": [
        {
          "internalType": "uint256",
          "name": "",
          "type": "uint256"
        }
      ],
      "stateMutability": "view",
      "type": "function"
    },
    {
      "inputs": [
        {
          "components": [
            {
              "internalType": "uint256",
              "name": "chainID",
              "type": "uint256"
            },
            {
              "internalType": "uint256",
              "name": "nonce",
              "type": "uint256"
            },
            {
              "internalType": "uint256",
              "name": "blockExpiration",
              "type": "uint256"
            },
            {
              "internalType": "address",
              "name": "contractAddress",
              "type": "address"
            },
            {
              "internalType": "address",
              "name": "userAddress",
              "type": "address"
            },
            {
              "internalType": "bytes",
              "name": "functionCallData",
              "type": "bytes"
            }
          ],
          "internalType": "struct TxAuthDataVerifierUpgradeable.TxAuthData",
          "name": "_txAuthData",
          "type": "tuple"
        }
      ],
      "name": "getMessageHash",
      "outputs": [
        {
          "internalType": "bytes32",
          "name": "",
          "type": "bytes32"
        }
      ],
      "stateMutability": "pure",
      "type": "function"
    },
    {
      "inputs": [
        {
          "internalType": "address",
          "name": "user",
          "type": "address"
        }
      ],
      "name": "getUserNonce",
      "outputs": [
        {
          "internalType": "uint256",
          "name": "",
          "type": "uint256"
        }
      ],
      "stateMutability": "view",
      "type": "function"
    },
    {
      "inputs": [
        {
          "internalType": "address",
          "name": "signerAddress",
          "type": "address"
        }
      ],
      "name": "initialize",
      "outputs": [],
      "stateMutability": "nonpayable",
      "type": "function"
    },
    {
      "inputs": [
        {
          "internalType": "address",
          "name": "owner",
          "type": "address"
        },
        {
          "internalType": "address",
          "name": "operator",
          "type": "address"
        }
      ],
      "name": "isApprovedForAll",
      "outputs": [
        {
          "internalType": "bool",
          "name": "",
          "type": "bool"
        }
      ],
      "stateMutability": "view",
      "type": "function"
    },
    {
      "inputs": [
        {
          "internalType": "address",
          "name": "recipient",
          "type": "address"
        },
        {
          "internalType": "uint256",
          "name": "_blockExpiration",
          "type": "uint256"
        },
        {
          "internalType": "bytes",
          "name": "_signature",
          "type": "bytes"
        }
      ],
      "name": "mintNFTGated",
      "outputs": [
        {
          "internalType": "uint256",
          "name": "",
          "type": "uint256"
        }
      ],
      "stateMutability": "nonpayable",
      "type": "function"
    },
    {
      "inputs": [],
      "name": "name",
      "outputs": [
        {
          "internalType": "string",
          "name": "",
          "type": "string"
        }
      ],
      "stateMutability": "view",
      "type": "function"
    },
    {
      "inputs": [
        {
          "internalType": "address",
          "name": "",
          "type": "address"
        }
      ],
      "name": "nonces",
      "outputs": [
        {
          "internalType": "uint256",
          "name": "_value",
          "type": "uint256"
        }
      ],
      "stateMutability": "view",
      "type": "function"
    },
    {
      "inputs": [],
      "name": "owner",
      "outputs": [
        {
          "internalType": "address",
          "name": "",
          "type": "address"
        }
      ],
      "stateMutability": "view",
      "type": "function"
    },
    {
      "inputs": [
        {
          "internalType": "uint256",
          "name": "tokenId",
          "type": "uint256"
        }
      ],
      "name": "ownerOf",
      "outputs": [
        {
          "internalType": "address",
          "name": "",
          "type": "address"
        }
      ],
      "stateMutability": "view",
      "type": "function"
    },
    {
      "inputs": [],
      "name": "renounceOwnership",
      "outputs": [],
      "stateMutability": "nonpayable",
      "type": "function"
    },
    {
      "inputs": [
        {
          "internalType": "address",
          "name": "from",
          "type": "address"
        },
        {
          "internalType": "address",
          "name": "to",
          "type": "address"
        },
        {
          "internalType": "uint256",
          "name": "tokenId",
          "type": "uint256"
        }
      ],
      "name": "safeTransferFrom",
      "outputs": [],
      "stateMutability": "nonpayable",
      "type": "function"
    },
    {
      "inputs": [
        {
          "internalType": "address",
          "name": "from",
          "type": "address"
        },
        {
          "internalType": "address",
          "name": "to",
          "type": "address"
        },
        {
          "internalType": "uint256",
          "name": "tokenId",
          "type": "uint256"
        },
        {
          "internalType": "bytes",
          "name": "data",
          "type": "bytes"
        }
      ],
      "name": "safeTransferFrom",
      "outputs": [],
      "stateMutability": "nonpayable",
      "type": "function"
    },
    {
      "inputs": [
        {
          "internalType": "address",
          "name": "operator",
          "type": "address"
        },
        {
          "internalType": "bool",
          "name": "approved",
          "type": "bool"
        }
      ],
      "name": "setApprovalForAll",
      "outputs": [],
      "stateMutability": "nonpayable",
      "type": "function"
    },
    {
      "inputs": [
        {
          "internalType": "address",
          "name": "_signer",
          "type": "address"
        }
      ],
      "name": "setSigner",
      "outputs": [],
      "stateMutability": "nonpayable",
      "type": "function"
    },
    {
      "inputs": [
        {
          "internalType": "bytes4",
          "name": "interfaceId",
          "type": "bytes4"
        }
      ],
      "name": "supportsInterface",
      "outputs": [
        {
          "internalType": "bool",
          "name": "",
          "type": "bool"
        }
      ],
      "stateMutability": "view",
      "type": "function"
    },
    {
      "inputs": [],
      "name": "symbol",
      "outputs": [
        {
          "internalType": "string",
          "name": "",
          "type": "string"
        }
      ],
      "stateMutability": "view",
      "type": "function"
    },
    {
      "inputs": [
        {
          "internalType": "uint256",
          "name": "tokenId",
          "type": "uint256"
        }
      ],
      "name": "tokenURI",
      "outputs": [
        {
          "internalType": "string",
          "name": "",
          "type": "string"
        }
      ],
      "stateMutability": "view",
      "type": "function"
    },
    {
      "inputs": [
        {
          "internalType": "address",
          "name": "from",
          "type": "address"
        },
        {
          "internalType": "address",
          "name": "to",
          "type": "address"
        },
        {
          "internalType": "uint256",
          "name": "tokenId",
          "type": "uint256"
        }
      ],
      "name": "transferFrom",
      "outputs": [],
      "stateMutability": "nonpayable",
      "type": "function"
    },
    {
      "inputs": [
        {
          "internalType": "address",
          "name": "newOwner",
          "type": "address"
        }
      ],
      "name": "transferOwnership",
      "outputs": [],
      "stateMutability": "nonpayable",
      "type": "function"
    }
  ],
  "transactionHash": "0x322a22d182e58583ce167d4ca0e868ab09cddf9a847fb4aac9f351fbc65bc199",
  "args": [],
  "numDeployments": 1,
  "solcInputHash": "d64ed16909b05cff48934f7daf035962",
  "bytecode": "0x608080604052346100c1576000549060ff8260081c1661006f575060ff80821603610034575b604051611c2b90816100c78239f35b60ff90811916176000557f7f26b83ff96e1f2b6a682f133852f6798a09c465da95921460cefb3847402498602060405160ff8152a138610025565b62461bcd60e51b815260206004820152602760248201527f496e697469616c697a61626c653a20636f6e747261637420697320696e697469604482015266616c697a696e6760c81b6064820152608490fd5b600080fdfe6080604081815260048036101561001557600080fd5b600092833560e01c90816301ffc9a71461116a5750806306fdde03146110c4578063081812fc146110a4578063095ea7b314610f3357806323b872dd14610f0857806342842e0e14610eb95780636352211e14610e885780636834e3a814610d145780636c19e78314610e4257806370a0823114610dac578063715018a614610d4c5780637ecebe0014610d14578063801954a814610c4957806383c4c00d14610c2a5780638da5cb5b14610c0157806395d89b4114610b20578063a22cb46514610a59578063b88d4fde14610a0b578063c4d66de8146105d9578063c87b56dd14610569578063d7ce794b14610206578063e985e9c5146101b45763f2fde38b1461012057600080fd5b346101b05760203660031901126101b05761013961121e565b9061014261134c565b6001600160a01b0382161561015e575061015b906113a4565b51f35b608490602084519162461bcd60e51b8352820152602660248201527f4f776e61626c653a206e6577206f776e657220697320746865207a65726f206160448201526564647265737360d01b6064820152fd5b8280fd5b50503461020257806003193601126102025760ff816020936101d461121e565b6101dc611239565b6001600160a01b039182168352606a875283832091168252855220549151911615158152f35b5080fd5b509190346102025760603660031901126102025761022261121e565b90604435906001600160401b039485831161056157366023840112156105615782810135928684116105655760248094369201011161056157601f1936019536871161054f576102718761192d565b9636881161054b576102829061192d565b9661028c3661192d565b808911610547573681116105475760209880359103898110610536575b506040193601913683116105245736605f190192831161052457601e19360136811161051257831161050e57814310156104fe5733895260ca8a52858920549186519260c08401848110878211176104ec5788524684528b840152868301523060608301523360808301526103489190898b610324836112ea565b926103318a5194856112c9565b8084528083838601378301015260a0820152611b70565b7f19457468657265756d205369676e6564204d6573736167653a0a3332000000008852601c52603c8720908451926080840190848210908211176104da579160416103ae94926103a69488528184528b840137886061830152611a67565b919091611952565b60c9546001600160a01b0391908216908216036104cb5733865260ca875282862060018154019055600160cb5401948560cb551692831561048c57505060008381526067602052604090205483929190610414906001600160a01b031615155b15611b24565b600083815260676020526040902054610437906001600160a01b0316151561040e565b81855260688652808520805460010190558285526067865280852080546001600160a01b0319168317905551937fddf252ad1be2c89b69c2b068fc378daa952ba7f163c4a11628f55a4df523b3ef8186a48152f35b869081606494519362461bcd60e51b85528401528201527f4552433732313a206d696e7420746f20746865207a65726f20616464726573736044820152fd5b509051638baa579f60e01b8152fd5b634e487b7160e01b8952604185528689fd5b634e487b7160e01b8c5260418852898cfd5b85516378fd448d60e01b81528590fd5b8880fd5b634e487b7160e01b8a5260118652878afd5b634e487b7160e01b8952601185528689fd5b600019908a0360031b1b16386102a9565b8780fd5b8680fd5b634e487b7160e01b8652601182528386fd5b8480fd5b8580fd5b50919034610202576020366003190112610202576105a86105a36105d59435600052606760205260018060a01b0360406000205416151590565b6113f2565b8181516105b481611298565b528051916105c183611298565b8252519182916020835260208301906111f9565b0390f35b50346101b057602080600319360112610a07576105f461121e565b9184549260ff8460081c1615918280936109fa575b80156109e3575b1561098957600194838660ff198316178955610978575b5085516001600160401b03916060820183811183821017610965578852602282527f4d794578616d706c6547617465644e46544d696e74657255706772616465616286830152616c6560f01b88830152875190888201828110858211176109525789526005825264474e46545560d81b878301526106b460ff8b5460081c166106af816118cd565b6118cd565b825184811161095257806106c960655461145f565b94601f95868111610900575b5089908d87841160011461089f5792610894575b5050600019600383901b1c191690891b176065555b8151938411610881575061071360665461145f565b82811161083d575b50859183116001146107d6576107859392918991836107cb575b5050600019600383901b1c191690861b176066555b60ff875460081c169061075c826118cd565b60c980546001600160a01b0319166001600160a01b03929092169190911790556106af816118cd565b61078e336113a4565b61079757505051f35b835461ff001916845582519182527f7f26b83ff96e1f2b6a682f133852f6798a09c465da95921460cefb384740249891a151f35b015190503880610735565b92918691601f1982169060668b52878b20918b5b898282106108275750509583610785971061080e575b505050811b0160665561074a565b015160001960f88460031b161c19169055388080610800565b8389015185558b969094019392830192016107ea565b60668a52868a208380860160051c820192898710610878575b0160051c019088905b82811061086d57505061071b565b8b815501889061085f565b92508192610856565b634e487b7160e01b8a5260419052602489fd5b0151905038806106e9565b91908c9450601f198416606584528c8420935b8d8282106108ea57505084116108d1575b505050811b016065556106fe565b015160001960f88460031b161c191690553880806108c3565b8385015186558f979095019493840193016108b2565b90915060658d52898d208680850160051c8201928c8610610949575b859493910160051c909101908c908f5b83821061093b575050506106d5565b81558594508d91018f61092c565b9250819261091c565b634e487b7160e01b8b526041825260248bfd5b634e487b7160e01b8a526041825260248afd5b61ffff191661010117875538610627565b855162461bcd60e51b8152908101849052602e60248201527f496e697469616c697a61626c653a20636f6e747261637420697320616c72656160448201526d191e481a5b9a5d1a585b1a5e995960921b6064820152608490fd5b50303b1580156106105750600160ff861614610610565b50600160ff861610610609565b8380fd5b50346101b05760803660031901126101b057610a2561121e565b610a2d611239565b906064356001600160401b0381116105655761015b93610a4f91369101611305565b9160443591611539565b50346101b057816003193601126101b057610a7261121e565b60243590811515809203610561576001600160a01b031691338314610ae15750338452606a60205282842082855260205282842060ff1981541660ff831617905582519081527f17307eab39ab6107e8899845ad3d59bd9653f200f220920489ca2b5937696c3160203392a351f35b606490602085519162461bcd60e51b8352820152601960248201527822a9219b99189d1030b8383937bb32903a379031b0b63632b960391b6044820152fd5b50503461020257816003193601126102025780519082606654610b428161145f565b80855290600190818116908115610bd95750600114610b80575b505050610b6e826105d59403836112c9565b519182916020835260208301906111f9565b60668352602095507f46501879b8ca8525e8c2fd519e2fbfcfa2ebea26501294aa02cbfcfb12e943545b828410610bc657505050826105d594610b6e9282010194610b5c565b8054868501880152928601928101610baa565b6105d59750610b6e9450602092508693915060ff191682840152151560051b82010194610b5c565b50503461020257816003193601126102025760975490516001600160a01b039091168152602090f35b50503461020257816003193601126102025760209060cb549051908152f35b50346101b05760031990602036830112610a07578035916001600160401b03908184116105655760c09084360301126105615783519460c0860186811083821117610d0157855283830135865260248401356020870152604484013585870152610cb56064850161124f565b6060870152610cc66084850161124f565b608087015260a4840135918211610cfe5750610cf79260209592610ced9236920101611305565b60a0820152611b70565b9051908152f35b80fd5b634e487b7160e01b825260418452602482fd5b5050346102025760203660031901126102025760209181906001600160a01b03610d3c61121e565b16815260ca845220549051908152f35b505034610202578160031936011261020257610d6661134c565b609780546001600160a01b0319811690915590519082906001600160a01b03167f8be0079c531659141344cd1fd0a4f28419497f9722a3daafe3b4186f6b6457e08284a3f35b50829034610202576020366003190112610202576001600160a01b03610dd061121e565b16908115610ded5760208480858581526068845220549051908152f35b608490602085519162461bcd60e51b8352820152602960248201527f4552433732313a2061646472657373207a65726f206973206e6f7420612076616044820152683634b21037bbb732b960b91b6064820152fd5b50503461020257602036600319011261020257610e5d61121e565b610e6561134c565b60c980546001600160a01b0319166001600160a01b039290921691909117905551f35b509134610cfe576020366003190112610cfe5750610ea860209235611439565b90516001600160a01b039091168152f35b5091903461020257610eca36611263565b90835192602084018481106001600160401b03821117610ef5578561015b9697985052868452611539565b634e487b7160e01b875260418852602487fd5b5050346102025761015b610f1b36611263565b91610f2e610f2984336115d4565b6114d7565b61169c565b50346101b057816003193601126101b057610f4c61121e565b602435916001600160a01b03908180610f6486611439565b1693169280841461105757803314908115611038575b5015610fcf5750828552606960205283852080546001600160a01b03191683179055610fa583611439565b169251927f8c5be1e5ebec7d5bd14f71427d1e84f3dd0314c0f7b2291e5b200ac8c7c3b9258585a4f35b608490602086519162461bcd60e51b8352820152603d60248201527f4552433732313a20617070726f76652063616c6c6572206973206e6f7420746f60448201527f6b656e206f776e6572206f7220617070726f76656420666f7220616c6c0000006064820152fd5b90508652606a60205284862033875260205260ff858720541638610f7a565b855162461bcd60e51b8152602081840152602160248201527f4552433732313a20617070726f76616c20746f2063757272656e74206f776e656044820152603960f91b6064820152608490fd5b509134610cfe576020366003190112610cfe5750610ea860209235611499565b505034610202578160031936011261020257805190826065546110e68161145f565b80855290600190818116908115610bd9575060011461111157505050610b6e826105d59403836112c9565b60658352602095507f8ff97419363ffd7000167f130ef7168fbea05faf9251824ca5043f113cc6a7c75b82841061115757505050826105d594610b6e9282010194610b5c565b805486850188015292860192810161113b565b925050346101b05760203660031901126101b0573563ffffffff60e01b81168091036101b057602092506380ac58cd60e01b81149081156111c5575b81156111b4575b5015158152f35b6301ffc9a760e01b149050386111ad565b635b5e139f60e01b811491506111a6565b60005b8381106111e95750506000910152565b81810151838201526020016111d9565b90602091611212815180928185528580860191016111d6565b601f01601f1916010190565b600435906001600160a01b038216820361123457565b600080fd5b602435906001600160a01b038216820361123457565b35906001600160a01b038216820361123457565b6060906003190112611234576001600160a01b0390600435828116810361123457916024359081168103611234579060443590565b602081019081106001600160401b038211176112b357604052565b634e487b7160e01b600052604160045260246000fd5b90601f801991011681019081106001600160401b038211176112b357604052565b6001600160401b0381116112b357601f01601f191660200190565b81601f820112156112345780359061131c826112ea565b9261132a60405194856112c9565b8284526020838301011161123457816000926020809301838601378301015290565b6097546001600160a01b0316330361136057565b606460405162461bcd60e51b815260206004820152602060248201527f4f776e61626c653a2063616c6c6572206973206e6f7420746865206f776e65726044820152fd5b609780546001600160a01b039283166001600160a01b031982168117909255604051919216907f8be0079c531659141344cd1fd0a4f28419497f9722a3daafe3b4186f6b6457e090600090a3565b156113f957565b60405162461bcd60e51b8152602060048201526018602482015277115490cdcc8c4e881a5b9d985b1a59081d1bdad95b88125160421b6044820152606490fd5b6000908152606760205260409020546001600160a01b031661145c8115156113f2565b90565b90600182811c9216801561148f575b602083101461147957565b634e487b7160e01b600052602260045260246000fd5b91607f169161146e565b6000818152606760205260409020546114bc906001600160a01b031615156113f2565b6000908152606960205260409020546001600160a01b031690565b156114de57565b60405162461bcd60e51b815260206004820152602d60248201527f4552433732313a2063616c6c6572206973206e6f7420746f6b656e206f776e6560448201526c1c881bdc88185c1c1c9bdd9959609a1b6064820152608490fd5b9061155d93929161154d610f2984336115d4565b61155883838361169c565b6117ac565b1561156457565b60405162461bcd60e51b81528061157d60048201611581565b0390fd5b60809060208152603260208201527f4552433732313a207472616e7366657220746f206e6f6e20455243373231526560408201527131b2b4bb32b91034b6b83632b6b2b73a32b960711b60608201520190565b906001600160a01b0380806115e884611439565b1693169183831493841561161b575b508315611605575b50505090565b61161191929350611499565b16143880806115ff565b909350600052606a60205260406000208260005260205260ff6040600020541692386115f7565b1561164957565b60405162461bcd60e51b815260206004820152602560248201527f4552433732313a207472616e736665722066726f6d20696e636f72726563742060448201526437bbb732b960d91b6064820152608490fd5b906116c4916116aa84611439565b6001600160a01b0393918416928492909183168414611642565b1691821561175b57816116e1916116da86611439565b1614611642565b7fddf252ad1be2c89b69c2b068fc378daa952ba7f163c4a11628f55a4df523b3ef600084815260696020526040812060018060a01b031990818154169055838252606860205260408220600019815401905584825260408220600181540190558582526067602052846040832091825416179055604051a4565b60405162461bcd60e51b8152602060048201526024808201527f4552433732313a207472616e7366657220746f20746865207a65726f206164646044820152637265737360e01b6064820152608490fd5b9293600093909291803b156118c2579484916118069660405180948193630a85bd0160e11b9788845233600485015260018060a01b0380921660248501526044840152608060648401528260209b8c9760848301906111f9565b0393165af1849181611882575b50611871575050503d600014611869573d61182d816112ea565b9061183b60405192836112c9565b81528091833d92013e5b805191826118665760405162461bcd60e51b81528061157d60048201611581565b01fd5b506060611845565b6001600160e01b0319161492509050565b9091508581813d83116118bb575b61189a81836112c9565b8101031261056157516001600160e01b031981168103610561579038611813565b503d611890565b505050915050600190565b156118d457565b60405162461bcd60e51b815260206004820152602b60248201527f496e697469616c697a61626c653a20636f6e7472616374206973206e6f74206960448201526a6e697469616c697a696e6760a81b6064820152608490fd5b609f1981019190821161193c57565b634e487b7160e01b600052601160045260246000fd5b6005811015611a5157806119635750565b600181036119ab5760405162461bcd60e51b815260206004820152601860248201527745434453413a20696e76616c6964207369676e617475726560401b6044820152606490fd5b600281036119f85760405162461bcd60e51b815260206004820152601f60248201527f45434453413a20696e76616c6964207369676e6174757265206c656e677468006044820152606490fd5b600314611a0157565b60405162461bcd60e51b815260206004820152602260248201527f45434453413a20696e76616c6964207369676e6174757265202773272076616c604482015261756560f01b6064820152608490fd5b634e487b7160e01b600052602160045260246000fd5b906041815114600014611a9557611a91916020820151906060604084015193015160001a90611a9f565b9091565b5050600090600290565b9291906fa2a8918ca85bafe22016d0b997e4df60600160ff1b038311611b185791608094939160ff602094604051948552168484015260408301526060820152600093849182805260015afa15611b0b5781516001600160a01b03811615611b05579190565b50600190565b50604051903d90823e3d90fd5b50505050600090600390565b15611b2b57565b60405162461bcd60e51b815260206004820152601c60248201527f4552433732313a20746f6b656e20616c7265616479206d696e746564000000006044820152606490fd5b805190611bef60a86020830151604084015193606081015160a060808301519201519160405196879460208601998a52604086015260608501526bffffffffffffffffffffffff19809260601b16608085015260601b166094830152611bdf81518092602086860191016111d6565b81010360888101845201826112c9565b5190209056fea2646970667358221220db0408f1a55b8764018e3ff041cb47a1d667ddcd3f3b829c9c6c0531228bb3ea64736f6c63430008100033",
  "devdoc": {
    "details": "Inherits from OpenZeppelin's ERC721 for NFT functionality and a custom TxAuthDataVerifier for signature verification.",
    "kind": "dev",
    "methods": {
      "approve(address,uint256)": {
        "details": "See {IERC721-approve}."
      },
      "balanceOf(address)": {
        "details": "See {IERC721-balanceOf}."
      },
      "getApproved(uint256)": {
        "details": "See {IERC721-getApproved}."
      },
      "getLastTokenId()": {
        "details": "Returns the last token ID that was minted.",
        "returns": {
          "_0": "The current value of the token ID counter, which corresponds to the last minted token ID."
        }
      },
      "getMessageHash((uint256,uint256,uint256,address,address,bytes))": {
        "params": {
          "_txAuthData": "The transaction authentication data to hash"
        },
        "returns": {
          "_0": "The keccak256 hash of the encoded `TxAuthData`"
        }
      },
      "getUserNonce(address)": {
        "params": {
          "user": "The address of the user"
        },
        "returns": {
          "_0": "The current nonce of the user"
        }
      },
      "initialize(address)": {
        "params": {
          "signerAddress": "The address allowed to sign transaction data for minting authorization."
        }
      },
      "isApprovedForAll(address,address)": {
        "details": "See {IERC721-isApprovedForAll}."
      },
      "mintNFTGated(address,uint256,bytes)": {
        "details": "Leverages the `requireTxDataAuthOpti` modifier for efficient signature verification.",
        "params": {
          "_blockExpiration": "The block number after which the request is considered expired.",
          "_signature": "The signature provided for verification.",
          "recipient": "The address to which the NFT will be minted."
        },
        "returns": {
          "_0": "The ID of the newly minted NFT upon successful verification and minting."
        }
      },
      "name()": {
        "details": "See {IERC721Metadata-name}."
      },
      "owner()": {
        "details": "Returns the address of the current owner."
      },
      "ownerOf(uint256)": {
        "details": "See {IERC721-ownerOf}."
      },
      "renounceOwnership()": {
        "details": "Leaves the contract without owner. It will not be possible to call `onlyOwner` functions. Can only be called by the current owner. NOTE: Renouncing ownership will leave the contract without an owner, thereby disabling any functionality that is only available to the owner."
      },
      "safeTransferFrom(address,address,uint256)": {
        "details": "See {IERC721-safeTransferFrom}."
      },
      "safeTransferFrom(address,address,uint256,bytes)": {
        "details": "See {IERC721-safeTransferFrom}."
      },
      "setApprovalForAll(address,bool)": {
        "details": "See {IERC721-setApprovalForAll}."
      },
      "setSigner(address)": {
        "details": "Can only be called by the current owner",
        "params": {
          "_signer": "The address of the new signer"
        }
      },
      "supportsInterface(bytes4)": {
        "details": "See {IERC165-supportsInterface}."
      },
      "symbol()": {
        "details": "See {IERC721Metadata-symbol}."
      },
      "tokenURI(uint256)": {
        "details": "See {IERC721Metadata-tokenURI}."
      },
      "transferFrom(address,address,uint256)": {
        "details": "See {IERC721-transferFrom}."
      },
      "transferOwnership(address)": {
        "details": "Transfers ownership of the contract to a new account (`newOwner`). Can only be called by the current owner."
      }
    },
    "title": "Example Gated NFT Minter - Upgradeable",
    "version": 1
  },
  "userdoc": {
    "errors": {
      "BlockExpired()": [
        {
          "notice": "Custom error for handling signature expiry"
        }
      ],
      "InvalidSignature()": [
        {
          "notice": "Custom error for handling invalid signatures"
        }
      ]
    },
    "kind": "user",
    "methods": {
      "constructor": {
        "notice": "constructor conform OZ upgradable pattern"
      },
      "getLastTokenId()": {
        "notice": "Retrieves the current value of the token ID counter."
      },
      "getMessageHash((uint256,uint256,uint256,address,address,bytes))": {
        "notice": "Generates a hash of the given `TxAuthData`"
      },
      "getUserNonce(address)": {
        "notice": "Retrieves the current nonce for a given user"
      },
      "initialize(address)": {
        "notice": "Initializes the contract by setting a name, symbol, and signer for TxAuthDataVerifierUpgradeable."
      },
      "mintNFTGated(address,uint256,bytes)": {
        "notice": "Mints a new NFT to a specified recipient, using an optimized signature verification process."
      },
      "nonces(address)": {
        "notice": "Mapping to track the nonces of users to prevent replay attacks"
      },
      "setSigner(address)": {
        "notice": "Sets a new signer address"
      }
    },
    "notice": "This contract demonstrates an NFT minting process gated by off-chain signature verification. This version is OwnableUpgradeable, making it compatible with OZ'ds proxy pattern",
    "version": 1
  },
  "storageLayout": {
    "storage": [
      {
        "astId": 1222,
        "contract": "contracts/gatedExamples/ExampleGatedNFTMinterUpgradeable.sol:ExampleGatedNFTMinterUpgradeable",
        "label": "_initialized",
        "offset": 0,
        "slot": "0",
        "type": "t_uint8"
      },
      {
        "astId": 1225,
        "contract": "contracts/gatedExamples/ExampleGatedNFTMinterUpgradeable.sol:ExampleGatedNFTMinterUpgradeable",
        "label": "_initializing",
        "offset": 1,
        "slot": "0",
        "type": "t_bool"
      },
      {
        "astId": 2878,
        "contract": "contracts/gatedExamples/ExampleGatedNFTMinterUpgradeable.sol:ExampleGatedNFTMinterUpgradeable",
        "label": "__gap",
        "offset": 0,
        "slot": "1",
        "type": "t_array(t_uint256)50_storage"
      },
      {
        "astId": 3152,
        "contract": "contracts/gatedExamples/ExampleGatedNFTMinterUpgradeable.sol:ExampleGatedNFTMinterUpgradeable",
        "label": "__gap",
        "offset": 0,
        "slot": "51",
        "type": "t_array(t_uint256)50_storage"
      },
      {
        "astId": 1414,
        "contract": "contracts/gatedExamples/ExampleGatedNFTMinterUpgradeable.sol:ExampleGatedNFTMinterUpgradeable",
        "label": "_name",
        "offset": 0,
        "slot": "101",
        "type": "t_string_storage"
      },
      {
        "astId": 1416,
        "contract": "contracts/gatedExamples/ExampleGatedNFTMinterUpgradeable.sol:ExampleGatedNFTMinterUpgradeable",
        "label": "_symbol",
        "offset": 0,
        "slot": "102",
        "type": "t_string_storage"
      },
      {
        "astId": 1420,
        "contract": "contracts/gatedExamples/ExampleGatedNFTMinterUpgradeable.sol:ExampleGatedNFTMinterUpgradeable",
        "label": "_owners",
        "offset": 0,
        "slot": "103",
        "type": "t_mapping(t_uint256,t_address)"
      },
      {
        "astId": 1424,
        "contract": "contracts/gatedExamples/ExampleGatedNFTMinterUpgradeable.sol:ExampleGatedNFTMinterUpgradeable",
        "label": "_balances",
        "offset": 0,
        "slot": "104",
        "type": "t_mapping(t_address,t_uint256)"
      },
      {
        "astId": 1428,
        "contract": "contracts/gatedExamples/ExampleGatedNFTMinterUpgradeable.sol:ExampleGatedNFTMinterUpgradeable",
        "label": "_tokenApprovals",
        "offset": 0,
        "slot": "105",
        "type": "t_mapping(t_uint256,t_address)"
      },
      {
        "astId": 1434,
        "contract": "contracts/gatedExamples/ExampleGatedNFTMinterUpgradeable.sol:ExampleGatedNFTMinterUpgradeable",
        "label": "_operatorApprovals",
        "offset": 0,
        "slot": "106",
        "type": "t_mapping(t_address,t_mapping(t_address,t_bool))"
      },
      {
        "astId": 2336,
        "contract": "contracts/gatedExamples/ExampleGatedNFTMinterUpgradeable.sol:ExampleGatedNFTMinterUpgradeable",
        "label": "__gap",
        "offset": 0,
        "slot": "107",
        "type": "t_array(t_uint256)44_storage"
      },
      {
        "astId": 1094,
        "contract": "contracts/gatedExamples/ExampleGatedNFTMinterUpgradeable.sol:ExampleGatedNFTMinterUpgradeable",
        "label": "_owner",
        "offset": 0,
        "slot": "151",
        "type": "t_address"
      },
      {
        "astId": 1214,
        "contract": "contracts/gatedExamples/ExampleGatedNFTMinterUpgradeable.sol:ExampleGatedNFTMinterUpgradeable",
        "label": "__gap",
        "offset": 0,
        "slot": "152",
        "type": "t_array(t_uint256)49_storage"
      },
      {
        "astId": 10793,
        "contract": "contracts/gatedExamples/ExampleGatedNFTMinterUpgradeable.sol:ExampleGatedNFTMinterUpgradeable",
        "label": "signer",
        "offset": 0,
        "slot": "201",
        "type": "t_address"
      },
      {
        "astId": 10799,
        "contract": "contracts/gatedExamples/ExampleGatedNFTMinterUpgradeable.sol:ExampleGatedNFTMinterUpgradeable",
        "label": "nonces",
        "offset": 0,
        "slot": "202",
        "type": "t_mapping(t_address,t_struct(Counter)6562_storage)"
      },
      {
        "astId": 10207,
        "contract": "contracts/gatedExamples/ExampleGatedNFTMinterUpgradeable.sol:ExampleGatedNFTMinterUpgradeable",
        "label": "_tokenIds",
        "offset": 0,
        "slot": "203",
        "type": "t_struct(Counter)6562_storage"
      }
    ],
    "types": {
      "t_address": {
        "encoding": "inplace",
        "label": "address",
        "numberOfBytes": "20"
      },
      "t_array(t_uint256)44_storage": {
        "base": "t_uint256",
        "encoding": "inplace",
        "label": "uint256[44]",
        "numberOfBytes": "1408"
      },
      "t_array(t_uint256)49_storage": {
        "base": "t_uint256",
        "encoding": "inplace",
        "label": "uint256[49]",
        "numberOfBytes": "1568"
      },
      "t_array(t_uint256)50_storage": {
        "base": "t_uint256",
        "encoding": "inplace",
        "label": "uint256[50]",
        "numberOfBytes": "1600"
      },
      "t_bool": {
        "encoding": "inplace",
        "label": "bool",
        "numberOfBytes": "1"
      },
      "t_mapping(t_address,t_bool)": {
        "encoding": "mapping",
        "key": "t_address",
        "label": "mapping(address => bool)",
        "numberOfBytes": "32",
        "value": "t_bool"
      },
      "t_mapping(t_address,t_mapping(t_address,t_bool))": {
        "encoding": "mapping",
        "key": "t_address",
        "label": "mapping(address => mapping(address => bool))",
        "numberOfBytes": "32",
        "value": "t_mapping(t_address,t_bool)"
      },
      "t_mapping(t_address,t_struct(Counter)6562_storage)": {
        "encoding": "mapping",
        "key": "t_address",
        "label": "mapping(address => struct Counters.Counter)",
        "numberOfBytes": "32",
        "value": "t_struct(Counter)6562_storage"
      },
      "t_mapping(t_address,t_uint256)": {
        "encoding": "mapping",
        "key": "t_address",
        "label": "mapping(address => uint256)",
        "numberOfBytes": "32",
        "value": "t_uint256"
      },
      "t_mapping(t_uint256,t_address)": {
        "encoding": "mapping",
        "key": "t_uint256",
        "label": "mapping(uint256 => address)",
        "numberOfBytes": "32",
        "value": "t_address"
      },
      "t_string_storage": {
        "encoding": "bytes",
        "label": "string",
        "numberOfBytes": "32"
      },
      "t_struct(Counter)6562_storage": {
        "encoding": "inplace",
        "label": "struct Counters.Counter",
        "members": [
          {
            "astId": 6561,
            "contract": "contracts/gatedExamples/ExampleGatedNFTMinterUpgradeable.sol:ExampleGatedNFTMinterUpgradeable",
            "label": "_value",
            "offset": 0,
            "slot": "0",
            "type": "t_uint256"
          }
        ],
        "numberOfBytes": "32"
      },
      "t_uint256": {
        "encoding": "inplace",
        "label": "uint256",
        "numberOfBytes": "32"
      },
      "t_uint8": {
        "encoding": "inplace",
        "label": "uint8",
        "numberOfBytes": "1"
      }
    }
  }
}