{
  "address": "0x1c18368d2f2FA580890f31676FBb7b2b9a9f51Dd",
  "abi": [
    {
      "inputs": [
        {
          "internalType": "address",
          "name": "_nexeraVerifierAddress",
          "type": "address"
        }
      ],
      "stateMutability": "nonpayable",
      "type": "constructor"
    },
    {
      "stateMutability": "payable",
      "type": "fallback"
    },
    {
      "inputs": [],
      "name": "aavePoolAddress",
      "outputs": [
        {
          "internalType": "address",
          "name": "",
          "type": "address"
        }
      ],
      "stateMutability": "view",
      "type": "function"
    },
    {
      "inputs": [],
      "name": "nexeraVerifierAddress",
      "outputs": [
        {
          "internalType": "address",
          "name": "",
          "type": "address"
        }
      ],
      "stateMutability": "view",
      "type": "function"
    },
    {
      "inputs": [
        {
          "internalType": "address",
          "name": "_token",
          "type": "address"
        },
        {
          "internalType": "uint256",
          "name": "_amount",
          "type": "uint256"
        },
        {
          "internalType": "address",
          "name": "_user",
          "type": "address"
        }
      ],
      "name": "supply",
      "outputs": [],
      "stateMutability": "nonpayable",
      "type": "function"
    },
    {
      "inputs": [
        {
          "internalType": "address",
          "name": "asset",
          "type": "address"
        },
        {
          "internalType": "uint256",
          "name": "amount",
          "type": "uint256"
        },
        {
          "internalType": "address",
          "name": "onBehalfOf",
          "type": "address"
        },
        {
          "internalType": "uint16",
          "name": "referralCode",
          "type": "uint16"
        },
        {
          "internalType": "uint256",
          "name": "deadline",
          "type": "uint256"
        },
        {
          "internalType": "uint8",
          "name": "permitV",
          "type": "uint8"
        },
        {
          "internalType": "bytes32",
          "name": "permitR",
          "type": "bytes32"
        },
        {
          "internalType": "bytes32",
          "name": "permitS",
          "type": "bytes32"
        }
      ],
      "name": "supplyWithPermit",
      "outputs": [],
      "stateMutability": "nonpayable",
      "type": "function"
    },
    {
      "stateMutability": "payable",
      "type": "receive"
    }
  ],
  "transactionHash": "0x5d45acec0d42cd5a6c3248b5393d581e6415def75d051028c6f6a84ac01af5d3",
  "args": [
    "0x072A0C8a66476EA03e1bA804F3A141CFb3fC9211"
  ],
  "numDeployments": 1,
  "solcInputHash": "ae32deb1db46c11cf63bd3a5efe635da",
  "bytecode": "0x60803461007457601f6103fd38819003918201601f19168301916001600160401b038311848410176100795780849260209460405283398101031261007457516001600160a01b0381169081900361007457600080546001600160a01b03191691909117905560405161036d90816100908239f35b600080fd5b634e487b7160e01b600052604160045260246000fdfe6080604052600436101561002c575b361561001f575b61001d6102e9565b005b610027610182565b610015565b6000803560e01c90816302c205f01461007f575080638b2a4df514610076578063a654897b1461006d5763ee567cd90361000e57610068610152565b61000e565b50610068610128565b506100686100fb565b9050346100c7576101003660031901126100c75761009b6100ca565b506100a46100e5565b5060643561ffff8116036100c75760a43560ff8116036100c7575061006861025e565b80fd5b600435906001600160a01b03821682036100e057565b600080fd5b604435906001600160a01b03821682036100e057565b346100e05760603660031901126100e0576101146100ca565b5061011d6100e5565b506101266102e9565b565b50346100e05760003660031901126100e0576000546040516001600160a01b039091168152602090f35b50346100e05760003660031901126100e057602060405173cc6114b983e4ed2737e9bd3961c9924e6216c7048152f35b506000368180378080368173cc6114b983e4ed2737e9bd3961c9924e6216c7045af43d82803e156101b1573d90f35b3d90fd5b90601f8019910116810190811067ffffffffffffffff8211176101d757604052565b634e487b7160e01b600052604160045260246000fd5b908160209103126100e0575180151581036100e05790565b506040513d6000823e3d90fd5b1561021957565b60405162461bcd60e51b815260206004820152601760248201527f55736572206973206e6f742077686974656c69737465640000000000000000006044820152606490fd5b6000805460405163b347e74160e01b81523360048201526102a6929091602091839160249183916001600160a01b03165af19081156102dc575b6000916102ae575b50610212565b6101266102e9565b6102cf915060203d81116102d5575b6102c781836101b5565b8101906101ed565b386102a0565b503d6102bd565b6102e4610205565b610298565b6000805460405163b347e74160e01b815233600482015261032f929091602091839160249183916001600160a01b03165af19081156102dc576000916102ae5750610212565b61012661018256fea26469706673582212203ca3ad45179d1caf5c83e907835b7056ac2090d2eb49a3296d50a167bc56b12c64736f6c63430008100033",
  "devdoc": {
    "kind": "dev",
    "methods": {
      "constructor": {
        "details": "Constructor that sets the Nexera Verifier address.",
        "params": {
          "_nexeraVerifierAddress": "Address of the Nexera Verifier contract."
        }
      },
      "supply(address,uint256,address)": {
        "details": "we add this in addition to the fallback in order to get it in the generated interface",
        "params": {
          "_amount": "Amount of the token to supply.",
          "_token": "Address of the token being supplied.",
          "_user": "Address of the user on whose behalf the supply is made."
        }
      },
      "supplyWithPermit(address,uint256,address,uint16,uint256,uint8,bytes32,bytes32)": {
        "details": "we add this in addition to the fallback in order to get it in the generated interface",
        "params": {
          "amount": "Amount of the asset.",
          "asset": "Address of the asset.",
          "deadline": "Deadline after which the permit is no longer valid.",
          "onBehalfOf": "Address of the user on whose behalf the supply is made.",
          "permitR": "R component of the permit signature.",
          "permitS": "S component of the permit signature.",
          "permitV": "V component of the permit signature.",
          "referralCode": "Referral code."
        }
      }
    },
    "title": "ProxyAavePool",
    "version": 1
  },
  "userdoc": {
    "kind": "user",
    "methods": {
      "supply(address,uint256,address)": {
        "notice": "Delegates the supply function call to the Aave Pool."
      },
      "supplyWithPermit(address,uint256,address,uint16,uint256,uint8,bytes32,bytes32)": {
        "notice": "Delegates the supplyWithPermit function call to the Aave Pool."
      }
    },
    "notice": "This example contract acts as a proxy for interacting with the Aave Pool, integrating with the Nexera entrypoint verifier for gating users.",
    "version": 1
  },
  "storageLayout": {
    "storage": [
      {
        "astId": 5579,
        "contract": "contracts/gatedExamples/ProxyAavePool.sol:ProxyAavePool",
        "label": "nexeraVerifierAddress",
        "offset": 0,
        "slot": "0",
        "type": "t_address"
      }
    ],
    "types": {
      "t_address": {
        "encoding": "inplace",
        "label": "address",
        "numberOfBytes": "20"
      }
    }
  }
}